:1000000005C1000034C1000032C1000030C1000051
:100010002EC100002CC100002AC1000028C1000030
:1000200026C1000024C1000022C1000020C1000040
:100030001EC100001CC100001AC1000018C1000050
:1000400016C1000014C1000012C1000010C1000060
:100050000EC100000CC100000AC100000C94442E27
:1000600006C100000C9463320C94993200C1000068
:10007000FEC00000FCC00000FAC00000F8C0000094
:10008000F6C00000F4C00000F2C00000F0C00000A4
:100090000C94EF320C942533EAC00000E8C0000055
:1000A000E6C00000E4C00000E2C00000E0C00000C4
:1000B000DEC00000DCC00000DAC00000D8C00000D4
:1000C000D6C00000D4C00000D2C000000C947B3326
:1000D0000C94B133CCC000000C9407340C943D3424
:1000E000C6C0000000000A0B02090C0D0E08070331
:1000F00004010000000000000000000000000000FB
:1001000000000000000000000000000000000000EF
:1001100012111000000000000000000000000000AC
:100120000000000000000000000001021020200874
:100130000810204010204080020102010804020142
:1001400001020408102040808040201008040201B1
:10015000800402018040201008040201080402010A
:100160000102040810204080010204081020408091
:1001700005050505070508080808020202020A0A23
:100180000808040404040101010101010101030341
:10019000030303030303040707070C0C0C0C0C0CEC
:1001A0000C0C0202020206060606060606060B0BE9
:1001B0000B0B0B0B0B0B000020002300260029006B
:1001C0002C002F003200000100000301060109018C
:1001D00000002200250028002B002E0031003400F2
:1001E00002010000050108010B01000021002400AC
:1001F00027002A002D003000330001010000040117
:1002000007010A01C2324E33DA33663411241FBEAD
:10021000CFEFD1E2DEBFCDBF00E00CBF13E0A0E026
:10022000B2E0EAE4FAE600E00BBF02C007900D92EC
:10023000A830B107D9F729E0A8E0B3E001C01D92CA
:10024000A630B207E1F711E0C6E0D1E000E006C059
:1002500021970109802FFE010E94F234C230D1079C
:1002600080E00807A9F70E94012B0C942335C8CE23
:10027000CF93DF93882349F0EB0181500E944B2FED
:1002800099838883DF91CF910895FB0111821082B9
:10029000F9CF0F931F938B019C0183E0369527952F
:1002A000179507958A95D1F70F5E1C4F462F47701B
:1002B00021E030E0F90102C0EE0FFF1F4A95E2F79E
:1002C000AF01F80120812423CB010196211102C046
:1002D00090E080E01F910F9108950F931F938B0181
:1002E0009C0183E036952795179507958A95D1F758
:1002F000677081E090E001C0880F6A95EAF7F80125
:10030000EF5EFC4F2081452B31F480958223808362
:100310001F910F910895822BFACFCF92DF92EF9227
:10032000FF92CF93DF936B017C0160E086E3C816F8
:10033000D104E104F10490F486E38C0D0E94A8300E
:10034000E6012196AE01C701B601C7DFCE01DF91FC
:10035000CF91FF90EF90DF90CF9008958C2DEECF4E
:10036000882341F08150682F70E090E080E050E0F9
:1003700040E0B3CF0895611102C00C94A830613001
:10038000E1F362E0FACF662319F061E00C94E43007
:1003900060E0FCCF0E94113121E0019709F020E0DC
:1003A000822F0895CF92DF92EF92FF92CF9388230E
:1003B00051F16A017B01CFEFC80F20E030E0A901C5
:1003C000CB01B6010E94ED2B87FF11C0C701B6011A
:1003D00090580E945E2C9B01AC016C2F70E090E065
:1003E00080E0CF91FF90EF90DF90CF90B2C0C70137
:1003F000B6010E94592C8C2FCF91FF90EF90DF9087
:10040000CF900C946E2FCF91FF90EF90DF90CF9014
:1004100008950F931F938B019C0183E036952795D8
:10042000179507958A95D1F7085F1C4F462F47709F
:1004300021E030E0F90102C0EE0FFF1F4A95E2F71C
:10044000AF01F80120812423CB010196211102C0C4
:1004500090E080E01F910F9108950F931F938B01FF
:100460009C0183E036952795179507958A95D1F7D6
:10047000677081E090E001C0880F6A95EAF7F801A3
:10048000E85FFC4F2081452B31F4809582238083E7
:100490001F910F910895822BFACF2F923F924F9286
:1004A0005F926F927F928F929F92AF92BF92CF9204
:1004B000DF92EF92FF920F931F93CF93DF93D62E8D
:1004C000C72E782E692E49015A01280161E08D2D31
:1004D0000E94A830CD2DDC2D8E010F5F1F4FA8018B
:1004E0006D2D7C2D872D962DB8DF20E030E0A90101
:1004F000C201B7010E94DD2D181664F4C201B701D4
:100500000E945E2C2B01C501B4010E945E2CA20149
:10051000CE0123D0C801DF91CF911F910F91FF90A1
:10052000EF90DF90CF90BF90AF909F908F907F9093
:100530006F905F904F903F902F900895882341F0E7
:100540008150682F70E090E080E050E040E085CF7F
:100550000895862FB9010C946E2F9C01FC01EC517B
:10056000FF4FE491E150E231E0F4F0E08827E454F9
:10057000FD4F8F4F0C94F234CE02D502D802EF0219
:100580000403D102190325032903400355036A0319
:1005900081039603D102AB03C203D70384B58068FD
:1005A00084BD60E0822F0C94E43084B58062F8CF83
:1005B000809180008C7F8260809380008091810098
:1005C000807E8061682B6093810050938700409308
:1005D000860080918000806880938000E2CF8091C7
:1005E00080008C7F82608093800080918100807E7B
:1005F0008061682B60938100509387004093860050
:10060000809180008062E8CF809180008C7F826042
:100610008093800080918100807E8061682B609350
:10062000810050938700409386008091800088600D
:10063000D3CF8091B00080688093B0008091B100EA
:10064000887F682B6093B100ACCF8091B00080624E
:10065000F3CF809190008C7F826080939000809196
:100660009100807E8061682B609391005093970089
:10067000409396008091900080688093900091CF85
:10068000809190008C7F8260809390008091910097
:10069000807E8061682B6093910050939700409317
:1006A0009600809190008062E8CF809190008C7FCE
:1006B00082608093900080919100807E8061682BA1
:1006C0006093910050939700409396008091900022
:1006D0008860D3CF8091A0008C7F82608093A0003F
:1006E0008091A100807E8061682B6093A10050936F
:1006F000A7004093A6008091A00080688093A0008E
:1007000050CF8091A0008C7F82608093A000809168
:10071000A100807E8061682B6093A1005093A700A8
:100720004093A6008091A0008062E8CF8091A00055
:100730008C7F82608093A0008091A100807E806188
:10074000682B6093A1005093A7004093A60080916E
:10075000A0008860D3CF809120018C7F826080933D
:10076000200180912101807E8061682B60932101AE
:100770005093270140932601809120018068809347
:1007800020010FCF809120018C7F82608093200117
:1007900080912101807E8061682B609321015093BC
:1007A000270140932601809120018062E8CF80914B
:1007B00020018C7F82608093200180912101807EC6
:1007C0008061682B6093210150932701409326019B
:1007D000809120018860D3CF90E080E008950F934E
:1007E0001F93009709F489C06115710509F485C04C
:1007F00000914A0210914B0220914C0230914D021F
:100800000E3F1F4F2F4F3F4F09F068C04FEF5FEF74
:10081000BA0140934A0250934B0260934C0270938A
:100820004D0240914A0250914B0260914C027091EE
:100830004D02DC011296ED91FC9180819181A281A3
:10084000B3818093960390939703A0939803B093FA
:10085000990384819581A681B781809392039093B7
:100860009303A0939403B093950380859185A2850B
:10087000B38580938E0390938F03A0939003B093DE
:10088000910384859585A685B78580938A03909387
:100890008B03A0938C03B0938D0310928603109268
:1008A000870310928803109289030E94F00D85E15E
:1008B0009EE090931B0380931A0390931D038093F3
:1008C0001C030E94DF0C009731F421E030E03093EC
:1008D0009B0320939A031F910F91089500914A0260
:1008E00010914B0220914C0230914D02DB010D938F
:1008F0001D932D933C93139794CF8FEF9FEFEBCFE6
:100900008F929F92AF92BF92CF92DF92EF92FF921F
:100910001F93CF93DF934B015C0110919D0382E005
:1009200090E090939B0380939A0381149104A10417
:10093000B10441F480919D03811104C080919C0316
:10094000C1E08111C0E0C12CD12C760180919D03C2
:10095000811106C080919C03811102C0CC23D9F083
:1009600083E090E090939B0380939A03CC2381F1E2
:10097000CCE9DFEF111102C00E947911CE01DF91A5
:10098000CF911F91FF90EF90DF90CF90BF90AF90ED
:100990009F908F9008956AE070E080E090E00E9460
:1009A000B32E80E1C80E87E2D81EE11CF11C8FEF48
:1009B00088169806A806B80631F0C1E08C149D048C
:1009C000AE04BF0408F0C0E080E00E94130DBECF6B
:1009D000D0E0C0E0CFCFCF92DF92EF92FF920F93A3
:1009E0001F93CF93DF938F3F910511F008F050C014
:1009F00020919A0330919B032330310539F02091E7
:100A00009A0330919B032130310531F424E030E02A
:100A100030939B0320939A036A017B01EC0182309F
:100A20009105A0F011E0AE01C701B601C7D7AB0137
:100A3000BC01CE011123F9F0DF91CF911F910F91ED
:100A4000FF90EF90DF90CF900C94A2138C01000FD9
:100A5000111F065E1C4FD8018D919C91892B11F3BB
:100A60000E94AC130297F1F6D801ED91FC91CE01F2
:100A70001995182FD8CF0E94C41390E080E0DF9121
:100A8000CF911F910F91FF90EF90DF90CF9008953D
:100A90008FEF9FEFF4CF80E0C6C7CF93DF9386E060
:100AA00090E090939B0380939A030E946C0DEC015D
:100AB000EAE1F3E084E0DF011D928A95E9F70E9404
:100AC000111110929B0310929A03CE01DF91CF91E6
:100AD000089580919C030895809185030895609303
:100AE0004A0270934B0280934C0290934D0290E027
:100AF00080E008952F923F926F927F928F929F9203
:100B0000AF92BF92CF92DF92EF92FF920F931F931B
:100B1000CF93DF9300D000D0CDB7DEB71B013C01EF
:100B200089014E835D8320E030E0A901B8018E8108
:100B30009D810E94ED2B811125C020E030E0A901AC
:100B4000B101C3010E94ED2B882309F467C0610144
:100B50007301B601C70126960FB6F894DEBF0FBE2B
:100B6000CDBFDF91CF911F910F91FF90EF90DF905C
:100B7000CF90BF90AF909F908F907F906F903F905D
:100B80002F900895B101C30111D6882349F0C09078
:100B9000F808D090F908E090FA08F090FB08D9CF57
:100BA000B8018E819D8102D68111F1CFB101C301BF
:100BB000B8D58111ECCF20E030E0A901B101C3012B
:100BC0000E94ED2B81110BC098014E815D8160E088
:100BD00070E0CB010E94F12B6B017C01BACFB80110
:100BE0008E819D819ED58823E9F020E030E0A90127
:100BF000B8018E819D810E94ED2BF82EFF1CFF24F1
:100C0000FF1C20E030E0A901B101C3010E94ED2BDF
:100C1000881F8827881FF81609F499CF6801EE808D
:100C2000FD8097CF98014E815D81B101C3010E9483
:100C3000E12C6B017C01BB24B39420E030E0A901DE
:100C40000E94ED2B8111B12C20E030E0A901B6010A
:100C5000C7010E94ED2B882309F447C0B8018E819B
:100C60009D810E94C72C9B01AC01B8018E819D81A2
:100C70000E94DD2D1816CCF598014E815D81B101E1
:100C8000C3010E94F12B4B015C01E894B7F820E00E
:100C900030E040E05FE3C501B4010E94892B0E946F
:100CA000C72C9B01AC01C501B4010E94882B9B019C
:100CB000AC015F7729833A834B835C8320E030E08B
:100CC00040E054E3C501B4010E94E12D9B01AC0159
:100CD000BB24B39469817A818B819C810E94DD2D34
:100CE00018160CF0B12C81E0B82620E030E0A90104
:100CF000BB2031F0B8018E819D810E94E12D6CCF27
:100D0000B101C3010E94ED2BB82EBB1CBB24BB1C40
:100D100020E030E0A901B8018E819D810E94ED2B79
:100D2000881F8827881FB81609F413CF98014E81B1
:100D30005D81B601C7010E94892B4ECF8F929F9291
:100D4000AF92BF92CF92DF92EF92FF92CF93DF9359
:100D50008091E9088150823008F012C183E08093CD
:100D6000E9088091E8088150823008F00BC183E0E7
:100D70008093E8088091E7088150823008F004C130
:100D800083E08093E7088091E6088150823008F084
:100D9000FDC083E08093E608C0900902D0900A026B
:100DA000E0900B02F0900C02A70196016091990867
:100DB00070919A0880919B0890919C080E94ED2B5D
:100DC000882341F0C0929908D0929A08E0929B083B
:100DD000F0929C0867E370E080E090E05ADA90932C
:100DE00098088093970843E050E06CE878E040DA98
:100DF0002091450230914602A0918C08B0918D0857
:100E00000E94FA34609388087093890880938A0856
:100E100090938B080E948A2C20E030E040E856E353
:100E20000E94E12D6B017C0166E070E080E090E0C3
:100E3000F0DAEC019093CC088093CB0820E030E00E
:100E40004FE753E4C701B6010E94ED2B181634F4A6
:100E5000C12CD12C9FE7E92E93E4F92E20E030E05D
:100E600048E454E4C701B6010E94E12D20E030E0DF
:100E70004FE753E40E94F12BAB01BC017058CE0147
:100E800091DAC0900D02D0900E02E0900F02F09027
:100E90001002A70196016091B1087091B20880918B
:100EA000B3089091B4080E94ED2B882341F0C092C2
:100EB000B108D092B208E092B308F092B40882E090
:100EC00069DA80939008882309F469C18091EB085E
:100ED000811113C08091210290912202A0912302DE
:100EE000B09124028093D5089093D608A093D70898
:100EF000B093D80881E08093EB082091D508309119
:100F0000D6084091D7085091D80860911D02709181
:100F10001E0280911F02909120020E94892B6B017A
:100F20007C01C0928408D0928508E0928608F092F5
:100F30008708209125023091260240912702509186
:100F400028020E94DD2D87FD23C08091150290911B
:100F50001602A0911702B09118028093D5089093C1
:100F6000D608A093D708B093D8088091E9088823C1
:100F7000C1F0833009F410C1082E000C990B13C086
:100F800080E0EDCE80E0F4CE80E0FBCE80E002CFCA
:100F9000C092D508D092D608E092D708F092D8082F
:100FA000E4CF82E090E08093E908C0908408D0907C
:100FB0008508E0908608F090870880900002909065
:100FC0000102A0900202B0900302C1E0A5019401C9
:100FD000C701B6010E94DD2D87FDC0E0A501940187
:100FE000C701B6010E94DD2D87FD32C080917F08C8
:100FF000813071F12091D1083091D2084091D3080D
:101000005091D40860912D0270912E0280912F0290
:10101000909130020E94892B609380087093810820
:101020008093820890938308209135023091360294
:1010300040913702509138025DDD6093D108709382
:10104000D2088093D3089093D40884E08093E80872
:10105000C0937F08C0908008D0908108E0908208FB
:10106000F090830820E030E04FE753E4C701B60179
:101070000E94ED2B181634F4C12CD12C8FE7E82EEA
:1010800083E4F82E65E070E080E090E0C2D9EC01E6
:101090009093C4088093C30820E030E0A901C70101
:1010A000B6010E94DD2D87FF03C0C12CD12C760133
:1010B00020E030E048E454E4C701B6010E94E12D8D
:1010C00020E030E04FE753E40E94F12BAB01BC017C
:1010D0007058CE0167D9C0901102D0901202E090F2
:1010E0001302F0901402A70196016091A508709177
:1010F000A6088091A7089091A8080E94ED2B88234C
:1011000041F0C092A508D092A608E092A708F092FC
:10111000A80883E03FD980938F08882309F4BBC0D7
:101120008091EA08811113C080914102909142029E
:10113000A0914302B09144028093CD089093CE08D1
:10114000A093CF08B093D00881E08093EA08209163
:101150003D0230913E0240913F0250914002609129
:10116000CD087091CE088091CF089091D0080E9450
:10117000892B6093CD087093CE088093CF0890930D
:10118000D0088091E708882369F0833009F480C093
:10119000082E000C990B08C081E090E004CF10925B
:1011A000EB0803CF82E090E08093E708C090CD0881
:1011B000D090CE08E090CF08F090D0088090040244
:1011C00090900502A0900602B0900702C1E0A50130
:1011D0009401C701B6010E94DD2D87FDC0E0A50185
:1011E0009401C701B6010E94DD2D87FD16C08091D4
:1011F0007E08813091F09091E5088091490298270E
:1012000081E020910802921708F480E080938E0814
:101210008093E50884E08093E608C0937E0860919F
:101220008E0887E0B0D860915C0370915D03809177
:101230005E0390915F036F5F7F4F8F4F9F4F60936F
:101240005C0370935D0380935E0390935F030E9441
:101250008A2C9B01AC0160916003709161038091C5
:101260006203909163030E94E12D60935803709391
:10127000590380935A0390935B03DF91CF91FF90C2
:10128000EF90DF90CF90BF90AF909F908F90089598
:1012900081E090E089CF1092EA0888CF4F925F9268
:1012A0006F927F92AF92BF92DF92EF92FF920F9375
:1012B0001F93CF93DF9384E090E0FCD1E2E4F3E06E
:1012C00080E090E0A0E8BFEB82A393A3A4A3B5A322
:1012D0008DEC9CECACECBDE3868F978FA0A3B1A303
:1012E00089EB9BE5A9E8B0E284839583A683B78365
:1012F00084EA9AEAA1E0B9E780879187A287B38759
:1013000084E997E4ACE9B4E684879587A687B78734
:1013100084E592E8A1E7B5E9808B918BA28BB38B32
:10132000A6E3B3E0B383A283EEE1F3E01196FC936E
:10133000EE9384E792E09183808393838283958305
:101340008483978386839187808793878287958715
:10135000848789EE98E097878687918B808B88EECB
:1013600098E0938B828B87EE98E0958B848B86EE4A
:1013700098E0978B868B86E593E015969C938E93E9
:10138000149786E493E013969C938E93129788E5C6
:1013900093E017969C938E931697EEE7F8E0DD2482
:1013A000D394D182D082C1E9D8E080E0A82E82E037
:1013B000B82EF50181A192A1A3A1B4A18093D50873
:1013C0009093D608A093D708B093D808E0E8F8E047
:1013D000D50159964D915D916D917C915C974483B7
:1013E000558366837783D1964D915D916D917C9104
:1013F000D4974093D1085093D2086093D308709348
:10140000D40899964D915D916D917C919C97408304
:10141000518362837383D9964D915D916D917C91D7
:10142000DC974CAF5DAF6EAF7FAF80914802809389
:10143000E508809147028687188219968D919D91C3
:101440000D90BC91A02D88879987AA87BB87412CD6
:10145000512C3201439449825A826B827C8267E329
:1014600070E080E090E00E948D019F838E83DD829A
:101470001CAA4DAA5EAA6FAA78AEE12CF12C08E452
:1014800014E420E030E040E85FE366E070E080E0F4
:1014900090E003D89BAF8AAFD9AE188EF501858551
:1014A0009685A785B08988A399A3AAA3BBA3498ED3
:1014B0005A8E6B8E7C8E60E082E00E94BB01DD8ED6
:1014C0001CA64DA65EA66FA678AA20E030E040E8F4
:1014D0005FE365E070E080E090E00E944D029BAB2E
:1014E0008AABD9AA1C86F50181899289A389B4891E
:1014F0008C8B9D8BAE8BBF8B4D865E866F86788A7C
:1015000060E083E00E94BB01D98A1CA24DA25EA2CA
:101510006FA278A661E087E00E94BB01D9A6DF91A7
:10152000CF911F910F91FF90EF90DF90BF90AF9000
:101530007F906F905F904F900895809191088111F6
:101540001FC081E080939108809192089091930848
:10155000A0919408B09195080197A105B10581F477
:1015600080919608882361F067E370E080E090E066
:101570000E94490190939808809397080E94B001B7
:101580008091C50881112FC081E08093C5088091AA
:10159000C6089091C708A091C808B091C9080197E2
:1015A000A105B10501F58091CA088823E1F066E044
:1015B00070E080E090E00E9409029093CC08809354
:1015C000CB0840E050E060E070E80E94D20166E0A5
:1015D00070E080E090E00E9409029093CC08809334
:1015E000CB080E949E028091A908811103C081E06E
:1015F0008093A9088091BD0881112FC081E080935C
:10160000BD088091BE089091BF08A091C008B0911C
:10161000C1080197A105B10501F58091C208882391
:10162000E1F065E070E080E090E00E9409029093B4
:10163000C4088093C30840E050E060E070E80E9476
:10164000D20165E070E080E090E00E940902909392
:10165000C4088093C3080E949E0280919D08811156
:1016600003C081E080939D088091B508811103C07B
:1016700081E08093B508089560E070E080E89FE71E
:10168000089560E070E080E89FE7089560E070E012
:1016900080E89FEF089560E070E080E89FEF089594
:1016A00060E070E080EC9FEF089560E070E080EC17
:1016B0009FEF0895F5DF6093F8087093F908809321
:1016C000FA089093FB08F1DF6093EC087093ED0843
:1016D0008093EE089093EF08CFDF6093F408709347
:1016E000F5088093F6089093F708CBDF6093F00835
:1016F0007093F1088093F2089093F308C7DF60932A
:10170000FC087093FD088093FE089093FF08C3DFE8
:101710006093000970930109809302099093030973
:101720000895CF92DF92EF92FF92CF936B017C01ED
:10173000AC019B016091F4087091F5088091F60866
:101740009091F7080E94ED2BC1E0882371F0A7016A
:1017500096016091FC087091FD088091FE089091BF
:10176000FF080E94ED2B8111C0E08C2FCF91FF90DC
:10177000EF90DF90CF9008950F931F938B019C0102
:101780000027112720783F770115110520483F4792
:1017900049F4AB01BC016F77772781E0452B462BDD
:1017A000472B09F480E01F910F910895E5CF4F92E8
:1017B0005F926F927F928F929F92AF92BF92CF92E1
:1017C000DF92EF92FF920F931F93F894409075036E
:1017D000509076036090770370907803C09069030F
:1017E000D0906A03E0906B03F0906C03452B09F0F6
:1017F000A6C09B01AC0124193509460957092901E6
:101800003A0100917103109172032091730330919A
:10181000740348015901840C951CA61CB71C801642
:101820009106A206B306A0F400916D0310916E0319
:1018300020916F03309170030F5F1F4F2F4F3F4F69
:1018400000936D0310936E0320936F033093700326
:101850008092710390927203A0927303B09274030A
:1018600000916D0310916E0320916F03309170030E
:101870008092790390927A03A0927B03B0927C03CA
:1018800000937D0310937E0320937F0330938003A6
:101890006093750370937603809377039093780336
:1018A000A301920160EA76E881E090E00E94C134F1
:1018B0006C0D7D1D8E1D9F1D6093690370936A03DF
:1018C00080936B0390936C0300914A0210914B023A
:1018D00020914C0230914D020F3F1F4F2F4F3F4F31
:1018E000F1F000914A0210914B0220914C0230918C
:1018F0004D020E3F1F4F2F4F3F4F89F0C0904A02BD
:10190000D0904B02E0904C02F0904D0221E08C14FC
:101910009D04AE04BF0408F420E02093850378946E
:101920001F910F91FF90EF90DF90CF90BF90AF90FD
:101930009F908F907F906F905F904F9008954B0194
:101940005C0184189508A608B708A3019201261B1C
:10195000370B480B590B6415750586059705E0F0A4
:1019600082169306A406B50640F420E030E0A901F3
:1019700081149104A104B104A1F460EA76E881E045
:1019800090E00E94C134A7019601261B370B480B3B
:10199000590BCA01B901C3CF82169306A406B50636
:1019A00060F7A501940160EA76E881E090E00E948A
:1019B000C1346C0D7D1D8E1D9F1DB1CFF8CECF9310
:1019C000DF9300D01F92CDB7DEB71C821B821A8234
:1019D0001982109281031092820310928303109255
:1019E0008403BE016F5F7F4FCE0103960E94D12911
:1019F00069817A818B819C810E94C122009761F468
:101A0000BE016F5F7F4FCE0103960E94DD29698181
:101A10007A818B819C812ED50F900F900F900F9023
:101A2000DF91CF910895FF920F931F93CF93DF9390
:101A3000082F60E070E0CB010E94B32EFF24F394E6
:101A40000E94AA21EC01892B89F010E0CE3F8FEF94
:101A5000D80769F0002361F160E070E0CB010E94DB
:101A6000B32E81E090E0892B59F322C011E025D5F7
:101A7000EC01892B21F0CE3F8FEFD80759F71111D8
:101A80001EC011E0229609F410E00E945A21EC01D8
:101A9000892B21F0CE3F8FEFD807E1F6111111C04D
:101AA00011E0CE3F8FEFD80709F410E001110BC011
:101AB000CE01DF91CF911F910F91FF90089511E01A
:101AC000E4CF11E0F3CF60E070E0CB010E94B32ED1
:101AD0001F25812F90E0C7CFCF93DF93809185039F
:101AE000882321F060E070E0CB014CD635D6D0E001
:101AF000C0E0892B71F06AE070E080E090E00E9425
:101B0000B32E81E090DF28D62196C03D27E0D20792
:101B100081F727D60E94152310929D0310929C03F3
:101B200010929603109297031092980310929903C3
:101B300010929203109293031092940310929503C3
:101B400010928E0310928F031092900310929103C3
:101B500010928A0310928B0310928C0310928D03C3
:101B600010928603109287031092880310928903C3
:101B70004EEF5FEF6FEF7FEF40934A0250934B02BF
:101B800060934C0270934D0210928503E9E7F3E0F5
:101B900028E0DF011D922A95E9F710927503109253
:101BA00076031092770310927803109271031092CB
:101BB0007203109273031092740310926D031092CB
:101BC0006E0310926F0310927003109269031092CB
:101BD0006A0310926B0310926C03DF91CF9108950A
:101BE0001092A9031092AA031092AB031092AC03B7
:101BF0001092A8038091B1039091B2039093A70330
:101C00008093A6031092A5031092A4031092A00340
:101C10001092A1031092A2031092A3031092AE039C
:101C20001092AD0390E080E00895CF92DF92EF92A2
:101C3000FF920F931F93CF938C01892B09F055C00E
:101C40002091B1033091B2038091A6039091A70334
:101C50004091B1035091B2035093A7034093A60360
:101C60002817390781F01092A5031092A40310924F
:101C7000A0031092A1031092A2031092A30310924A
:101C8000AE031092AD038091B1039091B20301971E
:101C900061F58091AD039091AE03892B21F4809181
:101CA0004E02811112C08091AD039091AE03019755
:101CB000E1F48091A0039091A103A091A203B091BF
:101CC000A3030197A105B10581F41092A00310921E
:101CD000A1031092A2031092A30310924E0282E07D
:101CE00090E09093AE038093AD038091B103909107
:101CF000B203019709F01CC18091C7039091C803FA
:101D00008017910709F014C18091C3039091C40317
:101D1000A091C503B091C603009709F409C12091B1
:101D2000C20321110DC04091C3035091C4036091BF
:101D3000C5037091C603452B462B472B09F4F8C009
:101D40002091AD033091AE032230310509F0F0C08F
:101D50002091A4032111ECC0FC01C080D180E2805D
:101D6000F3808091A803882309F4D3C08091B40341
:101D70009091B503892B09F4FDC02091B4033091F3
:101D8000B50381E02230310509F080E02091B403F1
:101D90003091B503C1E02130310549F02091B40301
:101DA0003091B503C1E02230310509F0C0E088234D
:101DB00009F456C02091BE033091BF034091C00387
:101DC0005091C103C701B6010E94DD2D87FD14C0EB
:101DD0002091BE033091BF034091C0035091C103D5
:101DE0006091A9037091AA038091AB039091AC0319
:101DF0000E94ED2B87FD22C02091BE033091BF03CE
:101E00004091C0035091C103C701B6010E94DD2D6E
:101E1000181634F52091BE033091BF034091C003E2
:101E20005091C1036091A9037091AA038091AB0303
:101E30009091AC030E94ED2B811112C08091B603EA
:101E40009091B703A091B803B091B903892B8A2B65
:101E50008B2B19F481E08093A50381E08093A40388
:101E6000CC2309F456C02091BE033091BF034091AA
:101E7000C0035091C103C701B6010E94ED2B87FF3B
:101E800014C02091BE033091BF034091C003509114
:101E9000C1036091A9037091AA038091AB03909153
:101EA000AC030E94DD2D87FF22C02091BE0330913C
:101EB000BF034091C0035091C103C701B6010E9406
:101EC000ED2B811126C02091BE033091BF034091BC
:101ED000C0035091C1036091A9037091AA0380913E
:101EE000AB039091AC030E94DD2D181694F4809101
:101EF000B6039091B703A091B803B091B903892BB1
:101F00008A2B8B2B19F481E08093A50381E08093C9
:101F1000A40381E09091A403911180E08093A80331
:101F2000C092A903D092AA03E092AB03F092AC0353
:101F3000012B09F067C18091AD039091AE03892B0D
:101F4000D9F41092B3031092A40380914E02882317
:101F500079F082E090E09093AE038093AD0310920D
:101F60004E022091B1033091B20381E0232BE9F0BE
:101F700080E01BC081E00ACF10924E028091B30333
:101F8000882349F01092A5031092AE031092AD037E
:101F90001092B303EDCF8091B1039091B203892BDE
:101FA000E1F08091A4031092A4032091AD0330913D
:101FB000AE032230310509F45EC088F421153105E5
:101FC00009F448C02130310509F4F3C01092A5038B
:101FD0001092A4031092B30338C081E0E6CF2330FF
:101FE000310509F4B1C02430310581F74091A003D7
:101FF0005091A1036091A2037091A3034115510573
:102000006105710561F04150510961097109409301
:10201000A0035093A1036093A2037093A303409184
:10202000A0035091A1036091A2037091A303452BDB
:10203000462B472BD9F42091AF033091B0032130C8
:10204000310509F046C01092A5031092AE0310921C
:10205000AD030CC080914E02882341F082E090E0F5
:102060009093AE038093AD0310924E0210929E03A4
:102070008091A503CEC08823C9F38091B6039091C7
:10208000B703A091B803B091B903181619061A0640
:102090001B060CF07DC08091B1039091B2030197B3
:1020A00009F076C08091B6039091B703A091B80370
:1020B000B091B9038093A0039093A103A093A203CE
:1020C000B093A30383E090E09093AE038093AD03BD
:1020D000CDCF4091BA035091BB036091BC03709186
:1020E000BD03452B462B472BA9F01092A5038091E9
:1020F000BA039091BB03A091BC03B091BD03809340
:10210000A0039093A103A093A203B093A30381E043
:1021100090E0DACF882399F080914F02909150029D
:10212000A0915102B09152028093A0039093A10319
:10213000A093A203B093A30384E090E0C5CF1092D4
:10214000A50382E090E0C0CF8091A0039091A1030D
:10215000A091A203B091A3030097A105B10559F086
:102160000197A109B1098093A0039093A103A093C3
:10217000A203B093A3038091A0039091A103A09127
:10218000A203B091A303892B8A2B8B2B09F06ECF6E
:1021900080914F0290915002A0915102B091520251
:1021A000892B8A2B8B2B09F44ECF81E08093A503DA
:1021B000B3CF4091A0035091A1036091A20370910D
:1021C000A303411551056105710561F041505109A5
:1021D000610971094093A0035093A1036093A20386
:1021E0007093A3034091A0035091A1036091A203B7
:1021F0007091A303452B462B472B09F037CF811154
:10220000C7CF9FCF80919E03882309F431CF80915F
:102210009F03CF911F910F91FF90EF90DF90CF9090
:1022200008951092A9031092AA031092AB03109282
:10223000AC031092A8031092AE031092AD0310925B
:10224000A7031092A6031092C8031092C70310921E
:10225000A5031092A4031092A0031092A103109260
:10226000A2031092A30310929F0310929E03109258
:10227000C3031092C4031092C5031092C6031092B8
:10228000C2031092BE031092BF031092C0031092BB
:10229000C10388EE93E0A0E0B0E080934F029093FA
:1022A0005002A0935102B09352021092BA031092BE
:1022B000BB031092BC031092BD031092B6031092A0
:1022C000B7031092B8031092B9031092B50310929D
:1022D000B40381E080934E021092B3031092B203D4
:1022E0001092B1031092B0031092AF0390E080E01F
:1022F00008958091B1039091B203892B19F58091D3
:102300004E02882351F08091B303811106C081E011
:1023100080939F0380939E0308952091B30330918F
:102320004E0281E090E0332311F090E080E030E055
:1023300082239323892B21F010929F0381E0EACF1F
:1023400010929E03089582E090E0FA0191838083C9
:102350008FEF9FEF0895CF93DF93EA01009711F07D
:102360000E9435241982188290E080E0DF91CF919D
:102370000895DB01009719F48FEF8C9308952EEFE9
:102380002C93FC013F96EF30F10508F034C088270C
:10239000E353FE4E8F4F0C94F234F911F711F511FF
:1023A000F311F111ED11EF11EB11E911E711E41146
:1023B000E011DC11E211FB1180E311968C9308957A
:1023C00089E2FBCF82E2F9CF11961C92089583E255
:1023D000F4CF81E2F2CF81E1F0CF87E2EECF8AE263
:1023E000ECCF80E1EACF84E2E8CF88E2E6CF86E274
:1023F000E4CF81E3E2CF80E2E0CF8091D5039091FA
:10240000D60308959093D6038093D50308958091C1
:10241000D40308959091D403892B8093D403089515
:10242000982F90958091D40389238093D4030895A5
:102430008091D30308958091D1039091D2030895A0
:102440006115710559F0FB0130E020E070E060E0BB
:102450002417350719F06115710511F0CB010895A6
:10246000A081B181A817B90709F4BF012F5F3F4FC1
:102470003696EECF8091D70381111CC060D266D210
:102480009093CA038093C9030E94411C0E94531C6D
:102490009093CE038093CD030E94C2200E94C92056
:1024A0009093CC038093CB0381E08093D70390E09B
:1024B00080E0089584EF9FEF08958F929F92AF92EE
:1024C000BF92CF92DF92EF92FF920F931F93CF9321
:1024D000DF9300D000D000D01F92CDB7DEB71A86B0
:1024E000198618861F821E821D821C821B821A82F8
:1024F00019828091D70307EF1FEF882309F49CC04E
:102500008E010D5F1F4F9E012B5F3F4FAE01495F54
:102510005F4FBE01675F7F4F90E080E00E944622E0
:102520008C01009721F00596029708F0DBC0298501
:102530003A852115310509F402C1ED80FE804B81F9
:102540005C81B701640F751F8F8198858617970787
:1025500008F4F5C0E20EF31ED7019C91903C09F0FF
:102560007FC04230510508F47BC011968C91409198
:10257000D5035091D603452B09F49CC0913F08F038
:1025800071C02CE1290F2D3008F48BC02DE2290FEA
:10259000203108F489C0903C21F48150823008F445
:1025A00083C088E3890F8B3008F481C099EBC92E72
:1025B00091E1D92EE3EAF1E16D817E81AE014F5FB9
:1025C0005F4F89859A8519955C01C114D104A1F1E9
:1025D00089809A808114910479F18B819C8188157E
:1025E000990508F487C010E000E04B815C8170E041
:1025F00060E0C7010E941C3501151105E9F449810D
:102600005A8169857A858D819E81680F791FC50100
:10261000F6011995E980FA800D811E812F81388598
:1026200049855A856FEF7FEF81E090E00E94E121BC
:102630008C01892B09F056C0C8012A960FB6F89470
:10264000DEBF0FBECDBFDF91CF911F910F91FF90E5
:10265000EF90DF90CF90BF90AF909F908F900895B4
:1026600080E085CF30E020E0220F331FF901E753EF
:10267000FC4F0190F081E02D309709F497CF892F1E
:1026800090E01995009709F491CFDC011296ED9135
:10269000FC9113971496CD90DC90309709F08CCF75
:1026A0001FC021E030E0E0CF22E030E0DDCF23E0CA
:1026B00030E0DACFD12CC12CEBEAF1E19F3F09F0F9
:1026C0007BCFE091C903F091CA03309721F4C9018F
:1026D00004EF1FEF0CC08FEF90E019950097A9F65B
:1026E00004EF1FEF89859A85009709F4A5CF0E9412
:1026F0003524A2CF0E9410238C0189859A850E94DF
:10270000352470E060E0C4010E94A92298878F837D
:102710000E94DE219E838D836F817885611571050E
:1027200059F0C8010E94C1259A87898706EF1FEFDB
:10273000892B09F058CF59CF08EF1FEF56CF08EF7C
:102740001FEFD0CF2091D703222319F020E00C9463
:10275000581C87EF9FEF08958091D5039091D60381
:1027600008950E94CE200E942820F5D0E9ECF3E0E5
:1027700088E0DF011D928A95E9F71092D70390E077
:1027800080E008950C94861E21E040E050E0BA01FC
:102790000C94581C86E090E0FA019183808390E0CD
:1027A00080E0089547E050E067E772E049CEDF92AD
:1027B000EF92FF920F931F93CF93DF938A01EC0167
:1027C000C60FD71FE090DB03F090DC03D9800E9496
:1027D000F822D816190678F082E090E0F80191838B
:1027E00080838EEF9FEFDF91CF911F910F91FF902C
:1027F000EF90DF900895EF2841F482E090E0F80137
:102800009183808384EF9FEFEECF89818093DA03F9
:1028100090E00196F8019183808390E080E0E3CF1F
:10282000CF93DF93EA010E94371F882321F00E9493
:1028300005230E94381F82E090E0998388838BEF04
:102840009FEFDF91CF910895CF93DF93EB0186E067
:10285000FB0111928A95E9F78FEF8883D8DD898390
:10286000E7DD8A83E8DD9D838C83DF91CF91089536
:10287000CF93DF93EA010E943A1F811109C082E0E1
:1028800090E09983888385EF9FEFDF91CF91089542
:1028900090E080E0B7DD81E090E09983888390E06C
:1028A00080E0F3CF0F931F93CF93DF93EA018C0166
:1028B000060F171F0E943A1F81110BC082E090E0A3
:1028C0009983888385EF9FEFDF91CF911F910F91BF
:1028D0000895F8018181823038F082E090E0998398
:1028E00088838EEF9FEFF0CF81E090E08BDD88E072
:1028F00090E09983888390E080E0E6CFCF93DF93E8
:102900000097D1F4EB01FB01329686E0DF011D92C6
:102910008A95E9F78FEF888385E089831A820E9480
:10292000F8228B830E94F7229D838C8381E08E8323
:102930008F83DF91CF910895DF91CF911ACD82EDF2
:1029400093E19093D9038093D80308958091D8039D
:102950009091D90308951092D9031092D803089545
:102960008091DB039091DC030895411105C061154E
:1029700071058105910561F06093DB037093DC03C1
:102980008093DD039093DE034093DF0381E008959D
:1029900080E00895FF920F931F93CF93DF938A01F6
:1029A000EC01C60FD71FF9800E94F822F81619060D
:1029B00068F082E090E0F801918380838EEF9FEFD2
:1029C000DF91CF911F910F91FF9008956C817D81D0
:1029D0008E819F814B81C9DF811108C082E090E028
:1029E000F8019183808384EF9FEFEACF8981809300
:1029F000DA0390E00196F8019183808390E080E013
:102A0000DFCFCF93DF93EA01FC01E60FF71F64816C
:102A10007581868197814381A8DF811109C082E099
:102A200090E09983888384EF9FEFDF91CF910895A1
:102A300081E090E09983888390E080E0F6CFEBED31
:102A4000F3E04081518162817381480F511D611D06
:102A5000711D40835183628373830895CF93C09126
:102A6000DA034C2F50E06091DB037091DC03019698
:102A70000E9413358C2FE3DF1092DA03CF91089573
:102A8000009799F48091DB039091DC032FEFFB0119
:102A90002083892B59F02091DA0330E02F5F3F4FDC
:102AA0002417350719F4CB01D9CF63CC08950097CB
:102AB00099F48091DB039091DC032FEFFB012083DD
:102AC000892B59F02091DA0330E02F5F3F4F241714
:102AD000350719F4CB01C2CF4CCC089523E1AC01EA
:102AE000249FC001259F900D1124E091E403F091F3
:102AF000E503E80FF91F238134812250310981E079
:102B00002230310508F080E008950F931F93CF9392
:102B1000DF930091E6031091E703D0E0C0E080E08E
:102B20000C171D0749F491E0811190E0892FDF9186
:102B3000CF911F910F9108958111F5CFCE01CEDF76
:102B40002196EECFA091E403B091E503109729F10F
:102B50002091E6033091E70382179307F0F453E1E5
:102B6000589F9001599F300D1124A20FB31FED9172
:102B7000FC911197309789F012968C91681768F440
:102B80008BE0689FE00DF11D112480819181892BDC
:102B900021F081E09281491708F080E008959C01BE
:102BA00043E1429FC001439F900D1124E091E40353
:102BB000F091E503E80FF91F8385823091F481E0FD
:102BC00090E06581768140915302509154026417E0
:102BD000750711F490E080E0892B19F081E0232B38
:102BE00009F080E00895EF92FF920F931F93CF9327
:102BF000DF93EA01FC01E60FF71F02811381E480F5
:102C0000F5804F2D6E2DC8019DDF81110DC082E032
:102C100090E0998388838EEF9FEFDF91CF911F9192
:102C20000F91FF90EF900895C80158DF882339F085
:102C300082E090E09983888388EF9FEFEECF109336
:102C40005A0200935902E0925B02F0925C0281E02A
:102C500090E09983888390E080E0DFCFCF92DF928D
:102C6000EF92FF920F931F93CF93DF937A01EC01C2
:102C7000C60FD71FC0905902D0905A0200915B0234
:102C800010915C02412F602FC6015CDF811110C0E2
:102C900082E090E0F701918380838AEF9FEFDF91DC
:102CA000CF911F910F91FF90EF90DF90CF900895FB
:102CB000C60114DF882341F082E090E0F7019183A0
:102CC000808388EF9FEFEBCF4C815D816E817F81A8
:102CD0009A8189818F3F41F082E090E0F7019183F2
:102CE00080838EEF9FEFDBCFE3E1EC9D9001ED9DC4
:102CF000300D1124E091E403F091E503E20FF31F9E
:102D00000190F081E02D2BE0029FE00DF11D1124D8
:102D10000190F081E02D27E0129FE00DF11D1124BC
:102D2000808391838B8182834383548365837683FD
:102D30001F5F10935C0281E090E0F7019183808334
:102D400090E080E0ACCFEF92FF920F931F93CF9370
:102D5000DF937A018C01060F171FC091E403D09115
:102D6000E503209781F021E030E0F8018281938132
:102D70004091E6035091E7038417950710F030E087
:102D800020E0232B71F482E090E0F70191838083AF
:102D90008EEF9FEFDF91CF911F910F91FF90EF90FA
:102DA000089543E1489F9001499F300D1124C20FBF
:102DB000D31F94DE882341F082E090E0F7019183F5
:102DC000808388EF9FEFE6CFF8012481358120389A
:102DD0003105C8F687818111D6CF4181842F90E0DB
:102DE0008F7E009741F082E090E0F701918380832D
:102DF00086EF9FEFCFCF4F833E832D832681288799
:102E00001986223010F421E0288721E030E0F70114
:102E100031832083BFCF88E090E0FA0191838083E3
:102E200090E080E00895FB018FEF808381E1818352
:102E30008FEF9FEF9383828380E890E09583848374
:102E4000168217820895FB018FEF808391E09183B2
:102E500082839383848384E3858381E090E09783F6
:102E600086830895DF92EF92FF920F931F93CF9383
:102E7000DF93EA01FC01E60FF71F8181813071F0D9
:102E800082E090E0998388838FEF9FEFDF91CF916D
:102E90001F910F91FF90EF90DF90089582819381B1
:102EA000D4802581E680F7800091E4031091E5034A
:102EB0000115110539F482E090E0998388838CEF45
:102EC0009FEFE4CF4091E6035091E7038417950705
:102ED00038F082E090E0998388838EEF9FEFD6CF21
:102EE000892B39F082E090E09983888386EF9FEF09
:102EF000CDCF8D2D8D7FB1F72130A1F781E0D1109D
:102F000006C091E0E916F10431F080E004C0E2E08F
:102F1000EE16F104D0F3882329F390E080E0DEDDA3
:102F2000882339F082E090E09983888388EF9FEFCF
:102F3000ADCFF801D38681E08487F686E586108AD6
:102F4000178681E090E09983888390E080E09ECFAF
:102F50004CE050E061EA72E073CA8F929F92BF9298
:102F6000CF92DF92EF92FF920F931F93CF93DF9355
:102F7000EA01FC01E60FF71F828193810481B5808D
:102F8000E091E403F091E503309791F482E090E062
:102F9000998388838CEF9FEFDF91CF911F910F91E1
:102FA000FF90EF90DF90CF90BF909F908F9008950B
:102FB0002091E6033091E7038217930738F082E00F
:102FC00090E0998388838EEF9FEFE6CF23E1289FDF
:102FD0006001299FD00C1124EC0DFD1DE080F180D3
:102FE000E114F10499F28281081748F78BE0089FF9
:102FF00080011124E00EF11EF70180819181892B5F
:1030000029F6BB20E1F2F7E0BF9E40011124C40184
:103010000E94FC23F70191838083E091E403F09107
:10302000E503EC0DFD1D0190F081E02DE00FF11F97
:1030300080819181009739F482E090E099838883C0
:103040008DEF9FEFA9CFA40170E060E00E941C35D6
:103050008091E4039091E503C80ED91EF6018081AA
:103060009181080F191FF801B28281E090E09983E5
:10307000888390E080E090CFAF92BF92CF92DF92B2
:10308000FF920F931F93CF93DF93EA01FC01E60FAA
:10309000F71F82819381F4800091E4031091E5038E
:1030A0000115110581F482E090E0998388838CEF0B
:1030B0009FEFDF91CF911F910F91FF90DF90CF9005
:1030C000BF90AF9008952091E6033091E7038217F7
:1030D000930738F082E090E0998388838EEF9FEF2A
:1030E000E8CF2FEF2F0D2C3FA8F723E1289F600199
:1030F000299FD00C11240C0D1D1DF8018081918198
:10310000892B89F6FBE0FF9E50011124C5010E9426
:10311000FC23F80191838083E091E403F091E503BF
:10312000EC0DFD1D80819181009739F482E090E0E3
:10313000998388838DEF9FEFBCCFA50170E060E09D
:103140000E941C35E091E403F091E503EC0DFD1DB8
:10315000F28281E090E09983888390E080E0A9CFBB
:10316000CF92DF92EF92FF920F931F93CF93DF9353
:10317000860F971FFC01028113818091E4039091D7
:10318000E503892B81F082E090E0FA01918380834E
:103190008CEF9FEFDF91CF911F910F91FF90EF90F8
:1031A000DF90CF900895C801B0E0A0E00197A10999
:1031B000B1098F3F9F4FA105B10540F082E090E03B
:1031C000FA01918380838EEF9FEFE4CF7A0183E150
:1031D000809F6001819FD00C1124C6010E94FC23B6
:1031E000EC01009741F482E090E0F7019183808345
:1031F0008DEF9FEFCFCFA60170E060E00E941C35FD
:10320000D093E503C093E4031093E7030093E60330
:1032100090E080E02FEF3FEF41E061E070E0801749
:10322000910741F481E090E0F7019183808390E081
:1032300080E0B0CF3A8B298B1B864C877E876D87C9
:10324000188A1F8601966396EACFCF92DF92EF929B
:10325000FF920F931F93CF93DF93EC01D12CC12CDE
:1032600010E000E0F12CE12C6A816017110609F0F2
:10327000CCF483E0689FB0011124AE014F5E5F4F34
:10328000C7010E946124009721F02FEF3FEF3A8B96
:10329000298BDF91CF911F910F91FF90EF90DF90DD
:1032A000CF900895E881F981EC0DFD1D4381548193
:1032B0008D859E85489F9001499F300D589F300D08
:1032C0001124C90101960115110519F44F8144FD1E
:1032D000049661E070E00E94A922E816F90608F45D
:1032E0007C010F5F1F4F8BE0C80ED11CBDCFF8943F
:1032F0002091E2033091E30381E02115310509F0CB
:1033000080E0232B09F0789408952F923F924F92FA
:103310005F926F927F928F929F92AF92BF92CF9265
:10332000DF92EF92FF920F931F93CF93DF933C01B5
:10333000660E771EF301828193814C01B12CA12C82
:10334000C091E403D091E503209769F021E030E0DB
:103350006091E6037091E7038617970710F030E05D
:1033600020E0232BD1F482E090E0FA019183808366
:103370008EEF9FEFDF91CF911F910F91FF90EF9014
:10338000DF90CF90BF90AF909F908F907F906F9085
:103390005F904F903F902F90089580925D029092A1
:1033A0005E02A0925F02B092600263E1689F9001AA
:1033B000699F300D1124C20FD31FF3018181833027
:1033C00040F082E090E0FA019183808386EF9FEFE6
:1033D000D1CF2A012B813C81232BF1F42881398123
:1033E0009F8191FF2EC0232B09F46FC02091E90328
:1033F0009A81422F490F5527551FBA0141E050E0ED
:103400006138710514F050E040E0452B09F45DC0CF
:103410002A87920F9093E9038150823008F481C08B
:1034200066DF882309F4D8C0F3018181813009F473
:103430008DC008F47BC0823009F4C6C090E080E003
:10344000ADC0232B09F441C02091E8039A81E22FFB
:10345000E90FFF27FF1F41E050E0ED3FF10514F0B9
:1034600050E040E0452B89F12A87920F9093E803C2
:10347000D3CFA081B181A20FB31F11966C91060F1B
:10348000111D0196295F3F4F8417950794F38D8591
:103490009E85089F1001099F300C189F300C112445
:1034A000C114D104D1F48F8184FF17C00E94F72288
:1034B000F5E02F0E311C21E08215930508F420E081
:1034C000A701455F5F4F21110EC082E090E0F2013D
:1034D0009183808387EF9FEF4DCF0E94F7222FEFDC
:1034E000221A320AE8CF88819981E80EF91EF70185
:1034F00014830383FFEFCF1ADF0A7A018A818C15C8
:103500001D0409F00CF48CCFE881F981EE0DFF1D4C
:10351000428150E030E020E010E000E090E080E008
:10352000B3CFF12CE12CD12CC12CE8CF81E090E07D
:103530009C838B83EADA882309F480CF81E090E0D2
:103540000E94021280E40E94101278CF89899A8921
:10355000019661F083E090E09C838B8382E090E0B1
:103560000E94021280E40E940A1268CF8D819E811F
:10357000209153023091540282179307D1F4609145
:10358000570270915802AE014F5E5F4F8091550215
:10359000909156020E9480250097E1F2789422E0F3
:1035A00030E0F20131832083892B99F08DEF9FEF7A
:1035B000E1CE89288A288B2869F6892B59F6CE0115
:1035C00044DE188A1F86E8CF82E090E09C838B83DC
:1035D00035CF90E080E0CECE82E090E0F2019183A2
:1035E000808385EF9FEFC6CE8F929F92AF92BF925E
:1035F000CF92DF92EF92FF920F931F93CF93DF93BF
:10360000EA018C01060F171FF8018181833098F0C1
:1036100082E090E09983888386EF9FEFDF91CF91DE
:103620001F910F91FF90EF90DF90CF90BF90AF90E0
:103630009F908F9008958091E4039091E503892BEA
:1036400061F081E090E02091E6033091E703232BC5
:1036500011F490E080E0892B39F482E090E09983C6
:1036600088838EEF9FEFDACF42DE882309F4DFC034
:10367000F8018181813009F495C0E8F0823099F435
:103680002091E6033091E703E091E403F091E50334
:1036900090E080E041E050E02817390709F0BDC014
:1036A00034DA811117C0789481E090E0998388839F
:1036B00090E080E0B3CF2091E6033091E703E09102
:1036C000E403F091E50390E080E041E050E028174A
:1036D000390741F481E090E00E94021280E40E94E8
:1036E0001012E1CF63817481672B11F054834383FF
:1036F00001967396ECCFE091E403F091E503E00FBF
:10370000F11F2381348122303105D9F42189328996
:103710002F3F3F4FB1F425813681409153025091A4
:1037200054022417350761F5AF014F5E5F4F60917A
:1037300057027091580280915502909156020E9452
:103740008025EFEFCE1ADE0AEE0AFE0A0D5E1F4F4D
:103750004091E6035091E70370E060E0C416D5069F
:10376000E606F7063CF5009731F27894892B09F4C8
:103770009BCF82E090E0998388838DEF9FEF4ECFBF
:10378000C114D104E104F104E1F6232BD1F6CF01F9
:103790005CDDE091E403F091E503E00FF11F108A96
:1037A0001786CFCF10E000E090E080E0C12CD12C54
:1037B0007601CECF0097C9F610E000E0812C912C65
:1037C000540183E0E82EF12C1AC0E091E403F0915B
:1037D000E503E00FF11F83819481029749F4F4829D
:1037E000E38282E090E00E94021280E40E940A12CA
:1037F000FFEF8F1A9F0AAF0ABF0A0D5E1F4F80911D
:10380000E6039091E703B0E0A0E088169906AA06C7
:10381000BB06DCF290E080E0A8CF63817481623067
:10382000710511F4548343830196739635CF82E07A
:1038300090E09983888385EF9FEFF0CE0097B9F4ED
:103840008FEFFB01808320915D0230915E0243E1A6
:10385000429FC001439F900D1124E091E403F09139
:10386000E503E80FF91F8285FB01818308950C941D
:10387000B91188E090E0FA019183808390E080E0C4
:1038800008951092E3031092E203E4EEF3E086E081
:10389000DF011D928A95E9F788EA97E19093E103A9
:1038A0008093E00308958091E0039091E1030895EF
:1038B0002F923F924F925F926F927F928F929F9240
:1038C000AF92BF92CF92DF92EF92FF920F931F932E
:1038D000CF93DF93CDB7DEB760970FB6F894DEBF16
:1038E0000FBECDBFF894E091E203F091E30331966F
:1038F000F093E303E093E2037894A091E403B091A2
:10390000E503BA83A983109709F4FAC1E091E603AD
:10391000F091E703EF2B09F4F3C128874B875C870D
:103920006D877E879A878987B88BAF87312C212C4A
:10393000F12C512C412C8091E6039091E70328163D
:10394000390610F4FF2029F1F8948091E203909158
:10395000E30301979093E3038093E2037894C20119
:1039600060960FB6F894DEBF0FBECDBFDF91CF914A
:103970001F910F91FF90EF90DF90CF90BF90AF908D
:103980009F908F907F906F905F904F903F902F907F
:103990000895B10190E080E088D4682EEF85F88921
:1039A000878181FD3DC0838194810397C9F525817D
:1039B00036813C832B8389859A852817390781F5C1
:1039C000C101EDD8782E8823A9F1AF85B8891F965B
:1039D0008D919C915097019621E01D964D915C919F
:1039E0008417950709F020E02F83B12CA12CEF85D7
:1039F000F88982818A151B0419F014F0FF20E9F080
:103A0000F885FF2309F46CC1AF85B88950961C92E4
:103A10001E921F97662021F0B10190E080E047D40C
:103A2000FFEF2F1A3F0A2F8538892D5E3F4F388BC5
:103A30002F8781CFB1E0BF83D8CFC0D49E838D8341
:103A4000E885EE23E9F0772009F43CC1AF85B88919
:103A50001F968D919C91892B79F0BBE0BA9DC00196
:103A6000BB9D900D1124AF85B889ED91FC91E80FB5
:103A7000F91F85819681F9D6BFEFAB1ABB0AB7CF84
:103A800081E0772039F0EF85F88927853089232B6D
:103A900009F080E0F82EE12CA114B10439F4AF85CF
:103AA000B8891796EC90E4FAEE24E0F8BBE0BA9DF2
:103AB0006001BB9DD00C1124882309F424C1AF857B
:103AC000B889ED91FC911197EC0DFD1D4381548156
:103AD0001D962D913C91429FC001439F900D529F96
:103AE000900D1124E1105DC001969087878361E0FD
:103AF00070E0878190852DD5EF85F88921893289FD
:103B0000008111810C0D1D1D2F3F320709F44BC0A0
:103B1000BC01C9010E94C125D80116969C938E93C1
:103B20001597AF85B889ED91FC911197EC0DFD1DAE
:103B3000058116810115110509F4CDC0ED81FE81C5
:103B40000E0F1F1F1A968C918A0DD8018C93E110CD
:103B50002FC00F5F1F4FAF85B889ED91FC91EC0D21
:103B6000FD1D12870187AF85B889ED91FC91EC0DA1
:103B7000FD1D85819681892B09F4A4C08091530293
:103B8000909154022B813C812817390709F465C0B4
:103B9000772011F001851285912C812C1A821982CF
:103BA0004AC00596A2CF28D6F80196838583B9CF5F
:103BB0008B859C85AD85BE85F80181839283A38327
:103BC000B4830B5F1F4FC7CFE080F180E80CF91C76
:103BD000D70113966D917C9114978C918F3F09F4C6
:103BE00073C0E1E0F0E002C0EE0FFF1F8A95E2F73C
:103BF000CF01092E000CAA0BBB0BFB0140815181A8
:103C00006281738184239523A623B72321E0892B26
:103C10008A2B8B2B09F420E0D8012C93D701119625
:103C20008C91080F111DE981FA813196FA83E9839D
:103C3000F7E08F0E911CAF85B889ED91FC91EC0DEA
:103C4000FD1D828129813A818217130611F00CF043
:103C5000BBCF772011F0128701873F81332391F189
:103C6000AF85B889ED91FC91EC0DFD1D61E070E030
:103C7000878190856ED4AF85B889ED91FC91EC0D6C
:103C8000FD1DE780F08445815681E1E0F0E066208B
:103C900011F0F0E0E0E00D811E819C01B101882768
:103CA00099278E1B9F0B8DD32C01892B59F0EF8503
:103CB000F88980819181C80ED91ED60115968D9103
:103CC0009C91D3D5F12CD8CEF701418150E0C801A9
:103CD0000E941335A3CF86EF482E55245A94CCCE9C
:103CE000EF85F889878590890196908B8787258550
:103CF00036858217930709F08DCE108A17868ACEF3
:103D0000512C412C21CE10E000E02DCF2F923F927C
:103D10004F925F926F927F928F929F92AF92BF92DB
:103D2000CF92DF92EF92FF920F931F93CF93DF9387
:103D30008091E4039091E50310E000E0892BA9F065
:103D4000D6DA0AEF1FEF882381F02090E603309047
:103D5000E703C091E403D091E503D12CC12C10E01E
:103D600000E02C143D04A9F47894C801DF91CF91B0
:103D70001F910F91FF90EF90DF90CF90BF90AF9089
:103D80009F908F907F906F905F904F903F902F907B
:103D90000895C6010E94CF15882309F18B819C816B
:103DA0000397E9F48F859889892BC9F0B60190E0D3
:103DB00080E07BD221E030E0882311F030E020E089
:103DC00044245524421A530AB12CA12C912C812C45
:103DD0008A818815190409F038F4188A1F864FEF74
:103DE000C41AD40A6396BDCFE881F981EA0DFB1DA0
:103DF00085819681892BA1F161E070E087819085B2
:103E0000A8D33C01DBD28C01E881F981EA0DFB1DCE
:103E10008185928525813681200F311FAC01421B9F
:103E2000530B9A0147815085421B530B70E060E0B1
:103E30000E941C35E881F981EA0DFB1DE780F084C2
:103E4000458156819301B601C201BBD28C01892BF9
:103E500039F0E881F981EA0DFB1D8581968105D550
:103E60005FEF851A950A8BE0A80EB11CB1CF3FCA4F
:103E7000789408952F923F924F925F926F927F9223
:103E80009F92AF92BF92CF92DF92EF92FF920F93E9
:103E90001F93CF93DF9300D000D0CDB7DEB7009152
:103EA000E4031091E503992493940115110509F495
:103EB0003EC0A090E603B090E70319DA982E88235D
:103EC000B1F11092E5031092E4031092E70310920F
:103ED000E6031092E8031092E9038FEF9FEFDC01F5
:103EE00080935D0290935E02A0935F02B0936002A4
:103EF00078947FD31E830D83C12CD12C7601C5010C
:103F0000B0E0A0E089839A83AB83BC8322242A9407
:103F1000322C89819A81AB81BC81C816D906EA0608
:103F2000FB06F4F0C801A1D480E40E941012892D90
:103F300026960FB6F894DEBF0FBECDBFDF91CF91AE
:103F40001F910F91FF90EF90DF90CF90BF90AF90B7
:103F50009F907F906F905F904F903F902F9008952B
:103F6000AD81BE8115968D919C911697209153023B
:103F70003091540282179307D1F451968D919C9100
:103F8000EED5ED81FE8180819181B12CA12C412C57
:103F9000512C3201892B89F5BFEFCB1ADB0AEB0AD2
:103FA000FB0AED81FE817396FE83ED83B2CFC114CF
:103FB000D104E104F10429F7892B19F7ED81FE8181
:103FC000818992898F3F980709F029D5AD81BE81FB
:103FD00052963C922E925197D4CF8A0D9B1DDC01B4
:103FE0008D919C91009709F040D4BFEF4B1A5B0A6A
:103FF0006B0A7B0AEBE0AE0EB11CAD81BE818D91E8
:104000009C91119712964C9150E070E060E044163C
:104010005506660677060CF328D4BECFCF93DF9300
:10402000EA0128DF811109C082E090E0998388834A
:1040300085EF9FEFDF91CF91089581E090E00E949E
:10404000021281E090E09983888390E080E0F2CFD3
:1040500011DF1092E1031092E003089542E050E076
:1040600069EE72E00C942012FF920F931F93CF938E
:10407000DF938A01EC01C60FD71FF980B9D20897E8
:10408000F816190671F068F082E090E0F80191836B
:1040900080838EEF9FEFDF91CF911F910F91FF9063
:1040A00008956C817D818E819F814B810E94B51422
:1040B000811108C082E090E0F8019183808384EF51
:1040C0009FEFE9CFF9800E94B0144F2D50E0BE0160
:1040D000685F7F4F0E94133589810E941F1581E020
:1040E00090E0F8019183808390E080E0D4CFDF926C
:1040F000EF92FF920F931F93CF93DF938A01EC010E
:10410000C60FD71F0E94B0147C01D98071D2DD2068
:1041100059F0029721E030E0D816190619F010F096
:1041200030E020E0232B79F482E090E0F8019183E5
:1041300080838EEF9FEFDF91CF911F910F91FF90C2
:10414000EF90DF900895EF2841F482E090E0F801CD
:104150009183808384EF9FEFEECFF9800E94B014AB
:104160004F2D50E0BE016E5F7F4F0E941335898155
:104170000E941F1581E090E0F8019183808390E018
:1041800080E0D9CF8EE290E29093EB038093EA0334
:1041900008958091EA039091EB0308950895FC013E
:1041A00011821082938382830895DB011D921C92F9
:1041B000DC011296ED91FC91139771836083139645
:1041C0007C936E9312970895FC0180819181DB01AD
:1041D0008D939C93A081B181109741F08D919C911A
:1041E00091838083892B11F4F383E2830895FC018A
:1041F00080819181DB018D939C93892B11F47383D2
:104200006283718360830895FC011182108293831D
:1042100082830895CF93DF931F921F92CDB7DEB7AD
:104220001A821982F894BE016F5F7F4F81EF93E08D
:10423000CBDF89819A81009709F017D389819A8110
:10424000892B89F7BE016F5F7F4F85EF93E0BCDF5D
:1042500089819A81009709F008D389819A81892BF5
:1042600089F778940F900F90DF91CF910895CF93B5
:10427000DF931F921F92CDB7DEB71A821982F8948E
:10428000BE016F5F7F4F8DEE93E09EDF89819A8143
:10429000009709F0EAD289819A81892B89F778946D
:1042A0000F900F90DF91CF91089581E0089590E0F5
:1042B00080E00895EF92FF920F931F93CF93DF93C7
:1042C0001F921F92CDB7DEB71A8219828091EC033C
:1042D00007EF1FEF8823A1F1F894BE016F5F7F4FB6
:1042E00085EF93E071DF789489819A81EE24E394DD
:1042F000F12C892B51F4F894BE016F5F7F4F81EF51
:1043000093E062DF7894F12CE12C89819A810EEFA1
:104310001FEF0097A9F0FC014281538164E070E037
:1043200074D68C01892B61F0F89469817A81C70178
:10433000880F991F880F991F8F509C4F58DF7894D2
:10434000C8010F900F90DF91CF911F910F91FF90B7
:10435000EF9008950F931F93CF93DF9300D01F9298
:10436000CDB7DEB71C821B821A8219828091EC03C2
:1043700007EF1FEF8823C1F0AE014D5F5F4F64E090
:1043800070E0CE010196B4D68C01892B69F4E981E5
:10439000FA818B819C8193838283F89469817A81ED
:1043A0008DEE93E002DF7894C8010F900F900F908C
:1043B0000F90DF91CF911F910F910895B9D7049677
:1043C00008958F929F92AF92BF92CF92DF92EF9219
:1043D000FF920F931F93CF93DF931F921F92CDB73E
:1043E000DEB71A821982BC016F5F7F4F633071059F
:1043F00098F0AA24AA94BA2CC5010F900F90DF91CF
:10440000CF911F910F91FF90EF90DF90CF90BF90D1
:10441000AF909F908F9008954115510551F3480139
:1044200059018A016C01CADF8815990511F7E11459
:10443000F104F9F28E0D9F1DA816B906D0F28091F5
:10444000EC038823F1F0F894B501645071099701E9
:10445000AE014F5F5F4FC8010496DFD65C01892B28
:1044600071F489819A81F80193838283C601880F50
:10447000991F880F991FB8018F509C4F96DE789432
:10448000BBCF87EFA82EBB24BA94B6CFAF92BF9212
:10449000CF92DF92EF92FF920F931F93CF93DF9310
:1044A0001F921F92CDB7DEB71A821982892B09F0AD
:1044B00047C06115710509F443C04115510509F460
:1044C0003FC02115310509F43BC001151105C1F1AB
:1044D0008091EC038823B9F179016A015B01F894BA
:1044E000BE016F5F7F4F8DEE93E06EDE7894898121
:1044F0009A81009759F1DC0112966D917C91A80187
:104500000496A4D68C01E981FA81D501ED93FC9340
:10451000828193810496F601918380834FDFD701D6
:104520008D939C93C8010F900F90DF91CF911F91B5
:104530000F91FF90EF90DF90CF90BF90AF900895D4
:104540000FEF1FEFEFCF07EF1FEFECCF0EEF1FEFD7
:10455000E9CFCF93DF93EC01672B71F4F2D68C1780
:104560009D0760F0E5D62496C80FD91FE4D68C0FBE
:104570009D1FDF91CF910895E1D6F1CF90E080E0CB
:10458000F8CF0F931F93CF93DF932091EC0321116A
:104590002BC08B01EC0181EF93E001DE85EF93E00E
:1045A000FEDD8DEE93E0FBDD97D00097C1F4C9D618
:1045B00070E060E0CEDF41E652E062E070E081D181
:1045C000009769F48091610290916202CCD6B801A3
:1045D000CE0101D5009719F421E02093EC03DF917F
:1045E000CF911F910F91089584EF9FEFF8CFA6C64A
:1045F000A8C6CF93DF93A8D6EC01892B11F40ADE6D
:1046000036DECE01DF91CF910895CF93DF939CD614
:10461000EC01892B09F4FEDDCE01DF91CF910895E5
:1046200080916102909162020895CF93DF9380910F
:10463000EC03D0E0C0E08823D1F09AD6EC01892BBE
:10464000B1F4E8DD14DE8091610290916202E7D15D
:10465000E8D2EC01892B59F481EF93E0D5DD85EFA9
:1046600093E0D2DD8DEE93E0CFDD1092EC03CE012E
:10467000DF91CF910895EF92FF920F931F93CF9305
:10468000DF93EC017A018B010F5F1F4F0E9DA0019C
:104690000F9D500D1E9D500D112470E060E00E9492
:1046A0001C3590E080E0F0E0E0E02FEFE816F9063E
:1046B00039F4DF91CF911F910F91FF90EF90089502
:1046C0001A8219822883309711F0D283C183019610
:1046D000FE01C00FD11FEACFCF92DF92EF92FF927F
:1046E0000F931F93CF93DF9304E315E00C7F43E018
:1046F00050E063E672E089E692E01AD483E6E82EA1
:1047000082E0F82E99E6C92E92E0D92ECBEBD5E0C7
:10471000D7014D915D917D01F601619171916F011C
:10472000198308835D834C835B834A837F836E8315
:104730009B012F5F3F4F249FC001259F900D349F09
:10474000900D1124998788870115110511F0C80172
:1047500092DF88859985080F191F2A96F9E6EF16CA
:10476000F2E0FF06A9F6EBEFF3E086E391E0DF016C
:104770009C011D9221503040E1F71092FA031092F3
:10478000F9031092DA051092D9051092DE05109205
:10479000DD051092DC051092DB051092E005109209
:1047A000DF051092E2051092E1051092E4051092E7
:1047B000E3051092E8051092E7051092E6051092C5
:1047C000E5051092EA051092E9051092EC051092A9
:1047D000EB051092B8051092B7051092BA05109229
:1047E000B90590E080E0DF91CF911F910F91FF908C
:1047F000EF90DF90CF9008950097F1F0F894A9E63C
:10480000B2E0EBEBF5E030E020E04D915D91481730
:104810005907A8F0428153814115510581F08AE082
:10482000829FF001839FF00D1124E554FA4F80819F
:104830009181009759F4789490E080E008952F5F7B
:104840003F4F3A962330310501F7F5CFDC01119641
:104850006D917C91718360834150510953834283F0
:10486000FC012193CF0178940895009749F1DC0170
:104870008E91853041F4E091B905F091BA053097F9
:10488000F9F0CD0119948530D8F4282F30E0F89450
:104890008FEF8C938AE0829FF001839FF00D1124AB
:1048A000E554FA4F8081918112969C938E931197D3
:1048B000B183A083828193810196938382837894CC
:1048C0000895CF92DF92EF92FF920F931F93CF93B1
:1048D000DF939C018EEF93E08C7F4115510509F425
:1048E0009BC02115310509F497C06115710509F4C4
:1048F00093C07A01AB01B9016D5F7F4F6C7F9B0163
:104900002F5F3F4F249F8001259F100D349F100D76
:104910001124F8942091D9053091DA05232B59F40C
:104920002091E1053091E2052115310569F120174B
:10493000310708F058C02091E3053091E405232B9E
:1049400091F42091E1053091E205820F931F2091AF
:10495000EB053091EC052115310509F441C0201714
:10496000310708F056C07894CFEFDFEF86EF9FEF66
:10497000F701D183C083DF91CF911F910F91FF90F9
:10498000EF90DF90CF900895C3E0D0E0C090F9039E
:10499000D090FA0323E331E02C193D0920173107A9
:1049A00010F32AE02C9FF0012D9FF00D1124E55407
:1049B000FA4F918380835583448353834283778363
:1049C000668311870087009709F055DE0C0D1D1DC9
:1049D0001093FA030093F903789490E080E0C8CF35
:1049E000C4E0D0E0D3CFC3E0D0E02AE02C9FF001B8
:1049F0002D9FF00D1124E554FA4F91838083558348
:104A000044835383428377836683009729F333DE9D
:104A1000E3CFC4E0D0E0E9CF8FEF9FEFACCF9C01B4
:104A20000397029708F069C0F89484E09AE0482F51
:104A300050E0241735070CF44DC091E08AE0829FC6
:104A4000F001839FF00D1124E554FA4F118210827A
:104A50001582148213821282178216829923B1F171
:104A60008091D9059091DA05892BA9F42091E1056F
:104A70003091E2052115310571F08091F903909193
:104A8000FA03821B930B9093FA038093F90310921D
:104A9000E2051092E1058091E3059091E405892BF0
:104AA000A9F42091EB053091EC052115310571F049
:104AB0008091F9039091FA03821B930B9093FA0370
:104AC0008093F9031092EC051092EB05789490E036
:104AD00080E00895949FF001959FF00D1124E55416
:104AE000FA4F40815181452B31F440855185452B4A
:104AF00011F481509CCF90E0A1CF8FEF9FEF0895EC
:104B00004115510549F1009739F16115710521F100
:104B1000F8942091B7053091B805232BB9F4209172
:104B2000B9053091BA05232B89F49093B805809389
:104B3000B7057093BA056093B905789425E030E025
:104B400090E080E0FA0131832083089578942FEF7C
:104B50003FEF86EF9FEFF6CF8FEF9FEF089505971A
:104B600069F4F8941092B8051092B7051092BA053E
:104B70001092B905789490E080E008958FEF9FEF50
:104B800008956115710519F4F0E0E0E011C0853079
:104B9000910581F4E091B705F091B8053097A1F344
:104BA000CB0101961995009779F3FC0185E081937B
:104BB000CF0108959C01235031092230310520F79F
:104BC0002AE0289FD001299FB00D1124A554BA4F87
:104BD0002D913C911197232BB9F216962D913C9172
:104BE00017972617370780F2F89412962D913C916B
:104BF00013972115310529F0ED91FC91119730970C
:104C000011F47894C1CF4181528111965C934E93F7
:104C10002150310913963C932E93129781937894E7
:104C2000C7CFE1E3F5E086E8DF011D928A95E9F759
:104C3000EBEFF3E086E391E0DF019C011D92215050
:104C40003040E1F71092FA031092F903EBEBF5E034
:104C500082E3DF011D928A95E9F7E7EBF5E084E056
:104C6000DF011D928A95E9F790E080E00895CF93E7
:104C7000DF93C0916F02D0917002CF3FDC0759F4EF
:104C800020D49093700280936F0297FF09C0D09355
:104C90007002C0936F0284EF9FEFDF91CF91089570
:104CA00090E080E0FACF8230910528F48093ED0502
:104CB00090E080E008958FEF9FEF08954F925F920C
:104CC0006F927F92AF92BF92CF92DF92EF92FF925C
:104CD0000F931F93CF93DF931F921F92CDB7DEB731
:104CE0001A821982009709F478C06115710509F4D8
:104CF00074C020916F023091700207EF1FEF2F3FB9
:104D00003F4F09F444C06B015C01412C512C32012E
:104D1000F12CE12C10E000E09E012F5F3F4FA60137
:104D20004E195F09B5016E0D7F1D80916F02909144
:104D3000700226D4892B09F04AC089819A81009794
:104D400041F4E114F10429F42091ED05222309F442
:104D500041C0E80EF91EEC14FD04C8F480E84816C2
:104D600084E858068EE16806710418F560E070E08A
:104D7000CB01F9D72AE0420E511C611C711C0A3F7D
:104D80004FEF140721F0043F8FEF1807A1F4C8017B
:104D90000F900F90DF91CF911F910F91FF90EF90A7
:104DA000DF90CF90BF90AF907F906F905F904F90CB
:104DB000089501EF1FEF81E090E0013F2FEF120710
:104DC00011F090E080E0892B09F4A6CFE0CF04EF4A
:104DD0001FEFDDCF0AEF1FEFDACF0FEF1FEFD7CFB7
:104DE0004F925F926F927F92AF92BF92CF92DF927B
:104DF000EF92FF920F931F93CF93DF931F921F9217
:104E0000CDB7DEB71A821982009709F478C0611510
:104E1000710509F474C020916F023091700207EFA0
:104E20001FEF2F3F3F4F09F444C06B015C01412C41
:104E3000512C3201F12CE12C10E000E09E012F5F9B
:104E40003F4FA6014E195F09B5016E0D7F1D809180
:104E50006F02909170024AD3892B09F04AC0898170
:104E60009A81009741F4E114F10429F42091ED05B1
:104E7000222309F441C0E80EF91EEC14FD04C8F425
:104E800080E8481686E9580688E96806710418F52E
:104E900060E070E0CB0167D72AE0420E511C611C34
:104EA000711C0E3F4FEF140721F0043F8FEF1807DE
:104EB000A1F4C8010F900F90DF91CF911F910F9136
:104EC000FF90EF90DF90CF90BF90AF907F906F906A
:104ED0005F904F90089502EF1FEF81E090E0023F56
:104EE0002FEF120711F090E080E0892B09F4A6CF94
:104EF000E0CF04EF1FEFDDCF0EEF1FEFDACF0FEFA4
:104F00001FEFD7CF80916F02909170028F3F98076B
:104F100049F0CFD2892B49F48FEF9FEF9093700225
:104F200080936F0290E080E0089584EF9FEF0895F2
:104F3000CF92DF92EF92FF920F931F93CF93DF9365
:104F400021E04115510509F020E04150510921119E
:104F50002CC0DC01FB01D12CC12C21E022C03FEF91
:104F6000C31AD30A7D010D911D91E701EA80FB80F0
:104F7000E016F106A8F420813181E280F380F1820D
:104F8000E08233832283ED90FC9011979D012250A3
:104F90003109E901F982E88211961C930E9320E011
:104FA0003296C416D506D8F2D2CFDF91CF911F9199
:104FB0000F91FF90EF90DF90CF900895FC01680F64
:104FC000791F90E080E0E617F70709F40895219132
:104FD000820F911DF8CF2091EE05211113C047DEFD
:104FE000009791F41092F4051092F3051092F205D7
:104FF0001092F1051092F0051092EF0521E0209338
:10500000EE05089584EF9FEF0895AF92BF92CF927F
:10501000DF92EF92FF920F931F93CF93DF9300974E
:1050200009F460C04630510508F45CC02091EE05DB
:10503000C7EFDFEF222309F449C08C01060F171FC9
:10504000F801C080D180C114D10409F44EC096018A
:105050002A5F3F4F4217530708F447C07C018091F5
:10506000F3059091F40593838283B6016C5F7F4FC3
:105070005801A60EB71EC801A1DFF50191838083F8
:1050800064E070E0C8011ADEEC01892BF9F481E0DC
:1050900090E009DEB601C801049610DEEC01892B10
:1050A00091F462E070E0C50109DEEC01892B59F44E
:1050B000C701DBDB8091F3059091F4050196909395
:1050C000F4058093F30590E080E0EDDDCE01DF9103
:1050D000CF911F910F91FF90EF90DF90CF90BF90F5
:1050E000AF900895CFEFDFEFF1CFC9EFDFEFEECF55
:1050F0006F927F928F929F92AF92BF92CF92DF92E8
:10510000EF92FF920F931F93CF93DF9300D01F92E4
:10511000CDB7DEB7009709F47AC04115510509F4FF
:1051200076C02091EE0507EF1FEF222309F44DC052
:105130003A017B015C0164E070E0CE01019650DE33
:105140008C01892B09F041C009811A8101151105D3
:1051500009F45AC0480186E0880E911CB701680D19
:10516000791D80917102909172020BDD6C010097A4
:1051700009F450C0A70170E060E00E941C358981ED
:105180009A81AB81BC81EC0CFD1CF701819391935A
:10519000A193B1937F0181E090E085DDB801C70163
:1051A0001FDE892B31F562E070E0C701800F911F8F
:1051B00017DE8C01892BE9F490E080E074DDF501C5
:1051C000D182C082F30191828082C8010F900F903A
:1051D0000F900F90DF91CF911F910F91FF90EF9063
:1051E000DF90CF90BF90AF909F908F907F906F9007
:1051F000089590E080E057DDF50111821082F301FF
:1052000011821082C60131DB09EF1FEFDECF0FEFF5
:105210001FEFDBCF06EF1FEFD8CF0097A1F04115AE
:10522000510589F02115310571F0F90136966E1797
:105230007F0748F0DC012D933C93DA01ED93FC935A
:1052400090E080E008958FEF9FEF0895AF92BF92B6
:10525000CF92DF92EF92FF920F931F93CF93DF9342
:10526000009709F45FC04115510509F45BC0653032
:10527000710508F457C02091EE05C7EFDFEF222338
:1052800091F1DC01CD90DC9011971296ED91FC919B
:1052900096012A5F3F4FC9EFDFEF2617370719F551
:1052A000C091EF05D091F005209749F521E030E05D
:1052B0003093F0052093EF057A018C01F093F2050D
:1052C000E093F1055601B4E0AB0EB11CB50176DEFA
:1052D0000A0D1B1DF801208131818217930729F5E2
:1052E000D701CD92DC92CE01DF91CF911F910F912A
:1052F000FF90EF90DF90CF90BF90AF9008952091F6
:10530000F1053091F2052F5F3F4FCCEFDFEFE21751
:10531000F30790F2CBEFDFEF2E173F0768F2D0E0F4
:10532000C0E0CACFCFEFDFEFDECFC3EFDFEFDBCFE1
:1053300084E090E0089582E090E008958CEF9FEF84
:10534000089580E290E008951092F4051092F3051C
:105350001092F2051092F1051092F0051092EF05EF
:1053600090E080E008959093720280937102089516
:105370008091EE05882391F0C5DD009789F41092A5
:10538000F4051092F3051092F2051092F1051092B7
:10539000F0051092EF051092EE05089590E080E080
:1053A0000895009749F06115710531F0FC011182F3
:1053B0001082FB01118210820895F3CF26E030E0C5
:1053C00040E855E260E070E090E080E000C08130AD
:1053D000910571F01CF4892B39F008958230910504
:1053E00051F0039759F008958AE096E00C94033247
:1053F00087EA96E0FBCF84E497E0F8CF81EE97E070
:10540000F5CF089580E00895CF92DF92EF92FF925A
:105410000F931F9383D46093F5057093F6058093E3
:10542000F7059093F8050091F9051091FA05209180
:10543000FB053091FC056B017C01C01AD10AE20A20
:10544000F30A97018601003A16482140310508F118
:105450006093F9057093FA058093FB059093FC0522
:10546000A3D05CD40091F9051091FA052091FB05B9
:105470003091FC05601B710B820B930B603A7648F0
:105480008140910570F081E090E090930006809358
:10549000FF0581E01F910F91FF90EF90DF90CF907B
:1054A0000895109200061092FF05F3CF1092FD05AB
:1054B000089568EE73E080E090E055D490E080E0DD
:1054C000089526E030E040E050E16EE070E090E0CA
:1054D00080E07DDF8AE096E0CCD6892B21F08AE05F
:1054E00096E0E1D6F7CF90E080E00895CF92DF928A
:1054F000EF92FF920F931F93CF93DF936B017A018B
:10550000E901198218828AE096E0B3D6892B69F105
:105510008601CC24C39482E0D82E8091FD058111B0
:1055200010C08AE096E0BFD60297B9F7C092FD0599
:10553000F801D1928F01888199810196998388839E
:10554000ECCF888199818E159F0578F48AE096E0EA
:10555000AAD68F3F9807A9F3F80181938F0188811C
:105560009981019699838883ECCF90E080E0DF9168
:10557000CF911F910F91FF90EF90DF90CF90089502
:105580000F931F93CF93DF93EA0189018AE096E09E
:105590000E949334F801D183C08390E080E0DF91D2
:1055A000CF911F910F910895CF92DF92EF92FF92CA
:1055B0008091FE0591E0980F9093FE05882369F095
:1055C00021E030E0309300062093FF058093FE0534
:1055D000FF90EF90DF90CF900895E0917502F091E9
:1055E0007602C28CD38CE48CF58C0E949E06B701A7
:1055F000A60190E080E00E94EB048091FE058150BE
:10560000E5CF0F931F93CF93DF931092050910926C
:105610000409DFD3D3DEC0917502D09176021982DE
:1056200018826FEF7FEFCB010E946F0570E060E0A2
:1056300090E080E00E94EC03009709F039C00E94DE
:105640004E09F8947894BE016E5D7F4F8A819B81EC
:105650000E94EF03892B59F46FEF7FEFCB010E947B
:1056600080040E946905882311F081E08EA3F894DC
:10567000C8DE0E946C05882311F080E008C00E94FB
:1056800069058111FACF81E09EA19111F6CF809337
:1056900004090E94FD118C01789480910409811104
:1056A0000CC00E949D0A0E944D05F89490E080E095
:1056B000DF91CF911F910F9108950E944B050E9499
:1056C0006C058823D9F081E0809305099091050944
:1056D00081E0911180E08093040980910509811196
:1056E00091DE0130110529F40E94FD11892B09F486
:1056F000DDDE0E94FD118C0187DECFCF0E9469059F
:105700008111E1CF81E09EA19111DECF80E0DCCF5D
:105710005058BB27AA270ED0FFC1F0D130F0F5D1E9
:1057200020F031F49F3F11F41EF4E5C10EF4E09532
:10573000E7FBB2C1E92F01D280F3BA176207730702
:105740008407950718F071F49EF530C20EF4E095C9
:105750000B2EBA2FA02D0B01B90190010C01CA012B
:10576000A0011124FF27591B99F0593F50F4503ED6
:1057700068F11A16F040A22F232F342F4427585FC8
:10578000F3CF469537952795A795F0405395C9F7E0
:105790007EF41F16BA0B620B730B840BBAF0915098
:1057A000A1F0FF0FBB1F661F771F881FC2F70EC037
:1057B000BA0F621F731F841F48F48795779567950A
:1057C000B795F7959E3F08F0B3CF9395880F08F0F3
:1057D0009927EE0F9795879508953AD108F481E0BF
:1057E00008950CD099C191D140F088D130F021F4C6
:1057F0005F3F19F051C15111DAC17DC19ED198F3BB
:105800009923C9F35523B1F3951B550BBB27AA2741
:1058100062177307840738F09F5F5F4F220F331FB3
:10582000441FAA1FA9F333D00E2E3AF0E0E830D07F
:1058300091505040E695001CCAF729D0FE2F27D082
:10584000660F771F881FBB1F261737074807AB0750
:10585000B0E809F0BB0B802DBF01FF2793585F4FC5
:105860002AF09E3F510568F017C1A1C15F3FECF3DC
:10587000983EDCF3869577956795B795F7959F5F8A
:10588000C9F7880F911D9695879597F90895E1E0DE
:10589000660F771F881FBB1F621773078407BA073D
:1058A00020F0621B730B840BBA0BEE1F88F7E09598
:1058B000089504D06894B1117AC1089546D188F052
:1058C0009F5790F0B92F9927B751A0F0D1F0660FEC
:1058D000771F881F991F1AF0BA95C9F712C0B13007
:1058E00081F064D1B1E0089561C1672F782F8827D6
:1058F000B85F39F0B93FCCF3869577956795B39546
:10590000D9F73EF490958095709561957F4F8F4FB4
:105910009F4F0895E89409C097FB3EF490958095B9
:10592000709561957F4F8F4F9F4F9923A9F0F92F65
:1059300096E9BB279395F695879577956795B795E3
:10594000F111F8CFFAF4BB0F11F460FF1BC06F5FC9
:105950007F4F8F4F9F4F16C0882311F096E911C0DB
:10596000772321F09EE8872F762F05C0662371F0FC
:1059700096E8862F70E060E02AF09A95660F771F10
:10598000881FDAF7880F9695879597F90895F7D0CD
:1059900080F09F3740F491110EF009C160E070E093
:1059A00080E89FEB089526F41B16611D711D811D73
:1059B00079C093C0A3D018F011F0A7D038F49BC0E1
:1059C000F6C0E92FBAD0B0F35523C9F3E7FB62174D
:1059D000730784079507A8F199F3E92FFF27882318
:1059E0002AF03197660F771F881FDAF7952F552712
:1059F000442332F091505040220F331F441FD2F7FE
:105A0000BB27E91BF50B621B730B840BB109C1F2B9
:105A100022F4620F731F841FB11D31972AF0660FA5
:105A2000771F881FBB1FEFCF915050405AF041F0B5
:105A3000882332F0660F771F881F91505040C1F7BE
:105A400093954BC08695779567959F5FD9F7F8CF6B
:105A5000990F0008550FAA0BE0E8FEEF161617067F
:105A6000E807F907C0F012161306E407F50798F0E7
:105A7000621B730B840B950B39F40A2661F0232B00
:105A8000242B252B21F408950A2609F4A140A6957C
:105A90008FEF811D811D089597F99F6780E870E061
:105AA00060E00895882371F4772321F09850872BC4
:105AB000762F07C0662311F499270DC09051862BCD
:105AC00070E060E02AF09A95660F771F881FDAF77A
:105AD000880F9695879597F908959F3F31F09150DB
