:10000000F8C0000027C1000025C1000023C1000086
:1000100021C100001FC100001DC100001BC1000064
:1000200019C1000017C1000015C1000013C1000074
:1000300011C100000FC100000DC100000BC1000084
:1000400009C1000007C1000005C1000003C1000094
:1000500001C10000FFC00000FDC000000C94C12BD6
:10006000F9C000000C94B82F0C94EE2FF3C00000E0
:10007000F1C00000EFC00000EDC00000EBC00000C8
:10008000E9C00000E7C00000E5C00000E3C00000D8
:100090000C9444300C947A30DDC00000DBC00000CA
:1000A000D9C00000D7C00000D5C00000D3C00000F8
:1000B000D1C00000CFC00000CDC00000CBC0000008
:1000C000C9C00000C7C00000C5C000000C94D030FB
:1000D0000C940631BFC000000C945C310C9492313A
:1000E000B9C0000000000A0B02090C0D0E0807033E
:1000F00004010000000000000000000000000000FB
:1001000000000000000000000000000000000000EF
:1001100012111000000000000000000000000000AC
:100120000000000000000000000001021020200874
:100130000810204010204080020102010804020142
:1001400001020408102040808040201008040201B1
:10015000800402018040201008040201080402010A
:100160000102040810204080010204081020408091
:1001700005050505070508080808020202020A0A23
:100180000808040404040101010101010101030341
:10019000030303030303040707070C0C0C0C0C0CEC
:1001A0000C0C0202020206060606060606060B0BE9
:1001B0000B0B0B0B0B0B00002200250028002B0063
:1001C0002E003100340002010000050108010B017E
:1001D00000002100240027002A002D0030003300F9
:1001E00001010000040107010A011730A3302F317B
:1001F000BB3111241FBECFEFD1E2DEBFCDBF00E087
:100200000CBF12E0A0E0B2E0E6EDF4E600E00BBFC8
:1002100002C007900D92A63BB107D9F727E0A6EBE5
:10022000B2E001C01D92A83DB207E1F710E0C9EFAE
:10023000D0E000E006C021970109802FFE010E9456
:100240003832C53FD10780E00807A9F70E94182976
:100250000C946932D5CECF93DF93882349F0EB011C
:1002600081500E94C82C99838883DF91CF91089593
:10027000FB0111821082F9CF0F931F938B019C0118
:1002800083E036952795179507958A95D1F7015400
:100290001D4F462F477021E030E0F90102C0EE0FFC
:1002A000FF1F4A95E2F7AF01F80120812423CB011B
:1002B0000196211102C090E080E01F910F910895F6
:1002C0000F931F938B019C0183E03695279517951B
:1002D00007958A95D1F7677081E090E001C0880F9B
:1002E0006A95EAF7F801E154FD4F2081452B31F47E
:1002F0008095822380831F910F910895822BFACFDE
:10030000CF92DF92EF92FF92CF93DF936B017C014C
:1003100060E086E3C816D104E104F10490F486E3BA
:100320008C0D0E94252EE6012196AE01C701B60173
:10033000C7DFCE01DF91CF91FF90EF90DF90CF909C
:1003400008958C2DEECFCF92DF92EF92FF92CF9354
:10035000882351F16A017B01CFEFC80F20E030E024
:10036000A901CB01B6010E940B2A87FF11C0C7016A
:10037000B60190580E947C2A9B01AC016C2F70E062
:1003800090E080E0CF91FF90EF90DF90CF90A7C0FA
:10039000C701B6010E94772A8C2FCF91FF90EF9072
:1003A000DF90CF900C94EB2CCF91FF90EF90DF90EB
:1003B000CF9008950F931F938B019C0183E0369596
:1003C0002795179507958A95D1F70A541D4F462F03
:1003D000477021E030E0F90102C0EE0FFF1F4A959F
:1003E000E2F7AF01F80120812423CB01019621110E
:1003F00002C090E080E01F910F9108950F931F932A
:100400008B019C0183E036952795179507958A9572
:10041000D1F7677081E090E001C0880F6A95EAF734
:10042000F801EA54FD4F2081452B31F48095822359
:1004300080831F910F910895822BFACF2F923F92C4
:100440004F925F926F927F928F929F92AF92BF92E4
:10045000CF92DF92EF92FF920F931F93CF93DF9390
:10046000D62EC72E782E692E49015A01280161E047
:100470008D2D0E94252ECD2DDC2D8E010F5F1F4F5F
:10048000A8016D2D7C2D872D962DB8DF20E030E062
:10049000A901C201B7010E945A2B181664F4C201C7
:1004A000B7010E947C2A2B01C501B4010E947C2A5D
:1004B000A201CE0118D0C801DF91CF911F910F91F9
:1004C000FF90EF90DF90CF90BF90AF909F908F9074
:1004D0007F906F905F904F903F902F900895862F60
:1004E000B9010C94EB2C9C01FC01EC51FF4FE49101
:1004F000E150E231E0F4F0E08827EE57FD4F8F4FF6
:100500000C94383294029B029E02B502CA029702F2
:10051000DF02EB02EF0206031B03300347035C0319
:100520009702710388039D0384B5806884BD60E0F1
:10053000822F0C94612E84B58062F8CF8091800068
:100540008C7F82608093800080918100807E8061BA
:10055000682B6093810050938700409386008091C0
:100560008000806880938000E2CF809180008C7F43
:1005700082608093800080918100807E8061682B02
:1005800060938100509387004093860080918000A3
:100590008062E8CF809180008C7F826080938000B1
:1005A00080918100807E8061682B609381005093F0
:1005B000870040938600809180008860D3CF80912F
:1005C000B00080688093B0008091B100887F682B74
:1005D0006093B100ACCF8091B0008062F3CF809186
:1005E00090008C7F82608093900080919100807E4B
:1005F0008061682B60939100509397004093960020
:100600008091900080688093900091CF80919000BD
:100610008C7F82608093900080919100807E8061C9
:10062000682B6093910050939700409396008091BF
:1006300090008062E8CF809190008C7F82608093F0
:10064000900080919100807E8061682B6093910082
:100650005093970040939600809190008860D3CF8C
:100660008091A0008C7F82608093A0008091A10087
:10067000807E8061682B6093A1005093A700409317
:10068000A6008091A00080688093A00050CF809148
:10069000A0008C7F82608093A0008091A100807E6A
:1006A0008061682B6093A1005093A7004093A6003F
:1006B0008091A0008062E8CF8091A0008C7F826052
:1006C0008093A0008091A100807E8061682B609360
:1006D000A1005093A7004093A6008091A0008860DD
:1006E000D3CF809120018C7F826080932001809104
:1006F0002101807E8061682B609321015093270146
:1007000040932601809120018068809320010FCFC3
:10071000809120018C7F8260809320018091210153
:10072000807E8061682B6093210150932701409364
:100730002601809120018062E8CF809120018C7F8A
:1007400082608093200180912101807E8061682BEE
:10075000609321015093270140932601809120014D
:100760008860D3CF90E080E008950F931F930097A7
:1007700009F489C06115710509F485C00091000272
:100780001091010220910202309103020E3F1F4F8F
:100790002F4F3F4F09F068C04FEF5FEFBA01409312
:1007A0000002509301026093020270930302409191
:1007B0000002509101026091020270910302DC017B
:1007C0001296ED91FC9180819181A281B3818093F9
:1007D000FE039093FF03A0930004B093010484816F
:1007E0009581A681B7818093FA039093FB03A09330
:1007F000FC03B093FD0380859185A285B38580932A
:10080000F6039093F703A093F803B093F90384855C
:100810009585A685B7858093F2039093F303A09303
:10082000F403B093F5031092EE031092EF031092CD
:10083000F0031092F1030E94800D85EA9DE09093F1
:10084000C9028093C8029093CB028093CA020E948F
:100850006F0C009731F421E030E0309303042093D3
:1008600002041F910F91089500910002109101025E
:100870002091020230910302DB010D931D932D9311
:100880003C93139794CF8FEF9FEFEBCF8F929F9274
:10089000AF92BF92CF92DF92EF92FF921F93CF93CE
:1008A000DF934B015C011091050482E090E090938E
:1008B00003048093020481149104A104B10441F45F
:1008C00080910504811104C080910404C1E081116C
:1008D000C0E0C12CD12C760180910504811106C0A5
:1008E00080910404811102C0CC23D9F083E090E010
:1008F0009093030480930204CC2379F1CCE9DFEFD9
:10090000111102C00E940A11CE01DF91CF911F91F7
:10091000FF90EF90DF90CF90BF90AF909F908F901F
:1009200008956AE070E080E090E00E94302C80E161
:10093000C80E87E2D81EE11CF11C8FEF88169806BE
:10094000A806B80631F0C1E08C149D04AE04BF04C3
:1009500008F0C0E080E0F7D7BFCFD0E0C0E0D0CF54
:10096000CF92DF92EF92FF920F931F93CF93DF937B
:100970008F3F910511F008F050C020910204309192
:1009800003042330310539F020910204309103042F
:100990002130310531F424E030E03093030420931A
:1009A00002046A017B01EC0182309105A0F011E0A4
:1009B000AE01C701B60192D7AB01BC01CE01112334
:1009C000F9F0DF91CF911F910F91FF90EF90DF90A1
:1009D000CF900C9433138C01000F111F08531D4F3F
:1009E000D8018D919C91892B11F30E943D130297A0
:1009F000F1F6D801ED91FC91CE011995182FD8CFC1
:100A00000E94551390E080E0DF91CF911F910F91EC
:100A1000FF90EF90DF90CF9008958FEF9FEFF4CF8E
:100A200080E091C7CF93DF9386E090E0909303043A
:100A300080930204E1D7EC01E8ECF2E084E0DF010E
:100A40001D928A95E9F70E94A21010920304109259
:100A50000204CE01DF91CF9108958091040408959E
:100A60008091ED03089560930002709301028093DA
:100A700002029093030290E080E00895E0916A03FF
:100A8000F0916B038091CE079091CF07A091D00792
:100A9000B091D10780839183A283B38308952F926D
:100AA0003F924F925F926F927F928F929F92AF92FE
:100AB000BF92CF92DF92EF92FF920F931F93CF934B
:100AC000DF93CDB7DEB762970FB6F894DEBF0FBEE7
:100AD000CDBF8091C0039091C1038130910509F091
:100AE000D6C08091A1039091A203A091A303B091DD
:100AF000A4038090A9039090AA03A090AB03B090A8
:100B0000AC03C090A503D090A603E090A703F0909B
:100B1000A8038F3F2FEF9207A207B20709F094C0F6
:100B2000C701B6016F5F7F4F8F4F9F4F0E94A82A6A
:100B3000A50194010E945E2B20E030E040E85FE4D4
:100B40000E945E2B6093EE027093EF028093F0029E
:100B50009093F1028091BB03882309F4AFC0009108
:100B6000C3031091C40320E030E040E85FE3D80104
:100B70006D917D918D919C910E940B2A881F8827F1
:100B8000881F61E08627682F70E090E080E00E9477
:100B9000AA2A2091C6073091C7074091C8075091F3
:100BA000C9070E94A6296B877C878D879E8720E0D6
:100BB00030E040E251E40E945E2B4B015C018092E8
:100BC000CA079092CB07A092CC07B092CD07F8014C
:100BD000C080D180E280F380F091AA07FB8320914E
:100BE000AB072F838091AC0789879091AD079F87D2
:100BF0002090B2073090B3070091B4071091B50769
:100C0000A70196016F2F7F810E945A2B9101A801A5
:100C100087FD94C0C701B6010E940B2A18160CF07C
:100C2000BBC39101A8016B817F8189859F850E944B
:100C30000B2A87FD8BC04090B6075090B707609095
:100C4000B8077090B90797C0BC01CD016F5F7F4FA7
:100C50008F4F9F4F0E94A82AA50194010E945E2BEE
:100C60002B013C01C701B6010E94A82AA5019401ED
:100C70000E945E2B20E030E040E85FE40E945E2BA3
:100C80009B01AC01C301B2010E94A7295BCF892B54
:100C900009F065CFE0911E03F0911F030190F081F0
:100CA000E02D80819181A281B381E091C303F09115
:100CB000C40380839183A283B38351CF27E137EBB1
:100CC00041ED58E360919E0770919F078091A007C6
:100CD0009091A1070E940B2A882361F087E197EB8E
:100CE000A1EDB8E380939E0790939F07A093A00780
:100CF000B093A10766E370E080E090E0BDDA9093E6
:100D00009D0780939C0743E050E0BE016F5F7F4FDB
:100D1000A2DA69817A8190E080E00E94A82A20E02E
:100D200038E240EA5BE30E945E2B6093C607709353
:100D3000C7078093C8079093C90711CF6B817F8144
:100D400089859F850E940B2A87FF09C09101A80110
:100D5000C701B6010E945A2B18160CF46CCF4090B4
:100D6000AE075090AF076090B0077090B1072B802E
:100D70003F8009851F859101A801C701B6010E9426
:100D8000A6296B017C01A3019201C501B4010E9457
:100D9000A629A70196010E940F2A6B017C0166E03B
:100DA00070E080E090E006DB8C019093A9078093CF
:100DB000A8072091BE073091BF074091C00750910E
:100DC000C107C501B4010E94A729A70196010E948D
:100DD000A72920E030E04CE452E40E945E2B4B0156
:100DE0005C0120E030E04FE753E40E940B2A181624
:100DF0000CF4D6C220E030E0A901C501B4010E9484
:100E00005A2B87FDD4C2B501A401C8019CDA2DEC90
:100E10003CEC4CEC5DE36B857C858D859E850E946A
:100E20005E2B6093CE077093CF078093D00790938B
:100E3000D1078091C0039091C103019709F093C23B
:100E40008091AA079091AB07A091AC07B091AD0734
:100E50008B839C83AD83BE83409092075090930711
:100E60006090940770909507E091C303F091C403DC
:100E7000C080D180E280F380A3019201BC01CD014A
:100E80000E940B2A811197C2C092AA07D092AB0789
:100E9000E092AC07F092AD07EEEAF7E08091CA0766
:100EA0009091CB07A091CC07B091CD07808391831F
:100EB000A283B3836091A5037091A6038091A703D9
:100EC0009091A8030E94A82A20E030E040E85FE467
:100ED0000E945E2B6B017C016091A1037091A203C3
:100EE0008091A3039091A4030E94A82A9B01AC01C6
:100EF000C701B6010E94A72920E030E0A9010E94A5
:100F0000A7290E947C2AAB01BC0190E080E028DD8B
:100F10008091C0039091C103019791F58091BA032C
:100F200081112EC06091B1037091B2038091B3031F
:100F30009091B4030E94A82A20E030E040E85FE4EA
:100F40000E945E2B6B017C016091AD037091AE033A
:100F50008091AF039091B0030E94A82A9B01AC013D
:100F6000C701B6010E94A72920E030E0A9010E9434
:100F7000A7290E947C2AAB01BC0181E090E0F0DC53
:100F80008091C0039091C103019709F0ECC1809159
:100F9000BB03811118C02091B5033091B603409175
:100FA000B7035091B803AAE0B0E00E944032AB0111
:100FB000BC0182E090E0D4DC8091C0039091C10339
:100FC000019709F0D0C1E0911E03F0911F03019039
:100FD000F081E02D40805180628073808091EE022C
:100FE0009091EF02A091F002B091F1028F87988B5F
:100FF000A98BBA8BE091F202F091F302C080D1800C
:10100000E280F380E0912203F091230300811181BB
:10101000E091E602F091E702A081B181BC83AB834D
:10102000228033808481958198878F83A681B781C0
:10103000BA87A987E091E402F091E502118210825B
:1010400084E0F801AB81BC8101900D928A95E1F7B3
:10105000E0911C03F0911D03318220820FDD20E01E
:1010600030E040E05FE3C701B6010E945E2B4B0118
:101070005C01F10120813181428153810E945E2B0C
:10108000AB81BC812D913D914D915C910E94A7292E
:10109000F8016083718382839383E0911E03F09152
:1010A0001F03808191819C878B87A5019401C301D7
:1010B000B2010E94A729AB85BC856D937D938D936A
:1010C0009C931397E0911C03F0911D038F819885E9
:1010D00091838083E4DCD2DC20E030E040E45FE315
:1010E000C701B6010E945E2B4B015C0120E030E09D
:1010F000A901C701B6010E945E2BD1012D913D913E
:101100004D915C910E945E2B6B877C878D879E87BB
:10111000EF81F8852081318142815381C501B4017D
:101120000E945E2B9B01AC016B857C858D859E8525
:101130000E94A729AB81BC812D913D914D915C917D
:101140000E94A729F8016083718382839383E091D1
:101150001E03F0911F03808191819C878B87A501DD
:101160009401C301B2010E94A729AB85BC856D9390
:101170007D938D939C931397E0911C03F0911D0335
:1011800089859A85918380838ADC78DC29E33EE82F
:1011900043E65EE3C701B6010E945E2BD1012D91AB
:1011A0003D914D915C910E945E2B4B015C012BEABD
:1011B0003AEA4AEA5EE3C701B6010E945E2BEF817C
:1011C000F88520813181428153810E945E2B9B01F1
:1011D000AC01C501B4010E94A7294B015C0129E3C0
:1011E0003EE843EE5EE3C701B6010E945E2BA9858F
:1011F000BA852D913D914D915C910E945E2B9B0192
:10120000AC01C501B4010E94A729EB81FC812081BA
:101210003181428153810E94A729D8016D937D932A
:101220008D939C931397E0911E03F0911F030190FF
:10123000F081E02D8F859889A989BA89808391836F
:10124000A283B383E091E402F091E50281E090E0B3
:10125000918380838091A1039091A203A091A30325
:10126000B091A4030196A11DB11D8093A103909399
:10127000A203A093A303B093A403892B8A2B8B2BE7
:1012800099F48091A5039091A603A091A703B09132
:10129000A8030196A11DB11D8093A5039093A603F9
:1012A000A093A703B093A8038091EE029091EF0260
:1012B000A091F002B091F102E091C303F091C40358
:1012C00080839183A283B3838091AD039091AE0319
:1012D000A091AF03B091B0030196A11DB11D809301
:1012E000AD039093AE03A093AF03B093B003892BEB
:1012F0008A2B8B2B99F48091B1039091B203A0912A
:10130000B303B091B4030196A11DB11D8093B10345
:101310009093B203A093B303B093B4038091BB0343
:101320002091C0033091C10321303105B1F4811106
:1013300014C04091B5035091B6036091B70370910A
:10134000B8034F5F5F4F6F4F7F4F4093B50350938C
:10135000B6036093B7037093B8038F5F8A3008F0C9
:1013600050C08093BB0362960FB6F894DEBF0FBEE9
:10137000CDBFDF91CF911F910F91FF90EF90DF9044
:10138000CF90BF90AF909F908F907F906F905F9025
:101390004F903F902F900895C12CD12C7601FFCC17
:1013A000812C912C8FE7A82E83E4B82E2CCD812C94
:1013B000912C540128CD8090B2079090B307A09053
:1013C000B407B090B507A5019401C301B2010E9412
:1013D0000B2A81110BC0C092B207D092B307E092E2
:1013E000B407F092B507E6EBF7E058CDA5019401FC
:1013F0006B817C818D819E810E940B2A87FFEBCFC0
:1014000043CD1092BB03AFCF8F929F92AF92BF920A
:10141000CF92DF92EF92FF920F931F93CF93DF93C0
:1014200080E090E0A0ECBFEF8093BA079093BB07F9
:10143000A093BC07B093BD0780938A0790938B0756
:10144000A0938C07B0938D0740E050E060E87FE701
:101450004093920750939307609394077093950776
:1014600040938E0750938F07609390077093910776
:1014700080E090E0A0E8BFEF8093C2079093C3079D
:10148000A093C407B093C5078093D2079093D30766
:10149000A093D407B093D507EEEDF2E080EC93E093
:1014A00097838683C3ECD3E0D0931F03C0931E03BE
:1014B00029EAC22E23E0D22ED58AC48A2AE633E056
:1014C00037AF26AF24E633E0309323032093220383
:1014D00009E913E010932103009320030BE913E0C3
:1014E000109325030093240306E613E010932703CB
:1014F0000093260308E613E01093290300932803C2
:10150000F0934903E0934803F583E48301E010E09E
:10151000DC010D931C9381E893E001E713E0DC010B
:101520000D931C9305E713E010938403009383034A
:1015300009E713E010938603009385030DE713E09A
:1015400010938803009387030EEB17E0D9010D93E6
:101550001C939187808710925F038EE192E09387BE
:10156000828725EC33E039832883812C912CA0E2FB
:10157000AA2EA1E4BA2E8092BC039092BD03A09241
:10158000BE03B092BF03BCEA8B2EB5EC9B2EB7E234
:10159000AB2EB7E3BB2ED6018D929D92AD92BC923D
:1015A0001397C9E8D3E080EB91E4AFEBB3E3888312
:1015B0009983AA83BB838AE396E3AEEDBBE4809371
:1015C0008D0390938E03A0938F03B093900389E6CD
:1015D0009FEFAAEDB5EA8093910390939203A093B5
:1015E0009303B093940385E793EAA3E8B4E8809368
:1015F000950390939603A0939703B0939803A2ED5D
:10160000B2E0B383A283ECECF2E01196FC93EE938C
:1016100083E292E0918380839383828395838483A2
:101620008FE993E015969C938E9314971396DC9311
:10163000CE93129717963C932E9316971092BE074F
:101640001092BF071092C0071092C107C6E9D7E0F9
:101650004C8B5D8B6E8B7F8B4C8F5D8F6E8F7F8FF6
:10166000188287E197EBA1EDB8E388879987AA876D
:10167000BB87812C912C5401839489829A82AB82FE
:10168000BC8266E370E080E090E00E9480019F836E
:101690008E83DD24D394DD821C868D869E86AF8664
:1016A000B88AE12CF12C8701A801970166E070E06F
:1016B00080E090E00E941E029B8B8A8BD98ADF918A
:1016C000CF911F910F91FF90EF90DF90CF90BF903F
:1016D000AF909F908F9008954F925F926F927F92FC
:1016E0008F929F92AF92BF92CF92DF92EF92FF9232
:1016F0000F931F93F8944090DD035090DE036090A9
:10170000DF037090E003C090D103D090D203E0904B
:10171000D303F090D4034130510509F0A4C09B01DC
:10172000AC01241935094609570929013A010091EC
:10173000D9031091DA032091DB033091DC034801D7
:101740005901840C951CA61CB71C80169106A20694
:10175000B306A0F40091D5031091D6032091D703CE
:101760003091D8030F5F1F4F2F4F3F4F0093D5038A
:101770001093D6032093D7033093D8038092D903D4
:101780009092DA03A092DB03B092DC030091D503C0
:101790001091D6032091D7033091D8038092E103B2
:1017A0009092E203A092E303B092E4030093E50376
:1017B0001093E6032093E7033093E8036093DD037F
:1017C0007093DE038093DF039093E003AAE0B0E020
:1017D000A30192010E9440326C0D7D1D8E1D9F1D44
:1017E0006093D1037093D2038093D3039093D40377
:1017F0000091000210910102209102023091030237
:101800000F3F1F4F2F4F3F4FF1F0009100021091FB
:10181000010220910202309103020E3F1F4F2F4F11
:101820003F4F89F0C0900002D0900102E090020288
:10183000F090030221E08C149D04AE04BF0408F470
:1018400020E02093ED0378941F910F91FF90EF908B
:10185000DF90CF90BF90AF909F908F907F906F90D0
:101860005F904F9008954B015C0184189508A6087D
:10187000B708A3019201261B370B480B590B6415BF
:10188000750586059705D0F082169306A406B50661
:1018900040F420E030E0A90181149104A104B104D6
:1018A00091F4AAE0B0E00E944032A7019601261B05
:1018B000370B480B590BCA01B901C5CF82169306E5
:1018C000A406B50670F7AAE0B0E0A50194010E9455
:1018D00040326C0D7D1D8E1D9F1DB5CFFDCECF936B
:1018E000DF9300D01F92CDB7DEB71C821B821A8215
:1018F00019821092E9031092EA031092EB031092FE
:10190000EC03BE016F5F7F4FCE0103960E94FF275D
:1019100069817A818B819C810E945222009761F4B7
:10192000BE016F5F7F4FCE0103960E940B28698135
:101930007A818B819C812FD50F900F900F900F9003
:10194000DF91CF910895FF920F931F93CF93DF9371
:10195000082F60E070E0CB010E94302CFF24F3944C
:101960000E943B21EC01892B89F010E0CE3F8FEFE4
:10197000D80769F0002361F160E070E0CB010E94BC
:10198000302C81E090E0892B59F322C011E026D55C
:10199000EC01892B21F0CE3F8FEFD80759F71111B9
:1019A0001EC011E0229609F410E00E94EB20EC0129
:1019B000892B21F0CE3F8FEFD807E1F6111111C02E
:1019C00011E0CE3F8FEFD80709F410E001110BC0F2
:1019D000CE01DF91CF911F910F91FF90089511E0FB
:1019E000E4CF11E0F3CF60E070E0CB010E94302C37
:1019F0001F25812F90E0C7CFCF93DF938091ED0318
:101A0000882321F060E070E0CB014DD636D6D0E0DF
:101A1000C0E0892B71F06AE070E080E090E00E9405
:101A2000302C81E090DF29D62196C03D27E0D207F7
:101A300081F728D60E94A622109205041092040471
:101A40001092FE031092FF03109200041092010402
:101A50001092FA031092FB031092FC031092FD0304
:101A60001092F6031092F7031092F8031092F90304
:101A70001092F2031092F3031092F4031092F50304
:101A80001092EE031092EF031092F0031092F10304
:101A90004EEF5FEF6FEF7FEF409300025093010234
:101AA00060930202709303021092ED03E1EEF3E003
:101AB00028E0DF011D922A95E9F71092DD031092CC
:101AC000DE031092DF031092E0031092D90310920C
:101AD000DA031092DB031092DC031092D50310920C
:101AE000D6031092D7031092D8031092D10310920C
:101AF000D2031092D3031092D403DF91CF910895B3
:101B000010921104109212041092130410921404F3
:101B1000109210048091190490911A0490930F046C
:101B200080930E0410920D0410920C04109208047D
:101B30001092090410920A0410920B0410921604D9
:101B40001092150490E080E00895CF92DF92EF921A
:101B5000FF920F931F93CF938C01019709F055C00B
:101B60002091190430911A0480910E0490910F0471
:101B70004091190450911A0450930F0440930E049D
:101B80002817390781F010920D0410920C0410925E
:101B900008041092090410920A0410920B04109287
:101BA0001604109215048091190490911A0401975B
:101BB00061F58091150490911604892B21F4809190
:101BC0000402811112C080911504909116040197AE
:101BD000E1F48091080490910904A0910A04B09165
:101BE0000B040197A105B10581F41092080410922D
:101BF000090410920A0410920B041092040282E06D
:101C000090E09093160480931504809119049091AC
:101C10001A04019709F01CC180912F04909130049F
:101C20008017910709F014C180912B0490912C0426
:101C3000A0912D04B0912E04009709F409C12091C0
:101C40002A0421110DC040912B0450912C04609165
:101C50002D0470912E04452B462B472B09F4F8C018
:101C600020911504309116042230310509F0F0C09E
:101C700020910C042111ECC0FC01C080D180E280D5
:101C8000F38080911004882309F4D3C080911C0450
:101C900090911D04892B09F4FEC020911C04309101
:101CA0001D0481E02230310509F080E020911C0400
:101CB00030911D04C1E02130310549F020911C0410
:101CC00030911D04C1E02230310509F0C0E08823C5
:101CD00009F456C02091260430912704409128042D
:101CE00050912904C701B6010E945A2B87FD14C0E8
:101CF0002091260430912704409128045091290412
:101D00006091110470911204809113049091140455
:101D10000E940B2A87FD22C02091260430912704BF
:101D20004091280450912904C701B6010E945A2B02
:101D3000181634F520912604309127044091280488
:101D40005091290460911104709112048091130440
:101D5000909114040E940B2A811112C080911E04DC
:101D600090911F04A0912004B0912104892B8A2B0B
:101D70008B2B19F481E080930D0481E080930C0497
:101D8000CC2309F456C020912604309127044091B9
:101D9000280450912904C701B6010E940B2A87FF2D
:101DA00014C02091260430912704409128045091BA
:101DB0002904609111047091120480911304909190
:101DC00014040E945A2B87FF22C0209126043091D0
:101DD00027044091280450912904C701B6010E94AC
:101DE0000B2A811126C020912604309127044091AE
:101DF000280450912904609111047091120480917B
:101E00001304909114040E945A2B181694F4809194
:101E10001E0490911F04A0912004B0912104892BED
:101E20008A2B8B2B19F481E080930D0481E0809341
:101E30000C0481E090910C04911180E080931004D7
:101E4000C0921104D0921204E0921304F092140490
:101E50000130110509F067C18091150490911604B5
:101E6000892BD9F410921B0410920C048091040267
:101E7000882379F082E090E0909316048093150413
:101E8000109204022091190430911A0481E0232B4E
:101E9000E9F080E01BC081E009CF1092040280913C
:101EA0001B04882349F010920D041092160410921E
:101EB000150410921B04EDCF8091190490911A041F
:101EC000892BE1F080910C0410920C0420911504F0
:101ED000309116042230310509F45EC088F42115D2
:101EE000310509F448C02130310509F4F3C01092DE
:101EF0000D0410920C0410921B0438C081E0E6CF50
:101F00002330310509F4B1C02430310581F7409107
:101F100008045091090460910A0470910B04411562
:101F200051056105710561F041505109610971095F
:101F3000409308045093090460930A0470930B04BF
:101F4000409108045091090460910A0470910B04B7
:101F5000452B462B472BD9F42091170430911804B8
:101F60002130310509F046C010920D04109216047C
:101F7000109215040CC080910402882341F082E085
:101F800090E090931604809315041092040210922E
:101F9000060480910D04CEC08823C9F380911E04ED
:101FA00090911F04A0912004B091210418161906E5
:101FB0001A061B060CF07DC08091190490911A043A
:101FC000019709F076C080911E0490911F04A091A2
:101FD0002004B09121048093080490930904A093F5
:101FE0000A04B0930B0483E090E09093160480936E
:101FF0001504CDCF40912204509123046091240414
:1020000070912504452B462B472BA9F010920D0407
:102010008091220490912304A0912404B09125047E
:102020008093080490930904A0930A04B0930B04CE
:1020300081E090E0DACF882399F0809105029091B9
:102040000602A0910702B0910802809308049093C1
:102050000904A0930A04B0930B0484E090E0C5CF78
:1020600010920D0482E090E0C0CF8091080490911E
:102070000904A0910A04B0910B040097A105B105D1
:1020800059F00197A109B1098093080490930904BC
:10209000A0930A04B0930B04809108049091090462
:1020A000A0910A04B0910B04892B8A2B8B2B09F089
:1020B0006ECF8091050290910602A0910702B09127
:1020C0000802892B8A2B8B2B09F44ECF81E0809359
:1020D0000D04B3CF409108045091090460910A04A3
:1020E00070910B04411551056105710561F0415076
:1020F00051096109710940930804509309046093E0
:102100000A0470930B0440910804509109046091F3
:102110000A0470910B04452B462B472B09F037CF4F
:102120008111C7CF9FCF80910604882309F431CF56
:1021300080910704CF911F910F91FF90EF90DF9056
:10214000CF9008951092110410921204109213046B
:102150001092140410921004109216041092150498
:1021600010920F0410920E041092300410922F045B
:1021700010920D0410920C0410920804109209049D
:1021800010920A0410920B04109207041092060495
:1021900010922B0410922C0410922D0410922E04F5
:1021A00010922A04109226041092270410922804F8
:1021B0001092290488EE93E0A0E0B0E0809305023D
:1021C00090930602A0930702B09308021092220493
:1021D00010922304109224041092250410921E04DD
:1021E00010921F04109220041092210410921D04DA
:1021F00010921C0481E08093040210921B04109240
:102200001A0410921904109218041092170490E006
:1022100080E008958091190490911A04892B19F592
:1022200080910402882351F080911B04811106C023
:1022300081E08093070480930604089520911B0495
:102240003091040281E090E0332311F090E080E0CF
:1022500030E082239323892B21F01092070481E040
:10226000EACF10920604089582E090E0FA0191838B
:1022700080838FEF9FEF0895CF93DF93EA0100975C
:1022800011F00E9420231982188290E080E0DF91F3
:10229000CF910895DB01009719F48FEF8C93089587
:1022A0002EEF2C93FC013F96EF30F10508F034C07F
:1022B0008827E25AFE4E8F4F0C9438328A118811CB
:1022C0008611841182117E1180117C117A1178118E
:1022D000751171116D1173118C1180E311968C932E
:1022E000089589E2FBCF82E2F9CF11961C920895FE
:1022F00083E2F4CF81E2F2CF81E1F0CF87E2EECF4B
:102300008AE2ECCF80E1EACF84E2E8CF88E2E6CF50
:1023100086E2E4CF81E3E2CF80E2E0CF80913D042A
:1023200090913E04089590933E0480933D04089557
:1023300080913C04089590913C04892B80933C0447
:102340000895982F909580913C04892380933C04B4
:10235000089580913B0408958091390490913A0446
:1023600008956115710559F0FB0130E020E070E03F
:1023700060E02417350719F06115710511F0CB01E4
:102380000895A081B181A817B90709F4BF012F5F93
:102390003F4F3696EECF80913F0481111CC060D232
:1023A00066D290933204809331040E94D31B0E9422
:1023B000E51B90933604809335040E9453200E94BD
:1023C0005A20909334048093330481E080933F0437
:1023D00090E080E0089584EF9FEF08958F929F92A0
:1023E000AF92BF92CF92DF92EF92FF920F931F9323
:1023F000CF93DF9300D000D000D01F92CDB7DEB7CF
:102400001A86198618861F821E821D821C821B82D4
:102410001A82198280913F0407EF1FEF882309F485
:102420009CC08E010D5F1F4F9E012B5F3F4FAE0181
:10243000495F5F4FBE01675F7F4F90E080E00E9481
:10244000D7218C01009721F00596029708F0DBC098
:1024500029853A852115310509F402C1ED80FE80F8
:102460004B815C81B701640F751F8F81988586173A
:10247000970708F4F5C0E20EF31ED7019C91903C3B
:1024800009F07FC04230510508F47BC011968C9151
:1024900040913D0450913E04452B09F49CC0913F6E
:1024A00008F071C02CE1290F2D3008F48BC02DE20B
:1024B000290F203108F489C0903C21F481508230EA
:1024C00008F483C088E3890F8B3008F481C09AE454
:1024D000C92E91E1D92EE4E3F1E16D817E81AE0157
:1024E0004F5F5F4F89859A8519955C01C114D104AE
:1024F000A1F189809A808114910479F18B819C816A
:102500008815990508F487C010E000E04B815C81D4
:1025100070E060E0C7010E94623201151105E9F424
:1025200049815A8169857A858D819E81680F791FDD
:10253000C501F6011995E980FA800D811E812F8170
:10254000388549855A856FEF7FEF81E090E00E94E2
:1025500072218C01892B09F056C0C8012A960FB64A
:10256000F894DEBF0FBECDBFDF91CF911F910F91C9
:10257000FF90EF90DF90CF90BF90AF909F908F90A3
:10258000089580E085CF30E020E0220F331FF9016D
:10259000EF5CFB4F0190F081E02D309709F497CF6D
:1025A000892F90E01995009709F491CFDC011296DC
:1025B000ED91FC9113971496CD90DC90309709F033
:1025C0008CCF1FC021E030E0E0CF22E030E0DDCF53
:1025D00023E030E0DACFD12CC12CECE3F1E19F3FD6
:1025E00009F07BCFE0913104F0913204309721F46F
:1025F000C90104EF1FEF0CC08FEF90E01995009711
:10260000A9F604EF1FEF89859A85009709F4A5CFF5
:102610000E942023A2CF0E94A1228C0189859A8545
:102620000E94202370E060E0C4010E943A22988753
:102630008F830E946F219E838D836F8178856115C2
:10264000710559F0C8010E9443249A87898706EFD3
:102650001FEF892B09F058CF59CF08EF1FEF56CF46
:1026600008EF1FEFD0CF20913F04222319F020E084
:102670000C94EA1B87EF9FEF089580913D049091A1
:102680003E0408950E945F200E94B91FF5D0E1E347
:10269000F4E088E0DF011D928A95E9F710923F048B
:1026A00090E080E008950C94171E21E040E050E097
:1026B000BA010C94EA1B86E090E0FA0191838083D2
:1026C00090E080E0089547E050E066E272E049CE95
:1026D000DF92EF92FF920F931F93CF93DF938A01C4
:1026E000EC01C60FD71FE0904304F0904404D9805A
:1026F0000E948922D816190678F082E090E0F8014D
:10270000918380838EEF9FEFDF91CF911F910F9187
:10271000FF90EF90DF900895EF2841F482E090E081
:10272000F8019183808384EF9FEFEECF89818093BE
:10273000420490E00196F8019183808390E080E06C
:10274000E3CFCF93DF93EA010E94C81E882321F0D4
:102750000E9496220E94C91E82E090E0998388839D
:102760008BEF9FEFDF91CF910895CF93DF93EB0134
:1027700086E0FB0111928A95E9F78FEF8883D8DD17
:102780008983E7DD8A83E8DD9D838C83DF91CF91A8
:102790000895CF93DF93EA010E94CB1E811109C0F7
:1027A00082E090E09983888385EF9FEFDF91CF915E
:1027B000089590E080E0B7DD81E090E09983888320
:1027C00090E080E0F3CF0F931F93CF93DF93EA0164
:1027D0008C01060F171F0E94CB1E81110BC082E0D7
:1027E00090E09983888385EF9FEFDF91CF911F91D0
:1027F0000F910895F8018181823038F082E090E0F5
:10280000998388838EEF9FEFF0CF81E090E08BDD9E
:1028100088E090E09983888390E080E0E6CFCF93D2
:10282000DF930097D1F4EB01FB01329686E0DF01E4
:102830001D928A95E9F78FEF888385E089831A8254
:102840000E9489228B830E9488229D838C8381E051
:102850008E838F83DF91CF910895DF91CF911ACD31
:1028600083E693E19093410480934004089580911E
:102870004004909141040895109241041092400444
:10288000089580914304909144040895411105C036
:10289000611571058105910561F0609343047093A2
:1028A000440480934504909346044093470481E098
:1028B000089580E00895FF920F931F93CF93DF93C5
:1028C0008A01EC01C60FD71FF9800E948922F816F1
:1028D000190668F082E090E0F801918380838EEF22
:1028E0009FEFDF91CF911F910F91FF9008956C8121
:1028F0007D818E819F814B81C9DF811108C082E07B
:1029000090E0F8019183808384EF9FEFEACF898183
:102910008093420490E00196F8019183808390E0D7
:1029200080E0DFCFCF93DF93EA01FC01E60FF71FD2
:1029300064817581868197814381A8DF811109C0F7
:1029400082E090E09983888384EF9FEFDF91CF91BD
:10295000089581E090E09983888390E080E0F6CF4D
:10296000E3E4F4E04081518162817381480F511D9D
:10297000611D711D40835183628373830895CF93DA
:10298000C09142044C2F50E0609143047091440484
:1029900001960E9459328C2FE3DF10924204CF91AE
:1029A0000895009799F480914304909144042FEF87
:1029B000FB012083892B59F02091420430E02F5FE6
:1029C0003F4F2417350719F4CB01D9CF63CC0895B5
:1029D000009799F480914304909144042FEFFB01F8
:1029E0002083892B59F02091420430E02F5F3F4F24
:1029F0002417350719F4CB01C2CF4CCC089523E13D
:102A0000AC01249FC001259F900D1124E0914C043E
:102A1000F0914D04E80FF91F2381348122503109D0
:102A200081E02230310508F080E008950F931F9374
:102A3000CF93DF9300914E0410914F04D0E0C0E09B
:102A400080E00C171D0749F491E0811190E0892F77
:102A5000DF91CF911F910F9108958111F5CFCE0194
:102A6000CEDF2196EECFA0914C04B0914D0410978B
:102A700029F120914E0430914F0482179307F0F40E
:102A800053E1589F9001599F300D1124A20FB31F9D
:102A9000ED91FC911197309789F012968C916817FF
:102AA00068F48BE0689FE00DF11D11248081918115
:102AB000892B21F081E09281491708F080E0089588
:102AC0009C0143E1429FC001439F900D1124E0917E
:102AD0004C04F0914D04E80FF91F8385823091F486
:102AE00081E090E0658176814091090250910A026F
:102AF0006417750711F490E080E0892B19F081E0EC
:102B0000232B09F080E00895EF92FF920F931F931B
:102B1000CF93DF93EA01FC01E60FF71F02811381D7
:102B2000E480F5804F2D6E2DC8019DDF81110DC011
:102B300082E090E0998388838EEF9FEFDF91CF91C1
:102B40001F910F91FF90EF900895C80158DF8823DF
:102B500039F082E090E09983888388EF9FEFEECF91
:102B60001093100200930F02E0921102F0921202F1
:102B700081E090E09983888390E080E0DFCFCF927E
:102B8000DF92EF92FF920F931F93CF93DF937A011F
:102B9000EC01C60FD71FC0900F02D0901002009119
:102BA000110210911202412F602FC6015CDF8111CA
:102BB00010C082E090E0F701918380838AEF9FEF5D
:102BC000DF91CF911F910F91FF90EF90DF90CF9009
:102BD0000895C60114DF882341F082E090E0F701F8
:102BE0009183808388EF9FEFEBCF4C815D816E8175
:102BF0007F819A8189818F3F41F082E090E0F701E7
:102C0000918380838EEF9FEFDBCFE3E1EC9D90011A
:102C1000ED9D300D1124E0914C04F0914D04E20F34
:102C2000F31F0190F081E02D2BE0029FE00DF11DDC
:102C300011240190F081E02D27E0129FE00DF11D9D
:102C40001124808391838B818283438354836583A2
:102C500076831F5F1093120281E090E0F701918369
:102C6000808390E080E0ACCFEF92FF920F931F93B0
:102C7000CF93DF937A018C01060F171FC0914C048C
:102C8000D0914D04209781F021E030E0F80182815D
:102C9000938140914E0450914F048417950710F092
:102CA00030E020E0232B71F482E090E0F701918383
:102CB00080838EEF9FEFDF91CF911F910F91FF9057
:102CC000EF90089543E1489F9001499F300D1124F2
:102CD000C20FD31F94DE882341F082E090E0F70119
:102CE0009183808388EF9FEFE6CFF80124813581BF
:102CF00020383105C8F687818111D6CF4181842FD4
:102D000090E08F7E009741F082E090E0F7019183A0
:102D1000808386EF9FEFCFCF4F833E832D83268125
:102D200028871986223010F421E0288721E030E03E
:102D3000F70131832083BFCF88E090E0FA019183CF
:102D4000808390E080E00895FB018FEF808381E134
:102D500081838FEF9FEF9383828380E890E0958358
:102D60008483168217820895FB018FEF808391E0A0
:102D7000918382839383848384E3858381E090E0DD
:102D8000978386830895DF92EF92FF920F931F93AC
:102D9000CF93DF93EA01FC01E60FF71F81818130B9
:102DA00071F082E090E0998388838FEF9FEFDF914D
:102DB000CF911F910F91FF90EF90DF900895828146
:102DC0009381D4802581E680F78000914C04109196
:102DD0004D040115110539F482E090E09983888350
:102DE0008CEF9FEFE4CF40914E0450914F04841735
:102DF000950738F082E090E0998388838EEF9FEF0B
:102E0000D6CF892B39F082E090E09983888386EFD2
:102E10009FEFCDCF8D2D8D7FB1F72130A1F781E0D0
:102E2000D11006C091E0E916F10431F080E004C051
:102E3000E2E0EE16F104D0F3882329F390E080E07D
:102E4000DEDD882339F082E090E09983888388EF83
:102E50009FEFADCFF801D38681E08487F686E586C3
:102E6000108A178681E090E09983888390E080E063
:102E70009ECF4CE050E060E572E073CA8F929F9263
:102E8000BF92CF92DF92EF92FF920F931F93CF9357
:102E9000DF93EA01FC01E60FF71F82819381048131
:102EA000B580E0914C04F0914D04309791F482E0AC
:102EB00090E0998388838CEF9FEFDF91CF911F91F2
:102EC0000F91FF90EF90DF90CF90BF909F908F90E9
:102ED000089520914E0430914F048217930738F0E3
:102EE00082E090E0998388838EEF9FEFE6CF23E125
:102EF000289F6001299FD00C1124EC0DFD1DE0805E
:102F0000F180E114F10499F28281081748F78BE00F
:102F1000089F80011124E00EF11EF701808191814C
:102F2000892B29F6BB20E1F2F7E0BF9E4001112476
:102F3000C4010E941D23F70191838083E0914C041A
:102F4000F0914D04EC0DFD1D0190F081E02DE00F9E
:102F5000F11F80819181009739F482E090E099839C
:102F600088838DEF9FEFA9CFA40170E060E00E94FD
:102F7000623280914C0490914D04C80ED91EF60126
:102F800080819181080F191FF801B28281E090E0E1
:102F90009983888390E080E090CFAF92BF92CF92E8
:102FA000DF92FF920F931F93CF93DF93EA01FC010F
:102FB000E60FF71F82819381F48000914C041091F9
:102FC0004D040115110581F482E090E09983888316
:102FD0008CEF9FEFDF91CF911F910F91FF90DF90CA
:102FE000CF90BF90AF90089520914E0430914F0440
:102FF0008217930738F082E090E0998388838EEF00
:103000009FEFE8CF2FEF2F0D2C3FA8F723E1289F4C
:103010006001299FD00C11240C0D1D1DF801808129
:103020009181892B89F6FBE0FF9E50011124C50197
:103030000E941D23F80191838083E0914C04F0915C
:103040004D04EC0DFD1D80819181009739F482E0E3
:1030500090E0998388838DEF9FEFBCCFA50170E04E
:1030600060E00E946232E0914C04F0914D04EC0D5E
:10307000FD1DF28281E090E09983888390E080E0FA
:10308000A9CFCF92DF92EF92FF920F931F93CF932E
:10309000DF93860F971FFC010281138180914C04FE
:1030A00090914D04892B81F082E090E0FA019183A8
:1030B00080838CEF9FEFDF91CF911F910F91FF9055
:1030C000EF90DF90CF900895C801B0E0A0E00197A5
:1030D000A109B1098F3F9F4FA105B10540F082E0E2
:1030E00090E0FA01918380838EEF9FEFE4CF7A0125
:1030F00083E1809F6001819FD00C1124C6010E9452
:103100001D23EC01009741F482E090E0F7019183E8
:1031100080838DEF9FEFCFCFA60170E060E00E942B
:103120006232D0934D04C0934C0410934F0400932B
:103130004E0490E080E02FEF3FEF41E061E070E06F
:103140008017910741F481E090E0F701918380833B
:1031500090E080E0B0CF3A8B298B1B864C877E872E
:103160006D87188A1F8601966396EACFCF92DF9209
:10317000EF92FF920F931F93CF93DF93EC01D12C2B
:10318000C12C10E000E0F12CE12C6A8160171106DF
:1031900009F0CCF483E0689FB0011124AE014F5ECA
:1031A0005F4FC7010E944A23009721F02FEF3FEFA6
:1031B0003A8B298BDF91CF911F910F91FF90EF9068
:1031C000DF90CF900895E881F981EC0DFD1D4381DA
:1031D00054818D859E85489F9001499F300D589F51
:1031E000300D1124C90101960115110519F44F8103
:1031F00044FD049661E070E00E943A22E816F90668
:1032000008F47C010F5F1F4F8BE0C80ED11CBDCFAF
:10321000F89420914A0430914B0481E02115310546
:1032200009F080E0232B09F0789408952F923F92C3
:103230004F925F926F927F928F929F92AF92BF92C6
:10324000CF92DF92EF92FF920F931F93CF93DF9372
:103250003C01660E771EF301828193814C01B12CF3
:10326000A12CC0914C04D0914D04209769F021E02D
:1032700030E060914E0470914F048617970710F06C
:1032800030E020E0232BD1F482E090E0FA0191833A
:1032900080838EEF9FEFDF91CF911F910F91FF9071
:1032A000EF90DF90CF90BF90AF909F908F907F90E6
:1032B0006F905F904F903F902F90089580921302EF
:1032C00090921402A0921502B092160263E1689FD8
:1032D0009001699F300D1124C20FD31FF30181812A
:1032E000833040F082E090E0FA019183808386EFA2
:1032F0009FEFD1CF2A012B813C81232BF1F4288130
:1033000039819F8191FF2EC0232B09F46FC020913A
:1033100051049A81422F490F5527551FBA0141E0A8
:1033200050E06138710514F050E040E0452B09F49D
:103330005DC02A87920F909351048150823008F427
:1033400081C066DF882309F4D8C0F3018181813010
:1033500009F48DC008F47BC0823009F4C6C090E047
:1033600080E0ADC0232B09F441C0209150049A8124
:10337000E22FE90FFF27FF1F41E050E0ED3FF1058D
:1033800014F050E040E0452B89F12A87920F90938A
:103390005004D3CFA081B181A20FB31F11966C91BD
:1033A000060F111D0196295F3F4F8417950794F36F
:1033B0008D859E85089F1001099F300C189F300C49
:1033C0001124C114D104D1F48F8184FF17C00E944D
:1033D0008822F5E02F0E311C21E08215930508F4B8
:1033E00020E0A701455F5F4F21110EC082E090E011
:1033F000F2019183808387EF9FEF4DCF0E94882257
:103400002FEF221A320AE8CF88819981E80EF91E3F
:10341000F70114830383FFEFCF1ADF0A7A018A8151
:103420008C151D0409F00CF48CCFE881F981EE0DA8
:10343000FF1D428150E030E020E010E000E090E02D
:1034400080E0B3CFF12CE12CD12CC12CE8CF81E06E
:1034500090E09C838B83EADA882309F480CF81E0B3
:1034600090E00E94931180E40E94A11178CF898995
:103470009A89019661F083E090E09C838B8382E0DF
:1034800090E00E94931180E40E949B1168CF8D818F
:103490009E812091090230910A0282179307D1F48C
:1034A00060910D0270910E02AE014F5E5F4F8091F0
:1034B0000B0290910C020E9402240097E1F2789492
:1034C00022E030E0F20131832083892B99F08DEFE7
:1034D0009FEFE1CE89288A288B2869F6039758F652
:1034E000CE0144DE188A1F86E8CF82E090E09C83FC
:1034F0008B8335CF90E080E0CECE82E090E0F20189
:103500009183808385EF9FEFC6CE8F929F92AF927B
:10351000BF92CF92DF92EF92FF920F931F93CF93C0
:10352000DF93EA018C01060F171FF80181818330B8
:1035300098F082E090E09983888386EF9FEFDF9197
:10354000CF911F910F91FF90EF90DF90CF90BF90A0
:10355000AF909F908F90089580914C0490914D046E
:10356000892B61F081E090E020914E0430914F046E
:10357000232B11F490E080E0892B39F482E090E075
:10358000998388838EEF9FEFDACF42DE882309F498
:10359000E0C0F8018181813009F496C0E8F0823002
:1035A00099F420914E0430914F04E0914C04F09135
:1035B0004D0490E080E041E050E02817390709F021
:1035C000BEC034DA811117C0789481E090E099830D
:1035D000888390E080E0B3CF20914E0430914F0477
:1035E000E0914C04F0914D0490E080E041E050E027
:1035F0002817390741F481E090E00E94931180E49C
:103600000E94A111E1CF63817481672B11F0548373
:10361000438301967396ECCFE0914C04F0914D04F6
:10362000E00FF11F2381348122303105D9F4218943
:1036300032892F3F3F4FB1F42581368140910902F5
:1036400050910A022417350761F5AF014F5E5F4FB5
:1036500060910D0270910E0280910B0290910C020C
:103660000E940224EFEFCE1ADE0AEE0AFE0A0D5E79
:103670001F4F40914E0450914F0470E060E0C4161B
:10368000D506E606F70644F5009731F27894892BC3
:1036900009F49BCF82E090E0998388838DEF9FEFC0
:1036A0004ECFC114D104E104F104E1F62330310519
:1036B000C8F6CF015BDDE0914C04F0914D04E00FC2
:1036C000F11F108A1786CECF10E000E090E080E076
:1036D000C12CD12C7601CDCF0097C1F610E000E0CF
:1036E000812C912C540183E0E82EF12C1AC0E0913A
:1036F0004C04F0914D04E00FF11F838194810297F7
:1037000049F4F482E38282E090E00E94931180E425
:103710000E949B11FFEF8F1A9F0AAF0ABF0A0D5E2E
:103720001F4F80914E0490914F04B0E0A0E08816A6
:103730009906AA06BB06DCF290E080E0A7CF638181
:1037400074816230710511F454834383019673963A
:1037500034CF82E090E09983888385EF9FEFEFCEAE
:103760000097B9F48FEFFB01808320911302309111
:10377000140243E1429FC001439F900D1124E09148
:103780004C04F0914D04E80FF91F8285FB01818301
:1037900008950C944A1188E090E0FA0191838083A7
:1037A00090E080E0089510924B0410924A04ECE4FB
:1037B000F4E086E0DF011D928A95E9F789E397E15D
:1037C000909349048093480408958091480490910F
:1037D000490408952F923F924F925F926F927F9289
:1037E0008F929F92AF92BF92CF92DF92EF92FF9211
:1037F0000F931F93CF93DF93CDB7DEB760970FB6CC
:10380000F894DEBF0FBECDBFF894E0914A04F0916A
:103810004B043196F0934B04E0934A047894A091C2
:103820004C04B0914D04BA83A983109709F4F9C1EF
:10383000E0914E04F0914F04EF2B09F4F2C1288778
:103840004B875C876D877E879A878987B88BAF8720
:10385000312C212CF12C512C412C80914E04909133
:103860004F042816390610F4FF2029F1F8948091AE
:103870004A0490914B04019790934B0480934A041F
:103880007894C20160960FB6F894DEBF0FBECDBF2C
:10389000DF91CF911F910F91FF90EF90DF90CF902C
:1038A000BF90AF909F908F907F906F905F904F9060
:1038B0003F902F900895B10190E080E087D4682E6A
:1038C000EF85F889878181FD3DC0838194810397CD
:1038D000C9F5258136813C832B8389859A852817F4
:1038E000390781F5C101ECD8782E8823A9F1AF857D
:1038F000B8891F968D919C915097019621E01D9655
:103900004D915C918417950709F020E02F83B12C2D
:10391000A12CEF85F88982818A151B0419F014F017
:10392000FF20E9F0F885FF2309F46BC1AF85B88962
:1039300050961C921E921F97662021F0B10190E0D4
:1039400080E046D4FFEF2F1A3F0A2F8538892D5E7D
:103950003F4F388B2F8781CFB1E0BF83D8CFBFD403
:103960009E838D83E885EE23E9F0772009F43BC13F
:10397000AF85B8891F968D919C91892B79F0BBE01A
:10398000BA9DC001BB9D900D1124AF85B889ED9102
:10399000FC91E80FF91F8581968152D6BFEFAB1AD3
:1039A000BB0AB7CF81E0772039F0EF85F88927850A
:1039B0003089232B09F080E0F82EE12CA114B1040A
:1039C00039F4AF85B8891796EC90E4FAEE24E0F864
:1039D000BBE0BA9D6001BB9DD00C1124882309F483
:1039E00023C1AF85B889ED91FC911197EC0DFD1DB8
:1039F000438154811D962D913C91429FC001439F6C
:103A0000900D529F900D1124E1105CC0019690879B
:103A1000878361E070E0878190852CD5EF85F889F8
:103A200021893289008111810C0D1D1D2F3F320724
:103A300009F44AC0BC01C90126D7D80116969C9347
:103A40008E931597AF85B889ED91FC911197EC0D88
:103A5000FD1D058116810115110509F4CDC0ED810B
:103A6000FE810E0F1F1F1A968C918A0DD8018C9320
:103A7000E1102FC00F5F1F4FAF85B889ED91FC910A
:103A8000EC0DFD1D12870187AF85B889ED91FC9182
:103A9000EC0DFD1D85819681892B09F4A4C08091D0
:103AA000090290910A022B813C812817390709F4F9
:103AB00065C0772011F001851285912C812C1A8226
:103AC00019824AC00596A3CFB8D5F801968385839D
:103AD000B9CF8B859C85AD85BE85F80181839283A6
:103AE000A383B4830B5F1F4FC7CFE080F180E80C46
:103AF000F91CD70113966D917C9114978C918F3F8F
:103B000009F473C0E1E0F0E002C0EE0FFF1F8A95F8
:103B1000E2F7CF01092E000CAA0BBB0BFB01408181
:103B200051816281738184239523A623B72321E0E9
:103B3000892B8A2B8B2B09F420E0D8012C93D701F9
:103B400011968C91080F111DE981FA813196FA8343
:103B5000E983F7E08F0E911CAF85B889ED91FC9158
:103B6000EC0DFD1D828129813A818217130611F027
:103B70000CF0BBCF772011F0128701873F813323F0
:103B800091F1AF85B889ED91FC91EC0DFD1D61E0DF
:103B900070E0878190856ED4AF85B889ED91FC91F6
:103BA000EC0DFD1DE780F08445815681E1E0F0E0F9
:103BB000662011F0F0E0E0E00D811E819C01B10172
:103BC000882799278E1B9F0B8DD32C01892B59F0A9
:103BD000EF85F88980819181C80ED91ED60115968E
:103BE0008D919C912DD5F12CD9CEF701418150E0DA
:103BF000C8010E945932A3CF86EF482E55245A940B
:103C0000CDCEEF85F889878590890196908B87873F
:103C1000258536858217930709F08ECE108A178680
:103C20008BCE512C412C22CE10E000E02DCF2F92D4
:103C30003F924F925F926F927F928F929F92AF923C
:103C4000BF92CF92DF92EF92FF920F931F93CF9389
:103C5000DF9380914C0490914D0410E000E0892B9B
:103C6000A9F0D6DA0AEF1FEF882381F020904E04E6
:103C700030904F04C0914C04D0914D04D12CC12CF4
:103C800010E000E02C143D04A9F47894C801DF9101
:103C9000CF911F910F91FF90EF90DF90CF90BF9049
:103CA000AF909F908F907F906F905F904F903F90DC
:103CB0002F900895C6010E946015882309F18B8119
:103CC0009C810397E9F48F859889892BC9F0B60107
:103CD00090E080E07BD221E030E0882311F030E0FA
:103CE00020E044245524421A530AB12CA12C912CD3
:103CF000812C8A818815190409F038F4188A1F86E6
:103D00004FEFC41AD40A6396BDCFE881F981EA0D5A
:103D1000FB1D85819681892BA1F161E070E087818F
:103D20009085A8D33C01DBD28C01E881F981EA0DB2
:103D3000FB1D8185928525813681200F311FAC01C5
:103D4000421B530B9A0147815085421B530B70E075
:103D500060E00E946232E881F981EA0DFB1DE78094
:103D6000F084458156819301B601C201BBD28C011A
:103D7000892B39F0E881F981EA0DFB1D8581968157
:103D80005FD45FEF851A950A8BE0A80EB11CB1CF06
:103D90003FCA789408952F923F924F925F926F920C
:103DA0007F929F92AF92BF92CF92DF92EF92FF925B
:103DB0000F931F93CF93DF9300D000D0CDB7DEB722
:103DC00000914C0410914D04992493940115110510
:103DD00009F43EC0A0904E04B0904F0419DA982E1A
:103DE0008823B1F110924D0410924C0410924F04AC
:103DF00010924E0410925004109251048FEF9FEFD6
:103E0000DC018093130290931402A0931502B093E7
:103E1000160278947FD31E830D83C12CD12C76019A
:103E2000C501B0E0A0E089839A83AB83BC832224E0
:103E30002A94322C89819A81AB81BC81C816D9061B
:103E4000EA06FB06F4F0C801FBD380E40E94A1114E
:103E5000892D26960FB6F894DEBF0FBECDBFDF9139
:103E6000CF911F910F91FF90EF90DF90CF90BF9077
:103E7000AF909F907F906F905F904F903F902F906A
:103E80000895AD81BE8115968D919C9116972091D4
:103E9000090230910A0282179307D1F451968D914D
:103EA0009C91DFD4ED81FE8180819181B12CA12C88
:103EB000412C512C3201892B89F5BFEFCB1ADB0A3B
:103EC000EB0AFB0AED81FE817396FE83ED83B2CF90
:103ED000C114D104E104F10429F7039718F7ED8127
:103EE000FE81818992898F3F980709F05CD4AD816A
:103EF000BE8152963C922E925197D4CF8A0D9B1D33
:103F0000DC018D919C91009709F09AD3BFEF4B1A79
:103F10005B0A6B0A7B0AEBE0AE0EB11CAD81BE8181
:103F20008D919C91119712964C9150E070E060E059
:103F300044165506660677060CF382D3BECFCF93A0
:103F4000DF93EA0128DF811109C082E090E09983C4
:103F5000888385EF9FEFDF91CF91089581E090E016
:103F60000E94931181E090E09983888390E080E043
:103F7000F2CF11DF1092490410924804089542E0F4
:103F800050E068E972E00C94B111FF920F931F9317
:103F9000CF93DF938A01EC01C60FD71FF980B9D206
:103FA0000897F816190671F068F082E090E0F801C1
:103FB000918380838EEF9FEFDF91CF911F910F91BF
:103FC000FF9008956C817D818E819F814B810E943D
:103FD0004614811108C082E090E0F801918380834B
:103FE00084EF9FEFE9CFF9800E9441144F2D50E0FC
:103FF000BE01685F7F4F0E94593289810E94B014D0
:1040000081E090E0F8019183808390E080E0D4CF5C
:10401000DF92EF92FF920F931F93CF93DF938A016A
:10402000EC01C60FD71F0E9441147C01D98071D2C8
:10403000DD2059F0029721E030E0D816190619F07A
:1040400010F030E020E0232B79F482E090E0F801DA
:10405000918380838EEF9FEFDF91CF911F910F911E
:10406000FF90EF90DF900895EF2841F482E090E018
:10407000F8019183808384EF9FEFEECFF9800E9457
:1040800041144F2D50E0BE016E5F7F4F0E945932A8
:1040900089810E94B01481E090E0F80191838083CF
:1040A00090E080E0D9CF8FEB9FE190935304809311
:1040B00052040895809152049091530408950895F4
:1040C000FC0111821082938382830895DB011D928B
:1040D0001C92DC011296ED91FC9113977183608321
:1040E00013967C936E9312970895FC0180819181C1
:1040F000DB018D939C93A081B181109741F08D914C
:104100009C9191838083892B11F4F383E28308953A
:10411000FC0180819181DB018D939C93892B11F4AB
:1041200073836283718360830895FC01118210821E
:10413000938382830895CF93DF931F921F92CDB70D
:10414000DEB71A821982F894BE016F5F7F4F89E54E
:1041500094E0CBDF89819A81009709F071D289813F
:104160009A81892B89F7BE016F5F7F4F8DE594E0BF
:10417000BCDF89819A81009709F062D289819A8196
:10418000892B89F778940F900F90DF91CF91089544
:10419000CF93DF931F921F92CDB7DEB71A82198299
:1041A000F894BE016F5F7F4F85E594E09EDF8981C3
:1041B0009A81009709F044D289819A81892B89F7E5
:1041C00078940F900F90DF91CF91089581E008953A
:1041D00090E080E00895EF92FF920F931F93CF93AA
:1041E000DF931F921F92CDB7DEB71A82198280919A
:1041F000540407EF1FEF8823A1F1F894BE016F5F0D
:104200007F4F8DE594E071DF789489819A81EE2467
:10421000E394F12C892B51F4F894BE016F5F7F4F2A
:1042200089E594E062DF7894F12CE12C89819A8110
:104230000EEF1FEF0097A9F0FC014281538164E06B
:1042400070E011D58C01892B61F0F89469817A8135
:10425000C701880F991F880F991F875A9B4F58DFF6
:104260007894C8010F900F90DF91CF911F910F911B
:10427000FF90EF9008950F931F93CF93DF9300D09B
:104280001F92CDB7DEB71C821B821A8219828091E1
:10429000540407EF1FEF8823C1F0AE014D5F5F4F5D
:1042A00064E070E0CE01019651D58C01892B69F450
:1042B000E981FA818B819C8193838283F89469815F
:1042C0007A8185E594E002DF7894C8010F900F9021
:1042D0000F900F90DF91CF911F910F91089556D6B7
:1042E000049608958F929F92AF92BF92CF92DF92E1
:1042F000EF92FF920F931F93CF93DF931F921F9222
:10430000CDB7DEB71A821982BC016F5F7F4F633071
:10431000710598F0AA24AA94BA2CC5010F900F90A9
:10432000DF91CF911F910F91FF90EF90DF90CF9091
:10433000BF90AF909F908F9008954115510551F314
:10434000480159018A016C01CADF8815990511F7E6
:10435000E114F104F9F28E0D9F1DA816B906D0F2F2
:10436000809154048823F1F0F894B50164507109E8
:104370009701AE014F5F5F4FC80104967CD55C0189
:10438000892B71F489819A81F80193838283C60114
:10439000880F991F880F991FB801875A9B4F96DE87
:1043A0007894BBCF87EFA82EBB24BA94B6CFAF9238
:1043B000BF92CF92DF92EF92FF920F931F93CF9312
:1043C000DF931F921F92CDB7DEB71A821982892B15
:1043D00009F047C06115710509F443C04115510545
:1043E00009F43FC02115310509F43BC00115110541
:1043F000C1F1809154048823B9F179016A015B010C
:10440000F894BE016F5F7F4F85E594E06EDE78948F
:1044100089819A81009759F1DC0112966D917C9106
:10442000A801049641D58C01E981FA81D501ED936B
:10443000FC93828193810496F601918380834FDF00
:10444000D7018D939C93C8010F900F90DF91CF916E
:104450001F910F91FF90EF90DF90CF90BF90AF90A2
:1044600008950FEF1FEFEFCF07EF1FEFECCF0EEF29
:104470001FEFE9CFCF93DF93EC01672B71F48FD55A
:104480008C179D0760F082D52496C80FD91F81D55F
:104490008C0F9D1FDF91CF9108957ED5F1CF90E0D5
:1044A00080E0F8CF0F931F93CF93DF9320915404B4
:1044B00021112BC08B01EC0189E594E001DE8DE533
:1044C00094E0FEDD85E594E0FBDD97D00097C1F434
:1044D00066D570E060E0CEDF47E152E062E070E078
:1044E000D9D0009769F4809117029091180269D58C
:1044F000B801CE019ED3009719F421E02093540413
:10450000DF91CF911F910F91089584EF9FEFF8CF26
:1045100043C545C5CF93DF9345D5EC01892B11F4F5
:104520000ADE36DECE01DF91CF910895CF93DF937F
:1045300039D5EC01892B09F4FEDDCE01DF91CF9155
:10454000089580911702909118020895CF93DF93F8
:1045500080915404D0E0C0E08823D1F037D5EC013D
:10456000892BB1F4E8DD14DE8091170290911802D6
:104570001AD1CED1EC01892B59F489E594E0D5DD2F
:104580008DE594E0D2DD85E594E0CFDD1092540412
:10459000CE01DF91CF910895EF92FF920F931F9379
:1045A000CF93DF93EC017A018B010F5F1F4F0E9DBC
:1045B000A0010F9D500D1E9D500D112470E060E074
:1045C0000E94623290E080E0F0E0E0E02FEFE81639
:1045D000F90639F4DF91CF911F910F91FF90EF9081
:1045E00008951A8219822883309711F0D283C183EB
:1045F0000196FE01C00FD11FEACFE3E6F4E085E8A3
:10460000DF011D928A95E9F710926204109261040D
:10461000EFEEF4E01182108215821482138212826E
:104620001782168211861086EBEEF4E0118210825A
:104630001382128290E080E0089590E080E0089577
:10464000009739F1DC018E91813041F4E091ED0465
:10465000F091EE043097E9F0CD011994811119C061
:10466000F8948FEF8C938091EF049091F004129660
:104670009C938E931197B093F004A093EF048091D4
:10468000F1049091F20401969093F2048093F10466
:1046900078940895EF92FF920F931F93CF93DF9337
:1046A0004115510509F47CC0009709F479C06115E2
:1046B000710509F475C0EA01AB01BC01F894809161
:1046C000EF049091F004892B19F586E694E08C7F35
:1046D0006D5F7F4F6C7F9B012F5F3F4F249F800159
:1046E000259F100D349F100D11242091F704309157
:1046F000F8042115310509F03CC0E0906104F09008
:10470000620422E830E02E193F092017310730F407
:1047100078942FEF3FEF86EF9FEF22C09093F00445
:104720008093EF045093F4044093F3045093F20405
:104730004093F1047093F6046093F5041093F80429
:104740000093F704009709F027DF0E0D1F1D10934B
:10475000620400936104789430E020E090E080E00F
:1047600039832883DF91CF911F910F91FF90EF90B4
:1047700008952017310760F29093F0048093EF04BE
:104780005093F4044093F3045093F2044093F104E3
:104790007093F6046093F5040097E9F2FDDEDBCF39
:1047A0008FEF9FEFDFCF892B51F5F8941092F00433
:1047B0001092EF041092F4041092F3041092F20499
:1047C0001092F1041092F6041092F5042091F7046F
:1047D0003091F8042115310571F0809161049091B8
:1047E0006204821B930B9093620480936104109285
:1047F000F8041092F704789490E080E008958FEF29
:104800009FEF08954115510549F1009739F1611560
:10481000710521F1F8942091EB043091EC04232BE5
:10482000B9F42091ED043091EE04232B89F4909398
:10483000EC048093EB047093EE046093ED047894A1
:1048400021E030E090E080E0FA0131832083089598
:1048500078942FEF3FEF86EF9FEFF6CF8FEF9FEF2C
:104860000895019769F4F8941092EC041092EB0407
:104870001092EE041092ED04789490E080E0089598
:104880008FEF9FEF08956115710519F4F0E0E0E0F6
:1048900011C08130910581F4E091EB04F091EC04BA
:1048A0003097A1F3CB0101961995009779F3FC019C
:1048B00081E08193CF010895892B41F78091EF0426
:1048C0009091F004892B11F38091F5049091F604F6
:1048D00086179707D8F2F8948091F1049091F2042A
:1048E000009731F0E091EF04F091F004309711F46B
:1048F0007894CCCF218132813093F0042093EF045F
:1049000001979093F2048093F10411927894D2CF9E
:10491000E8EEF4E083E0DF011D928A95E9F7E3E633
:10492000F4E085E8DF011D928A95E9F710926204B0
:1049300010926104EFEEF4E08AE0DF011D928A95A7
:10494000E9F7EBEEF4E084E0DF011D928A95E9F7E8
:1049500090E080E00895CF93DF93C0911902D09149
:104960001A02CF3FDC0759F4D9D390931A028093EF
:10497000190297FF09C0D0931A02C093190284EF5D
:104980009FEFDF91CF91089590E080E0FACF8230E1
:10499000910528F48093F90490E080E008958FEF6A
:1049A0009FEF08954F925F926F927F92AF92BF9266
:1049B000CF92DF92EF92FF920F931F93CF93DF93EB
:1049C0001F921F92CDB7DEB71A821982009709F4A1
:1049D00078C06115710509F474C0209119023091F5
:1049E0001A0207EF1FEF2F3F3F4F09F444C06B013E
:1049F0005C01412C512C3201F12CE12C10E000E043
:104A00009E012F5F3F4FA6014E195F09B5016E0D44
:104A10007F1D8091190290911A02DFD3892B09F032
:104A20004AC089819A81009741F4E114F10429F484
:104A30002091F904222309F441C0E80EF91EEC1478
:104A4000FD04C8F480E8481684E858068EE168063C
:104A5000710418F560E070E0CB0102D72AE0420E45
:104A6000511C611C711C0A3F4FEF140721F0043FD9
:104A70008FEF1807A1F4C8010F900F90DF91CF912D
:104A80001F910F91FF90EF90DF90CF90BF90AF906C
:104A90007F906F905F904F90089501EF1FEF81E03E
:104AA00090E0013F2FEF120711F090E080E0892B9A
:104AB00009F4A6CFE0CF04EF1FEFDDCF0AEF1FEF21
:104AC000DACF0FEF1FEFD7CF4F925F926F927F92A7
:104AD000AF92BF92CF92DF92EF92FF920F931F930C
:104AE000CF93DF931F921F92CDB7DEB71A82198240
:104AF000009709F478C06115710509F474C020911C
:104B0000190230911A0207EF1FEF2F3F3F4F09F4B0
:104B100044C06B015C01412C512C3201F12CE12C81
:104B200010E000E09E012F5F3F4FA6014E195F0984
:104B3000B5016E0D7F1D8091190290911A0203D369
:104B4000892B09F04AC089819A81009741F4E114C8
:104B5000F10429F42091F904222309F441C0E80E5C
:104B6000F91EEC14FD04C8F480E8481686E95806DE
:104B700088E96806710418F560E070E0CB0170D632
:104B80002AE0420E511C611C711C0E3F4FEF1407AE
:104B900021F0043F8FEF1807A1F4C8010F900F9088
:104BA000DF91CF911F910F91FF90EF90DF90CF9009
:104BB000BF90AF907F906F905F904F90089502EFFD
:104BC0001FEF81E090E0023F2FEF120711F090E01D
:104BD00080E0892B09F4A6CFE0CF04EF1FEFDDCFF3
:104BE0000EEF1FEFDACF0FEF1FEFD7CF8091190233
:104BF00090911A028F3F980749F088D2892B49F487
:104C00008FEF9FEF90931A028093190290E080E05B
:104C1000089584EF9FEF0895FC01680F791F90E0DD
:104C200080E0E617F70709F408952191820F911D9E
:104C3000F8CF2091FA04211113C08DDE009791F472
:104C4000109200051092FF041092FE041092FD04D1
:104C50001092FC041092FB0421E02093FA040895C2
:104C600084EF9FEF0895AF92BF92CF92DF92EF92C1
:104C7000FF920F931F93CF93DF93009709F460C0C7
:104C80004630510508F45CC02091FA04C7EFDFEF0D
:104C9000222309F449C08C01060F171FF801C080B8
:104CA000D180C114D10409F44EC096012A5F3F4F50
:104CB0004217530708F447C07C018091FF0490918C
:104CC000000593838283B6016C5F7F4F5801A60E67
:104CD000B71EC801A1DFF5019183808364E070E015
:104CE000C80160DEEC01892BF9F481E090E04FDE31
:104CF000B601C801049656DEEC01892B91F462E0FE
:104D000070E0C5014FDEEC01892B59F4C70198DC36
:104D10008091FF0490910005019690930005809387
:104D2000FF0490E080E033DECE01DF91CF911F9150
:104D30000F91FF90EF90DF90CF90BF90AF900895CC
:104D4000CFEFDFEFF1CFC9EFDFEFEECF6F927F92C2
:104D50008F929F92AF92BF92CF92DF92EF92FF928B
:104D60000F931F93CF93DF9300D01F92CDB7DEB781
:104D7000009709F47AC04115510509F476C02091D5
:104D8000FA0407EF1FEF222309F44DC03A017B011B
:104D90005C0164E070E0CE01019696DE8C01892B07
:104DA00009F041C009811A810115110509F45AC0A1
:104DB000480186E0880E911CB701680D791D80912D
:104DC0001B0290911C025FDD6C01009709F450C03A
:104DD000A70170E060E00E94623289819A81AB8114
:104DE000BC81EC0CFD1CF70181939193A193B193CD
:104DF0007F0181E090E0CBDDB801C70165DE892B42
:104E000031F562E070E0C701800F911F5DDE8C011B
:104E1000892BE9F490E080E0BADDF501D182C0820F
:104E2000F30191828082C8010F900F900F900F9034
:104E3000DF91CF911F910F91FF90EF90DF90CF9076
:104E4000BF90AF909F908F907F906F90089590E06B
:104E500080E09DDDF50111821082F3011182108244
:104E6000C601EEDB09EF1FEFDECF0FEF1FEFDBCF49
:104E700006EF1FEFD8CF0097A1F04115510589F03B
:104E80002115310571F0F90136966E177F0748F04C
:104E9000DC012D933C93DA01ED93FC9390E080E0EC
:104EA00008958FEF9FEF0895AF92BF92CF92DF9258
:104EB000EF92FF920F931F93CF93DF93009709F424
:104EC0005FC04115510509F45BC06530710508F4F8
:104ED00057C02091FA04C7EFDFEF222391F1DC01E4
:104EE000CD90DC9011971296ED91FC9196012A5F7E
:104EF0003F4FC9EFDFEF2617370719F5C091FB04C5
:104F0000D091FC04209749F521E030E03093FC0477
:104F10002093FB047A018C01F093FE04E093FD04DE
:104F20005601B4E0AB0EB11CB50176DE0A0D1B1DB7
:104F3000F801208131818217930729F5D701CD929D
:104F4000DC92CE01DF91CF911F910F91FF90EF90F6
:104F5000DF90CF90BF90AF9008952091FD043091E5
:104F6000FE042F5F3F4FCCEFDFEFE217F30790F225
:104F7000CBEFDFEF2E173F0768F2D0E0C0E0CACFDB
:104F8000CFEFDFEFDECFC3EFDFEFDBCF84E090E0EA
:104F9000089582E090E008958CEF9FEF089580E2FD
:104FA00090E00895109200051092FF041092FE0404
:104FB0001092FD041092FC041092FB0490E080E03B
:104FC000089590931C0280931B0208958091FA0427
:104FD000882391F00BDE009789F41092000510925F
:104FE000FF041092FE041092FD041092FC04109233
:104FF000FB041092FA04089590E080E00895009771
:1050000049F06115710531F0FC0111821082FB013C
:10501000118210820895F3CF26E030E040E855E297
:1050200060E070E090E080E000C08130910569F0C0
:105030001CF4892B39F008958230910549F00397CB
:1050400051F0089586E195E033C783EB95E0FCCFFE
:1050500080E596E0F9CF8DEE96E0F6CF089580E0FA
:105060000895CF92DF92EF92FF920F931F93D3D3C5
:1050700060930105709302058093030590930405E6
:10508000009105051091060520910705309108054E
:105090006B017C01C01AD10AE20AF30A970186016A
:1050A0000A3011052105310508F16093050570935B
:1050B00006058093070590930805A3D0ACD3009113
:1050C0000505109106052091070530910805601B24
:1050D000710B820B930B6A3071058105910570F09D
:1050E00081E090E090930C0580930B0581E01F9187
:1050F0000F91FF90EF90DF90CF90089510920C05E4
:1051000010920B05F3CF10920905089568EE73E035
:1051100080E090E0A5D390E080E0089526E030E0C4
:1051200040E050E16EE070E090E080E07EDF86E1FC
:1051300095E0F4D5892B21F086E195E009D6F7CFEB
:1051400090E080E00895CF92DF92EF92FF920F936C
:105150001F93CF93DF936B017A01E90119821882C3
:1051600086E195E0DBD5892B69F18601CC24C394D7
:1051700082E0D82E80910905811110C086E195E06A
:10518000E7D50297B9F7C0920905F801D1928F01CE
:1051900088819981019699838883ECCF8881998150
:1051A0008E159F0578F486E195E0D2D58F3F98075C
:1051B000A9F3F80181938F018881998101969983E0
:1051C0008883ECCF90E080E0DF91CF911F910F9129
:1051D000FF90EF90DF90CF9008950F931F93CF93A0
:1051E000DF93EA01890186E195E00E94E831F80148
:1051F000D183C08390E080E0DF91CF911F910F9128
:10520000089580910A0591E0980F90930A058823EC
:1052100049F021E030E030930C0520930B0580939A
:105220000A0508950E944F0580910A058150F7CF25
:105230000F931F93CF93DF931092D7071092D60747
:1052400045D3EADEC0912402D0912502198218824A
:1052500060E472E48FE090E00E94330570E060E06B
:1052600090E080E00E94B203009709F03FC00E94E6
:10527000040AF8947894BE0162527F4F8A819B8120
:105280000E94B503892B71F46FEF7FEFCB010E9471
:1052900046040E942D05882329F081E0FE01EC518F
:1052A000FF4F8083F894DADE0E943005882311F0E6
:1052B00080E00BC00E942D058111FACF81E0FE0134
:1052C000EC51FF4F90819111F3CF8093D6070E944C
:1052D0008E118C017894CC51DF4F8091D6078111CB
:1052E0000AC00E941205F89490E080E0DF91CF910F
:1052F0001F910F9108950E9410050E943005882388
:10530000D9F081E08093D7079091D70781E0911180
:1053100080E08093D6078091D7078111A0DE01300D
:10532000110529F40E948E11892B09F4ECDE0E94EC
:105330008E118C0196DED1CF0E942D058111E1CF17
:1053400081E098819111DECF80E0DCCF5058BB27FF
:10535000AA270ED075C166D130F06BD120F031F4A0
:105360009F3F11F41EF45BC10EF4E095E7FB51C1C1
:10537000E92F77D180F3BA1762077307840795077F
:1053800018F071F49EF58FC10EF4E0950B2EBA2F34
:10539000A02D0B01B90190010C01CA01A00111243B
:1053A000FF27591B99F0593F50F4503E68F11A16E7
:1053B000F040A22F232F342F4427585FF3CF469578
:1053C00037952795A795F0405395C9F77EF41F169A
:1053D000BA0B620B730B840BBAF09150A1F0FF0F64
:1053E000BB1F661F771F881FC2F70EC0BA0F621F50
:1053F000731F841F48F4879577956795B795F79540
:105400009E3F08F0B3CF9395880F08F09927EE0FD1
:10541000979587950895D9D008F481E008950CD028
:105420000FC107D140F0FED030F021F45F3F19F0FA
:10543000F0C0511139C1F3C014D198F39923C9F3C5
:105440005523B1F3951B550BBB27AA27621773078A
:10545000840738F09F5F5F4F220F331F441FAA1F3E
:10546000A9F333D00E2E3AF0E0E830D091505040FE
:10547000E695001CCAF729D0FE2F27D0660F771FAC
:10548000881FBB1F261737074807AB07B0E809F08E
:10549000BB0B802DBF01FF2793585F4F2AF09E3F23
:1054A000510568F0B6C000C15F3FECF3983EDCF3F5
:1054B000869577956795B795F7959F5FC9F7880F9C
:1054C000911D9695879597F90895E1E0660F771FEE
:1054D000881FBB1F621773078407BA0720F0621B7F
:1054E000730B840BBA0BEE1F88F7E095089504D078
:1054F0006894B111D9C00895BCD088F09F5790F03E
:10550000B92F9927B751A0F0D1F0660F771F881FE8
:10551000991F1AF0BA95C9F712C0B13081F0C3D003
:10552000B1E00895C0C0672F782F8827B85F39F0A1
:10553000B93FCCF3869577956795B395D9F73EF447
:1055400090958095709561957F4F8F4F9F4F0895EF
:10555000E89409C097FB3EF490958095709561950D
:105560007F4F8F4F9F4F9923A9F0F92F96E9BB27C3
:105570009395F695879577956795B795F111F8CF3F
:10558000FAF4BB0F11F460FF1BC06F5F7F4F8F4FAA
:105590009F4F16C0882311F096E911C0772321F0A0
:1055A0009EE8872F762F05C0662371F096E8862F38
:1055B00070E060E02AF09A95660F771F881FDAF78F
:1055C000880F9695879597F90895990F0008550FBC
:1055D000AA0BE0E8FEEF16161706E807F907C0F079
:1055E00012161306E407F50798F0621B730B840B81
:1055F000950B39F40A2661F0232B242B252B21F45B
:1056000008950A2609F4A140A6958FEF811D811DFA
:10561000089597F99F6780E870E060E008959FEF34
:1056200080EC089500240A94161617061806090639
:10563000089500240A941216130614060506089508
:10564000092E0394000C11F4882352F0BB0F40F490
:10565000BF2B11F460FF04C06F5F7F4F8F4F9F4FD0
:10566000089557FD9058440F551F59F05F3F71F052
:105670004795880F97FB991F61F09F3F79F08795B9
:105680000895121613061406551FF2CF4695F1DF42
:1056900008C0161617061806991FF1CF86957105D2
:1056A000610508940895E894BB2766277727CB0106
:1056B00097F908958ADF08F48FEF08950BD0C0CFD3
:1056C000B1DF28F0B6DF18F0952309F0A2CFA7CFFD
:1056D0001124EACFC6DFA0F3959FD1F3950F50E0D8
:1056E000551F629FF001729FBB27F00DB11D639F94
:1056F000AA27F00DB11DAA1F649F6627B00DA11D3A
:10570000661F829F2227B00DA11D621F739FB00DDF
:10571000A11D621F839FA00D611D221F749F33274F
:10572000A00D611D231F849F600D211D822F762FE8
:105730006A2F11249F5750408AF0E1F088234AF0E5
:10574000EE0FFF1FBB1F661F771F881F9150504031
:10575000A9F79E3F510570F05CCFA6CF5F3FECF3F9
:10576000983EDCF3869577956795B795F795E7951D
:105770009F5FC1F7FE2B880F911D9695879597F92E
:1057800008951F920F920FB60F9211242F933F93FB
:105790008F939F93AF93BF9380910E0590910F05C8
:1057A000A0911005B091110530910D0523E0230F54
:1057B0002D3758F50196A11DB11D20930D0580933D
:1057C0000E0590930F05A0931005B09311058091DD
:1057D000120590911305A0911405B091150501963D
:1057E000A11DB11D8093120590931305A09314057C
:1057F000B0931505BF91AF919F918F913F912F91DC
:105800000F900FBE0F901F90189526E8230F029659
:10581000A11DB11DD2CF3FB7F89480911205909190
:105820001305A0911405B091150526B5A89B05C0D8
:105830002F3F19F00196A11DB11D3FBFBA2FA92F0F
:10584000982F8827BC01CD01620F711D811D911D0C
:1058500042E0660F771F881F991F4A95D1F7089578
:105860008F929F92AF92BF92CF92DF92EF92FF9270
:105870006B017C01D0DF4B015C01C114D104E10458
:10588000F104D9F0D2D5C7DF681979098A099B09D3
:10589000683E73408105910580F321E0C21AD1086A
:1058A000E108F10888EE880E83E0981EA11CB11C67
:1058B000C114D104E104F10431F7FF90EF90DF90BF
:1058C000CF90BF90AF909F908F900895789484B5BB
:1058D000826084BD84B5816084BD85B5826085BDEC
:1058E00085B5816085BDEEE6F0E0808181608083D2
:1058F000E1E8F0E0108280818260808380818160B5
:105900008083E0E8F0E0808181608083E1EBF0E07B
:10591000808184608083E0EBF0E08081816080831F
:10592000E1E9F0E080818260808380818160808312
:10593000E0E9F0E0808181608083E1EAF0E080814D
:1059400082608083808181608083E0EAF0E08081F2
:1059500081608083E1E2F1E08081826080838081E8
:1059600081608083E0E2F1E0808181608083EAE70A
:10597000F0E0808184608083808182608083808188
:10598000816080838081806880831092C100089547
:10599000863308F0865320917B00982F9870277FDC
:1059A000922B90937B0020911D0290E4299F9001FF
:1059B00011248770822B80937C0080917A00806410
:1059C00080937A0080917A0086FDFCCF80917800E8
:1059D0009091790008951F93CF93DF93182FEB01D7
:1059E00061E033D1209731F460E0812FDF91CF91D6
:1059F0001F9167C1CF3FD10511F461E0F6CFE12FD0
:105A0000F0E0EC51FF4FE491E150E23108F0B2C018
:105A1000F0E08827E25FF24D8F4F2AC5202D282D18
:105A20002D2D372D412DBA2D4B2D532D5B2D652D51
:105A30006F2D792D882D922DBA2D9C2DA62DB02D50
:105A400084B5806884BDC7BDDF91CF911F91089553
:105A500084B5806284BDC8BDF7CF80918000806826
:105A600080938000D0938900C0938800EDCF80910F
:105A70008000806280938000D0938B00C0938A0066
:105A8000E3CF80918000886080938000D0938D0068
:105A9000C0938C00D9CF8091B00080688093B00013
:105AA000C093B300D1CF8091B00080628093B000EA
:105AB000C093B400C9CF809190008068809390001B
:105AC000D0939900C0939800BFCF809190008062DE
:105AD00080939000D0939B00C0939A00B5CF8091A3
