:1000000005C1000034C1000032C1000030C1000051
:100010002EC100002CC100002AC1000028C1000030
:1000200026C1000024C1000022C1000020C1000040
:100030001EC100001CC100001AC1000018C1000050
:1000400016C1000014C1000012C1000010C1000060
:100050000EC100000CC100000AC100000C949526DE
:1000600006C100000C94BD290C94F32900C10000C6
:10007000FEC00000FCC00000FAC00000F8C0000094
:10008000F6C00000F4C00000F2C00000F0C00000A4
:100090000C94492A0C947F2AEAC00000E8C00000B2
:1000A000E6C00000E4C00000E2C00000E0C00000C4
:1000B000DEC00000DCC00000DAC00000D8C00000D4
:1000C000D6C00000D4C00000D2C000000C94D52AD5
:1000D0000C940B2BCCC000000C94612B0C94972B30
:1000E000C6C0000000000A0B02090C0D0E08070331
:1000F00004010000000000000000000000000000FB
:1001000000000000000000000000000000000000EF
:1001100012111000000000000000000000000000AC
:100120000000000000000000000001021020200874
:100130000810204010204080020102010804020142
:1001400001020408102040808040201008040201B1
:10015000800402018040201008040201080402010A
:100160000102040810204080010204081020408091
:1001700005050505070508080808020202020A0A23
:100180000808040404040101010101010101030341
:10019000030303030303040707070C0C0C0C0C0CEC
:1001A0000C0C0202020206060606060606060B0BE9
:1001B0000B0B0B0B0B0B000020002300260029006B
:1001C0002C002F003200000100000301060109018C
:1001D00000002200250028002B002E0031003400F2
:1001E00002010000050108010B01000021002400AC
:1001F00027002A002D003000330001010000040117
:1002000007010A011C2AA82A342BC02B11241FBE67
:10021000CFEFD1E2DEBFCDBF00E00CBF13E0A0E026
:10022000B2E0EEEFF8E500E00BBF02C007900D92E0
:10023000A431B107D9F727E0A4E1B3E001C01D92D2
:10024000A039B207E1F711E0C6E0D1E000E006C056
:1002500021970109802FFE010E944C2CC230D1074A
:1002600080E00807A9F70E948C240C947D2CC8CE4E
:10027000611102C00C9402286130E1F362E0FACF10
:10028000662319F061E00C943E2860E0FCCF0E94E8
:100290006B2821E0019709F020E0822F089590E07B
:1002A00080E008950F931F93009709F487C06115AC
:1002B000710509F483C000916302109164022091DA
:1002C0006502309166020E3F1F4F2F4F3F4F09F0DE
:1002D00066C04FEF5FEFBA01409363025093640230
:1002E00060936502709366024091630250916402CC
:1002F0006091650270916602DC011296ED91FC91AD
:1003000080819181A281B38180939A0390939B0312
:10031000A0939C03B0939D0384819581A681B781AE
:100320008093960390939703A0939803B0939903B7
:1003300080859185A285B3858093920390939303E2
:10034000A0939403B093950384859585A685B7857E
:1003500080938E0390938F03A0939003B0939103A7
:1003600010928A0310928B0310928C0310928D03CB
:100370003DD78BE199E090931503809314039093FC
:1003800017038093160321D6009731F421E030E063
:1003900030939F0320939E031F910F910895009126
:1003A0006302109164022091650230916602DB01C4
:1003B0000D931D932D933C93139796CF8FEF9FEF43
:1003C000EBCF8F929F92AF92BF92CF92DF92EF923C
:1003D000FF921F93CF93DF934B015C011091A10318
:1003E00082E090E090939F0380939E038114910498
:1003F000A104B10441F48091A103811104C0809152
:10040000A003C1E08111C0E0C12CD12C7601809104
:10041000A103811106C08091A003811102C0CC23E9
:10042000D9F083E090E090939F0380939E03CC23C8
:1004300079F1CCE9DFEF111102C00E947F0CCE01EF
:10044000DF91CF911F91FF90EF90DF90CF90BF9001
:10045000AF909F908F9008956AE070E080E090E008
:100460000E94042780E1C80E87E2D81EE11CF11C1F
:100470008FEF88169806A806B80631F0C1E08C14F4
:100480009D04AE04BF0408F0C0E080E0D2D5BFCF29
:10049000D0E0C0E0D0CFCF92DF92EF92FF920F93E7
:1004A0001F93CF93DF938F3F910511F008F050C059
:1004B00020919E0330919F032330310539F0209124
:1004C0009E0330919F032130310531F424E030E068
:1004D00030939F0320939E036A017B01EC018230DD
:1004E0009105A0F011E0AE01C701B6016DD5AB01D9
:1004F000BC01CE011123F9F0DF91CF911F910F9133
:10050000FF90EF90DF90CF900C94A80E8C01000F1D
:10051000111F0C5E1C4FD8018D919C91892B11F3FA
:100520000E94B20E0297F1F6D801ED91FC91CE0136
:100530001995182FD8CF0E94CA0E90E080E0DF9165
:10054000CF911F910F91FF90EF90DF90CF90089582
:100550008FEF9FEFF4CF80E06CC5CF93DF9386E001
:1005600090E090939F0380939E03BCD5EC01E4E15F
:10057000F3E084E0DF011D928A95E9F70E94170CF1
:1005800010929F0310929E03CE01DF91CF910895A8
:100590008091A00308958091890308956093630278
:1005A00070936402809365029093660290E080E00D
:1005B0000895DF92EF92FF920F931F93CF93DF93F3
:1005C000EA019D81882309F444C091110BC0F9010F
:1005D00080859185A285B38588839983AA83BB830F
:1005E00081E08D8389017B01F90124813581468178
:1005F0005781688179818A819B810E9414259B01A2
:10060000AC01288339834A835B83DD24D394F801CA
:1006100060817181828193810E9478258111D12C22
:10062000F701D0828C81882389F0833059F481E0EE
:1006300090E08C83DF91CF911F910F91FF90EF900D
:10064000DF900895082E000C990BF3CF82E090E024
:10065000F0CF992379F31D82EDCF4F925F926F9285
:100660007F92AF92BF92CF92DF92EF92FF920F9361
:100670001F93CF93DF93E901662309F469C05A0100
:1006800021E02D83FC0187A1811136C0C880D9806B
:10069000EA80FB80C701B6010E947E252B013C0148
:1006A000F80124853585468557850E94782587FF82
:1006B0002CC0F7FC2AC0F80184819581A681B781FE
:1006C000F50180839183A283B38320E030E040E88A
:1006D0005FE3F80160857185828593850E9413250B
:1006E0009B01AC01C301B2010E942E2687FD11C0FF
:1006F000188219821A821B828C818823A1F0833090
:1007000021F1082E000C990B10C080E090E0DC0174
:10071000D7CFFFEFCF1ADF0AEF0AFF0AC882D982CC
:10072000EA82FB82E9CF82E090E08C83DF91CF9177
:100730001F910F91FF90EF90DF90CF90BF90AF90FF
:100740007F906F905F904F90089581E090E0EDCFA3
:100750008D81882359F31D82E9CFCF92DF92EF92EA
:10076000FF920F931F93CF9380917C07815082302B
:1007700008F0A9C183E080937C0780915F078150D6
:10078000823008F0A2C183E080935F0780915E070A
:100790008150823008F09BC183E080935E07809196
:1007A0005D078150823008F094C183E080935D073B
:1007B00080916A078150823008F08DC183E0809378
:1007C0006A07C0900002D0900102E0900202F0900F
:1007D0000302A70196016091460770914707809137
:1007E0004807909149070E947825882341F0C092DC
:1007F0004607D0924707E0924807F092490784E005
:1008000046DD26E532E048E757E06DE877E0D1DEE7
:1008100080918D07882371F090917E07913051F07F
:1008200091E020915A07211190E090935A0794E0AB
:1008300090935D0780937E07C0900402D0900502DC
:10084000E0900602F0900702A701960160913A0736
:1008500070913B0780913C0790913D070E9478255D
:10086000882341F0C0923A07D0923B07E0923C07C0
:10087000F0923D0783E00BDD29E432E042E757E0E8
:100880006CE877E096DE90918C079923A1F0809137
:100890008007813081F081E020915C07211180E0A8
:1008A00080935C078093890780910D0280938A076B
:1008B00084E080935F0790938007C0900802D090F7
:1008C0000902E0900A02F0900B02A70196016091E4
:1008D0002E0770912F0780913007909131070E9469
:1008E0007825882341F0C0922E07D0922F07E092FE
:1008F0003007F092310782E0CADC2CE332E04CE6AC
:1009000057E06BE877E055DE90918B079923A1F0D3
:1009100080917F07813081F080910E02809389075A
:1009200081E020915B07211180E080935B07809339
:100930008A0784E080935E0790937F0780915A072F
:10094000C1E0811105C080918907811101C0C0E01B
:1009500008E212E026E637E045E857E06C2F80E435
:1009600093E07BDE60E0CC2391F0C1E020E030E05A
:10097000A901609185077091860780918707909102
:1009800088070E947825811101C0C0E06C2F8AE0A1
:1009900077DC80918A07C1E0811105C080915A07F8
:1009A000811101C0C0E004E112E020E637E041E837
:1009B00057E06C2F80E493E050DE60E0CC2391F0B0
:1009C000C1E020E030E0A9016091810770918207C9
:1009D00080918307909184070E947825811101C03E
:1009E000C0E06C2F89E04CDC40915A0350915B03CE
:1009F00060915C0370915D0390E080E04CDD80913C
:100A00006703811111C0209162033091630340910B
:100A1000640350916503A5E0B0E00E94542CAB0143
:100A2000BC0181E090E037DD60915A0370915B0377
:100A300080915C0390915D036F5F7F4F8F4F9F4F5D
:100A400060935A0370935B0380935C0390935D0300
:100A50000E947C259B01AC0160915E0370915F0355
:100A600080916003909161030E9432266093560347
:100A700070935703809358039093590380916703B1
:100A8000811114C04091620350916303609164032B
:100A9000709165034F5F5F4F6F4F7F4F40936203CD
:100AA0005093630360936403709365038F5F853095
:100AB000A0F480936703CF911F910F91FF90EF9067
:100AC000DF90CF90089580E056CE80E05DCE80E04C
:100AD00064CE80E06BCE80E072CE10926703EBCFE5
:100AE0008F929F92AF92BF92FF920F931F93CF93DB
:100AF000DF93E0E4F3E080E090E0A0E8BFEB80A7C4
:100B000091A7A2A7B3A78DEC9CECACECBDE3868FBC
:100B1000978FA0A3B1A381E596EDA6ECBAE88483F4
:100B20009583A683B78384EE95EDA8E7BAE6808720
:100B30009187A287B38781EA97E2A5E6B5E5848726
:100B40009587A687B7878CE494E6AEEEBFEB808BE3
:100B5000918BA28BB38BA4E3B3E0B383A283E8E1D0
:100B6000F3E01196FC93EE9380E892E0918380830A
:100B70002CE737E03383228326E737E0358324836D
:100B800020E737E0378326832FE537E0318720875A
:100B90002EE537E0338722872DE537E03587248738
:100BA00097878687918B808B938B828B958B848B99
:100BB000978B868B8AE697E0918F808F84E697E00B
:100BC000938F828F84E593E015969C938E93149770
:100BD00084E493E013969C938E93129786E593E0BA
:100BE00017969C938E931697EEE7F7E0FF24F39405
:100BF000F282F182F082C6E2D7E000E012E080915A
:100C00005E0290915F02A0916002B09161028093B8
:100C1000780790937907A0937A07B0937B07E1E870
:100C2000F7E0809162028487D80150968C918CAB5A
:100C30008091510290915202A0915302B0915402BE
:100C40008093720790937307A0937407B09375070E
:100C5000809155028387D8011C968C918EAB809130
:100C6000440290914502A0914602B09147028093C0
:100C70006C0790936D07A0936E07B0936F078091F8
:100C800048028287D8011F968C911F978DAB529690
:100C90008C915297808798964D915D916D917C9142
:100CA0009B97448355836683778353968C915397A0
:100CB000818754964D915D916D917C9157974083BA
:100CC000518362837383188E8D919D910D90BC9199
:100CD000A02D88A399A3AAA3BBA3812C912C540176
:100CE0008394898E9A8EAB8EBC8E60E084E0C0DAED
:100CF000FD8E1C86F80184819581A681B7818C8B3D
:100D00009D8BAE8BBF8B8D869E86AF86B88A60E04A
:100D100083E0AEDAF98A1882F80180859185A28590
:100D2000B38588879987AA87BB8789829A82AB8295
:100D3000BC8260E082E09CDAFD821CA68DA69EA6A5
:100D4000AFA6B8AA61E08AE093DAF9AA1CA28DA244
:100D50009EA2AFA2B8A661E089E08ADAF9A6DF9187
:100D6000CF911F910F91FF90BF90AF909F908F9068
:100D7000089580913E07811103C081E080933E0772
:100D800080913207811103C081E080933207809106
:100D90002607811103C081E08093260780915207C6
:100DA000811103C081E08093520780914A0781112D
:100DB00003C081E080934A0708954F925F926F923B
:100DC0007F928F929F92AF92BF92CF92DF92EF92DB
:100DD000FF920F931F93F8944090790350907A03F9
:100DE00060907B0370907C03C0906D03D0906E0385
:100DF000E0906F03F0907003452B09F0A6C09B01B3
:100E0000AC01241935094609570929013A01009115
:100E10007503109176032091770330917803480190
:100E20005901840C951CA61CB71C80169106A206BD
:100E3000B306A0F400917103109172032091730323
:100E4000309174030F5F1F4F2F4F3F4F009371037B
:100E5000109372032093730330937403809275038D
:100E600090927603A0927703B09278030091710379
:100E700010917203209173033091740380927D036B
:100E800090927E03A0927F03B0928003009381032F
:100E90001093820320938303309384036093790338
:100EA00070937A0380937B0390937C03A301920158
:100EB00060EA76E881E090E00E941B2C6C0D7D1DBD
:100EC0008E1D9F1D60936D0370936E0380936F035F
:100ED0009093700300916302109164022091650267
:100EE000309166020F3F1F4F2F4F3F4FF1F000919F
:100EF00063021091640220916502309166020E3FF8
:100F00001F4F2F4F3F4F89F0C0906302D090640273
:100F1000E0906502F090660221E08C149D04AE041E
:100F2000BF0408F420E02093890378941F910F9167
:100F3000FF90EF90DF90CF90BF90AF909F908F90F9
:100F40007F906F905F904F9008954B015C018418E3
:100F50009508A608B708A3019201261B370B480B7A
:100F6000590B6415750586059705E0F08216930602
:100F7000A406B50640F420E030E0A90181149104F4
:100F8000A104B104A1F460EA76E881E090E00E9457
:100F90001B2CA7019601261B370B480B590BCA01C6
:100FA000B901C3CF82169306A406B50660F7A50162
:100FB000940160EA76E881E090E00E941B2C6C0DC1
:100FC0007D1D8E1D9F1DB1CFF8CECF93DF9300D036
:100FD0001F92CDB7DEB71C821B821A821982109233
:100FE0008503109286031092870310928803BE0136
:100FF0006F5F7F4FCE0103960E94742369817A81CF
:101000008B819C810E94C71D009761F4BE016F5FB8
:101010007F4FCE0103960E94802369817A818B8164
:101020009C812ED50F900F900F900F90DF91CF9154
:101030000895FF920F931F93CF93DF93082F60E0E3
:1010400070E0CB010E940427FF24F3940E94B01C9F
:10105000EC01892B89F010E0CE3F8FEFD80769F0C3
:10106000002361F160E070E0CB010E94042781E081
:1010700090E0892B59F322C011E025D5EC01892B92
:1010800021F0CE3F8FEFD80759F711111EC011E0A4
:10109000229609F410E00E94601CEC01892B21F0DB
:1010A000CE3F8FEFD807E1F6111111C011E0CE3F0E
:1010B0008FEFD80709F410E001110BC0CE01DF91CA
:1010C000CF911F910F91FF90089511E0E4CF11E0AF
:1010D000F3CF60E070E0CB010E9404271F25812F31
:1010E00090E0C7CFCF93DF9380918903882321F0CD
:1010F00060E070E0CB014CD635D6D0E0C0E0892B63
:1011000071F06AE070E080E090E00E94042781E0E6
:1011100090DF28D62196C03D27E0D20781F727D659
:101120000E941B1E1092A1031092A00310929A031A
:1011300010929B0310929C0310929D0310929603B1
:1011400010929703109298031092990310929203B1
:1011500010929303109294031092950310928E03B1
:1011600010928F03109290031092910310928A03B1
:1011700010928B0310928C0310928D034EEF5FEF51
:101180006FEF7FEF409363025093640260936502B8
:101190007093660210928903EDE7F3E028E0DF0127
:1011A0001D922A95E9F71092790310927A03109212
:1011B0007B0310927C0310927503109276031092B9
:1011C00077031092780310927103109272031092B9
:1011D00073031092740310926D0310926E031092B9
:1011E0006F0310927003DF91CF9108951092AD03B9
:1011F0001092AE031092AF031092B0031092AC03A2
:101200008091B5039091B6039093AB038093AA03AA
:101210001092A9031092A8031092A4031092A503A0
:101220001092A6031092A7031092B2031092B1037A
:1012300090E080E00895CF92DF92EF92FF920F93BB
:101240001F93CF938C01892B09F055C02091B503D2
:101250003091B6038091AA039091AB034091B503FE
:101260005091B6035093AB034093AA032817390754
:1012700081F01092A9031092A8031092A403109277
:10128000A5031092A6031092A7031092B203109226
:10129000B1038091B5039091B603019761F58091F8
:1012A000B1039091B203892B21F4809167028111DF
:1012B00012C08091B1039091B2030197E1F4809143
:1012C000A4039091A503A091A603B091A703019751
:1012D000A105B10581F41092A4031092A503109208
:1012E000A6031092A7031092670282E090E0909309
:1012F000B2038093B1038091B5039091B603019737
:1013000009F01CC18091CB039091CC038017910709
:1013100009F014C18091C7039091C803A091C9033B
:10132000B091CA03009709F409C12091C6032111A5
:101330000DC04091C7035091C8036091C9037091DB
:10134000CA03452B462B472B09F4F8C02091B10363
:101350003091B2032230310509F0F0C02091A8038A
:101360002111ECC0FC01C080D180E280F38080912B
:10137000AC03882309F4D3C08091B8039091B903DA
:10138000892B09F4FDC02091B8033091B90381E0A5
:101390002230310509F080E02091B8033091B90383
:1013A000C1E02130310549F02091B8033091B903F3
:1013B000C1E02230310509F0C0E0882309F456C0AD
:1013C0002091C2033091C3034091C4035091C503DF
:1013D000C701B6010E942E2687FD14C02091C203CA
:1013E0003091C3034091C4035091C5036091AD0394
:1013F0007091AE038091AF039091B0030E94782565
:1014000087FD22C02091C2033091C3034091C403E1
:101410005091C503C701B6010E942E26181634F557
:101420002091C2033091C3034091C4035091C5037E
:101430006091AD037091AE038091AF039091B003C2
:101440000E947825811112C08091BA039091BB034C
:10145000A091BC03B091BD03892B8A2B8B2B19F46F
:1014600081E08093A90381E08093A803CC2309F451
:1014700056C02091C2033091C3034091C4035091E0
:10148000C503C701B6010E94782587FF14C02091CB
:10149000C2033091C3034091C4035091C5036091CE
:1014A000AD037091AE038091AF039091B0030E94A1
:1014B0002E2687FF22C02091C2033091C3034091A2
:1014C000C4035091C503C701B6010E94782581115C
:1014D00026C02091C2033091C3034091C4035091B0
:1014E000C5036091AD037091AE038091AF039091FD
:1014F000B0030E942E26181694F48091BA0390919E
:10150000BB03A091BC03B091BD03892B8A2B8B2B0D
:1015100019F481E08093A90381E08093A80381E01E
:101520009091A803911180E08093AC03C092AD0329
:10153000D092AE03E092AF03F092B003012B09F01A
:1015400067C18091B1039091B203892BD9F41092B5
:10155000B7031092A80380916702882379F082E094
:1015600090E09093B2038093B103109267022091B0
:10157000B5033091B60381E0232BE9F080E01BC076
:1015800081E00ACF109267028091B703882349F067
:101590001092A9031092B2031092B1031092B703F4
:1015A000EDCF8091B5039091B603892BE1F0809146
:1015B000A8031092A8032091B1033091B203223006
:1015C000310509F45EC088F42115310509F448C0DD
:1015D0002130310509F4F3C01092A9031092A80339
:1015E0001092B70338C081E0E6CF2330310509F40B
:1015F000B1C02430310581F74091A4035091A50377
:101600006091A6037091A70341155105610571050D
:1016100061F041505109610971094093A40350934D
:10162000A5036093A6037093A7034091A403509170
:10163000A5036091A6037091A703452B462B472B6A
:10164000D9F42091B3033091B4032130310509F06E
:1016500046C01092A9031092B2031092B1030CC0BD
:1016600080916702882341F082E090E09093B2037A
:101670008093B103109267021092A2038091A90394
:10168000CEC08823C9F38091BA039091BB03A09187
:10169000BC03B091BD03181619061A061B060CF000
:1016A0007DC08091B5039091B603019709F076C093
:1016B0008091BA039091BB03A091BC03B091BD038C
:1016C0008093A4039093A503A093A603B093A703CC
:1016D00083E090E09093B2038093B103CDCF40912B
:1016E000BE035091BF036091C0037091C103452BAD
:1016F000462B472BA9F01092A9038091BE0390912D
:10170000BF03A091C003B091C1038093A403909341
:10171000A503A093A603B093A70381E090E0DACFDE
:10172000882399F08091680290916902A0916A02E1
:10173000B0916B028093A4039093A503A093A6039A
:10174000B093A70384E090E0C5CF1092A90382E094
:1017500090E0C0CF8091A4039091A503A091A6032F
:10176000B091A7030097A105B10559F00197A10910
:10177000B1098093A4039093A503A093A603B0930B
:10178000A7038091A4039091A503A091A603B09113
:10179000A703892B8A2B8B2B09F06ECF80916802CF
:1017A00090916902A0916A02B0916B02892B8A2BF9
:1017B0008B2B09F44ECF81E08093A903B3CF4091E6
:1017C000A4035091A5036091A6037091A70341154E
:1017D00051056105710561F04150510961097109B7
:1017E0004093A4035093A5036093A6037093A703AB
:1017F0004091A4035091A5036091A6037091A703A3
:10180000452B462B472B09F037CF8111C7CF9FCFF0
:101810008091A203882309F431CF8091A303CF9153
:101820001F910F91FF90EF90DF90CF90089510924D
:10183000AD031092AE031092AF031092B00310925A
:10184000AC031092B2031092B1031092AB0310924A
:10185000AA031092CC031092CB031092A90310920A
:10186000A8031092A4031092A5031092A60310924D
:10187000A7031092A3031092A2031092C703109221
:10188000C8031092C9031092CA031092C6031092A3
:10189000C2031092C3031092C4031092C50388EED2
:1018A00093E0A0E0B0E08093680290936902A09377
:1018B0006A02B0936B021092BE031092BF031092A3
:1018C000C0031092C1031092BA031092BB0310928E
:1018D000BC031092BD031092B9031092B80381E0CB
:1018E000809367021092B7031092B6031092B5036B
:1018F0001092B4031092B30390E080E008958091B9
:10190000B5039091B603892B19F58091670288235E
:1019100051F08091B703811106C081E08093A30349
:101920008093A20308952091B7033091670281E06C
:1019300090E0332311F090E080E030E082239323A5
:10194000892B21F01092A30381E0EACF1092A20329
:10195000089582E090E0FA01918380838FEF9FEFFA
:101960000895CF93DF93EA01009711F00E94951E2E
:101970001982188290E080E0DF91CF910895DB0119
:10198000009719F48FEF8C9308952EEF2C93FC01A0
:101990003F96EF30F10508F034C08827ED52F34F41
:1019A0008F4F0C944C2CFF0CFD0CFB0CF90CF70C1E
:1019B000F30CF50CF10CEF0CED0CEA0CE60CE20C60
:1019C000E80C010D80E311968C93089589E2FBCF1A
:1019D00082E2F9CF11961C92089583E2F4CF81E25E
:1019E000F2CF81E1F0CF87E2EECF8AE2ECCF80E167
:1019F000EACF84E2E8CF88E2E6CF86E2E4CF81E373
:101A0000E2CF80E2E0CF8091D9039091DA0308958C
:101A10009093DA038093D90308958091D8030895B1
:101A20009091D803892B8093D8030895982F90958F
:101A30008091D80389238093D80308958091D70398
:101A400008958091D5039091D6030895611571058D
:101A500059F0FB0130E020E070E060E0241735072A
:101A600019F06115710511F0CB010895A081B181C4
:101A7000A817B90709F4BF012F5F3F4F3696EECF85
:101A80008091DB0381111CC060D266D29093CE039B
:101A90008093CD030E9448170E945A179093D20357
:101AA0008093D1030E94C81B0E94CF1B9093D00348
:101AB0008093CF0381E08093DB0390E080E0089582
:101AC00084EF9FEF08958F929F92AF92BF92CF9233
:101AD000DF92EF92FF920F931F93CF93DF9300D08B
:101AE00000D000D01F92CDB7DEB71A8619861886AF
:101AF0001F821E821D821C821B821A821982809183
:101B0000DB0307EF1FEF882309F49CC08E010D5FF4
:101B10001F4F9E012B5F3F4FAE01495F5F4FBE01DC
:101B2000675F7F4F90E080E00E944C1D8C01009722
:101B300021F00596029708F0DBC029853A8521152A
:101B4000310509F402C1ED80FE804B815C81B70153
:101B5000640F751F8F8198858617970708F4F5C065
:101B6000E20EF31ED7019C91903C09F07FC04230F9
:101B7000510508F47BC011968C914091D903509186
:101B8000DA03452B09F49CC0913F08F071C02CE1A9
:101B9000290F2D3008F48BC02DE2290F203108F4D5
:101BA00089C0903C21F48150823008F483C088E3DE
:101BB000890F8B3008F481C09FEBC92E9CE0D92E91
:101BC000E9EAFCE06D817E81AE014F5F5F4F898560
:101BD0009A8519955C01C114D104A1F189809A807C
:101BE0008114910479F18B819C818815990508F401
:101BF00087C010E000E04B815C8170E060E0C701CD
:101C00000E94762C01151105E9F449815A816985F4
:101C10007A858D819E81680F791FC501F60119951E
:101C2000E980FA800D811E812F81388549855A858A
:101C30006FEF7FEF81E090E00E94E71C8C01892B21
:101C400009F056C0C8012A960FB6F894DEBF0FBE41
:101C5000CDBFDF91CF911F910F91FF90EF90DF905B
:101C6000CF90BF90AF909F908F90089580E085CFE8
:101C700030E020E0220F331FF901E353FC4F0190C5
:101C8000F081E02D309709F497CF892F90E01995D6
:101C9000009709F491CFDC011296ED91FC91139716
:101CA0001496CD90DC90309709F08CCF1FC021E0C6
:101CB00030E0E0CF22E030E0DDCF23E030E0DACFEB
:101CC000D12CC12CE1EBFCE09F3F09F07BCFE091F0
:101CD000CD03F091CE03309721F4C90104EF1FEF3B
:101CE0000CC08FEF90E019950097A9F604EF1FEF55
:101CF00089859A85009709F4A5CF0E94951EA2CFE9
:101D00000E94161E8C0189859A850E94951E70E09E
:101D100060E0C4010E94AF1D98878F830E94E41C7D
:101D20009E838D836F8178856115710559F0C80197
:101D30000E94B81F9A87898706EF1FEF892B09F049
:101D400058CF59CF08EF1FEF56CF08EF1FEFD0CF76
:101D50002091DB03222319F020E00C945F1787EF1A
:101D60009FEF08958091D9039091DA0308950E941E
:101D7000D41B0E942E1BF5D0EDECF3E088E0DF01D0
:101D80001D928A95E9F71092DB0390E080E00895B8
:101D90000C948C1921E040E050E0BA010C945F17DC
:101DA00086E090E0FA019183808390E080E00895DE
:101DB00047E050E063E872E049CEDF92EF92FF9295
:101DC0000F931F93CF93DF938A01EC01C60FD71FA8
:101DD000E090DF03F090E003D9800E94FE1DD8164A
:101DE000190678F082E090E0F801918380838EEF0D
:101DF0009FEFDF91CF911F910F91FF90EF90DF90B8
:101E00000895EF2841F482E090E0F8019183808307
:101E100084EF9FEFEECF89818093DE0390E00196FF
:101E2000F8019183808390E080E0E3CFCF93DF934C
:101E3000EA010E943D1A882321F00E940B1E0E9495
:101E40003E1A82E090E0998388838BEF9FEFDF91C9
:101E5000CF910895CF93DF93EB0186E0FB011192C0
:101E60008A95E9F78FEF8883D8DD8983E7DD8A8358
:101E7000E8DD9D838C83DF91CF910895CF93DF932D
:101E8000EA010E94401A811109C082E090E0998322
:101E9000888385EF9FEFDF91CF91089590E080E0F8
:101EA000B7DD81E090E09983888390E080E0F3CF14
:101EB0000F931F93CF93DF93EA018C01060F171F37
:101EC0000E94401A81110BC082E090E099838883C0
:101ED00085EF9FEFDF91CF911F910F910895F8014A
:101EE0008181823038F082E090E0998388838EEFA0
:101EF0009FEFF0CF81E090E08BDD88E090E0998368
:101F0000888390E080E0E6CFCF93DF930097D1F411
:101F1000EB01FB01329686E0DF011D928A95E9F71D
:101F20008FEF888385E089831A820E94FE1D8B8350
:101F30000E94FD1D9D838C8381E08E838F83DF91C2
:101F4000CF910895DF91CF911ACD88ED9EE09093C7
:101F5000DD038093DC0308958091DC039091DD0321
:101F600008951092DD031092DC0308958091DF0341
:101F70009091E0030895411105C061157105810537
:101F8000910561F06093DF037093E0038093E103B8
:101F90009093E2034093E30381E0089580E0089585
:101FA000FF920F931F93CF93DF938A01EC01C60F2B
:101FB000D71FF9800E94FE1DF816190668F082E00E
:101FC00090E0F801918380838EEF9FEFDF91CF91B6
:101FD0001F910F91FF9008956C817D818E819F816B
:101FE0004B81C9DF811108C082E090E0F801918344
:101FF000808384EF9FEFEACF89818093DE0390E0B6
:102000000196F8019183808390E080E0DFCFCF9349
:10201000DF93EA01FC01E60FF71F64817581868179
:1020200097814381A8DF811109C082E090E0998304
:10203000888384EF9FEFDF91CF91089581E090E056
:102040009983888390E080E0F6CFEFEDF3E0408164
:10205000518162817381480F511D611D711D408343
:102060005183628373830895CF93C091DE034C2F15
:1020700050E06091DF037091E00301960E946D2CA7
:102080008C2FE3DF1092DE03CF910895009799F42F
:102090008091DF039091E0032FEFFB012083892BD8
:1020A00059F02091DE0330E02F5F3F4F24173507B2
:1020B00019F4CB01D9CF63CC0895009799F480919E
:1020C000DF039091E0032FEFFB012083892B59F070
:1020D0002091DE0330E02F5F3F4F2417350719F4BE
:1020E000CB01C2CF4CCC089523E1AC01249FC001A9
:1020F000259F900D1124E091E803F091E903E80F8A
:10210000F91F238134812250310981E022303105C9
:1021100008F080E008950F931F93CF93DF93009111
:10212000EA031091EB03D0E0C0E080E00C171D073C
:1021300049F491E0811190E0892FDF91CF911F91B7
:102140000F9108958111F5CFCE01CEDF2196EECF0C
:10215000A091E803B091E903109729F12091EA03D7
:102160003091EB0382179307F0F453E1589F9001ED
:10217000599F300D1124A20FB31FED91FC911197BF
:10218000309789F012968C91681768F48BE0689FFD
:10219000E00DF11D112480819181892B21F081E0D6
:1021A0009281491708F080E008959C0143E1429F25
:1021B000C001439F900D1124E091E803F091E903E1
:1021C000E80FF91F8385823091F481E090E065810A
:1021D000768140916C0250916D026417750711F47D
:1021E00090E080E0892B19F081E0232B09F080E05A
:1021F0000895EF92FF920F931F93CF93DF93EA011D
:10220000FC01E60FF71F02811381E480F5804F2D5A
:102210006E2DC8019DDF81110DC082E090E0998391
:1022200088838EEF9FEFDF91CF911F910F91FF90E9
:10223000EF900895C80158DF882339F082E090E0DC
:102240009983888388EF9FEFEECF109373020093FA
:102250007202E0927402F092750281E090E099833C
:10226000888390E080E0DFCFCF92DF92EF92FF9201
:102270000F931F93CF93DF937A01EC01C60FD71F03
:10228000C0907202D0907302009174021091750296
:10229000412F602FC6015CDF811110C082E090E009
:1022A000F701918380838AEF9FEFDF91CF911F9198
:1022B0000F91FF90EF90DF90CF900895C60114DF4B
:1022C000882341F082E090E0F7019183808388EFDA
:1022D0009FEFEBCF4C815D816E817F819A818981F7
:1022E0008F3F41F082E090E0F701918380838EEF91
:1022F0009FEFDBCFE3E1EC9D9001ED9D300D1124CC
:10230000E091E803F091E903E20FF31F0190F081FF
:10231000E02D2BE0029FE00DF11D11240190F081D2
:10232000E02D27E0129FE00DF11D112480839183A1
:102330008B81828343835483658376831F5F1093ED
:10234000750281E090E0F7019183808390E080E066
:10235000ACCFEF92FF920F931F93CF93DF937A014D
:102360008C01060F171FC091E803D091E903209755
:1023700081F021E030E0F801828193814091EA030D
:102380005091EB038417950710F030E020E0232BE9
:1023900071F482E090E0F701918380838EEF9FEFEC
:1023A000DF91CF911F910F91FF90EF90089543E13E
:1023B000489F9001499F300D1124C20FD31F94DE16
:1023C000882341F082E090E0F7019183808388EFD9
:1023D0009FEFE6CFF8012481358120383105C8F61A
:1023E00087818111D6CF4181842F90E08F7E009725
:1023F00041F082E090E0F7019183808386EF9FEFC8
:10240000CFCF4F833E832D832681288719862230A4
:1024100010F421E0288721E030E0F70131832083A8
:10242000BFCF88E090E0FA019183808390E080E064
:102430000895FB018FEF808381E181838FEF9FEF10
:102440009383828380E890E0958384831682178249
:102450000895FB018FEF808391E0918382839383C2
:10246000848384E3858381E090E097838683089565
:10247000DF92EF92FF920F931F93CF93DF93EA01C6
:10248000FC01E60FF71F8181813071F082E090E05E
:10249000998388838FEF9FEFDF91CF911F910F91E9
:1024A000FF90EF90DF90089582819381D480258101
:1024B000E680F7800091E8031091E903011511050A
:1024C00039F482E090E0998388838CEF9FEFE4CF2A
:1024D0004091EA035091EB038417950738F082E0AE
:1024E00090E0998388838EEF9FEFD6CF892B39F0C8
:1024F00082E090E09983888386EF9FEFCDCF8D2D8A
:102500008D7FB1F72130A1F781E0D11006C091E0B5
:10251000E916F10431F080E004C0E2E0EE16F104C7
:10252000D0F3882329F390E080E0DEDD882339F0C2
:1025300082E090E09983888388EF9FEFADCFF80128
:10254000D38681E08487F686E586108A178681E047
:1025500090E09983888390E080E09ECF4CE050E04B
:102560006DEA72E073CA8F929F92BF92CF92DF9210
:10257000EF92FF920F931F93CF93DF93EA01FC0139
:10258000E60FF71F828193810481B580E091E80313
:10259000F091E903309791F482E090E09983888389
:1025A0008CEF9FEFDF91CF911F910F91FF90EF90F4
:1025B000DF90CF90BF909F908F9008952091EA0375
:1025C0003091EB038217930738F082E090E0998313
:1025D00088838EEF9FEFE6CF23E1289F6001299F3C
:1025E000D00C1124EC0DFD1DE080F180E114F1040C
:1025F00099F28281081748F78BE0089F8001112427
:10260000E00EF11EF70180819181892B29F6BB2014
:10261000E1F2F7E0BF9E40011124C4010E94921E26
:10262000F70191838083E091E803F091E903EC0DD9
:10263000FD1D0190F081E02DE00FF11F808191815F
:10264000009739F482E090E0998388838DEF9FEFC3
:10265000A9CFA40170E060E00E94762C8091E8038D
:102660009091E903C80ED91EF60180819181080F6F
:10267000191FF801B28281E090E09983888390E08D
:1026800080E090CFAF92BF92CF92DF92FF920F93F4
:102690001F93CF93DF93EA01FC01E60FF71F8281BE
:1026A0009381F4800091E8031091E903011511056D
:1026B00081F482E090E0998388838CEF9FEFDF9133
:1026C000CF911F910F91FF90DF90CF90BF90AF906F
:1026D00008952091EA033091EB038217930738F0B5
:1026E00082E090E0998388838EEF9FEFE8CF2FEF11
:1026F0002F0D2C3FA8F723E1289F6001299FD00CC4
:1027000011240C0D1D1DF80180819181892B89F602
:10271000FBE0FF9E50011124C5010E94921EF801AA
:1027200091838083E091E803F091E903EC0DFD1DB6
:1027300080819181009739F482E090E099838883C9
:102740008DEF9FEFBCCFA50170E060E00E94762C7A
:10275000E091E803F091E903EC0DFD1DF28281E0C8
:1027600090E09983888390E080E0A9CFCF92DF92B8
:10277000EF92FF920F931F93CF93DF93860F971FD4
:10278000FC01028113818091E8039091E903892B78
:1027900081F082E090E0FA01918380838CEF9FEFDB
:1027A000DF91CF911F910F91FF90EF90DF90CF902D
:1027B0000895C801B0E0A0E00197A109B1098F3FD9
:1027C0009F4FA105B10540F082E090E0FA019183AE
:1027D00080838EEF9FEFE4CF7A0183E1809F6001D9
:1027E000819FD00C1124C6010E94921EEC0100971B
:1027F00041F482E090E0F701918380838DEF9FEFB9
:10280000CFCFA60170E060E00E94762CD093E90360
:10281000C093E8031093EB030093EA0390E080E099
:102820002FEF3FEF41E061E070E08017910741F446
:1028300081E090E0F7019183808390E080E0B0CF69
:102840003A8B298B1B864C877E876D87188A1F865B
:1028500001966396EACFCF92DF92EF92FF920F93A9
:102860001F93CF93DF93EC01D12CC12C10E000E03B
:10287000F12CE12C6A816017110609F0CCF483E099
:10288000689FB0011124AE014F5E5F4FC7010E94E7
:10289000BF1E009721F02FEF3FEF3A8B298BDF917E
:1028A000CF911F910F91FF90EF90DF90CF900895FF
:1028B000E881F981EC0DFD1D438154818D859E8554
:1028C000489F9001499F300D589F300D1124C90138
:1028D00001960115110519F44F8144FD049661E03C
:1028E00070E00E94AF1DE816F90608F47C010F5F46
:1028F0001F4F8BE0C80ED11CBDCFF8942091E6038A
:102900003091E70381E02115310509F080E0232BA8
:1029100009F0789408952F923F924F925F926F92B0
:102920007F928F929F92AF92BF92CF92DF92EF925F
:10293000FF920F931F93CF93DF933C01660E771E98
:10294000F301828193814C01B12CA12CC091E80349
:10295000D091E903209769F021E030E06091EA032B
:102960007091EB038617970710F030E020E0232BDF
:10297000D1F482E090E0FA01918380838EEF9FEFA3
:10298000DF91CF911F910F91FF90EF90DF90CF904B
:10299000BF90AF909F908F907F906F905F904F907F
:1029A0003F902F9008958092760290927702A092A5
:1029B0007802B092790263E1689F9001699F300DBF
:1029C0001124C20FD31FF3018181833040F082E0D4
:1029D00090E0FA019183808386EF9FEFD1CF2A01A7
:1029E0002B813C81232BF1F4288139819F8191FF38
:1029F0002EC0232B09F46FC02091ED039A81422F42
:102A0000490F5527551FBA0141E050E06138710563
:102A100014F050E040E0452B09F45DC02A87920F86
:102A20009093ED038150823008F481C066DF8823E3
:102A300009F4D8C0F3018181813009F48DC008F414
:102A40007BC0823009F4C6C090E080E0ADC0232B8B
:102A500009F441C02091EC039A81E22FE90FFF278E
:102A6000FF1F41E050E0ED3FF10514F050E040E081
:102A7000452B89F12A87920F9093EC03D3CFA08145
:102A8000B181A20FB31F11966C91060F111D019613
:102A9000295F3F4F8417950794F38D859E85089F86
:102AA0001001099F300C189F300C1124C114D1045F
:102AB000D1F48F8184FF17C00E94FD1DF5E02F0E19
:102AC000311C21E08215930508F420E0A701455F41
:102AD0005F4F21110EC082E090E0F201918380836C
:102AE00087EF9FEF4DCF0E94FD1D2FEF221A320A74
:102AF000E8CF88819981E80EF91EF70114830383DA
:102B0000FFEFCF1ADF0A7A018A818C151D0409F0C4
:102B10000CF48CCFE881F981EE0DFF1D428150E06D
:102B200030E020E010E000E090E080E0B3CFF12C56
:102B3000E12CD12CC12CE8CF81E090E09C838B83E9
:102B4000EADA882309F480CF81E090E00E94080D42
:102B500080E40E94160D78CF89899A89019661F0E8
:102B600083E090E09C838B8382E090E00E94080DDC
:102B700080E40E94100D68CF8D819E8120916C02AF
:102B800030916D0282179307D1F4609170027091B9
:102B90007102AE014F5E5F4F80916E0290916F02A5
:102BA0000E94771F0097E1F2789422E030E0F20172
:102BB00031832083892B99F08DEF9FEFE1CE892817
:102BC0008A288B2869F6029758F6CE0144DE188AC7
:102BD0001F86E8CF82E090E09C838B8335CF90E026
:102BE00080E0CECE82E090E0F2019183808385EF99
:102BF0009FEFC6CE8F929F92AF92BF92CF92DF92FD
:102C0000EF92FF920F931F93CF93DF93EA018C0112
:102C1000060F171FF8018181833098F082E090E061
:102C20009983888386EF9FEFDF91CF911F910F915A
:102C3000FF90EF90DF90CF90BF90AF909F908F90DC
:102C400008958091E8039091E903892B61F081E078
:102C500090E02091EA033091EB03232B11F490E0F4
:102C600080E0892B39F482E090E0998388838EEFAD
:102C70009FEFDACF42DE882309F4E0C0F8018181BA
:102C8000813009F496C0E8F0823099F42091EA038B
:102C90003091EB03E091E803F091E90390E080E0EC
:102CA00041E050E02817390709F0BEC034DA81113D
:102CB00017C0789481E090E09983888390E080E069
:102CC000B3CF2091EA033091EB03E091E803F09158
:102CD000E90390E080E041E050E02817390741F433
:102CE00081E090E00E94080D80E40E94160DE1CF83
:102CF00063817481672B11F054834383019673962B
:102D0000ECCFE091E803F091E903E00FF11F23819C
:102D1000348122303105D9F4218932892F3F3F4F48
:102D2000B1F42581368140916C0250916D022417D7
:102D3000350761F5AF014F5E5F4F60917002709192
:102D4000710280916E0290916F020E94771FEFEFE7
:102D5000CE1ADE0AEE0AFE0A0D5E1F4F4091EA030C
:102D60005091EB0370E060E0C416D506E606F70666
:102D700044F5009731F27894892B09F49BCF82E0D7
:102D800090E0998388838DEF9FEF4ECFC114D104DB
:102D9000E104F104E1F622303105C8F6CF015BDD34
:102DA000E091E803F091E903E00FF11F108A178624
:102DB000CECF10E000E090E080E0C12CD12C760175
:102DC000CDCF0097C1F610E000E0812C912C54018A
:102DD00083E0E82EF12C1AC0E091E803F091E903BA
:102DE000E00FF11F83819481029749F4F482E3821A
:102DF00082E090E00E94080D80E40E94100DFFEF39
:102E00008F1A9F0AAF0ABF0A0D5E1F4F8091EA0317
:102E10009091EB03B0E0A0E088169906AA06BB06E5
:102E2000DCF290E080E0A7CF6381748162307105AD
:102E300011F4548343830196739634CF82E090E07B
:102E40009983888385EF9FEFEFCE0097B9F48FEFDA
:102E5000FB018083209176023091770243E1429F0B
:102E6000C001439F900D1124E091E803F091E90324
:102E7000E80FF91F8285FB01818308950C94BF0C34
:102E800088E090E0FA019183808390E080E00895EB
:102E90001092E7031092E603E8EEF3E086E0DF012C
:102EA0001D928A95E9F78EEA92E19093E50380936B
:102EB000E40308958091E4039091E50308952F922F
:102EC0003F924F925F926F927F928F929F92AF92BA
:102ED000BF92CF92DF92EF92FF920F931F93CF9307
:102EE000DF93CDB7DEB760970FB6F894DEBF0FBEA5
:102EF000CDBFF894E091E603F091E7033196F093AB
:102F0000E703E093E6037894A091E803B091E90326
:102F1000BA83A983109709F4F9C1E091EA03F0910B
:102F2000EB03EF2B09F4F2C128874B875C876D8791
:102F30007E879A878987B88BAF87312C212CF12C1B
:102F4000512C412C8091EA039091EB03281639060D
:102F500010F4FF2029F1F8948091E6039091E703A3
:102F600001979093E7038093E6037894C2016096FB
:102F70000FB6F894DEBF0FBECDBFDF91CF911F918A
:102F80000F91FF90EF90DF90CF90BF90AF909F9008
:102F90008F907F906F905F904F903F902F9008950B
:102FA000B10190E080E087D4682EEF85F8898781B1
:102FB00081FD3DC0838194810397C9F525813681C8
:102FC0003C832B8389859A852817390781F5C101B0
:102FD000ECD8782E8823A9F1AF85B8891F968D91FA
:102FE0009C915097019621E01D964D915C9184171C
:102FF000950709F020E02F83B12CA12CEF85F889EB
:1030000082818A151B0419F014F0FF20E9F0F8857D
:10301000FF2309F46BC1AF85B88950961C921E92AC
:103020001F97662021F0B10190E080E046D4FFEFC9
:103030002F1A3F0A2F8538892D5E3F4F388B2F87F7
:1030400081CFB1E0BF83D8CFBFD49E838D83E88585
:10305000EE23E9F0772009F43BC1AF85B8891F96CC
:103060008D919C91892B79F0BBE0BA9DC001BB9DED
:10307000900D1124AF85B889ED91FC91E80FF91FEF
:103080008581968152D6BFEFAB1ABB0AB7CF81E0DC
:10309000772039F0EF85F88927853089232B09F0CF
:1030A00080E0F82EE12CA114B10439F4AF85B88981
:1030B0001796EC90E4FAEE24E0F8BBE0BA9D6001CC
:1030C000BB9DD00C1124882309F423C1AF85B88996
:1030D000ED91FC911197EC0DFD1D438154811D96DE
:1030E0002D913C91429FC001439F900D529F900DA6
:1030F0001124E1105CC001969087878361E070E045
:10310000878190852CD5EF85F889218932890081C6
:1031100011810C0D1D1D2F3F320709F44AC0BC015F
:10312000C90126D7D80116969C938E931597AF8523
:10313000B889ED91FC911197EC0DFD1D058116816B
:103140000115110509F4CDC0ED81FE810E0F1F1F81
:103150001A968C918A0DD8018C93E1102FC00F5FC5
:103160001F4FAF85B889ED91FC91EC0DFD1D1287C5
:103170000187AF85B889ED91FC91EC0DFD1D85812E
:103180009681892B09F4A4C080916C0290916D0204
:103190002B813C812817390709F465C0772011F08D
:1031A00001851285912C812C1A8219824AC00596BC
:1031B000A3CFB8D5F80196838583B9CF8B859C853D
:1031C000AD85BE85F80181839283A383B4830B5FB1
:1031D0001F4FC7CFE080F180E80CF91CD701139690
:1031E0006D917C9114978C918F3F09F473C0E1E04D
:1031F000F0E002C0EE0FFF1F8A95E2F7CF01092E23
:10320000000CAA0BBB0BFB014081518162817381D1
:1032100084239523A623B72321E0892B8A2B8B2B8C
:1032200009F420E0D8012C93D70111968C91080F56
:10323000111DE981FA813196FA83E983F7E08F0E57
:10324000911CAF85B889ED91FC91EC0DFD1D82813B
:1032500029813A818217130611F00CF0BBCF772039
:1032600011F0128701873F81332391F1AF85B8892F
:10327000ED91FC91EC0DFD1D61E070E08781908582
:103280006ED4AF85B889ED91FC91EC0DFD1DE78002
:10329000F08445815681E1E0F0E0662011F0F0E035
:1032A000E0E00D811E819C01B101882799278E1BCA
:1032B0009F0B8DD32C01892B59F0EF85F8898081E4
:1032C0009181C80ED91ED60115968D919C912DD550
:1032D000F12CD9CEF701418150E0C8010E946D2C3C
:1032E000A3CF86EF482E55245A94CDCEEF85F8898A
:1032F000878590890196908B8787258536858217EB
:10330000930709F08ECE108A17868BCE512C412C54
:1033100022CE10E000E02DCF2F923F924F925F928D
:103320006F927F928F929F92AF92BF92CF92DF92D5
:10333000EF92FF920F931F93CF93DF938091E80357
:103340009091E90310E000E0892BA9F0D6DA0AEFAA
:103350001FEF882381F02090EA033090EB03C091A7
:10336000E803D091E903D12CC12C10E000E02C142B
:103370003D04A9F47894C801DF91CF911F910F917A
:10338000FF90EF90DF90CF90BF90AF909F908F9085
:103390007F906F905F904F903F902F900895C6015F
:1033A0000E94D510882309F18B819C810397E9F451
:1033B0008F859889892BC9F0B60190E080E07BD297
:1033C00021E030E0882311F030E020E0442455244F
:1033D000421A530AB12CA12C912C812C8A81881578
:1033E000190409F038F4188A1F864FEFC41AD40A5A
:1033F0006396BDCFE881F981EA0DFB1D8581968139
:10340000892BA1F161E070E087819085A8D33C0110
:10341000DBD28C01E881F981EA0DFB1D8185928563
:1034200025813681200F311FAC01421B530B9A01BD
:1034300047815085421B530B70E060E00E94762C60
:10344000E881F981EA0DFB1DE780F0844581568112
:103450009301B601C201BBD28C01892B39F0E881FE
:10346000F981EA0DFB1D858196815FD45FEF851A96
:10347000950A8BE0A80EB11CB1CF3FCA789408958D
:103480002F923F924F925F926F927F929F92AF9254
:10349000BF92CF92DF92EF92FF920F931F93CF9341
:1034A000DF9300D000D0CDB7DEB70091E8031091D4
:1034B000E903992493940115110509F43EC0A090E5
:1034C000EA03B090EB0319DA982E8823B1F1109239
:1034D000E9031092E8031092EB031092EA031092B2
:1034E000EC031092ED038FEF9FEFDC0180937602E7
:1034F00090937702A0937802B093790278947FD367
:103500001E830D83C12CD12C7601C501B0E0A0E053
:1035100089839A83AB83BC8322242A94322C8981A9
:103520009A81AB81BC81C816D906EA06FB06F4F085
:10353000C801FBD380E40E94160D892D26960FB694
:10354000F894DEBF0FBECDBFDF91CF911F910F91D9
:10355000FF90EF90DF90CF90BF90AF909F907F90C3
:103560006F905F904F903F902F900895AD81BE81F6
:1035700015968D919C91169720916C0230916D0259
:1035800082179307D1F451968D919C91DFD4ED81F0
:10359000FE8180819181B12CA12C412C512C3201D2
:1035A000892B89F5BFEFCB1ADB0AEB0AFB0AED8109
:1035B000FE817396FE83ED83B2CFC114D104E10482
:1035C000F10429F7029718F7ED81FE81818992892C
:1035D0008F3F980709F05CD4AD81BE8152963C9232
:1035E0002E925197D4CF8A0D9B1DDC018D919C9119
:1035F000009709F09AD3BFEF4B1A5B0A6B0A7B0A5C
:10360000EBE0AE0EB11CAD81BE818D919C91119706
:1036100012964C9150E070E060E044165506660644
:1036200077060CF382D3BECFCF93DF93EA0128DF76
:10363000811109C082E090E09983888385EF9FEF34
:10364000DF91CF91089581E090E00E94080D81E024
:1036500090E09983888390E080E0F2CF11DF1092B0
:10366000E5031092E403089542E050E065EF72E054
:103670000C94260DFF920F931F93CF93DF938A0133
:10368000EC01C60FD71FF980B9D20897F8161906B2
:1036900071F068F082E090E0F801918380838EEF12
:1036A0009FEFDF91CF911F910F91FF9008956C8153
:1036B0007D818E819F814B810E94BB0F811108C04B
:1036C00082E090E0F8019183808384EF9FEFE9CF5F
:1036D000F9800E94B60F4F2D50E0BE01685F7F4F0A
:1036E0000E946D2C89810E94251081E090E0F801F4
:1036F0009183808390E080E0D4CFDF92EF92FF92BD
:103700000F931F93CF93DF938A01EC01C60FD71F4E
:103710000E94B60F7C01D98071D2DD2059F002974A
:1037200021E030E0D816190619F010F030E020E062
:10373000232B79F482E090E0F801918380838EEF6F
:103740009FEFDF91CF911F910F91FF90EF90DF904E
:103750000895EF2841F482E090E0F801918380839E
:1037600084EF9FEFEECFF9800E94B60F4F2D50E00F
:10377000BE016E5F7F4F0E946D2C89810E942510D3
:1037800081E090E0F8019183808390E080E0D9CFE0
:1037900084E39BE19093EF038093EE03089580917F
:1037A000EE039091EF0308950895FC0111821082B9
:1037B000938382830895DB011D921C92DC01129693
:1037C000ED91FC9113977183608313967C936E93B4
:1037D00012970895FC0180819181DB018D939C9368
:1037E000A081B181109741F08D919C91918380834C
:1037F000892B11F4F383E2830895FC018081918188
:10380000DB018D939C93892B11F473836283718305
:1038100060830895FC01118210829383828308954E
:10382000CF93DF931F921F92CDB7DEB71A82198212
:10383000F894BE016F5F7F4F85EF93E0CBDF898106
:103840009A81009709F071D289819A81892B89F731
:10385000BE016F5F7F4F89EF93E0BCDF89819A8162
:10386000009709F062D289819A81892B89F778942F
:103870000F900F90DF91CF910895CF93DF931F9218
:103880001F92CDB7DEB71A821982F894BE016F5F1E
:103890007F4F81EF93E09EDF89819A81009709F045
:1038A00044D289819A81892B89F778940F900F905F
:1038B000DF91CF91089581E0089590E080E0089530
:1038C000EF92FF920F931F93CF93DF931F921F925C
:1038D000CDB7DEB71A8219828091F00307EF1FEF90
:1038E0008823A1F1F894BE016F5F7F4F89EF93E0C9
:1038F00071DF789489819A81EE24E394F12C892BED
:1039000051F4F894BE016F5F7F4F85EF93E062DF63
:103910007894F12CE12C89819A810EEF1FEF0097AA
:10392000A9F0FC014281538164E070E011D58C0163
:10393000892B61F0F89469817A81C701880F991FFA
:10394000880F991F8B509C4F58DF7894C8010F90B7
:103950000F90DF91CF911F910F91FF90EF900895FD
:103960000F931F93CF93DF9300D01F92CDB7DEB795
:103970001C821B821A8219828091F00307EF1FEFCD
:103980008823C1F0AE014D5F5F4F64E070E0CE016F
:10399000019651D58C01892B69F4E981FA818B81DB
:1039A0009C8193838283F89469817A8181EF93E08B
:1039B00002DF7894C8010F900F900F900F90DF9165
:1039C000CF911F910F91089556D6049608958F9226
:1039D0009F92AF92BF92CF92DF92EF92FF920F939E
:1039E0001F93CF93DF931F921F92CDB7DEB71A823A
:1039F0001982BC016F5F7F4F6330710598F0AA2474
:103A0000AA94BA2CC5010F900F90DF91CF911F910E
:103A10000F91FF90EF90DF90CF90BF90AF909F906D
:103A20008F9008954115510551F3480159018A01BC
:103A30006C01CADF8815990511F7E114F104F9F258
:103A40008E0D9F1DA816B906D0F28091F003882331
:103A5000F1F0F894B501645071099701AE014F5F20
:103A60005F4FC80104967CD55C01892B71F4898174
:103A70009A81F80193838283C601880F991F880F6A
:103A8000991FB8018B509C4F96DE7894BBCF87EF7F
:103A9000A82EBB24BA94B6CFAF92BF92CF92DF923A
:103AA000EF92FF920F931F93CF93DF931F921F927A
:103AB000CDB7DEB71A821982892B09F047C061158C
:103AC000710509F443C04115510509F43FC02115A2
:103AD000310509F43BC001151105C1F18091F003D6
:103AE0008823B9F179016A015B01F894BE016F5F27
:103AF0007F4F81EF93E06EDE789489819A81009701
:103B000059F1DC0112966D917C91A801049641D582
:103B10008C01E981FA81D501ED93FC938281938137
:103B20000496F601918380834FDFD7018D939C9398
:103B3000C8010F900F90DF91CF911F910F91FF90CF
:103B4000EF90DF90CF90BF90AF9008950FEF1FEFF1
:103B5000EFCF07EF1FEFECCF0EEF1FEFE9CFCF93C3
:103B6000DF93EC01672B71F48FD58C179D0760F004
:103B700082D52496C80FD91F81D58C0F9D1FDF9148
:103B8000CF9108957ED5F1CF90E080E0F8CF0F93EC
:103B90001F93CF93DF932091F00321112BC08B0152
:103BA000EC0185EF93E001DE89EF93E0FEDD81EF2C
:103BB00093E0FBDD97D00097C1F466D570E060E03C
:103BC000CEDF4AE752E062E070E0D9D0009769F4B6
:103BD00080917A0290917B0269D5B801CE019ED383
:103BE000009719F421E02093F003DF91CF911F910A
:103BF0000F91089584EF9FEFF8CF43C545C5CF934C
:103C0000DF9345D5EC01892B11F40ADE36DECE01B7
:103C1000DF91CF910895CF93DF9339D5EC01892BB4
:103C200009F4FEDDCE01DF91CF91089580917A02F3
:103C300090917B020895CF93DF938091F003D0E0C1
:103C4000C0E08823D1F037D5EC01892BB1F4E8DD51
:103C500014DE80917A0290917B021AD1CED1EC01D0
:103C6000892B59F485EF93E0D5DD89EF93E0D2DD20
:103C700081EF93E0CFDD1092F003CE01DF91CF9181
:103C80000895EF92FF920F931F93CF93DF93EC0170
:103C90007A018B010F5F1F4F0E9DA0010F9D500DEC
:103CA0001E9D500D112470E060E00E94762C90E083
:103CB00080E0F0E0E0E02FEFE816F90639F4DF915C
:103CC000CF911F910F91FF90EF9008951A82198262
:103CD0002883309711F0D283C1830196FE01C00F73
:103CE000D11FEACFEFEFF3E085E8DF011D928A955F
:103CF000E9F71092FE031092FD03EBE8F4E0118265
:103D00001082158214821382128217821682118603
:103D10001086E7E8F4E0118210821382128290E0AC
:103D200080E0089590E080E00895009739F1DC018B
:103D30008E91813041F4E0918904F0918A043097AA
:103D4000E9F0CD011994811119C0F8948FEF8C938B
:103D500080918B0490918C0412969C938E93119772
:103D6000B0938C04A0938B0480918D0490918E0469
:103D7000019690938E0480938D0478940895EF9229
:103D8000FF920F931F93CF93DF934115510509F4D1
:103D90007CC0009709F479C06115710509F475C0FC
:103DA000EA01AB01BC01F89480918B0490918C04E2
:103DB000892B19F582E094E08C7F6D5F7F4F6C7FDB
:103DC0009B012F5F3F4F249F8001259F100D349F43
:103DD000100D112420919304309194042115310584
:103DE00009F03CC0E090FD03F090FE0322E830E0D3
:103DF0002E193F092017310730F478942FEF3FEF49
:103E000086EF9FEF22C090938C0480938B04509395
:103E1000900440938F0450938E0440938D047093CC
:103E20009204609391041093940400939304009778
:103E300009F027DF0E0D1F1D1093FE030093FD03F5
:103E4000789430E020E090E080E039832883DF91AF
:103E5000CF911F910F91FF90EF9008952017310798
:103E600060F290938C0480938B0450939004409361
:103E70008F0450938E0440938D047093920460934A
:103E800091040097E9F2FDDEDBCF8FEF9FEFDFCFEC
:103E9000892B51F5F89410928C0410928B04109297
:103EA000900410928F0410928E0410928D04109240
:103EB000920410929104209193043091940421155E
:103EC000310571F08091FD039091FE03821B930BED
:103ED0009093FE038093FD03109294041092930438
:103EE000789490E080E008958FEF9FEF089541155A
:103EF000510549F1009739F16115710521F1F894E7
:103F00002091870430918804232BB9F420918904EF
:103F100030918A04232B89F490938804809387043A
:103F200070938A0460938904789421E030E090E0F3
:103F300080E0FA0131832083089578942FEF3FEFDA
:103F400086EF9FEFF6CF8FEF9FEF0895019769F40B
:103F5000F894109288041092870410928A041092A8
:103F60008904789490E080E008958FEF9FEF0895A2
:103F70006115710519F4F0E0E0E011C081309105A0
:103F800081F4E0918704F09188043097A1F3CB018C
:103F900001961995009779F3FC0181E08193CF0197
:103FA0000895892B41F780918B0490918C04892B83
:103FB00011F3809191049091920486179707D8F29B
:103FC000F89480918D0490918E04009731F0E091E7
:103FD0008B04F0918C04309711F47894CCCF21812C
:103FE000328130938C0420938B04019790938E043C
:103FF00080938D0411927894D2CFE4E8F4E083E0CA
:10400000DF011D928A95E9F7EFEFF3E085E8DF0124
:104010001D928A95E9F71092FE031092FD03EBE8DA
:10402000F4E08AE0DF011D928A95E9F7E7E8F4E021
:1040300084E0DF011D928A95E9F790E080E0089521
:10404000CF93DF93C0917C02D0917D02CF3FDC07FC
:1040500059F4D9D390937D0280937C0297FF09C0D5
:10406000D0937D02C0937C0284EF9FEFDF91CF91CC
:10407000089590E080E0FACF8230910528F4809393
:10408000950490E080E008958FEF9FEF08954F92A0
:104090005F926F927F92AF92BF92CF92DF92EF9238
:1040A000FF920F931F93CF93DF931F921F92CDB771
:1040B000DEB71A821982009709F478C0611571057C
:1040C00009F474C020917C0230917D0207EF1FEF4C
:1040D0002F3F3F4F09F444C06B015C01412C512C30
:1040E0003201F12CE12C10E000E09E012F5F3F4FE8
:1040F000A6014E195F09B5016E0D7F1D80917C02EE
:1041000090917D02DFD3892B09F04AC089819A8181
:10411000009741F4E114F10429F42091950422233D
:1041200009F441C0E80EF91EEC14FD04C8F480E85F
:10413000481684E858068EE16806710418F560E0B8
:1041400070E0CB0161D62AE0420E511C611C711C4B
:104150000A3F4FEF140721F0043F8FEF1807A1F437
:10416000C8010F900F90DF91CF911F910F91FF9099
:10417000EF90DF90CF90BF90AF907F906F905F9067
:104180004F90089501EF1FEF81E090E0013F2FEF86
:10419000120711F090E080E0892B09F4A6CFE0CF60
:1041A00004EF1FEFDDCF0AEF1FEFDACF0FEF1FEFA6
:1041B000D7CF4F925F926F927F92AF92BF92CF9282
:1041C000DF92EF92FF920F931F93CF93DF931F9293
:1041D0001F92CDB7DEB71A821982009709F478C012
:1041E0006115710509F474C020917C0230917D0243
:1041F00007EF1FEF2F3F3F4F09F444C06B015C01F5
:10420000412C512C3201F12CE12C10E000E09E01F8
:104210002F5F3F4FA6014E195F09B5016E0D7F1D3F
:1042200080917C0290917D0203D3892B09F04AC0D2
:1042300089819A81009741F4E114F10429F42091D5
:104240009504222309F441C0E80EF91EEC14FD0484
:10425000C8F480E8481686E9580688E968067104BB
:1042600018F560E070E0CB01CFD52AE0420E511C7A
:10427000611C711C0E3F4FEF140721F0043F8FEFBC
:104280001807A1F4C8010F900F90DF91CF911F91F3
:104290000F91FF90EF90DF90CF90BF90AF907F9005
:1042A0006F905F904F90089502EF1FEF81E090E0D4
:1042B000023F2FEF120711F090E080E0892B09F404
:1042C000A6CFE0CF04EF1FEFDDCF0EEF1FEFDACF69
:1042D0000FEF1FEFD7CF80917C0290917D028F3F2F
:1042E000980749F088D2892B49F48FEF9FEF90937C
:1042F0007D0280937C0290E080E0089584EF9FEF40
:104300000895FC01680F791F90E080E0E617F70739
:1043100009F408952191820F911DF8CF2091960400
:10432000211113C08DDE009791F410929C0410921D
:104330009B0410929A04109299041092980410927F
:10434000970421E020939604089584EF9FEF089549
:10435000AF92BF92CF92DF92EF92FF920F931F9393
:10436000CF93DF93009709F460C04630510508F4FD
:104370005CC020919604C7EFDFEF222309F449C007
:104380008C01060F171FF801C080D180C114D10421
:1043900009F44EC096012A5F3F4F4217530708F4B5
:1043A00047C07C0180919B0490919C0493838283FD
:1043B000B6016C5F7F4F5801A60EB71EC801A1DF82
:1043C000F5019183808364E070E0C80160DEEC0158
:1043D000892BF9F481E090E04FDEB601C801049624
:1043E00056DEEC01892B91F462E070E0C5014FDEEE
:1043F000EC01892B59F4C70198DC80919B049091C2
:104400009C04019690939C0480939B0490E080E030
:1044100033DECE01DF91CF911F910F91FF90EF908E
:10442000DF90CF90BF90AF900895CFEFDFEFF1CF47
:10443000C9EFDFEFEECF6F927F928F929F92AF9294
:10444000BF92CF92DF92EF92FF920F931F93CF9381
:10445000DF9300D01F92CDB7DEB7009709F47AC082
:104460004115510509F476C02091960407EF1FEF1E
:10447000222309F44DC03A017B015C0164E070E045
:10448000CE01019696DE8C01892B09F041C009818D
:104490001A810115110509F45AC0480186E0880EF9
:1044A000911CB701680D791D80917E0290917F0269
:1044B0005FDD6C01009709F450C0A70170E060E077
:1044C0000E94762C89819A81AB81BC81EC0CFD1C09
:1044D000F70181939193A193B1937F0181E090E0E3
:1044E000CBDDB801C70165DE892B31F562E070E0F4
:1044F000C701800F911F5DDE8C01892BE9F490E0EC
:1045000080E0BADDF501D182C082F3019182808220
:10451000C8010F900F900F900F90DF91CF911F91D6
:104520000F91FF90EF90DF90CF90BF90AF909F9052
:104530008F907F906F90089590E080E09DDDF50171
:1045400011821082F30111821082C601EEDB09EFA5
:104550001FEFDECF0FEF1FEFDBCF06EF1FEFD8CF40
:104560000097A1F04115510589F02115310571F031
:10457000F90136966E177F0748F0DC012D933C93C6
:10458000DA01ED93FC9390E080E008958FEF9FEFC8
:104590000895AF92BF92CF92DF92EF92FF920F9366
:1045A0001F93CF93DF93009709F45FC04115510526
:1045B00009F45BC06530710508F457C0209196047A
:1045C000C7EFDFEF222391F1DC01CD90DC90119752
:1045D0001296ED91FC9196012A5F3F4FC9EFDFEFF4
:1045E0002617370719F5C0919704D09198042097A2
:1045F00049F521E030E030939804209397047A0144
:104600008C01F0939A04E09399045601B4E0AB0E48
:10461000B11CB50176DE0A0D1B1DF8012081318128
:104620008217930729F5D701CD92DC92CE01DF9155
:10463000CF911F910F91FF90EF90DF90CF90BF909F
:10464000AF9008952091990430919A042F5F3F4FC5
:10465000CCEFDFEFE217F30790F2CBEFDFEF2E178F
:104660003F0768F2D0E0C0E0CACFCFEFDFEFDECF88
:10467000C3EFDFEFDBCF84E090E0089582E090E0CD
:1046800008958CEF9FEF089580E290E008951092D6
:104690009C0410929B0410929A0410929904109218
:1046A00098041092970490E080E0089590937F0220
:1046B00080937E02089580919604882391F00BDE0A
:1046C000009789F410929C0410929B0410929A0413
:1046D00010929904109298041092970410929604E4
:1046E000089590E080E00895009749F06115710504
:1046F00031F0FC0111821082FB01118210820895B9
:10470000F3CF26E030E040E855E260E070E090E072
:1047100080E000C08130910569F01CF4892B39F0EC
:1047200008958230910549F0039751F0089582EB86
:1047300094E0C3C58FE495E0FCCF8CEE95E0F9CF13
:1047400089E896E0F6CF089580E00895CF92DF9251
:10475000EF92FF920F931F9332D360939D04709357
:104760009E0480939F049093A0040091A104109153
:10477000A2042091A3043091A4046B017C01C01A0F
:10478000D10AE20AF30A97018601003A164821404D
:10479000310508F16093A1047093A2048093A304EF
:1047A0009093A404A2D00BD30091A1041091A20471
:1047B0002091A3043091A404601B710B820B930B16
:1047C000603A76488140910570F081E090E09093E6
:1047D000A8048093A70481E01F910F91FF90EF90B0
:1047E000DF90CF9008951092A8041092A704F3CF01
:1047F0001092A504089568EE73E080E090E004D381
:1048000090E080E0089526E030E040E050E16EE086
:1048100070E090E080E07EDF82EB94E084D4892B2E
:1048200021F082EB94E099D4F7CF90E080E00895F6
:10483000CF92DF92EF92FF920F931F93CF93DF936C
:104840006B017A01E9011982188282EB94E06BD442
:10485000892B69F18601CC24C39482E0D82E809103
:10486000A504811110C082EB94E077D40297B9F7C8
:10487000C092A504F801D1928F0188819981019697
:1048800099838883ECCF888199818E159F0578F470
:1048900082EB94E062D48F3F9807A9F3F8018193EB
:1048A0008F0188819981019699838883ECCF90E06C
:1048B00080E0DF91CF911F910F91FF90EF90DF90FB
:1048C000CF9008950F931F93CF93DF93EA0189014F
:1048D00082EB94E082D7F801D183C08390E080E03E
:1048E000DF91CF911F910F9108958091A60491E0DF
:1048F000980F9093A604882349F021E030E030938C
:10490000A8042093A7048093A60408950E94AD03F1
:104910008091A6048150F7CF0F931F93CF93DF931D
:1049200010928F0710928E07A5D2EBDEC091810204
:10493000D0918202198218826FEF7FEFCB010E9423
:10494000CE0270E060E090E080E00E944F010097AE
:1049500009F039C00E947005F8947894BE01685D32
:104960007F4F8A819B810E945201892B59F46FEFFE
:104970007FEFCB010E94E1010E94C802882311F061
:1049800081E08CA7F894DFDE0E94CB02882311F02F
:1049900080E008C00E94C8028111FACF81E09CA586
:1049A0009111F6CF80938E070E94030D8C017894AD
:1049B00080918E0781110CC00E94B9060E94AD0241
:1049C000F89490E080E0DF91CF911F910F910895CE
:1049D0000E94AB020E94CB028823D9F081E0809331
:1049E0008F0790918F0781E0911180E080938E076F
:1049F00080918F078111A8DE0130110529F40E94F2
:104A0000030D892B09F4F4DE0E94030D8C019EDE58
:104A1000CFCF0E94C8028111E1CF81E09CA5911106
:104A2000DECF80E0DCCF5058BB27AA270ED0DCC0F9
:104A3000CDD030F0D2D020F031F49F3F11F41EF4ED
:104A4000C2C00EF4E095E7FBB8C0E92FDED080F3DA
:104A5000BA17620773078407950718F071F49EF57B
:104A6000F6C00EF4E0950B2EBA2FA02D0B01B90164
:104A700090010C01CA01A0011124FF27591B99F0D4
:104A8000593F50F4503E68F11A16F040A22F232FE0
:104A9000342F4427585FF3CF469537952795A79530
:104AA000F0405395C9F77EF41F16BA0B620B730BD7
:104AB000840BBAF09150A1F0FF0FBB1F661F771F48
:104AC000881FC2F70EC0BA0F621F731F841F48F4FD
:104AD000879577956795B795F7959E3F08F0B3CF83
:104AE0009395880F08F09927EE0F9795879508956D
:104AF00040D008F481E00895E89409C097FB3EF4A3
:104B000090958095709561957F4F8F4F9F4F99231A
:104B1000A9F0F92F96E9BB279395F6958795779598
:104B20006795B795F111F8CFFAF4BB0F11F460FF58
:104B30001BC06F5F7F4F8F4F9F4F16C0882311F0B0
:104B400096E911C0772321F09EE8872F762F05C0C4
:104B5000662371F096E8862F70E060E02AF09A955F
:104B6000660F771F881FDAF7880F9695879597F954
:104B70000895990F0008550FAA0BE0E8FEEF1616EE
:104B80001706E807F907C0F012161306E407F50741
:104B900098F0621B730B840B950B39F40A2661F0B5
:104BA000232B242B252B21F408950A2609F4A14058
:104BB000A6958FEF811D811D089597F99F6780E865
:104BC00070E060E008959FEF80EC089500240A945F
:104BD0001616170618060906089500240A941216D8
:104BE0001306140605060895092E0394000C11F40B
:104BF000882352F0BB0F40F4BF2B11F460FF04C0B8
:104C00006F5F7F4F8F4F9F4F089557FD9058440F10
:104C1000551F59F05F3F71F04795880F97FB991F1B
:104C200061F09F3F79F087950895121613061406D8
:104C3000551FF2CF4695F1DF08C016161706180665
:104C4000991FF1CF86957105610508940895E89440
:104C5000BB2766277727CB0197F908958ADF08F4E9
:104C60008FEF08950BD0C0CFB1DF28F0B6DF18F07A
:104C7000952309F0A2CFA7CF1124EACFC6DFA0F376
:104C8000959FD1F3950F50E0551F629FF001729FE1
:104C9000BB27F00DB11D639FAA27F00DB11DAA1F00
:104CA000649F6627B00DA11D661F829F2227B00D4D
:104CB000A11D621F739FB00DA11D621F839FA00DD8
:104CC000611D221F749F3327A00D611D231F849F28
:104CD000600D211D822F762F6A2F11249F5750407F
:104CE0008AF0E1F088234AF0EE0FFF1FBB1F661F1A
:104CF000771F881F91505040A9F79E3F510570F0D3
:104D00005CCFA6CF5F3FECF3983EDCF386957795BA
:104D10006795B795F795E7959F5FC1F7FE2B880FCD
:104D2000911D9695879597F908951F920F920FB64A
:104D30000F9211242F933F938F939F93AF93BF9321
:104D40008091AA049091AB04A091AC04B091AD0401
:104D50003091A90423E0230F2D3758F50196A11DAA
:104D6000B11D2093A9048093AA049093AB04A0934F
:104D7000AC04B093AD048091AE049091AF04A091C7
:104D8000B004B091B1040196A11DB11D8093AE0491
:104D90009093AF04A093B004B093B104BF91AF91CE
:104DA0009F918F913F912F910F900FBE0F901F9069
:104DB000189526E8230F0296A11DB11DD2CF3FB74B
:104DC000F8948091AE049091AF04A091B004B0919A
:104DD000B10426B5A89B05C02F3F19F00196A11D6F
:104DE000B11D3FBFBA2FA92F982F8827BC01CD0135
:104DF000620F711D811D911D42E0660F771F881F94
:104E0000991F4A95D1F708958F929F92AF92BF92C2
:104E1000CF92DF92EF92FF926B017C01D0DF4B01CA
:104E20005C01C114D104E104F104D9F003D5C7DF5A
:104E3000681979098A099B09683E734081059105C3
:104E400080F321E0C21AD108E108F10888EE880E4B
:104E500083E0981EA11CB11CC114D104E104F1042B
:104E600031F7FF90EF90DF90CF90BF90AF909F9081
:104E70008F900895789484B5826084BD84B58160F4
:104E800084BD85B5826085BD85B5816085BDEEE652
:104E9000F0E0808181608083E1E8F0E01082808131
:104EA00082608083808181608083E0E8F0E080819F
:104EB00081608083E1EBF0E0808184608083E0EBBF
:104EC000F0E0808181608083E1E9F0E080818260B0
:104ED0008083808181608083E0E9F0E0808181606F
:104EE0008083E1EAF0E0808182608083808181605C
:104EF0008083E0EAF0E0808181608083E1E2F1E09C
:104F0000808182608083808181608083E0E2F1E043
:104F1000808181608083EAE7F0E080818460808323
:104F200080818260808380818160808380818068CD
:104F300080831092C10008958150823108F059C0D9
:104F4000E82FF0E08827E955F84D8F4FA5C4C72713
:104F5000CB27B927BF27C327F927CE27D427D827A0
:104F6000DE27E227E627EC27F027F927F427FA27A0
:104F7000FE27809180008F77809380000895809134
:104F800080008F7DF9CF80918000877FF5CF84B539
:104F90008F7784BD089584B58F7DFBCF8091B0005D
:104FA0008F778093B00008958091B0008F7DF9CF06
:104FB000809190008F778093900008958091900069
:104FC0008F7DF9CF80919000877FF5CF8091A000F1
:104FD0008F778093A00008958091A0008F7DF9CFF6
:104FE0008091A000877FF5CF809120018F778093FB
:104FF00020010895809120018F7DF9CF80912001BB
:10500000877FF5CFCF93DF9390E0FC01E65DFE4F05
:10501000249180599E4FFC0184918823C9F090E02F
:10502000880F991FFC01E651FE4FA591B491FC0138
:10503000E053FE4FC591D49161110DC09FB7F89414
:105040008C91209582238C938881282328839FBF6D
:10505000DF91CF910895623051F49FB7F8943C915D
:10506000822F809583238C93E8812E2BEFCF8FB7EF
:10507000F894EC912E2B2C938FBFEACF1F93CF93F4
:10508000DF93282F30E0F901EC51FF4F8491F901B3
:10509000E65DFE4FD491F901E059FE4FC491CC2357
:1050A000A1F0162F811148DFEC2FF0E0EE0FFF1F6B
:1050B000E053FE4FA591B4918FB7F894EC91111184
:1050C00008C0D095DE23DC938FBFDF91CF911F9175
:1050D0000895DE2BF8CFCF93DF93282F30E0F9012E
:1050E000EC51FF4F8491F901E65DFE4FD491F90137
:1050F000E059FE4FC491CC2399F081111DDFEC2FB4
:10510000F0E0EE0FFF1FEA54FE4FA591B491EC9131
:10511000ED2381E090E009F480E0DF91CF910895E4
:1051200080E090E0FACFFC01918D228D892F90E0F4
:10513000805C9F4F821B91098F7399270895FC0112
:10514000918D828D981731F0828DE80FF11D858D3C
:1051500090E008958FEF9FEF0895FC01918D828D6F
:10516000981761F0A28DAE0FBF2FB11D5D968C9187
:10517000928D9F5F9F73928F90E008958FEF9FEFC6
:105180000895FC01538D448D252F30E0842F90E04D
:10519000821B930B541710F0CF9608950197089532
:1051A000FC01A48DA80FB92FB11DA35ABF4F2C919C
:1051B000848D90E001968F739927848FA689B78993
:1051C0002C93A089B1898C91837080648C93938D8A
:1051D000848D981306C00288F389E02D80818F7D2D
:1051E00080830895CF93DF93EC01888D8823B1F0FD
:1051F000AA89BB89E889F9898C9185FD03C08081E2
:1052000086FD0CC00FB607FCF7CF8C9185FFF2CF5F
:10521000808185FFEDCFCE01C3DFEACFDF91CF9153
:105220000895EF92FF920F931F93CF93DF93EC01BA
:1052300081E0888F9B8D8C8D98131AC0E889F9893D
:10524000808185FF15C09FB7F894EE89FF89608340
:10525000E889F98980818370806480839FBF81E0C1
:1052600090E0DF91CF911F910F91FF90EF90089503
:10527000F62E0B8D10E00F5F1F4F0F731127E02EDE
:105280008C8D8E110BC00FB607FCFACFE889F98917
:10529000808185FFF5CFCE0183DFF2CFEB8DEC0F60
:1052A000FD2FF11DE35AFF4FF0829FB7F8940B8F4B
:1052B000EA89FB8980818062D0CFCF92DF92EF9222
:1052C000FF921F93CF93DF93EC016A017B01122FB2
:1052D000E889F98982E08083C11481EED806E1046F
:1052E000F10499F060E079E08DE390E0A701960188
:1052F000B1D2215031094109510956954795379549
:105300002795211580E1380790F0E889F989108206
:1053100060E874E88EE190E0A70196019BD22150ED
:105320003109410951095695479537952795EC85DF
:10533000FD853083EE85FF852083188EEC89FD89FD
:105340001083EA89FB89808180618083EA89FB89F7
:10535000808188608083EA89FB898081806880837E
:10536000EA89FB8980818F7D8083DF91CF911F91B6
:10537000FF90EF90DF90CF9008951F920F920FB69D
:105380000F9211240BB60F922F938F939F93EF934D
:10539000FF93E091C204F091C3048081E091C804BE
:1053A000F091C90482FD1DC090818091CB048F5F74
:1053B0008F732091CC04821741F0E091CB04F0E090
:1053C000EE54FB4F958F8093CB04FF91EF919F910B
:1053D0008F912F910F900BBE0F900FBE0F901F90CB
:1053E00018958081F2CF1F920F920FB60F92112461
:1053F0000BB60F922F933F934F935F936F937F93CF
:105400008F939F93AF93BF93EF93FF9382EB94E0BF
:10541000C7DEFF91EF91BF91AF919F918F917F91E7
:105420006F915F914F913F912F910F900BBE0F9015
:105430000FBE0F901F901895E2EBF4E013821282DA
:1054400088EE93E0A0E0B0E084839583A683B783E1
:1054500085E093E09183808385EC90E09587848755
:1054600084EC90E09787868780EC90E0918B808B2E
:1054700081EC90E0938B828B82EC90E0958B848B17
:1054800086EC90E0978B868B118E128E138E148E85
:1054900008951F920F920FB60F9211240BB60F9220
:1054A0002F938F939F93EF93FF93E0915F05F0917C
:1054B00060058081E0916505F091660582FD1DC063
:1054C0009081809168058F5F8F73209169058217A5
:1054D00041F0E0916805F0E0E15BFA4F958F809331
:1054E0006805FF91EF919F918F912F910F900BBEC7
:1054F0000F900FBE0F901F9018958081F2CF1F92D2
:105500000F920FB60F9211240BB60F922F933F9369
:105510004F935F936F937F938F939F93AF93BF93BB
:10552000EF93FF938FE495E03BDEFF91EF91BF9106
:10553000AF919F918F917F916F915F914F913F912B
:105540002F910F900BBE0F900FBE0F901F901895CC
:10555000EFE4F5E01382128288EE93E0A0E0B0E081
:1055600084839583A683B78385E093E091838083CA
:105570008DEC90E0958784878CEC90E09787868708
:1055800088EC90E0918B808B89EC90E0938B828B00
:105590008AEC90E0958B848B8EEC90E0978B868BD9
:1055A000118E128E138E148E08951F920F920FB6C5
:1055B0000F9211240BB60F922F938F939F93EF931B
:1055C000FF93E091FC05F091FD058081E0910206DA
:1055D000F091030682FD1DC09081809105068F5FCA
:1055E0008F7320910606821741F0E0910506F0E0E6
:1055F000E451FA4F958F80930506FF91EF919F91AB
:105600008F912F910F900BBE0F900FBE0F901F9098
:1056100018958081F2CF1F920F920FB60F9211242E
:105620000BB60F922F933F934F935F936F937F939C
:105630008F939F93AF93BF93EF93FF938CEE95E07F
:10564000AFDDFF91EF91BF91AF919F918F917F91CE
:105650006F915F914F913F912F910F900BBE0F90E3
:105660000FBE0F901F901895ECEEF5E0138212829A
:1056700088EE93E0A0E0B0E084839583A683B783AF
:1056800085E093E09183808385ED90E09587848722
:1056900084ED90E09787868780ED90E0918B808BFA
:1056A00081ED90E0938B828B82ED90E0958B848BE3
:1056B00086ED90E0978B868B118E128E138E148E52
:1056C00008951F920F920FB60F9211240BB60F92EE
:1056D0002F938F939F93EF93FF93E0919906F0910F
:1056E0009A068081E0919F06F091A00682FD1DC080
:1056F00090818091A2068F5F8F732091A3068217FD
:1057000041F0E091A206F0E0E757F94F958F8093C2
:10571000A206FF91EF919F918F912F910F900BBE59
:105720000F900FBE0F901F9018958081F2CF1F929F
:105730000F920FB60F9211240BB60F922F933F9337
:105740004F935F936F937F938F939F93AF93BF9389
:10575000EF93FF9389E896E023DDFF91EF91BF91EE
:10576000AF919F918F917F916F915F914F913F91F9
:105770002F910F900BBE0F900FBE0F901F9018959A
:10578000E9E8F6E01382128288EE93E0A0E0B0E050
:1057900084839583A683B78385E093E09183808398
:1057A00085E391E09587848784E391E097878687F6
:1057B00080E391E0918B808B81E391E0938B828BEE
:1057C00082E391E0958B848B86E391E0978B868BC7
:1057D000118E128E138E148E0895AF92BF92CF92B7
:1057E000DF92EF92FF920F931F93CF93DF936C01A1
:1057F0007B018B01040F151FEB015E01AE18BF0882
:10580000C017D10759F06991D601ED91FC91019033
:10581000F081E02DC6011995892B79F7C501DF913B
:10582000CF911F910F91FF90EF90DF90CF90BF909D
:10583000AF9008950895DB018F939F9335D0BF916A
:10584000AF91A29F800D911DA39F900DB29F900DCF
:1058500011240895A1E21A2EAA1BBB1BFD010DC045
:10586000AA1FBB1FEE1FFF1FA217B307E407F50710
:1058700020F0A21BB30BE40BF50B661F771F881FEC
:10588000991F1A9469F760957095809590959B0182
:10589000AC01BD01CF010895EE0FFF1F881F8BBF24
:1058A0000790F691E02D199409D0A59F900DB49F13
:1058B000900DA49F800D911D11240895A29FB00109
:1058C000B39FC001A39F700D811D1124911DB29F34
:1058D000700D811D1124911D0895FB01DC0102C092
:1058E00001900D9241505040D8F70895DC0101C05D
:0E58F0006D9341505040E0F70895F894FFCFBB
:1058FE00CDCCCC3DCDCCCC3DCDCCCC3D00000000B4
:10590E0000000000000000000000803F000000408A
:10591E000000803F00000000000000000000803FFB
:10592E00000000400000803F000000000000204109
:10593E000000803F000000000000002041000080B9
:10594E003F0000000000000020410000803F0000EA
:10595E00000000FEFFFFFF01E8030000FFFF000054
:10596E000000FFFFFFFFFFFFFFFFFFFFFFFFFFFF37
:10597E00014003FF00580F840FFE003E0FBF0CFDC9
:10598E0000D00E2A0FFC00160FBF0CF6000710BF3A
:10599E000CF500DD0E4610F400D00F5D10DE008B0E
:1059AE00142517DD00FA15BF0CDA0011121912D9E1
:1059BE000040172912E200F910BF0CE1003411BFAC
:1059CE000CE000A911BF0CD600141BBF0CD500B6FD
:1059DE0013BF0CD4004213BF0CD300B312BF0CC0C4
:1059EE00003812BF0CF0007D1BBF0CED003A1BBF40
:1059FE000C000000001129ED2BC128F2289328ADD0
:045A0E00289F2800A5
:00000001FF
