:1000000005C1000034C1000032C1000030C1000051
:100010002EC100002CC100002AC1000028C1000030
:1000200026C1000024C1000022C1000020C1000040
:100030001EC100001CC100001AC1000018C1000050
:1000400016C1000014C1000012C1000010C1000060
:100050000EC100000CC100000AC100000C94D4289D
:1000600006C100000C94D02C0C94062D00C1000099
:10007000FEC00000FCC00000FAC00000F8C0000094
:10008000F6C00000F4C00000F2C00000F0C00000A4
:100090000C945C2D0C94922DEAC00000E8C0000086
:1000A000E6C00000E4C00000E2C00000E0C00000C4
:1000B000DEC00000DCC00000DAC00000D8C00000D4
:1000C000D6C00000D4C00000D2C000000C94E82DBF
:1000D0000C941E2ECCC000000C94742E0C94AA2EEE
:1000E000C6C0000000000A0B02090C0D0E08070331
:1000F00004010000000000000000000000000000FB
:1001000000000000000000000000000000000000EF
:1001100012111000000000000000000000000000AC
:100120000000000000000000000001021020200874
:100130000810204010204080020102010804020142
:1001400001020408102040808040201008040201B1
:10015000800402018040201008040201080402010A
:100160000102040810204080010204081020408091
:1001700005050505070508080808020202020A0A23
:100180000808040404040101010101010101030341
:10019000030303030303040707070C0C0C0C0C0CEC
:1001A0000C0C0202020206060606060606060B0BE9
:1001B0000B0B0B0B0B0B000020002300260029006B
:1001C0002C002F003200000100000301060109018C
:1001D00000002200250028002B002E0031003400F2
:1001E00002010000050108010B01000021002400AC
:1001F00027002A002D003000330001010000040117
:1002000007010A012F2DBB2D472ED32E11241FBE0F
:10021000CFEFD1E2DEBFCDBF00E00CBF13E0A0E026
:10022000B2E0E4E2FFE500E00BBF02C007900D92F0
:10023000A030B107D9F727E0A0E0B3E001C01D92DC
:10024000A138B207E1F711E0C6E0D1E000E006C056
:1002500021970109802FFE010E945F2FC230D10734
:1002600080E00807A9F70E949A260C94902FC8CE28
:10027000611102C00C94152B6130E1F362E0FACFFA
:10028000662319F061E00C94512B60E0FCCF0E94D2
:100290007E2B21E0019709F020E0822F0895CF9274
:1002A000DF92EF92FF92CF93882351F16A017B0195
:1002B000CFEFC80F20E030E0A901CB01B6010E94CA
:1002C000862787FF11C0C701B60190580E948F276B
:1002D0009B01AC016C2F70E090E080E0CF91FF902B
:1002E000EF90DF90CF90B2C0C701B6010E948A277D
:1002F0008C2FCF91FF90EF90DF90CF900C94DB2963
:10030000CF91FF90EF90DF90CF9008950F931F93C0
:100310008B019C0183E036952795179507958A9563
:10032000D1F700501D4F462F477021E030E0F90112
:1003300002C0EE0FFF1F4A95E2F7AF01F8012081DE
:100340002423CB010196211102C090E080E01F918F
:100350000F9108950F931F938B019C0183E03695B5
:100360002795179507958A95D1F7677081E090E0FA
:1003700001C0880F6A95EAF7F801E050FD4F20812F
:10038000452B31F48095822380831F910F9108952E
:10039000822BFACF2F923F924F925F926F927F9271
:1003A0008F929F92AF92BF92CF92DF92EF92FF9285
:1003B0000F931F93CF93DF93D62EC72E782E692EDF
:1003C00049015A01280161E08D2D0E94152BCD2D88
:1003D000DC2D8E010F5F1F4FA8016D2D7C2D872D09
:1003E000962DB8DF20E030E0A901C201B7010E94DC
:1003F0006D28181664F4C201B7010E948F272B01E3
:10040000C501B4010E948F27A201CE0123D0C801EB
:10041000DF91CF911F910F91FF90EF90DF90CF90E0
:10042000BF90AF909F908F907F906F905F904F9014
:100430003F902F900895882341F08150682F70E0FD
:1004400090E080E050E040E085CF0895862FB9012C
:100450000C94DB299C01FC01EC51FF4FE491E1502D
:10046000E231E0F4F0E08827E75CFD4F8F4F0C9419
:100470005F2F4B02520255026C0281024E0296021D
:10048000A202A602BD02D202E702FE0213034E023E
:1004900028033F03540384B5806884BD60E0822F45
:1004A0000C94512B84B58062F8CF809180008C7FB2
:1004B00082608093800080918100807E8061682BC3
:1004C0006093810050938700409386008091800064
:1004D000806880938000E2CF809180008C7F826072
:1004E0008093800080918100807E8061682B609382
:1004F0008100509387004093860080918000806245
:10050000E8CF809180008C7F826080938000809112
:100510008100807E8061682B60938100509387000A
:1005200040938600809180008860D3CF8091B00096
:1005300080688093B0008091B100887F682B6093C1
:10054000B100ACCF8091B0008062F3CF8091900079
:100550008C7F82608093900080919100807E80618A
:10056000682B609391005093970040939600809180
:10057000900080688093900091CF809190008C7F54
:1005800082608093900080919100807E8061682BD2
:100590006093910050939700409396008091900053
:1005A0008062E8CF809190008C7F82608093900081
:1005B00080919100807E8061682B609391005093C0
:1005C000970040939600809190008860D3CF8091EF
:1005D000A0008C7F82608093A0008091A100807E2B
:1005E0008061682B6093A1005093A7004093A60000
:1005F0008091A00080688093A00050CF8091A000DF
:100600008C7F82608093A0008091A100807E8061B9
:10061000682B6093A1005093A7004093A60080919F
:10062000A0008062E8CF8091A0008C7F82608093E0
:10063000A0008091A100807E8061682B6093A10062
:100640005093A7004093A6008091A0008860D3CF6C
:10065000809120018C7F8260809320018091210114
:10066000807E8061682B6093210150932701409325
:100670002601809120018068809320010FCF809116
:1006800020018C7F82608093200180912101807EF7
:100690008061682B609321015093270140932601CC
:1006A000809120018062E8CF809120018C7F826060
:1006B0008093200180912101807E8061682B60936E
:1006C00021015093270140932601809120018860E9
:1006D000D3CF90E080E008950F931F93009709F423
:1006E00087C06115710509F483C000914F02109114
:1006F000500220915102309152020E3F1F4F2F4F56
:100700003F4F09F066C04FEF5FEFBA0140934F02D1
:1007100050935002609351027093520240914F02E5
:10072000509150026091510270915202DC01129678
:10073000ED91FC9180819181A281B381809391039D
:1007400090939203A0939303B09394038481958133
:10075000A681B78180938D0390938E03A0938F031E
:10076000B093900380859185A285B385809389039A
:1007700090938A03A0938B03B0938C038485958513
:10078000A685B7858093850390938603A0938703FE
:10079000B093880310928103109282031092830316
:1007A0001092840330D788E29BE090930A038093F1
:1007B000090390930C0380930B0314D6009731F434
:1007C00021E030E030939603209395031F910F9121
:1007D000089500914F0210915002209151023091E2
:1007E0005202DB010D931D932D933C93139796CFEB
:1007F0008FEF9FEFEBCF8F929F92AF92BF92CF92EE
:10080000DF92EF92FF921F93CF93DF934B015C0136
:100810001091980382E090E0909396038093950363
:1008200081149104A104B10441F4809198038111D1
:1008300004C080919703C1E08111C0E0C12CD12C8C
:10084000760180919803811106C0809197038111F0
:1008500002C0CC23D9F083E090E09093960380937C
:100860009503CC2379F1CCE9DFEF111102C00E948E
:100870008C0ECE01DF91CF911F91FF90EF90DF9012
:10088000CF90BF90AF909F908F9008956AE070E0F6
:1008900080E090E00E94432980E1C80E87E2D81EE4
:1008A000E11CF11C8FEF88169806A806B80631F0F7
:1008B000C1E08C149D04AE04BF0408F0C0E080E0E9
:1008C000C5D5BFCFD0E0C0E0D0CFCF92DF92EF92BE
:1008D000FF920F931F93CF93DF938F3F910511F0FA
:1008E00008F050C0209195033091960323303105D4
:1008F00039F020919503309196032130310531F480
:1009000024E030E030939603209395036A017B0145
:10091000EC0182309105A0F011E0AE01C701B601F3
:1009200060D5AB01BC01CE011123F9F0DF91CF916D
:100930001F910F91FF90EF90DF90CF900C94B51026
:100940008C01000F111F075F1C4FD8018D919C91E6
:10095000892B11F30E94BF100297F1F6D801ED9197
:10096000FC91CE011995182FD8CF0E94D71090E096
:1009700080E0DF91CF911F910F91FF90EF90DF907A
:10098000CF9008958FEF9FEFF4CF80E05FC5CF93B6
:10099000DF9386E090E09093960380939503AFD524
:1009A000EC01E9E0F3E084E0DF011D928A95E9F7CC
:1009B0000E94240E1092960310929503CE01DF91AF
:1009C000CF910895809197030895809180030895B1
:1009D00060934F02709350028093510290935202A1
:1009E00090E080E00895DF92EF92FF920F931F93C3
:1009F000CF93DF93EA019D81882309F442C09111CE
:100A00000BC0F90180859185A285B3858883998380
:100A1000AA83BB8381E08D8389017B01F901248155
:100A2000358146815781688179818A819B810E94C5
:100A30002227688379838A839B83DD24D394F801FA
:100A400020813181428153810E946D2887FDD12C04
:100A5000F701D0828C81882389F0833059F481E0BA
:100A600090E08C83DF91CF911F910F91FF90EF90D9
:100A7000DF900895082E000C990BF3CF82E090E0F0
:100A8000F0CF992379F31D82EDCFFA01882369F025
:100A9000D9019C91913049F091E04081411190E061
:100AA000DB019C93908394E09183F9018083089506
:100AB000CF92DF92EF92FF92CF93DF9380917B07EB
:100AC0008150823008F011C183E080937B078091D0
:100AD00066078150823008F00AC183E08093660780
:100AE00080916A078150823008F003C183E08093CF
:100AF0006A07C0901402D0901502E0901602F090A0
:100B00001702A701960160914607709147078091EF
:100B10004807909149070E948627882341F0C09298
:100B20004607D0924707E0924807F092490784E0D1
:100B3000AEDBC82F22E432E047E757E065E277E01A
:100B400052DFCC2329F081E090912507911101C05B
:100B500080E02EE737E049E657E062E277E095DF94
:100B6000C0901802D0901902E0901A02F0901B0277
:100B7000A701960160913A0770913B0780913C076D
:100B800090913D070E948627882341F0C0923A0742
:100B9000D0923B07E0923C07F0923D0783E077DB81
:100BA000C82F25E332E041E757E064E277E01BDF3E
:100BB000CC2329F081E090912407911101C080E0BD
:100BC0002DE737E047E657E061E277E05EDF8091AE
:100BD0002207882329F061E080912107811101C05B
:100BE00060E08AE04DDB80912207882321F061E0FC
:100BF00080912107811160E089E042DBC0901C02F6
:100C0000D0901D02E0901E02F0901F02A7019601F5
:100C100060912E0770912F078091300790913107D6
:100C20000E948627882341F0C0922E07D0922F077A
:100C3000E0923007F092310782E029DBC82F28E2EA
:100C400032E04BE657E063E277E0CDDECC2309F4F7
:100C50005FC080912307882309F45AC080915E0306
:100C6000811138C020916207309163074091640779
:100C700050916507609108027091090280910A0203
:100C800090910B020E9422276B017C01C0921D07EC
:100C9000D0921E07E0921F07F092200720911002C9
:100CA0003091110240911202509113020E946D285E
:100CB00018160CF58091000290910102A091020299
:100CC000B09103028093620790936307A093640737
:100CD000B0936507809166078823B1F0833009F4EB
:100CE000B7C0082E000C990B11C080E0EECE80E05A
:100CF000F5CE80E0FCCEC0926207D0926307E0920E
:100D00006407F0926507E6CF82E090E08093660783
:100D100068E070E080E090E0F9DAEC019093610720
:100D20008093600780912207882309F494C0C090C3
:100D30001D07D0901E07E0901F07F090200720E0CD
:100D400030E04FE753E4C701B6010E94862718162A
:100D50000CF48AC020E030E0A901C701B6010E946E
:100D60006D2887FF03C0C12CD12C7601B701A601E5
:100D7000CE0195DA40915103509152036091530393
:100D80007091540390E080E0A0DD80915E038111BA
:100D900011C02091590330915A0340915B03509147
:100DA0005C03AAE0B0E00E94672FAB01BC0181E0C8
:100DB00090E08BDD60915103709152038091530359
:100DC000909154036F5F7F4F8F4F9F4F60935103FC
:100DD0007093520380935303909354030E94BB2754
:100DE0009B01AC01609155037091560380915703AC
:100DF000909158030E94712860934D0370934E03A5
:100E000080934F039093500380915E03811114C02F
:100E10004091590350915A0360915B0370915C03B8
:100E20004F5F5F4F6F4F7F4F4093590350935A036B
:100E300060935B0370935C038F5F8A30E0F4809370
:100E40005E03DF91CF91FF90EF90DF90CF900895F8
:100E500081E090E05BCFC0902002D0902102E09032
:100E60002202F09023026BCFC12CD12C8FE7E82E09
:100E700083E4F82E7BCF10925E03E3CF8F929F9294
:100E8000AF92BF92DF92EF92FF920F931F93CF9397
:100E9000DF93E7E3F3E080E090E0A0E8BFEB80A71A
:100EA00091A7A2A7B3A78DEC9CECACECBDE3868F19
:100EB000978FA0A3B1A382E290E1A4EFB2E0848374
:100EC0009583A683B78382E79DECA7E3B1E880878B
:100ED0009187A287B3878EEB98E2A9E6B6E1848773
:100EE0009587A687B7878CE99DE5ACE6BFE8808B40
:100EF000918BA28BB38BABE2B3E0B383A283EDE023
:100F0000F3E01196FC93EE938CE692E0918380835C
:100F10002BE737E03383228325E737E035832483CB
:100F20002FE637E03783268326E637E031872087B0
:100F3000338722872AE637E03587248728E637E09B
:100F400037872687918B808B938B828B958B848BB5
:100F5000978B868B918F808F938F828F958F848FC5
:100F60008BE493E015969C938E9314978BE393E018
:100F700013969C938E9312978DE493E017969C930F
:100F80008E931697EDE7F7E0DD24D394D082D182DB
:100F9000C6E2D7E000E012E080914A0290914B0255
:100FA000A0914C02B0914D028093770790937807FF
:100FB000A0937907B0937A07EDE1F7E080914E02B4
:100FC0008087D80197968C9197978093690796961A
:100FD0008C91858380913D0290913E02A0913F02C9
:100FE000B09140028093710790937207A0937307AA
:100FF000B0937407809141028783D80195968C91B4
:1010000095978093670794968C9194978483D09654
:101010004D915D916D917C91D39740936B07509367
:101020006C0760936D0770936E07D4968C91D4977C
:1010300086831C964D915D916D917C911F974CAF6D
:101040005DAF6EAF7FAF14964D915D916D917C91C8
:1010500017974083518362837383188E54968D91C2
:101060009D910D90BC91A02D88A399A3AAA3BBA389
:10107000812C912C54018394898E9A8EAB8EBC8ED8
:1010800060E084E0F5D8DD8E1C86F801808D918DBE
:10109000A28DB38D8C8B9D8BAE8BBF8B8D869E86E8
:1010A000AF86B88A60E083E0E3D8D98A1CA68DA613
:1010B0009EA6AFA6B8AA61E08AE0DAD8D9AA1CA297
:1010C0008DA29EA2AFA2B8A661E089E0D1D8D9A630
:1010D0001882F801848D958DA68DB78D88879987A4
:1010E000AA87BB8789829A82AB82BC8260E082E059
:1010F000BFD8DD821CAA8DAA9EAAAFAAB8AEE12CE9
:10110000F12C8701A801970168E070E080E090E091
:1011100041D99BAF8AAFD9AEDF91CF911F910F918B
:10112000FF90EF90DF90BF90AF909F908F900895C9
:1011300080913E07811103C081E080933E0780913A
:101140003207811103C081E08093320780915207FA
:10115000811103C081E08093520780914A07811179
:1011600003C081E080934A0780912607811103C064
:1011700081E08093260780915A0781112AC081E07F
:1011800080935A0780915B0790915C07A0915D075F
:10119000B0915E070197A105B105D9F480915F0771
:1011A0008823B9F068E070E080E090E0AFD89093D9
:1011B00061078093600740E050E0BA0170D868E0B2
:1011C00070E080E090E0A2D8909361078093600780
:1011D00032C908954F925F926F927F928F929F9241
:1011E000AF92BF92CF92DF92EF92FF920F931F9335
:1011F000F894409070035090710360907203709067
:101200007303C0906403D0906503E0906603F09090
:101210006703452B09F0A6C09B01AC0124193509D1
:101220004609570929013A0100916C0310916D0399
:1012300020916E0330916F0348015901840C951C75
:10124000A61CB71C80169106A206B306A0F4009156
:1012500068031091690320916A0330916B030F5F5B
:101260001F4F2F4F3F4F0093680310936903209344
:101270006A0330936B0380926C0390926D03A0928B
:101280006E03B0926F03009168031091690320917F
:101290006A0330916B038092740390927503A0925D
:1012A0007603B09277030093780310937903209329
:1012B0007A0330937B036093700370937103809380
:1012C000720390937303A301920160EA76E881E0D0
:1012D00090E00E942E2F6C0D7D1D8E1D9F1D609332
:1012E0006403709365038093660390936703009192
:1012F0004F021091500220915102309152020F3F43
:101300001F4F2F4F3F4FF1F000914F0210915002AD
:1013100020915102309152020E3F1F4F2F4F3F4FED
:1013200089F0C0904F02D0905002E0905102F090AE
:10133000520221E08C149D04AE04BF0408F420E0A6
:101340002093800378941F910F91FF90EF90DF908E
:10135000CF90BF90AF909F908F907F906F905F9055
:101360004F9008954B015C0184189508A608B708B2
:10137000A3019201261B370B480B590B6415750509
:1013800086059705E0F082169306A406B50640F49C
:1013900020E030E0A90181149104A104B104A1F47A
:1013A00060EA76E881E090E00E942E2FA701960186
:1013B000261B370B480B590BCA01B901C3CF821644
:1013C0009306A406B50660F7A501940160EA76E8E5
:1013D00081E090E00E942E2F6C0D7D1D8E1D9F1DC3
:1013E000B1CFF8CECF93DF9300D01F92CDB7DEB749
:1013F0001C821B821A82198210927C0310927D0338
:1014000010927E0310927F03BE016F5F7F4FCE016B
:1014100003960E94812569817A818B819C810E943B
:10142000D41F009761F4BE016F5F7F4FCE0103961A
:101430000E948D2569817A818B819C812ED50F90A8
:101440000F900F900F90DF91CF910895FF920F931F
:101450001F93CF93DF93082F60E070E0CB010E94D1
:101460004329FF24F3940E94BD1EEC01892B89F0CF
:1014700010E0CE3F8FEFD80769F0002361F160E004
:1014800070E0CB010E94432981E090E0892B59F361
:1014900022C011E025D5EC01892B21F0CE3F8FEF42
:1014A000D80759F711111EC011E0229609F410E077
:1014B0000E946D1EEC01892B21F0CE3F8FEFD807E3
:1014C000E1F6111111C011E0CE3F8FEFD80709F4FA
:1014D00010E001110BC0CE01DF91CF911F910F9150
:1014E000FF90089511E0E4CF11E0F3CF60E070E0E9
:1014F000CB010E9443291F25812F90E0C7CFCF93B6
:10150000DF9380918003882321F060E070E0CB01BD
:101510004CD635D6D0E0C0E0892B71F06AE070E09F
:1015200080E090E00E94432981E090DF28D6219658
:10153000C03D27E0D20781F727D60E9428201092CD
:1015400098031092970310929103109292031092B5
:1015500093031092940310928D0310928E031092B5
:101560008F03109290031092890310928A031092B5
:101570008B0310928C0310928503109286031092B5
:1015800087031092880310928103109282031092B5
:101590008303109284034EEF5FEF6FEF7FEF409372
:1015A0004F02509350026093510270935202109276
:1015B0008003E4E7F3E028E0DF011D922A95E9F7D4
:1015C00010927003109271031092720310927303C1
:1015D00010926C0310926D0310926E0310926F03C1
:1015E000109268031092690310926A0310926B03C1
:1015F00010926403109265031092660310926703C1
:10160000DF91CF9108951092A4031092A503109238
:10161000A6031092A7031092A3038091AC039091AC
:10162000AD039093A2038093A1031092A0031092A4
:101630009F0310929B0310929C0310929D031092A3
:101640009E031092A9031092A80390E080E00895F1
:10165000CF92DF92EF92FF920F931F93CF938C0163
:10166000892B09F055C02091AC033091AD038091D6
:10167000A1039091A2034091AC035091AD0350930C
:10168000A2034093A1032817390781F01092A00309
:1016900010929F0310929B0310929C0310929D0343
:1016A00010929E031092A9031092A8038091AC039C
:1016B0009091AD03019761F58091A8039091A903E2
:1016C000892B21F480915302811112C08091A803CB
:1016D0009091A9030197E1F480919B0390919C0361
:1016E000A0919D03B0919E030197A105B10581F4DE
:1016F00010929B0310929C0310929D0310929E03E4
:101700001092530282E090E09093A9038093A80383
:101710008091AC039091AD03019709F01CC18091B9
:10172000C2039091C3038017910709F014C18091FF
:10173000BE039091BF03A091C003B091C103009775
:1017400009F409C12091BD0321110DC04091BE03D0
:101750005091BF036091C0037091C103452B462B8C
:10176000472B09F4F8C02091A8033091A903223037
:10177000310509F0F0C020919F032111ECC0FC015C
:10178000C080D180E280F3808091A303882309F494
:10179000D3C08091AF039091B003892B09F4FDC0B1
:1017A0002091AF033091B00381E02230310509F080
:1017B00080E02091AF033091B003C1E021303105CA
:1017C00049F02091AF033091B003C1E022303105E0
:1017D00009F0C0E0882309F456C02091B903309184
:1017E000BA034091BB035091BC03C701B6010E94EC
:1017F0006D2887FD14C02091B9033091BA03409140
:10180000BB035091BC036091A4037091A503809128
:10181000A6039091A7030E94862787FD22C02091EE
:10182000B9033091BA034091BB035091BC03C70187
:10183000B6010E946D28181634F52091B903309135
:10184000BA034091BB035091BC036091A403709113
:10185000A5038091A6039091A7030E94862781117A
:1018600012C08091B1039091B203A091B303B091E3
:10187000B403892B8A2B8B2B19F481E08093A0036E
:1018800081E080939F03CC2309F456C02091B903D3
:101890003091BA034091BB035091BC03C701B6011C
:1018A0000E94862787FF14C02091B9033091BA03A4
:1018B0004091BB035091BC036091A4037091A503B8
:1018C0008091A6039091A7030E946D2887FF22C0F4
:1018D0002091B9033091BA034091BB035091BC03EE
:1018E000C701B6010E948627811126C02091B90345
:1018F0003091BA034091BB035091BC036091A403A3
:101900007091A5038091A6039091A7030E946D2872
:10191000181694F48091B1039091B203A091B3038F
:10192000B091B403892B8A2B8B2B19F481E080931F
:10193000A00381E080939F0381E090919F03911128
:1019400080E08093A303C092A403D092A503E09209
:10195000A603F092A703012B09F067C18091A803A9
:101960009091A903892BD9F41092AE0310929F0392
:1019700080915302882379F082E090E09093A9034C
:101980008093A803109253022091AC033091AD03D1
:1019900081E0232BE9F080E01BC081E00ACF1092A8
:1019A00053028091AE03882349F01092A003109255
:1019B000A9031092A8031092AE03EDCF8091AC035F
:1019C0009091AD03892BE1F080919F0310929F03CA
:1019D0002091A8033091A9032230310509F45EC09B
:1019E00088F42115310509F448C02130310509F486
:1019F000F3C01092A00310929F031092AE0338C060
:101A000081E0E6CF2330310509F4B1C0243031053F
:101A100081F740919B0350919C0360919D037091CD
:101A20009E03411551056105710561F04150510951
:101A30006109710940939B0350939C0360939D033C
:101A400070939E0340919B0350919C0360919D0372
:101A500070919E03452B462B472BD9F42091AA0366
:101A60003091AB032130310509F046C01092A0033C
:101A70001092A9031092A8030CC0809153028823EE
:101A800041F082E090E09093A9038093A803109224
:101A90005302109299038091A003CEC08823C9F30A
:101AA0008091B1039091B203A091B303B091B403BC
:101AB000181619061A061B060CF07DC08091AC039F
:101AC0009091AD03019709F076C08091B103909198
:101AD000B203A091B303B091B40380939B0390939E
:101AE0009C03A0939D03B0939E0383E090E09093AA
:101AF000A9038093A803CDCF4091B5035091B603BD
:101B00006091B7037091B803452B462B472BA9F082
:101B10001092A0038091B5039091B603A091B703F2
:101B2000B091B80380939B0390939C03A0939D0373
:101B3000B0939E0381E090E0DACF882399F0809102
:101B4000540290915502A0915602B0915702809391
:101B50009B0390939C03A0939D03B0939E0384E00A
:101B600090E0C5CF1092A00382E090E0C0CF8091BA
:101B70009B0390919C03A0919D03B0919E030097BD
:101B8000A105B10559F00197A109B10980939B0303
:101B900090939C03A0939D03B0939E0380919B031D
:101BA00090919C03A0919D03B0919E03892B8A2B59
:101BB0008B2B09F06ECF8091540290915502A09129
:101BC0005602B0915702892B8A2B8B2B09F44ECFEA
:101BD00081E08093A003B3CF40919B0350919C037D
:101BE00060919D0370919E0341155105610571053A
:101BF00061F0415051096109710940939B03509371
:101C00009C0360939D0370939E0340919B035091AE
:101C10009C0360919D0370919E03452B462B472B9F
:101C200009F037CF8111C7CF9FCF809199038823C7
:101C300009F431CF80919A03CF911F910F91FF90BA
:101C4000EF90DF90CF9008951092A4031092A50317
:101C50001092A6031092A7031092A3031092A90357
:101C60001092A8031092A2031092A1031092C30332
:101C70001092C2031092A00310929F0310929B0334
:101C800010929C0310929D0310929E0310929A034F
:101C9000109299031092BE031092BF031092C003DA
:101CA0001092C1031092BD031092B9031092BA03AF
:101CB0001092BB031092BC0388EE93E0A0E0B0E06A
:101CC0008093540290935502A0935602B09357020A
:101CD0001092B5031092B6031092B7031092B80396
:101CE0001092B1031092B2031092B3031092B40396
:101CF0001092B0031092AF0381E0809353021092D0
:101D0000AE031092AD031092AC031092AB0310928D
:101D1000AA0390E080E008958091AC039091AD0318
:101D2000892B19F580915302882351F08091AE03DD
:101D3000811106C081E080939A03809399030895EE
:101D40002091AE033091530281E090E0332311F0F3
:101D500090E080E030E082239323892B21F01092E1
:101D60009A0381E0EACF10929903089582E090E00F
:101D7000FA01918380838FEF9FEF0895CF93DF93D4
:101D8000EA01009711F00E94A2201982188290E0C7
:101D900080E0DF91CF910895DB01009719F48FEF78
:101DA0008C9308952EEF2C93FC013F96EF30F105B4
:101DB00008F034C08827E052F14F8F4F0C945F2F0A
:101DC0000C0F0A0F080F060F040F000F020FFE0E74
:101DD000FC0EFA0EF70EF30EEF0EF50E0E0F80E36B
:101DE00011968C93089589E2FBCF82E2F9CF119688
:101DF0001C92089583E2F4CF81E2F2CF81E1F0CF2B
:101E000087E2EECF8AE2ECCF80E1EACF84E2E8CF4E
:101E100088E2E6CF86E2E4CF81E3E2CF80E2E0CF62
:101E20008091D0039091D10308959093D103809332
:101E3000D00308958091CF0308959091CF03892B0B
:101E40008093CF030895982F90958091CF03892395
:101E50008093CF0308958091CE0308958091CC03A1
:101E60009091CD0308956115710559F0FB0130E0A3
:101E700020E070E060E02417350719F06115710566
:101E800011F0CB010895A081B181A817B90709F419
:101E9000BF012F5F3F4F3696EECF8091D203811165
:101EA0001CC060D266D29093C5038093C4030E9485
:101EB00055190E9467199093C9038093C8030E9423
:101EC000D51D0E94DC1D9093C7038093C60381E05B
:101ED0008093D20390E080E0089584EF9FEF08950F
:101EE0008F929F92AF92BF92CF92DF92EF92FF922A
:101EF0000F931F93CF93DF9300D000D000D01F9299
:101F0000CDB7DEB71A86198618861F821E821D82FB
:101F10001C821B821A8219828091D20307EF1FEF65
:101F2000882309F49CC08E010D5F1F4F9E012B5F1B
:101F30003F4FAE01495F5F4FBE01675F7F4F90E04B
:101F400080E00E94591F8C01009721F005960297AE
:101F500008F0DBC029853A852115310509F402C155
:101F6000ED80FE804B815C81B701640F751F8F810E
:101F700098858617970708F4F5C0E20EF31ED7017F
:101F80009C91903C09F07FC04230510508F47BC021
:101F900011968C914091D0035091D103452B09F4B7
:101FA0009CC0913F08F071C02CE1290F2D3008F43E
:101FB0008BC02DE2290F203108F489C0903C21F418
:101FC0008150823008F483C088E3890F8B3008F495
:101FD00081C09CECC92E9EE0D92EE6EBFEE06D811F
:101FE0007E81AE014F5F5F4F89859A8519955C01AF
:101FF000C114D104A1F189809A808114910479F1EE
:102000008B819C818815990508F487C010E000E059
:102010004B815C8170E060E0C7010E94892F01154F
:102020001105E9F449815A8169857A858D819E81FE
:10203000680F791FC501F6011995E980FA800D81B5
:102040001E812F81388549855A856FEF7FEF81E0AA
:1020500090E00E94F41E8C01892B09F056C0C80143
:102060002A960FB6F894DEBF0FBECDBFDF91CF9199
:102070001F910F91FF90EF90DF90CF90BF90AF90A6
:102080009F908F90089580E085CF30E020E0220F70
:10209000331FF901EC53FC4F0190F081E02D309794
:1020A00009F497CF892F90E01995009709F491CF03
:1020B000DC011296ED91FC9113971496CD90DC9073
:1020C000309709F08CCF1FC021E030E0E0CF22E054
:1020D00030E0DDCF23E030E0DACFD12CC12CEEEBC5
:1020E000FEE09F3F09F07BCFE091C403F091C50370
:1020F000309721F4C90104EF1FEF0CC08FEF90E07F
:1021000019950097A9F604EF1FEF89859A85009726
:1021100009F4A5CF0E94A220A2CF0E9423208C0107
:1021200089859A850E94A22070E060E0C4010E9427
:10213000BC1F98878F830E94F11E9E838D836F81C1
:1021400078856115710559F0C8010E94C5219A87EB
:10215000898706EF1FEF892B09F058CF59CF08EF79
:102160001FEF56CF08EF1FEFD0CF2091D2032223CD
:1021700019F020E00C946C1987EF9FEF089580917F
:10218000D0039091D10308950E94E11D0E943B1D50
:10219000F5D0E4ECF3E088E0DF011D928A95E9F7E1
:1021A0001092D20390E080E008950C94991B21E0F6
:1021B00040E050E0BA010C946C1986E090E0FA011E
:1021C0009183808390E080E0089547E050E06FE6DF
:1021D00072E049CEDF92EF92FF920F931F93CF935D
:1021E000DF938A01EC01C60FD71FE090D603F09071
:1021F000D703D9800E940B20D816190678F082E008
:1022000090E0F801918380838EEF9FEFDF91CF9173
:102210001F910F91FF90EF90DF900895EF2841F408
:1022200082E090E0F8019183808384EF9FEFEECF0E
:1022300089818093D50390E00196F8019183808392
:1022400090E080E0E3CFCF93DF93EA010E944A1C45
:10225000882321F00E9418200E944B1C82E090E00D
:10226000998388838BEF9FEFDF91CF910895CF9370
:10227000DF93EB0186E0FB0111928A95E9F78FEF7E
:102280008883D8DD8983E7DD8A83E8DD9D838C83BD
:10229000DF91CF910895CF93DF93EA010E944D1C07
:1022A000811109C082E090E09983888385EF9FEFD8
:1022B000DF91CF91089590E080E0B7DD81E090E07C
:1022C0009983888390E080E0F3CF0F931F93CF939F
:1022D000DF93EA018C01060F171F0E944D1C81112C
:1022E0000BC082E090E09983888385EF9FEFDF91B8
:1022F000CF911F910F910895F8018181823038F0BC
:1023000082E090E0998388838EEF9FEFF0CF81E0A9
:1023100090E08BDD88E090E09983888390E080E016
:10232000E6CFCF93DF930097D1F4EB01FB01329618
:1023300086E0DF011D928A95E9F78FEF888385E0BB
:1023400089831A820E940B208B830E940A209D831E
:102350008C8381E08E838F83DF91CF910895DF910D
:10236000CF911ACD85EE90E19093D4038093D3035F
:1023700008958091D3039091D40308951092D403CB
:102380001092D30308958091D6039091D7030895B6
:10239000411105C0611571058105910561F06093DA
:1023A000D6037093D7038093D8039093D9034093B7
:1023B000DA0381E0089580E00895FF920F931F9360
:1023C000CF93DF938A01EC01C60FD71FF9800E94DB
:1023D0000B20F816190668F082E090E0F80191836E
:1023E00080838EEF9FEFDF91CF911F910F91FF9030
:1023F00008956C817D818E819F814B81C9DF811120
:1024000008C082E090E0F8019183808384EF9FEF21
:10241000EACF89818093D50390E00196F8019183FA
:10242000808390E080E0DFCFCF93DF93EA01FC016F
:10243000E60FF71F64817581868197814381A8DF4C
:10244000811109C082E090E09983888384EF9FEF37
:10245000DF91CF91089581E090E09983888390E0A7
:1024600080E0F6CFE6EDF3E0408151816281738137
:10247000480F511D611D711D408351836283738319
:102480000895CF93C091D5034C2F50E06091D603AF
:102490007091D70301960E94802F8C2FE3DF10925A
:1024A000D503CF910895009799F48091D603909128
:1024B000D7032FEFFB012083892B59F02091D503FF
:1024C00030E02F5F3F4F2417350719F4CB01D9CFE8
:1024D00063CC0895009799F48091D6039091D70327
:1024E0002FEFFB012083892B59F02091D50330E099
:1024F0002F5F3F4F2417350719F4CB01C2CF4CCCC7
:10250000089523E1AC01249FC001259F900D112463
:10251000E091DF03F091E003E80FF91F238134819C
:102520002250310981E02230310508F080E0089521
:102530000F931F93CF93DF930091E1031091E20378
:10254000D0E0C0E080E00C171D0749F491E0811154
:1025500090E0892FDF91CF911F910F910895811104
:10256000F5CFCE01CEDF2196EECFA091DF03B09163
:10257000E003109729F12091E1033091E2038217E3
:102580009307F0F453E1589F9001599F300D1124A7
:10259000A20FB31FED91FC911197309789F012961D
:1025A0008C91681768F48BE0689FE00DF11D112491
:1025B00080819181892B21F081E09281491708F077
:1025C00080E008959C0143E1429FC001439F900D2C
:1025D0001124E091DF03F091E003E80FF91F8385F8
:1025E000823091F481E090E06581768140915802DB
:1025F000509159026417750711F490E080E0892B1F
:1026000019F081E0232B09F080E00895EF92FF920A
:102610000F931F93CF93DF93EA01FC01E60FF71F9F
:1026200002811381E480F5804F2D6E2DC8019DDF5E
:1026300081110DC082E090E0998388838EEF9FEF37
:10264000DF91CF911F910F91FF90EF900895C801F6
:1026500058DF882339F082E090E09983888388EFFF
:102660009FEFEECF10935F0200935E02E092600254
:10267000F092610281E090E09983888390E080E0AD
:10268000DFCFCF92DF92EF92FF920F931F93CF9302
:10269000DF937A01EC01C60FD71FC0905E02D09085
:1026A0005F020091600210916102412F602FC6010C
:1026B0005CDF811110C082E090E0F701918380839C
:1026C0008AEF9FEFDF91CF911F910F91FF90EF90D5
:1026D000DF90CF900895C60114DF882341F082E097
:1026E00090E0F7019183808388EF9FEFEBCF4C81DF
:1026F0005D816E817F819A8189818F3F41F082E087
:1027000090E0F701918380838EEF9FEFDBCFE3E1D1
:10271000EC9D9001ED9D300D1124E091DF03F091CF
:10272000E003E20FF31F0190F081E02D2BE0029F08
:10273000E00DF11D11240190F081E02D27E0129FA2
:10274000E00DF11D1124808391838B81828343836B
:102750005483658376831F5F1093610281E090E06C
:10276000F7019183808390E080E0ACCFEF92FF92FD
:102770000F931F93CF93DF937A018C01060F171FDE
:10278000C091DF03D091E003209781F021E030E099
:10279000F801828193814091E1035091E203841713
:1027A000950710F030E020E0232B71F482E090E0F8
:1027B000F701918380838EEF9FEFDF91CF911F917F
:1027C0000F91FF90EF90089543E1489F9001499F3A
:1027D000300D1124C20FD31F94DE882341F082E014
:1027E00090E0F7019183808388EF9FEFE6CFF801B7
:1027F0002481358120383105C8F687818111D6CFF3
:102800004181842F90E08F7E009741F082E090E03C
:10281000F7019183808386EF9FEFCFCF4F833E8375
:102820002D83268128871986223010F421E02887FD
:1028300021E030E0F70131832083BFCF88E090E0D2
:10284000FA019183808390E080E00895FB018FEF8F
:10285000808381E181838FEF9FEF9383828380E880
:1028600090E095838483168217820895FB018FEF91
:10287000808391E0918382839383848384E385833F
:1028800081E090E0978386830895DF92EF92FF9234
:102890000F931F93CF93DF93EA01FC01E60FF71F1D
:1028A0008181813071F082E090E0998388838FEF9D
:1028B0009FEFDF91CF911F910F91FF90EF90DF90ED
:1028C000089582819381D4802581E680F7800091EC
:1028D000DF031091E0030115110539F482E090E067
:1028E000998388838CEF9FEFE4CF4091E10350916F
:1028F000E2038417950738F082E090E0998388839B
:102900008EEF9FEFD6CF892B39F082E090E099834C
:10291000888386EF9FEFCDCF8D2D8D7FB1F721304E
:10292000A1F781E0D11006C091E0E916F10431F081
:1029300080E004C0E2E0EE16F104D0F3882329F32E
:1029400090E080E0DEDD882339F082E090E099833A
:10295000888388EF9FEFADCFF801D38681E084872D
:10296000F686E586108A178681E090E09983888351
:1029700090E080E09ECF4CE050E069E972E073CADD
:102980008F929F92BF92CF92DF92EF92FF920F931E
:102990001F93CF93DF93EA01FC01E60FF71F8281BB
:1029A00093810481B580E091DF03F091E0033097DB
:1029B00091F482E090E0998388838CEF9FEFDF9120
:1029C000CF911F910F91FF90EF90DF90CF90BF902C
:1029D0009F908F9008952091E1033091E203821738
:1029E000930738F082E090E0998388838EEF9FEF21
:1029F000E6CF23E1289F6001299FD00C1124EC0D24
:102A0000FD1DE080F180E114F10499F28281081744
:102A100048F78BE0089F80011124E00EF11EF701BA
:102A200080819181892B29F6BB20E1F2F7E0BF9EDE
:102A300040011124C4010E949F20F70191838083EB
:102A4000E091DF03F091E003EC0DFD1D0190F081BA
:102A5000E02DE00FF11F80819181009739F482E031
:102A600090E0998388838DEF9FEFA9CFA40170E058
:102A700060E00E94892F8091DF039091E003C80EEF
:102A8000D91EF60180819181080F191FF801B282C9
:102A900081E090E09983888390E080E090CFAF92CE
:102AA000BF92CF92DF92FF920F931F93CF93DF934A
:102AB000EA01FC01E60FF71F82819381F480009107
:102AC000DF031091E0030115110581F482E090E02D
:102AD000998388838CEF9FEFDF91CF911F910F91A6
:102AE000FF90DF90CF90BF90AF9008952091E103C9
:102AF0003091E2038217930738F082E090E09983E7
:102B000088838EEF9FEFE8CF2FEF2F0D2C3FA8F794
:102B100023E1289F6001299FD00C11240C0D1D1D5D
:102B2000F80180819181892B89F6FBE0FF9E50019D
:102B30001124C5010E949F20F80191838083E091B8
:102B4000DF03F091E003EC0DFD1D80819181009782
:102B500039F482E090E0998388838DEF9FEFBCCFBA
:102B6000A50170E060E00E94892FE091DF03F09101
:102B7000E003EC0DFD1DF28281E090E099838883F3
:102B800090E080E0A9CFCF92DF92EF92FF920F9377
:102B90001F93CF93DF93860F971FFC010281138150
:102BA0008091DF039091E003892B81F082E090E037
:102BB000FA01918380838CEF9FEFDF91CF911F917A
:102BC0000F91FF90EF90DF90CF900895C801B0E093
:102BD000A0E00197A109B1098F3F9F4FA105B10561
:102BE00040F082E090E0FA01918380838EEF9FEFC6
:102BF000E4CF7A0183E1809F6001819FD00C112492
:102C0000C6010E949F20EC01009741F482E090E011
:102C1000F701918380838DEF9FEFCFCFA60170E006
:102C200060E00E94892FD093E003C093DF031093EC
:102C3000E2030093E10390E080E02FEF3FEF41E0FB
:102C400061E070E08017910741F481E090E0F701C6
:102C50009183808390E080E0B0CF3A8B298B1B86F4
:102C60004C877E876D87188A1F8601966396EACF08
:102C7000CF92DF92EF92FF920F931F93CF93DF9348
:102C8000EC01D12CC12C10E000E0F12CE12C6A8188
:102C90006017110609F0CCF483E0689FB00111249D
:102CA000AE014F5E5F4FC7010E94CC20009721F01C
:102CB0002FEF3FEF3A8B298BDF91CF911F910F912F
:102CC000FF90EF90DF90CF900895E881F981EC0DAF
:102CD000FD1D438154818D859E85489F9001499FAC
:102CE000300D589F300D1124C901019601151105B1
:102CF00019F44F8144FD049661E070E00E94BC1F0E
:102D0000E816F90608F47C010F5F1F4F8BE0C80E30
:102D1000D11CBDCFF8942091DD033091DE0381E01A
:102D20002115310509F080E0232B09F078940895EE
:102D30002F923F924F925F926F927F928F929F92CB
:102D4000AF92BF92CF92DF92EF92FF920F931F93B9
:102D5000CF93DF933C01660E771EF301828193814E
:102D60004C01B12CA12CC091DF03D091E00320973E
:102D700069F021E030E06091E1037091E203861791
:102D8000970710F030E020E0232BD1F482E090E0B0
:102D9000FA01918380838EEF9FEFDF91CF911F9196
:102DA0000F91FF90EF90DF90CF90BF90AF909F90EA
:102DB0008F907F906F905F904F903F902F900895ED
:102DC0008092620290926302A0926402B0926502C5
:102DD00063E1689F9001699F300D1124C20FD31FDA
:102DE000F3018181833040F082E090E0FA01918329
:102DF000808386EF9FEFD1CF2A012B813C81232B4B
:102E0000F1F4288139819F8191FF2EC0232B09F491
:102E10006FC02091E4039A81422F490F5527551F17
:102E2000BA0141E050E06138710514F050E040E033
:102E3000452B09F45DC02A87920F9093E4038150DB
:102E4000823008F481C066DF882309F4D8C0F3011A
:102E50008181813009F48DC008F47BC0823009F48F
:102E6000C6C090E080E0ADC0232B09F441C02091A2
:102E7000E3039A81E22FE90FFF27FF1F41E050E0B3
:102E8000ED3FF10514F050E040E0452B89F12A8731
:102E9000920F9093E303D3CFA081B181A20FB31F10
:102EA00011966C91060F111D0196295F3F4F8417F3
:102EB000950794F38D859E85089F1001099F300C1E
:102EC000189F300C1124C114D104D1F48F8184FFD8
:102ED00017C00E940A20F5E02F0E311C21E0821558
:102EE000930508F420E0A701455F5F4F21110EC054
:102EF00082E090E0F2019183808387EF9FEF4DCFD6
:102F00000E940A202FEF221A320AE8CF8881998185
:102F1000E80EF91EF70114830383FFEFCF1ADF0ACF
:102F20007A018A818C151D0409F00CF48CCFE8819C
:102F3000F981EE0DFF1D428150E030E020E010E00D
:102F400000E090E080E0B3CFF12CE12CD12CC12C3B
:102F5000E8CF81E090E09C838B83EADA882309F450
:102F600080CF81E090E00E94150F80E40E94230F43
:102F700078CF89899A89019661F083E090E09C83FB
:102F80008B8382E090E00E94150F80E40E941D0F69
:102F900068CF8D819E81209158023091590282170D
:102FA0009307D1F460915C0270915D02AE014F5EB7
:102FB0005F4F80915A0290915B020E94842100979A
:102FC000E1F2789422E030E0F20131832083892B12
:102FD00099F08DEF9FEFE1CE89288A288B2869F63A
:102FE000029758F6CE0144DE188A1F86E8CF82E0A9
:102FF00090E09C838B8335CF90E080E0CECE82E062
:1030000090E0F2019183808385EF9FEFC6CE8F928F
:103010009F92AF92BF92CF92DF92EF92FF920F9367
:103020001F93CF93DF93EA018C01060F171FF8015E
:103030008181833098F082E090E09983888386EFE5
:103040009FEFDF91CF911F910F91FF90EF90DF9055
:10305000CF90BF90AF909F908F9008958091DF03A5
:103060009091E003892B61F081E090E02091E103F1
:103070003091E203232B11F490E080E0892B39F4A6
:1030800082E090E0998388838EEF9FEFDACF42DE73
:10309000882309F4E0C0F8018181813009F496C0E9
:1030A000E8F0823099F42091E1033091E203E0915D
:1030B000DF03F091E00390E080E041E050E028176A
:1030C000390709F0BEC034DA811117C0789481E065
:1030D00090E09983888390E080E0B3CF2091E10372
:1030E0003091E203E091DF03F091E00390E080E0B3
:1030F00041E050E02817390741F481E090E00E9458
:10310000150F80E40E94230FE1CF63817481672B48
:1031100011F05483438301967396ECCFE091DF0363
:10312000F091E003E00FF11F23813481223031055B
:10313000D9F4218932892F3F3F4FB1F4258136815F
:1031400040915802509159022417350761F5AF019B
:103150004F5E5F4F60915C0270915D0280915A02F8
:1031600090915B020E948421EFEFCE1ADE0AEE0AF4
:10317000FE0A0D5E1F4F4091E1035091E20370E0A3
:1031800060E0C416D506E606F70644F5009731F26E
:103190007894892B09F49BCF82E090E0998388830F
:1031A0008DEF9FEF4ECFC114D104E104F104E1F69D
:1031B00022303105C8F6CF015BDDE091DF03F091ED
:1031C000E003E00FF11F108A1786CECF10E000E079
:1031D00090E080E0C12CD12C7601CDCF0097C1F6D4
:1031E00010E000E0812C912C540183E0E82EF12CBA
:1031F0001AC0E091DF03F091E003E00FF11F83813B
:103200009481029749F4F482E38282E090E00E9484
:10321000150F80E40E941D0FFFEF8F1A9F0AAF0A5F
:10322000BF0A0D5E1F4F8091E1039091E203B0E071
:10323000A0E088169906AA06BB06DCF290E080E0C2
:10324000A7CF638174816230710511F45483438385
:103250000196739634CF82E090E09983888385EF5E
:103260009FEFEFCE0097B9F48FEFFB0180832091A1
:1032700062023091630243E1429FC001439F900D7F
:103280001124E091DF03F091E003E80FF91F82853C
:10329000FB01818308950C94CC0E88E090E0FA0144
:1032A0009183808390E080E008951092DE03109275
:1032B000DD03EFEDF3E086E0DF011D928A95E9F78B
:1032C0008BEB94E19093DC038093DB030895809172
:1032D000DB039091DC0308952F923F924F925F920F
:1032E0006F927F928F929F92AF92BF92CF92DF9216
:1032F000EF92FF920F931F93CF93DF93CDB7DEB77B
:1033000060970FB6F894DEBF0FBECDBFF894E09182
:10331000DD03F091DE033196F093DE03E093DD03ED
:103320007894A091DF03B091E003BA83A98310974A
:1033300009F4F9C1E091E103F091E203EF2B09F404
:10334000F2C128874B875C876D877E879A8789873C
:10335000B88BAF87312C212CF12C512C412C809132
:10336000E1039091E2032816390610F4FF2029F1B9
:10337000F8948091DD039091DE0301979093DE0332
:103380008093DD037894C20160960FB6F894DEBF97
:103390000FBECDBFDF91CF911F910F91FF90EF90A6
:1033A000DF90CF90BF90AF909F908F907F906F9065
:1033B0005F904F903F902F900895B10190E080E092
:1033C00087D4682EEF85F889878181FD3DC0838190
:1033D00094810397C9F5258136813C832B838985A8
:1033E0009A852817390781F5C101ECD8782E8823F2
:1033F000A9F1AF85B8891F968D919C915097019640
:1034000021E01D964D915C918417950709F020E00D
:103410002F83B12CA12CEF85F88982818A151B049A
:1034200019F014F0FF20E9F0F885FF2309F46BC1CF
:10343000AF85B88950961C921E921F97662021F086
:10344000B10190E080E046D4FFEF2F1A3F0A2F85AC
:1034500038892D5E3F4F388B2F8781CFB1E0BF83F6
:10346000D8CFBFD49E838D83E885EE23E9F0772003
:1034700009F43BC1AF85B8891F968D919C91892B2A
:1034800079F0BBE0BA9DC001BB9D900D1124AF85C2
:10349000B889ED91FC91E80FF91F8581968152D68C
:1034A000BFEFAB1ABB0AB7CF81E0772039F0EF85C9
:1034B000F88927853089232B09F080E0F82EE12C4C
:1034C000A114B10439F4AF85B8891796EC90E4FAE9
:1034D000EE24E0F8BBE0BA9D6001BB9DD00C112446
:1034E000882309F423C1AF85B889ED91FC91119728
:1034F000EC0DFD1D438154811D962D913C91429F01
:10350000C001439F900D529F900D1124E1105CC0AB
:1035100001969087878361E070E0878190852CD544
:10352000EF85F88921893289008111810C0D1D1DDB
:103530002F3F320709F44AC0BC01C90126D7D80180
:1035400016969C938E931597AF85B889ED91FC9153
:103550001197EC0DFD1D058116810115110509F46A
:10356000CDC0ED81FE810E0F1F1F1A968C918A0D22
:10357000D8018C93E1102FC00F5F1F4FAF85B88922
:10358000ED91FC91EC0DFD1D12870187AF85B88987
:10359000ED91FC91EC0DFD1D85819681892B09F43F
:1035A000A4C080915802909159022B813C81281728
:1035B000390709F465C0772011F001851285912C37
:1035C000812C1A8219824AC00596A3CFB8D5F8017A
:1035D00096838583B9CF8B859C85AD85BE85F801A3
:1035E00081839283A383B4830B5F1F4FC7CFE08097
:1035F000F180E80CF91CD70113966D917C9114971A
:103600008C918F3F09F473C0E1E0F0E002C0EE0F4F
:10361000FF1F8A95E2F7CF01092E000CAA0BBB0B06
:10362000FB01408151816281738184239523A6230C
:10363000B72321E0892B8A2B8B2B09F420E0D801BA
:103640002C93D70111968C91080F111DE981FA81F5
:103650003196FA83E983F7E08F0E911CAF85B88924
:10366000ED91FC91EC0DFD1D828129813A8182173B
:10367000130611F00CF0BBCF772011F012870187F1
:103680003F81332391F1AF85B889ED91FC91EC0D29
:10369000FD1D61E070E0878190856ED4AF85B889AB
:1036A000ED91FC91EC0DFD1DE780F0844581568184
:1036B000E1E0F0E0662011F0F0E0E0E00D811E8135
:1036C0009C01B101882799278E1B9F0B8DD32C015C
:1036D000892B59F0EF85F88980819181C80ED91E18
:1036E000D60115968D919C912DD5F12CD9CEF7014F
:1036F000418150E0C8010E94802FA3CF86EF482E61
:1037000055245A94CDCEEF85F88987859089019606
:10371000908B8787258536858217930709F08ECE93
:10372000108A17868BCE512C412C22CE10E000E05F
:103730002DCF2F923F924F925F926F927F928F92F6
:103740009F92AF92BF92CF92DF92EF92FF920F9330
:103750001F93CF93DF938091DF039091E00310E0FC
:1037600000E0892BA9F0D6DA0AEF1FEF882381F059
:103770002090E1033090E203C091DF03D091E00399
:10378000D12CC12C10E000E02C143D04A9F4789455
:10379000C801DF91CF911F910F91FF90EF90DF90C3
:1037A000CF90BF90AF909F908F907F906F905F90E1
:1037B0004F903F902F900895C6010E94E2128823F7
:1037C00009F18B819C810397E9F48F859889892B76
:1037D000C9F0B60190E080E07BD221E030E08823A0
:1037E00011F030E020E044245524421A530AB12C51
:1037F000A12C912C812C8A818815190409F038F4A8
:10380000188A1F864FEFC41AD40A6396BDCFE88189
:10381000F981EA0DFB1D85819681892BA1F161E07B
:1038200070E087819085A8D33C01DBD28C01E881D0
:10383000F981EA0DFB1D8185928525813681200F56
:10384000311FAC01421B530B9A0147815085421B2B
:10385000530B70E060E00E94892FE881F981EA0D46
:10386000FB1DE780F084458156819301B601C201BA
:10387000BBD28C01892B39F0E881F981EA0DFB1D5F
:10388000858196815FD45FEF851A950A8BE0A80E3B
:10389000B11CB1CF3FCA789408952F923F924F92B6
:1038A0005F926F927F929F92AF92BF92CF92DF9280
:1038B000EF92FF920F931F93CF93DF9300D000D02E
:1038C000CDB7DEB70091DF031091E0039924939404
:1038D0000115110509F43EC0A090E103B090E20388
:1038E00019DA982E8823B1F11092E0031092DF03C9
:1038F0001092E2031092E1031092E3031092E403AA
:103900008FEF9FEFDC018093620290936302A0939C
:103910006402B093650278947FD31E830D83C12C1B
:10392000D12C7601C501B0E0A0E089839A83AB83F6
:10393000BC8322242A94322C89819A81AB81BC8158
:10394000C816D906EA06FB06F4F0C801FBD380E4EA
:103950000E94230F892D26960FB6F894DEBF0FBE66
:10396000CDBFDF91CF911F910F91FF90EF90DF902E
:10397000CF90BF90AF909F907F906F905F904F904F
:103980003F902F900895AD81BE8115968D919C91A9
:103990001697209158023091590282179307D1F45B
:1039A00051968D919C91DFD4ED81FE818081918132
:1039B000B12CA12C412C512C3201892B89F5BFEF60
:1039C000CB1ADB0AEB0AFB0AED81FE817396FE83BC
:1039D000ED83B2CFC114D104E104F10429F70297B9
:1039E00018F7ED81FE81818992898F3F980709F050
:1039F0005CD4AD81BE8152963C922E925197D4CF29
:103A00008A0D9B1DDC018D919C91009709F09AD342
:103A1000BFEF4B1A5B0A6B0A7B0AEBE0AE0EB11CE0
:103A2000AD81BE818D919C91119712964C9150E081
:103A300070E060E044165506660677060CF382D304
:103A4000BECFCF93DF93EA0128DF811109C082E066
:103A500090E09983888385EF9FEFDF91CF91089560
:103A600081E090E00E94150F81E090E099838883C7
:103A700090E080E0F2CF11DF1092DC031092DB03C4
:103A8000089542E050E061EE72E00C94330FFF9233
:103A90000F931F93CF93DF938A01EC01C60FD71FBB
:103AA000F980B9D20897F816190671F068F082E02B
:103AB00090E0F801918380838EEF9FEFDF91CF91AB
:103AC0001F910F91FF9008956C817D818E819F8160
:103AD0004B810E94C811811108C082E090E0F8017A
:103AE0009183808384EF9FEFE9CFF9800E94C31117
:103AF0004F2D50E0BE01685F7F4F0E94802F89816B
:103B00000E94321281E090E0F8019183808390E07E
:103B100080E0D4CFDF92EF92FF920F931F93CF9369
:103B2000DF938A01EC01C60FD71F0E94C3117C01ED
:103B3000D98071D2DD2059F0029721E030E0D8160B
:103B4000190619F010F030E020E0232B79F482E020
:103B500090E0F801918380838EEF9FEFDF91CF910A
:103B60001F910F91FF90EF90DF900895EF2841F49F
:103B700082E090E0F8019183808384EF9FEFEECFA5
:103B8000F9800E94C3114F2D50E0BE016E5F7F4F40
:103B90000E94802F89810E94321281E090E0F8011A
:103BA0009183808390E080E0D9CF81E49DE1909380
:103BB000E6038093E50308958091E5039091E60381
:103BC00008950895FC0111821082938382830895E1
:103BD000DB011D921C92DC011296ED91FC91139772
:103BE0007183608313967C936E9312970895FC0102
:103BF00080819181DB018D939C93A081B18110978D
:103C000041F08D919C9191838083892B11F4F383F2
:103C1000E2830895FC0180819181DB018D939C9367
:103C2000892B11F473836283718360830895FC018F
:103C300011821082938382830895CF93DF931F9222
:103C40001F92CDB7DEB71A821982F894BE016F5F5A
:103C50007F4F8CEE93E0CBDF89819A81009709F04A
:103C600071D289819A81892B89F7BE016F5F7F4F5D
:103C700080EF93E0BCDF89819A81009709F062D2DE
:103C800089819A81892B89F778940F900F90DF9121
:103C9000CF910895CF93DF931F921F92CDB7DEB7D8
:103CA0001A821982F894BE016F5F7F4F88EE93E00D
:103CB0009EDF89819A81009709F044D289819A8197
:103CC000892B89F778940F900F90DF91CF91089509
:103CD00081E0089590E080E00895EF92FF920F93C5
:103CE0001F93CF93DF931F921F92CDB7DEB71A8237
:103CF00019828091E70307EF1FEF8823A1F1F89461
:103D0000BE016F5F7F4F80EF93E071DF7894898110
:103D10009A81EE24E394F12C892B51F4F894BE019E
:103D20006F5F7F4F8CEE93E062DF7894F12CE12C93
:103D300089819A810EEF1FEF0097A9F0FC01428163
:103D4000538164E070E011D58C01892B61F0F89407
:103D500069817A81C701880F991F880F991F845143
:103D60009C4F58DF7894C8010F900F90DF91CF914E
:103D70001F910F91FF90EF9008950F931F93CF9392
:103D8000DF9300D01F92CDB7DEB71C821B821A8250
:103D900019828091E70307EF1FEF8823C1F0AE017E
:103DA0004D5F5F4F64E070E0CE01019651D58C010C
:103DB000892B69F4E981FA818B819C8193838283C9
:103DC000F89469817A8188EE93E002DF7894C801E3
:103DD0000F900F900F900F90DF91CF911F910F9147
:103DE000089556D6049608958F929F92AF92BF92EF
:103DF000CF92DF92EF92FF920F931F93CF93DF93B7
:103E00001F921F92CDB7DEB71A821982BC016F5F75
:103E10007F4F6330710598F0AA24AA94BA2CC5018B
:103E20000F900F90DF91CF911F910F91FF90EF9026
:103E3000DF90CF90BF90AF909F908F9008954115E5
:103E4000510551F3480159018A016C01CADF8815F7
:103E5000990511F7E114F104F9F28E0D9F1DA816D2
:103E6000B906D0F28091E7038823F1F0F894B50108
:103E7000645071099701AE014F5F5F4FC80104960E
:103E80007CD55C01892B71F489819A81F801938337
:103E90008283C601880F991F880F991FB80184512A
:103EA0009C4F96DE7894BBCF87EFA82EBB24BA94A4
:103EB000B6CFAF92BF92CF92DF92EF92FF920F9365
:103EC0001F93CF93DF931F921F92CDB7DEB71A8255
:103ED0001982892B09F047C06115710509F443C0A7
:103EE0004115510509F43FC02115310509F43BC0C6
:103EF00001151105C1F18091E7038823B9F179011A
:103F00006A015B01F894BE016F5F7F4F88EE93E01A
:103F10006EDE789489819A81009759F1DC011296BE
:103F20006D917C91A801049641D58C01E981FA81BB
:103F3000D501ED93FC93828193810496F6019183E0
:103F400080834FDFD7018D939C93C8010F900F9012
:103F5000DF91CF911F910F91FF90EF90DF90CF9065
:103F6000BF90AF9008950FEF1FEFEFCF07EF1FEF58
:103F7000ECCF0EEF1FEFE9CFCF93DF93EC01672B70
:103F800071F48FD58C179D0760F082D52496C80FE9
:103F9000D91F81D58C0F9D1FDF91CF9108957ED5BC
:103FA000F1CF90E080E0F8CF0F931F93CF93DF9392
:103FB0002091E70321112BC08B01EC018CEE93E0E3
:103FC00001DE80EF93E0FEDD88EE93E0FBDD97D02D
:103FD0000097C1F466D570E060E0CEDF46E652E0BF
:103FE00062E070E0D9D0009769F480916602909108
:103FF000670269D5B801CE019ED3009719F421E07C
:104000002093E703DF91CF911F910F91089584EFE3
:104010009FEFF8CF43C545C5CF93DF9345D5EC015E
:10402000892B11F40ADE36DECE01DF91CF9108959F
:10403000CF93DF9339D5EC01892B09F4FEDDCE0156
:10404000DF91CF9108958091660290916702089563
:10405000CF93DF938091E703D0E0C0E08823D1F0D5
:1040600037D5EC01892BB1F4E8DD14DE80916602CE
:10407000909167021AD1CED1EC01892B59F48CEEC4
:1040800093E0D5DD80EF93E0D2DD88EE93E0CFDDE5
:104090001092E703CE01DF91CF910895EF92FF9246
:1040A0000F931F93CF93DF93EC017A018B010F5F86
:1040B0001F4F0E9DA0010F9D500D1E9D500D1124F0
:1040C00070E060E00E94892F90E080E0F0E0E0E0A6
:1040D0002FEFE816F90639F4DF91CF911F910F9178
:1040E000FF90EF9008951A8219822883309711F07B
:1040F000D283C1830196FE01C00FD11FEACFE6EF44
:10410000F3E085E8DF011D928A95E9F71092F50347
:104110001092F403E2E8F4E0118210821582148216
:10412000138212821782168211861086EEE7F4E05F
:10413000118210821382128290E080E0089590E054
:1041400080E00895009739F1DC018E91813041F4CF
:10415000E0918004F09181043097E9F0CD01199449
:10416000811119C0F8948FEF8C9380918204909103
:10417000830412969C938E931197B0938304A0931B
:104180008204809184049091850401969093850423
:104190008093840478940895EF92FF920F931F9375
:1041A000CF93DF934115510509F47CC0009709F4C2
:1041B00079C06115710509F475C0EA01AB01BC0154
:1041C000F8948091820490918304892B19F589EFEA
:1041D00093E08C7F6D5F7F4F6C7F9B012F5F3F4F24
:1041E000249F8001259F100D349F100D11242091D4
:1041F0008A0430918B042115310509F03CC0E09010
:10420000F403F090F50322E830E02E193F0920175F
:10421000310730F478942FEF3FEF86EF9FEF22C005
:104220009093830480938204509387044093860480
:1042300050938504409384047093890460938804A8
:1042400010938B0400938A04009709F027DF0E0D6A
:104250001F1D1093F5030093F403789430E020E0E1
:1042600090E080E039832883DF91CF911F910F91F7
:10427000FF90EF9008952017310760F29093830428
:10428000809382045093870440938604509385045E
:104290004093840470938904609388040097E9F242
:1042A000FDDEDBCF8FEF9FEFDFCF892B51F5F89449
:1042B0001092830410928204109287041092860454
:1042C000109285041092840410928904109288043C
:1042D00020918A0430918B042115310571F0809171
:1042E000F4039091F503821B930B9093F503809355
:1042F000F40310928B0410928A04789490E080E08A
:1043000008958FEF9FEF08954115510549F10097EA
:1043100039F16115710521F1F89420917E043091F5
:104320007F04232BB9F42091800430918104232B46
:1043300089F490937F0480937E047093810460934A
:104340008004789421E030E090E080E0FA0131834D
:104350002083089578942FEF3FEF86EF9FEFF6CFFD
:104360008FEF9FEF0895019769F4F89410927F04FE
:1043700010927E041092810410928004789490E050
:1043800080E008958FEF9FEF08956115710519F48E
:10439000F0E0E0E011C08130910581F4E0917E040D
:1043A000F0917F043097A1F3CB0101961995009706
:1043B00079F3FC0181E08193CF010895892B41F7C6
:1043C0008091820490918304892B11F38091880459
:1043D0009091890486179707D8F2F8948091840405
:1043E00090918504009731F0E0918204F09183046C
:1043F000309711F47894CCCF2181328130938304AB
:1044000020938204019790938504809384041192F1
:104410007894D2CFEBE7F4E083E0DF011D928A9538
:10442000E9F7E6EFF3E085E8DF011D928A95E9F709
:104430001092F5031092F403E2E8F4E08AE0DF0161
:104440001D928A95E9F7EEE7F4E084E0DF011D9222
:104450008A95E9F790E080E00895CF93DF93C091CB
:104460006802D0916902CF3FDC0759F4D9D3909309
:1044700069028093680297FF09C0D0936902C093D4
:10448000680284EF9FEFDF91CF91089590E080E084
:10449000FACF8230910528F480938C0490E080E07C
:1044A00008958FEF9FEF08954F925F926F927F92E2
:1044B000AF92BF92CF92DF92EF92FF920F931F9332
:1044C000CF93DF931F921F92CDB7DEB71A82198266
:1044D000009709F478C06115710509F474C0209142
:1044E00068023091690207EF1FEF2F3F3F4F09F439
:1044F00044C06B015C01412C512C3201F12CE12CA8
:1045000010E000E09E012F5F3F4FA6014E195F09AA
:10451000B5016E0D7F1D8091680290916902DFD315
:10452000892B09F04AC089819A81009741F4E114EE
:10453000F10429F420918C04222309F441C0E80EEF
:10454000F91EEC14FD04C8F480E8481684E8580607
:104550008EE16806710418F560E070E0CB0193D637
:104560002AE0420E511C611C711C0A3F4FEF1407D8
:1045700021F0043F8FEF1807A1F4C8010F900F90AE
:10458000DF91CF911F910F91FF90EF90DF90CF902F
:10459000BF90AF907F906F905F904F90089501EF24
:1045A0001FEF81E090E0013F2FEF120711F090E044
:1045B00080E0892B09F4A6CFE0CF04EF1FEFDDCF19
:1045C0000AEF1FEFDACF0FEF1FEFD7CF4F925F92B7
:1045D0006F927F92AF92BF92CF92DF92EF92FF9253
:1045E0000F931F93CF93DF931F921F92CDB7DEB728
:1045F0001A821982009709F478C06115710509F4CF
:1046000074C0209168023091690207EF1FEF2F3FBD
:104610003F4F09F444C06B015C01412C512C320125
:10462000F12CE12C10E000E09E012F5F3F4FA6012E
:104630004E195F09B5016E0D7F1D80916802909142
:10464000690203D3892B09F04AC089819A810097B6
:1046500041F4E114F10429F420918C04222309F49B
:1046600041C0E80EF91EEC14FD04C8F480E84816B9
:1046700086E9580688E96806710418F560E070E07C
:10468000CB0101D62AE0420E511C611C711C0E3F69
:104690004FEF140721F0043F8FEF1807A1F4C80172
:1046A0000F900F90DF91CF911F910F91FF90EF909E
:1046B000DF90CF90BF90AF907F906F905F904F90C2
:1046C000089502EF1FEF81E090E0023F2FEF120705
:1046D00011F090E080E0892B09F4A6CFE0CF04EF41
:1046E0001FEFDDCF0EEF1FEFDACF0FEF1FEFD7CFAA
:1046F00080916802909169028F3F980749F088D2B3
:10470000892B49F48FEF9FEF9093690280936802A1
:1047100090E080E0089584EF9FEF0895FC01680F1A
:10472000791F90E080E0E617F70709F408952191DA
:10473000820F911DF8CF20918D04211113C08DDEC1
:10474000009791F4109293041092920410929104A5
:104750001092900410928F0410928E0421E0209306
:104760008D04089584EF9FEF0895AF92BF92CF928A
:10477000DF92EF92FF920F931F93CF93DF930097F7
:1047800009F460C04630510508F45CC020918D04E6
:10479000C7EFDFEF222309F449C08C01060F171F72
:1047A000F801C080D180C114D10409F44EC0960133
:1047B0002A5F3F4F4217530708F447C07C0180919E
:1047C00092049091930493838283B6016C5F7F4F30
:1047D0005801A60EB71EC801A1DFF50191838083A1
:1047E00064E070E0C80160DEEC01892BF9F481E03F
:1047F00090E04FDEB601C801049656DEEC01892B2D
:1048000091F462E070E0C5014FDEEC01892B59F4B0
:10481000C70198DC80919204909193040196909343
:1048200093048093920490E080E033DECE01DF9128
:10483000CF911F910F91FF90EF90DF90CF90BF909D
:10484000AF900895CFEFDFEFF1CFC9EFDFEFEECFFD
:104850006F927F928F929F92AF92BF92CF92DF9290
:10486000EF92FF920F931F93CF93DF9300D01F928D
:10487000CDB7DEB7009709F47AC04115510509F4A8
:1048800076C020918D0407EF1FEF222309F44DC05D
:104890003A017B015C0164E070E0CE01019696DE96
:1048A0008C01892B09F041C009811A81011511057C
:1048B00009F45AC0480186E0880E911CB701680DC2
:1048C000791D80916A0290916B025FDD6C01009707
:1048D00009F450C0A70170E060E00E94892F89812F
:1048E0009A81AB81BC81EC0CFD1CF7018193919303
:1048F000A193B1937F0181E090E0CBDDB801C701C6
:1049000065DE892B31F562E070E0C701800F911FF1
:104910005DDE8C01892BE9F490E080E0BADDF501E1
:10492000D182C082F30191828082C8010F900F90E2
:104930000F900F90DF91CF911F910F91FF90EF900B
:10494000DF90CF90BF90AF909F908F907F906F90AF
:10495000089590E080E09DDDF50111821082F30161
:1049600011821082C601EEDB09EF1FEFDECF0FEFE1
:104970001FEFDBCF06EF1FEFD8CF0097A1F0411557
:10498000510589F02115310571F0F90136966E1740
:104990007F0748F0DC012D933C93DA01ED93FC9303
:1049A00090E080E008958FEF9FEF0895AF92BF925F
:1049B000CF92DF92EF92FF920F931F93CF93DF93EB
:1049C000009709F45FC04115510509F45BC06530DB
:1049D000710508F457C020918D04C7EFDFEF222343
:1049E00091F1DC01CD90DC9011971296ED91FC9144
:1049F00096012A5F3F4FC9EFDFEF2617370719F5FA
:104A0000C0918E04D0918F04209749F521E030E0C9
:104A100030938F0420938E047A018C01F0939104DB
:104A2000E09390045601B4E0AB0EB11CB50176DE04
:104A30000A0D1B1DF801208131818217930729F58A
:104A4000D701CD92DC92CE01DF91CF911F910F91D2
:104A5000FF90EF90DF90CF90BF90AF90089520919E
:104A60009004309191042F5F3F4FCCEFDFEFE217BE
:104A7000F30790F2CBEFDFEF2E173F0768F2D0E09D
:104A8000C0E0CACFCFEFDFEFDECFC3EFDFEFDBCF8A
:104A900084E090E0089582E090E008958CEF9FEF2D
:104AA000089580E290E00895109293041092920489
:104AB000109291041092900410928F0410928E0420
:104AC00090E080E0089590936B0280936A020895CD
:104AD00080918D04882391F00BDE009789F4109269
:104AE00093041092920410929104109290041092E8
:104AF0008F0410928E0410928D04089590E080E04F
:104B00000895009749F06115710531F0FC0111829B
:104B10001082FB01118210820895F3CF26E030E06D
:104B200040E855E260E070E090E080E000C0813055
:104B3000910569F01CF4892B39F0089582309105B4
:104B400049F0039751F0089589EA94E0C9C686E4D4
:104B500095E0FCCF83EE95E0F9CF80E896E0F6CFC4
:104B6000089580E00895CF92DF92EF92FF920F9325
:104B70001F9364D360939404709395048093960478
:104B800090939704009198041091990420919A04AD
:104B900030919B046B017C01C01AD10AE20AF30A2E
:104BA00097018601003A16482140310508F16093CB
:104BB00098047093990480939A0490939B04A3D0D3
:104BC0003DD3009198041091990420919A0430915A
:104BD0009B04601B710B820B930B603A76488140FB
:104BE000910570F081E090E090939F0480939E0483
:104BF00081E01F910F91FF90EF90DF90CF9008958B
:104C000010929F0410929E04F3CF10929C0408957A
:104C100068EE73E080E090E036D390E080E00895A5
:104C200026E030E040E050E16EE070E090E080E0AF
:104C30007EDF89EA94E08AD5892B21F089EA94E025
:104C40009FD5F7CF90E080E00895CF92DF92EF926A
:104C5000FF920F931F93CF93DF936B017A01E901CA
:104C60001982188289EA94E071D5892B69F186014D
:104C7000CC24C39482E0D82E80919C04811110C072
:104C800089EA94E07DD50297B9F7C0929C04F801B7
:104C9000D1928F0188819981019699838883ECCF85
:104CA000888199818E159F0578F489EA94E068D50A
:104CB0008F3F9807A9F3F80181938F01888199812B
:104CC000019699838883ECCF90E080E0DF91CF91CB
:104CD0001F910F91FF90EF90DF90CF9008950F9369
:104CE0001F93CF93DF93EA01890189EA94E00E9440
:104CF000002FF801D183C08390E080E0DF91CF9155
:104D00001F910F91089580919D0491E0980F9093C9
:104D10009D04882349F021E030E030939F042093E4
:104D20009E0480939D0408950E94580580919D04DF
:104D30008150F7CF0F931F93CF93DF93109280078B
:104D400010927F07D6D2EADEC0916D02D0916E023A
:104D5000198218826FEF7FEFCB010E94E80470E0A8
:104D600060E090E080E00E946903009709F039C09C
:104D70000E943E07F8947894BE01685D7F4F8A8157
:104D80009B810E946C03892B59F46FEF7FEFCB015D
:104D90000E94FB030E94E204882311F081E08CA7AB
:104DA000F894DEDE0E94E504882311F080E008C05C
:104DB0000E94E2048111FACF81E09CA59111F6CF07
:104DC00080937F070E94100F8C01789480917F0759
:104DD00081110CC00E9498080E94C704F89490E0CA
:104DE00080E0DF91CF911F910F9108950E94C5043B
:104DF0000E94E5048823D9F081E080938007909198
:104E0000800781E0911180E080937F078091800787
:104E10008111A7DE0130110529F40E94100F892BA2
:104E200009F4F3DE0E94100F8C019DDECFCF0E94AB
:104E3000E2048111E1CF81E09CA59111DECF80E0F9
:104E4000DCCF5058BB27AA270ED00DC1FED030F0C2
:104E500003D120F031F49F3F11F41EF4F3C00EF49F
:104E6000E095E7FBE9C0E92F0FD180F3BA1762079D
:104E700073078407950718F071F49EF527C10EF4A7
:104E8000E0950B2EBA2FA02D0B01B90190010C015A
:104E9000CA01A0011124FF27591B99F0593F50F472
:104EA000503E68F11A16F040A22F232F342F4427CA
:104EB000585FF3CF469537952795A795F0405395C2
:104EC000C9F77EF41F16BA0B620B730B840BBAF092
:104ED0009150A1F0FF0FBB1F661F771F881FC2F7FD
:104EE0000EC0BA0F621F731F841F48F48795779511
:104EF0006795B795F7959E3F08F0B3CF9395880FC8
:104F000008F09927EE0F97958795089571D008F4CA
:104F100081E0089504D06894B111D9C00895BCD03F
:104F200088F09F5790F0B92F9927B751A0F0D1F092
:104F3000660F771F881F991F1AF0BA95C9F712C01C
:104F4000B13081F0C3D0B1E00895C0C0672F782F91
:104F50008827B85F39F0B93FCCF386957795679588
:104F6000B395D9F73EF490958095709561957F4FF4
:104F70008F4F9F4F0895E89409C097FB3EF490959A
:104F80008095709561957F4F8F4F9F4F9923A9F022
:104F9000F92F96E9BB279395F695879577956795B1
:104FA000B795F111F8CFFAF4BB0F11F460FF1BC0F5
:104FB0006F5F7F4F8F4F9F4F16C0882311F096E988
:104FC00011C0772321F09EE8872F762F05C0662336
:104FD00071F096E8862F70E060E02AF09A95660FEF
:104FE000771F881FDAF7880F9695879597F90895A8
:104FF000990F0008550FAA0BE0E8FEEF16161706EA
:10500000E807F907C0F012161306E407F50798F051
:10501000621B730B840B950B39F40A2661F0232B6A
:10502000242B252B21F408950A2609F4A140A695E6
:105030008FEF811D811D089597F99F6780E870E0CB
:1050400060E008959FEF80EC089500240A941616FE
:10505000170618060906089500240A941216130666
:10506000140605060895092E0394000C11F48823F4
:1050700052F0BB0F40F4BF2B11F460FF04C06F5F10
:105080007F4F8F4F9F4F089557FD9058440F551FE6
:1050900059F05F3F71F04795880F97FB991F61F0BA
:1050A0009F3F79F087950895121613061406551F31
:1050B000F2CF4695F1DF08C0161617061806991F9D
:1050C000F1CF86957105610508940895E894BB2792
:1050D00066277727CB0197F908958ADF08F48FEFC9
:1050E00008950BD0C0CFB1DF28F0B6DF18F09523BC
:1050F00009F0A2CFA7CF1124EACFC6DFA0F3959F76
:10510000D1F3950F50E0551F629FF001729FBB27AE
:10511000F00DB11D639FAA27F00DB11DAA1F649F5A
:105120006627B00DA11D661F829F2227B00DA11D0D
:10513000621F739FB00DA11D621F839FA00D611D93
:10514000221F749F3327A00D611D231F849F600DB4
:10515000211D822F762F6A2F11249F5750408AF0ED
:10516000E1F088234AF0EE0FFF1FBB1F661F771F79
:10517000881F91505040A9F79E3F510570F05CCFB9
:10518000A6CF5F3FECF3983EDCF386957795679565
:10519000B795F795E7959F5FC1F7FE2B880F911D97
:1051A0009695879597F908951F920F920FB60F92D3
:1051B00011242F933F938F939F93AF93BF9380912D
:1051C000A1049091A204A091A304B091A4043091F1
:1051D000A00423E0230F2D3758F50196A11DB11D22
:1051E0002093A0048093A1049093A204A093A3040D
:1051F000B093A4048091A5049091A604A091A70463
:10520000B091A8040196A11DB11D8093A5049093AF
:10521000A604A093A704B093A804BF91AF919F9157
:105220008F913F912F910F900FBE0F901F90189567
:1052300026E8230F0296A11DB11DD2CF3FB7F894E7
:105240008091A5049091A604A091A704B091A80410
:1052500026B5A89B05C02F3F19F00196A11DB11DD1
:105260003FBFBA2FA92F982F8827BC01CD01620F0D
:10527000711D811D911D42E0660F771F881F991FC8
:105280004A95D1F708958F929F92AF92BF92CF9295
:10529000DF92EF92FF926B017C01D0DF4B015C014A
:1052A000C114D104E104F104D9F0D7D5C7DF6819DE
:1052B00079098A099B09683E73408105910580F34D
:1052C00021E0C21AD108E108F10888EE880E83E0D7
:1052D000981EA11CB11CC114D104E104F10431F7E2
:1052E000FF90EF90DF90CF90BF90AF909F908F9006
:1052F0000895789484B5826084BD84B5816084BD4E
:1053000085B5826085BD85B5816085BDEEE6F0E03E
:10531000808181608083E1E8F0E01082808182609A
:105320008083808181608083E0E8F0E0808181601B
:105330008083E1EBF0E0808184608083E0EBF0E04B
:10534000808181608083E1E9F0E0808182608083F8
:10535000808181608083E0E9F0E0808181608083EA
:10536000E1EAF0E0808182608083808181608083D7
:10537000E0EAF0E0808181608083E1E2F1E0808119
:1053800082608083808181608083E0E2F1E08081BF
:1053900081608083EAE7F0E080818460808380819F
:1053A0008260808380818160808380818068808347
:1053B0001092C10008951F93CF93DF93182FEB0134
:1053C00061E033D1209731F460E0812FDF91CF91FC
:1053D0001F9167C1CF3FD10511F461E0F6CFE12FF6
:1053E000F0E0EC51FF4FE491E150E23108F0B2C03F
:1053F000F0E08827E250F64D8F4F61C5102A182A39
:105400001D2A272A312AAA2A3B2A432A4B2A552A0F
:105410005F2A692A782A822AAA2A8C2A962AA02A0E
:1054200084B5806884BDC7BDDF91CF911F91089579
:1054300084B5806284BDC8BDF7CF8091800080684C
:1054400080938000D0938900C0938800EDCF809135
:105450008000806280938000D0938B00C0938A008C
:10546000E3CF80918000886080938000D0938D008E
:10547000C0938C00D9CF8091B00080688093B00039
:10548000C093B300D1CF8091B00080628093B00010
:10549000C093B400C9CF8091900080688093900041
:1054A000D0939900C0939800BFCF80919000806204
:1054B00080939000D0939B00C0939A00B5CF8091C9
:1054C0009000886080939000D0939D00C0939C00D2
:1054D000ABCF8091A00080688093A0008091A00055
:1054E0008F7B8093A000D093A900C093A8009CCF8D
:1054F0008091A00080628093A000D093AB00C09305
:10550000AA0092CF8091A00088608093A000D093E1
:10551000AD00C093AC0088CF80912001806880935B
:105520002001D0932901C09328017ECF80912001D2
:10553000806280932001D0932B01C0932A0174CF05
:1055400080912001886080932001D0932D01C09329
:105550002C016ACFC038D1050CF03FCF35CF815038
:10556000823108F059C0E82FF0E08827E654F54D65
:105570008F4FA5C4DA2ADE2ACC2AD22AD62A0C2BAF
:10558000E12AE72AEB2AF12AF52AF92AFF2A032B36
:105590000C2B072B0D2B112B809180008F77809384
:1055A00080000895809180008F7DF9CF80918000E8
:1055B000877FF5CF84B58F7784BD089584B58F7DBF
:1055C000FBCF8091B0008F778093B00008958091D9
:1055D000B0008F7DF9CF809190008F7780939000FD
:1055E0000895809190008F7DF9CF80919000877F02
:1055F000F5CF8091A0008F778093A00008958091CF
:10560000A0008F7DF9CF8091A000877FF5CF80919A
:1056100020018F77809320010895809120018F7D54
:10562000F9CF80912001877FF5CFCF93DF9390E072
:10563000FC01E65DFE4F249180599E4FFC01849150
:105640008823C9F090E0880F991FFC01E651FE4FB6
:10565000A591B491FC01E053FE4FC591D491611125
:105660000DC09FB7F8948C91209582238C938881EC
:10567000282328839FBFDF91CF910895623051F492
:105680009FB7F8943C91822F809583238C93E88177
:105690002E2BEFCF8FB7F894EC912E2B2C938FBF3E
:1056A000EACF1F93CF93DF93282F30E0F901EC511D
:1056B000FF4F8491F901E65DFE4FD491F901E05965
:1056C000FE4FC491CC23A1F0162F811148DFEC2F9F
:1056D000F0E0EE0FFF1FE053FE4FA591B4918FB79E
:1056E000F894EC91111108C0D095DE23DC938FBFA4
:1056F000DF91CF911F910895DE2BF8CFCF93DF93E9
:10570000282F30E0F901EC51FF4F8491F901E65D5B
:10571000FE4FD491F901E059FE4FC491CC2399F08A
:1057200081111DDFEC2FF0E0EE0FFF1FEA54FE4F5A
:10573000A591B491EC91ED2381E090E009F480E033
:10574000DF91CF91089580E090E0FACFFC01918D38
:10575000228D892F90E0805C9F4F821B91098F736F
:1057600099270895FC01918D828D981731F0828DD3
:10577000E80FF11D858D90E008958FEF9FEF08955C
:10578000FC01918D828D981761F0A28DAE0FBF2F15
:10579000B11D5D968C91928D9F5F9F73928F90E06B
:1057A00008958FEF9FEF0895FC01538D448D252FB1
:1057B00030E0842F90E0821B930B541710F0CF96AB
:1057C000089501970895FC01A48DA80FB92FB11D6C
:1057D000A35ABF4F2C91848D90E001968F73992727
:1057E000848FA689B7892C93A089B1898C91837005
:1057F00080648C93938D848D981306C00288F389FE
:10580000E02D80818F7D80830895CF93DF93EC011D
:10581000888D8823B1F0AA89BB89E889F9898C91A0
:1058200085FD03C0808186FD0CC00FB607FCF7CF55
:105830008C9185FFF2CF808185FFEDCFCE01C3DF54
:10584000EACFDF91CF910895EF92FF920F931F93CC
:10585000CF93DF93EC0181E0888F9B8D8C8D981323
:105860001AC0E889F989808185FF15C09FB7F8942F
:10587000EE89FF896083E889F9898081837080647B
:1058800080839FBF81E090E0DF91CF911F910F91C6
:10589000FF90EF900895F62E0B8D10E00F5F1F4FD5
:1058A0000F731127E02E8C8D8E110BC00FB607FCE5
:1058B000FACFE889F989808185FFF5CFCE0183DFB2
:1058C000F2CFEB8DEC0FFD2FF11DE35AFF4FF0826D
:1058D0009FB7F8940B8FEA89FB8980818062D0CFD3
:1058E000CF92DF92EF92FF921F93CF93DF93EC0161
:1058F0006A017B01122FE889F98982E08083C11453
:1059000081EED806E104F10499F060E079E08DE3DE
:1059100090E0A7019601B1D2215031094109510906
:105920005695479537952795211580E1380790F0D2
:10593000E889F989108260E874E88EE190E0A701B7
:1059400096019BD22150310941095109569547953D
:1059500037952795EC85FD853083EE85FF8520837F
:10596000188EEC89FD891083EA89FB89808180612A
:105970008083EA89FB89808188608083EA89FB894A
:10598000808180688083EA89FB8980818F7D808324
:10599000DF91CF911F91FF90EF90DF90CF9008950E
:1059A0001F920F920FB60F9211240BB60F922F93E6
:1059B0008F939F93EF93FF93E091B904F091BA0412
:1059C0008081E091BF04F091C00482FD1DC09081F0
:1059D0008091C2048F5F8F732091C304821741F0BE
:1059E000E091C204F0E0E755FB4F958F8093C2042D
:1059F000FF91EF919F918F912F910F900BBE0F9080
:105A00000FBE0F901F9018958081F2CF1F920F92BA
:105A10000FB60F9211240BB60F922F933F934F9313
:105A20005F936F937F938F939F93AF93BF93EF9306
:105A3000FF9389EA94E0C7DEFF91EF91BF91AF91A8
:105A40009F918F917F916F915F914F913F912F9196
:105A50000F900BBE0F900FBE0F901F901895E9EAA4
:105A6000F4E01382128288EE93E0A0E0B0E0848339
:105A70009583A683B78381EF92E09183808385EC41
:105A800090E09587848784EC90E09787868780EC08
:105A900090E0918B808B81EC90E0938B828B82ECF9
:105AA00090E0958B848B86EC90E0978B868B118EA3
:105AB000128E138E148E08951F920F920FB60F92AE
:105AC00011240BB60F922F938F939F93EF93FF9315
:105AD000E0915605F09157058081E0915C05F091C9
