:1000000005C1000034C1000032C1000030C1000051
:100010002EC100002CC100002AC1000028C1000030
:1000200026C1000024C1000022C1000020C1000040
:100030001EC100001CC100001AC1000018C1000050
:1000400016C1000014C1000012C1000010C1000060
:100050000EC100000CC100000AC100000C94602C0D
:1000600006C100000C94882F0C94BE2F00C1000024
:10007000FEC00000FCC00000FAC00000F8C0000094
:10008000F6C00000F4C00000F2C00000F0C00000A4
:100090000C9414300C944A30EAC00000E8C0000010
:1000A000E6C00000E4C00000E2C00000E0C00000C4
:1000B000DEC00000DCC00000DAC00000D8C00000D4
:1000C000D6C00000D4C00000D2C000000C94A03004
:1000D0000C94D630CCC000000C942C310C946231BE
:1000E000C6C0000000000A0B02090C0D0E08070331
:1000F00004010000000000000000000000000000FB
:1001000000000000000000000000000000000000EF
:1001100012111000000000000000000000000000AC
:100120000000000000000000000001021020200874
:100130000810204010204080020102010804020142
:1001400001020408102040808040201008040201B1
:10015000800402018040201008040201080402010A
:100160000102040810204080010204081020408091
:1001700005050505070508080808020202020A0A23
:100180000808040404040101010101010101030341
:10019000030303030303040707070C0C0C0C0C0CEC
:1001A0000C0C0202020206060606060606060B0BE9
:1001B0000B0B0B0B0B0B000020002300260029006B
:1001C0002C002F003200000100000301060109018C
:1001D00000002200250028002B002E0031003400F2
:1001E00002010000050108010B01000021002400AC
:1001F00027002A002D003000330001010000040117
:1002000007010A01E72F7330FF308B3111241FBE25
:10021000CFEFD1E2DEBFCDBF00E00CBF12E0A0E027
:10022000B2E0EEE8F9E600E00BBF02C007900D92E5
:10023000AC3CB107D9F728E0ACECB2E001C01D92AC
:10024000A730B207E1F711E0C6E0D1E000E006C058
:1002500021970109802FFE010E941E34C230D10770
:1002600080E00807A9F70E9472290C94C534C8CE13
:10027000CF92DF92EF92FF920F931F93E82FF92F07
:1002800005C0015011092109310961F190819623BE
:100290009417B9F305C0015011092109310911F171
:1002A000908196239413F7CFC12CD12CE12CF12C03
:1002B0000AC08FEFC81AD80AE80AF80A0C151D05FB
:1002C0002E053F0579F080818623841791F36C2DEC
:1002D0007D2D8E2D9F2D1F910F91FF90EF90DF9020
:1002E000CF90089560E070E080E090E01F910F9162
:1002F000FF90EF90DF90CF900895882311F1823026
:1003000071F08330A9F08130E1F426E030E040E87C
:1003100055E260E070E081E090E00C94592826E01E
:1003200030E040E855E260E070E082E090E0F5CF38
:1003300026E030E040E855E260E070E083E090E0E5
:10034000ECCF08954F925F926F927F928F929F921F
:10035000AF92BF92CF92EF92FF920F931F93CF93E2
:10036000DF93CDB7DEB72B013A01F02EB40130E0B8
:100370002830310511F424E030E00AE010E0CC2010
:1003800061F091E000E110E0C91639F0E2E008E028
:1003900010E0CE1611F002E010E0813009F4E8C060
:1003A000B0F0823009F4C5C1833009F4A3C2DF91F3
:1003B000CF911F910F91FF90EF90CF90BF90AF9092
:1003C0009F908F907F906F905F904F900895F11065
:1003D0001BC0269DA001279D500D369D500D112458
:1003E000B20180E595E0DF91CF911F910F91FF90D1
:1003F000EF90CF90BF90AF909F908F907F906F9035
:100400005F904F900C94B83180E595E00E94F431F4
:10041000E11014C0640C751C6414750441F2F201FF
:1004200061912F01F1E0A80180E595E0FF1203C082
:100430000E94C632F1CF0E94CC32EECF81E0E812AA
:1004400015C091E0691A710808F4B1CFF201619109
:1004500071912F01F1E0A80180E595E0FF1203C042
:100460000E94DC32EECF0E94E132EBCF82E0E81254
:1004700017C091E0691A710808F499CFF20141910F
:100480005191619171912F01F1E0980180E595E022
:10049000FF1203C00E94BA32ECCF0E94F132E9CFC2
:1004A00083E0E81218C0640C751C6414750409F428
:1004B0007ECFF20161912F01062E000C770BF1E047
:1004C000A80180E595E0FF1203C00E949432EDCFB1
:1004D0000E949A32EACF84E0E81215C091E0691ACE
:1004E000710808F464CFF201619171912F01F1E07C
:1004F000A80180E595E0FF1203C00E949432EECF80
:100500000E949A32EBCF85E0E81217C091E0691A99
:10051000710808F44CCFF2014191519161917191B0
:100520002F01F1E0980180E595E0FF1203C00E94E1
:100530004F32ECCF0E94AA32E9CF86E0E81237CFE3
:10054000B12C91E0691A710808F431CFF2014191A0
:100550005191619171912F01F1E0950180E595E054
:10056000FF1203C00E94DB33ECCF0E94DC33E9CFE3
:10057000F1100BC0269DA001279D500D369D500DFA
:100580001124B2018DEE95E02ECF8DEE95E00E9404
:10059000F431E11015C0640C751C4614570409F4BD
:1005A00006CFF20161912F01F1E0A8018DEE95E0F7
:1005B000FF1203C00E94C632F0CF0E94CC32EDCFB2
:1005C00081E0E81215C091E0691A710808F4EFCED5
:1005D000F201619171912F01F1E0A8018DEE95E09A
:1005E000FF1203C00E94DC32EECF0E94E132EBCF5B
:1005F00082E0E81217C091E0691A710808F4D7CEBA
:10060000F20141915191619171912F01F1E09801B5
:100610008DEE95E0FF1203C00E94BA32ECCF0E942B
:10062000F132E9CF83E0E81218C0640C751C641441
:10063000750409F4BCCEF20161912F01062E000C65
:10064000770BF1E0A8018DEE95E0FF1203C00E9448
:100650009432EDCF0E949A32EACF84E0E81215C0BE
:1006600091E0691A710808F4A2CEF20161917191CA
:100670002F01F1E0A8018DEE95E0FF1203C00E946A
:100680009432EECF0E949A32EBCF85E0E81217C089
:1006900091E0691A710808F48ACEF20141915191F2
:1006A000619171912F01F1E098018DEE95E0FF12BB
:1006B00003C00E944F32ECCF0E94AA32E9CF86E0FD
:1006C000E81275CEB12C91E0691A710808F46FCE6A
:1006D000F20141915191619171912F01F1E0FF126D
:1006E00014C0C11006C095018DEE95E00E94DB3369
:1006F000EACFCB01BA010E94752AAB01BC01980177
:100700008DEE95E00E944F32DECFC11006C09501FC
:100710008DEE95E00E94DC33D6CFCB01BA010E946A
:10072000752AAB01BC0198018DEE95E00E94AA32BA
:10073000CACFF1100BC0269DA001279D500D369DFC
:10074000500D1124B2018AE896E04DCE8AE896E079
:100750000E94F431E11015C0640C751C4614570456
:1007600009F425CEF20161912F01F1E0A8018AE898
:1007700096E0FF1203C00E94C632F0CF0E94CC3236
:10078000EDCF81E0E81215C091E0691A710808F414
:100790000ECEF201619171912F01F1E0A8018AE87A
:1007A00096E0FF1203C00E94DC32EECF0E94E132DD
:1007B000EBCF82E0E81217C091E0691A710808F4E3
:1007C000F6CDF20141915191619171912F01F1E0CA
:1007D00098018AE896E0FF1203C00E94BA32ECCF7B
:1007E0000E94F132E9CF83E0E81218C0640C751C56
:1007F0006414750409F4DBCDF20161912F01062E1A
:10080000000C770BF1E0A8018AE896E0FF1203C024
:100810000E949432EDCF0E949A32EACF84E0E8122F
:1008200015C091E0691A710808F4C1CDF201619117
:1008300071912F01F1E0A8018AE896E0FF1203C050
:100840000E949432EECF0E949A32EBCF85E0E812FC
:1008500017C091E0691A710808F4A9CDF20141911D
:100860005191619171912F01F1E098018AE896E030
:10087000FF1203C00E944F32ECCF0E94AA32E9CF90
:1008800086E0E81294CDB12C91E0691A710808F461
:100890008ECDF20141915191619171912F01F1E061
:1008A000FF1214C0C11006C095018AE896E00E94AC
:1008B000DB33EACFCB01BA010E94752AAB01BC0140
:1008C00098018AE896E00E944F32DECFC11006C040
:1008D00095018AE896E00E94DC33D6CFCB01BA01BD
:1008E0000E94752AAB01BC0198018AE896E00E943B
:1008F000AA32CACFF1100BC0269DA001279D500D32
:10090000369D500D1124B20187E297E06CCD87E24D
:1009100097E00E94F431E11015C0640C751C64145A
:10092000750409F444CDF20161912F01F1E0A801B1
:1009300087E297E0FF1203C00E94C632F0CF0E9408
:10094000CC32EDCF81E0E81215C091E0691A710850
:1009500008F42DCDF201619171912F01F1E0A80110
:1009600087E297E0FF1203C00E94DC32EECF0E94C4
:10097000E132EBCF82E0E81217C091E0691A71080A
:1009800008F415CDF20141915191619171912F01BE
:10099000F1E0980187E297E0FF1203C00E94BA32AB
:1009A000ECCF0E94F132E9CF83E0E81218C0640C6A
:1009B000751C6414750409F4FACCF20161912F01DD
:1009C000062E000C770BF1E0A80187E297E0FF12FA
:1009D00003C00E949432EDCF0E949A32EACF84E0A5
:1009E000E81215C091E0691A710808F4E0CCF20130
:1009F000619171912F01F1E0A80187E297E0FF1268
:100A000003C00E949432EECF0E949A32EBCF85E071
:100A1000E81217C091E0691A710808F4C8CCF20115
:100A200041915191619171912F01F1E0980187E21B
:100A300097E0FF1203C00E944F32ECCF0E94AA320F
:100A4000E9CF86E0E812B3CCB12C91E0691A7108C5
:100A500008F4ADCCF20141915191619171912F0156
:100A6000F1E0FF1214C0C11006C0950187E297E0C3
:100A70000E94DB33EACFCB01BA010E94752AAB0199
:100A8000BC01980187E297E00E944F32DECFC1108F
:100A900006C0950187E297E00E94DC33D6CFCB01F8
:100AA000BA010E94752AAB01BC01980187E297E068
:100AB0000E94AA32CACFCF93C62F61E00E94CD2DEB
:100AC00060E08C2FCF910C94CD2D4F925F926F925E
:100AD0007F92AF92BF92CF92DF92EF92FF920F93ED
:100AE0001F93CF93DF935C01162FC42FD22F611178
:100AF00004C061E0842F0E94CD2D60E08C2F0E9405
:100B0000092E0E94AA2C2B013C010E94AA2C6419D8
:100B10007509860997096630710581059105A8F365
:100B200061E08C2F0E94092E0E94AA2C2B013C010F
:100B3000C02ED12CF12CE12C0E94AA2C641975092D
:100B400086099709C616D706E806F906A8F760E0F1
:100B50008C2F0E94092E111104C060E08D2F0E947D
:100B6000CD2D20E432E44FE050E061E08D2F0E9473
:100B7000362EF5016083718382839383DF91CF9159
:100B80001F910F91FF90EF90DF90CF90BF90AF90AB
:100B90007F906F905F904F90089590E080E008956F
:100BA0000F931F93009709F487C06115710509F42D
:100BB00083C0009100021091010220910202309145
:100BC00003020E3F1F4F2F4F3F4F09F066C04FEFFC
:100BD0005FEFBA014093000250930102609302025A
:100BE0007093030240910002509101026091020251
:100BF00070910302DC011296ED91FC91808191814C
:100C0000A281B38180933A0390933B03A0933C036A
:100C1000B0933D0384819581A681B781809336038B
:100C200090933703A0933803B0933903808591855F
:100C3000A285B3858093320390933303A09334034A
:100C4000B093350384859585A685B78580932E035B
:100C500090932F03A0933003B093310310922A0393
:100C600010922B0310922C0310922D032BD687E8A1
:100C70009CE09093CD028093CC029093CF0280931E
:100C8000CE020FD5009731F421E030E030933F03DE
:100C900020933E031F910F9108950091000210913F
:100CA00001022091020230910302DB010D931D939A
:100CB0002D933C93139796CF8FEF9FEFEBCF8F92AF
:100CC0009F92AF92BF92CF92DF92EF92FF921F93CB
:100CD000CF93DF934B015C011091410382E090E0E0
:100CE00090933F0380933E0381149104A104B104C7
:100CF00041F480914103811104C080914003C1E01F
:100D00008111C0E0C12CD12C760180914103811169
:100D100006C080914003811102C0CC23D9F083E04A
:100D200090E090933F0380933E03CC2379F1CCE98C
:100D3000DFEF111102C00E94EB0FCE01DF91CF91C6
:100D40001F91FF90EF90DF90CF90BF90AF909F905A
:100D50008F9008956AE070E080E090E00E94CF2CD0
:100D600080E1C80E87E2D81EE11CF11C8FEF8816C7
:100D70009806A806B80631F0C1E08C149D04AE04B4
:100D8000BF0408F0C0E080E0C0D4BFCFD0E0C0E036
:100D9000D0CFCF92DF92EF92FF920F931F93CF931A
:100DA000DF938F3F910511F008F050C020913E0372
:100DB00030913F032330310539F020913E033091CB
:100DC0003F032130310531F424E030E030933F031C
:100DD00020933E036A017B01EC0182309105A0F073
:100DE00011E0AE01C701B6015BD4AB01BC01CE017D
:100DF0001123F9F0DF91CF911F910F91FF90EF90A8
:100E0000DF90CF900C9414128C01000F111F04532B
:100E10001D4FD8018D919C91892B11F30E941E12B8
:100E20000297F1F6D801ED91FC91CE011995182F9A
:100E3000D8CF0E94361290E080E0DF91CF911F91D1
:100E40000F91FF90EF90DF90CF9008958FEF9FEF7D
:100E5000F4CF80E05AC4CF93DF9386E090E0909384
:100E60003F0380933E03AAD4EC01ECECF2E084E073
:100E7000DF011D928A95E9F70E94830F10923F03CC
:100E800010923E03CE01DF91CF91089580914003EF
:100E900008958091290308956093000270930102E0
:100EA000809302029093030290E080E00895CF9235
:100EB000DF92EF92FF926B017C019F7720E030E0A0
:100EC00040E859E50E94712A87FF2BC020E030E0FE
:100ED00040E05FE3C701B6010E94F92B87FD0EC019
:100EE00020E030E040E05FE3C701B6010E94FA294C
:100EF000FF90EF90DF90CF900C94E32A20E030E059
:100F000040E05FEBC701B6010E94F92B181684F48C
:100F100020E030E0A901C701B6010E94FD2B6B0162
:100F20007C01C701B601FF90EF90DF90CF9008954C
:100F300020E030E040E05FE3C701B6010E94F929FC
:100F4000FF90EF90DF90CF900C945E2A8F929F924B
:100F5000AF92BF92CF92DF92EF92FF920F93CF9317
:100F6000DF9300D01F921F92CDB7DEB78091EC07C0
:100F700081111092EC070AE023E042E061E0CE012B
:100F80000196A3DD69817A818B819C810E94A62ACA
:100F90002EEA34ED43EB59E30E94FD2B20E030E0D4
:100FA00040E05FE30E94FD2B6B017C01C092C4070F
:100FB000D092C507E092C607F092C7078090090358
:100FC00090900A03A0900B03B0900C03A50194012C
:100FD0006091CE077091CF078091D0079091D10793
:100FE0000E94712A882341F08092CE079092CF0709
:100FF000A092D007B092D107C701B6010E94E32AA0
:101000006B017C0145D281119AC0C701B601FBD1A9
:10101000811195C020E030E040E853E4C701B601FB
:101020000E94FD2A6B017C0120E030E0A9010E94B2
:10103000712A87FF87C0C701B60190580E947A2A9B
:1010400061956D836091E2077091E3078091E407F9
:101050009091E5070E947A2AC62E6091DA07709176
:10106000DB078091DC079091DD070E947A2AE62E4B
:101070006091DE077091DF078091E0079091E107B2
:101080000E947A2A062F6091D6077091D707809127
:10109000D8079091D9070E947A2AF62E6091D2073C
:1010A0007091D3078091D4079091D5070E947A2A36
:1010B000862F912C812C92E0A92E2F2D41E050E01B
:1010C000BE016B5F7F4F3ED96091FC027091FD02C3
:1010D0008091FE029091FF026F5F7F4F8F4F9F4F75
:1010E0006093FC027093FD028093FE029093FF02D6
:1010F0000E94A62A9B01AC0160910003709101033C
:1011000080910203909103030E94FD2B6093F802EB
:101110007093F9028093FA029093FB020F900F9064
:101120000F900F900F90DF91CF910F91FF90EF9064
:10113000DF90CF90BF90AF909F908F900895C12C7B
:10114000D12C7601C701B6010E947A2A7ACFCF92BC
:10115000DF92EF92FF9284E090E01ED180E090E079
:10116000A0E8BFEB8093040390930503A0930603CC
:10117000B09307038DEC9CECACECBDE380930003D3
:1011800090930103A0930203B09303038BE690EACC
:10119000A0EDBFE08093E6029093E702A093E802FF
:1011A000B093E90281EB97E6A6E5B4E78093EA0203
:1011B0009093EB02A093EC02B093ED028AE991E8E0
:1011C000ACE3B1E38093EE029093EF02A093F002C0
:1011D000B093F10282EA97EAAAE6B6E98093F202B6
:1011E0009093F302A093F402B093F50286ED92E09F
:1011F0009093E5028093E40280ED92E09093D70211
:101200008093D60289E292E09093D1028093D0023B
:101210009093D3028093D2029093D5028093D4020C
:1012200086EF92E09093DB028093DA0286EE92E002
:101230009093D9028093D80288EF92E09093DD02D8
:101240008093DC02C12CD12C7601C394C092E807B4
:10125000D092E907E092EA07F092EB0763E082E0C0
:101260002ADC1092EC071092C80780910903909134
:101270000A03A0910B03B0910C038093CE079093C7
:10128000CF07A093D007B093D107C092C907D092DF
:10129000CA07E092CB07F092CC0780E090E0A0E490
:1012A000B0E48093D2079093D307A093D407B09370
:1012B000D50740E050E060E87FE34093D6075093C5
:1012C000D7076093D8077093D9078093DA07909374
:1012D000DB07A093DC07B093DD071092DE071092C6
:1012E000DF071092E0071092E1071092E2071092D8
:1012F000E3071092E4071092E507BC01CD01D7DDAA
:101300006B017C0120E030E040E853E40E94712A48
:1013100087FF18C020E030E0A901C701B6010E9494
:10132000F92B87FD11C0C701B6010E947A2A862FCA
:101330000E947D0181E08093CD07FF90EF90DF90C8
:10134000CF9008958FEFF4CF80E0F2CF8091C8075F
:10135000811103C081E08093C807089560E070E0C8
:1013600080E89FE7089560E070E080E89FE70895D7
:1013700060E070E080E89FEF089560E070E080E852
:101380009FEF089560E070E080EC9FEF089560E0CB
:1013900070E080EC9FEF0895F5DF6093F90770939C
:1013A000FA078093FB079093FC07F1DF6093ED074A
:1013B0007093EE078093EF079093F007CFDF609371
:1013C000F5077093F6078093F7079093F807CBDF44
:1013D0006093F1077093F2078093F3079093F407FB
:1013E000C7DF6093FD077093FE078093FF0790931C
:1013F0000008C3DF6093010870930208809303081C
:10140000909304080895CF92DF92EF92FF92CF93CA
:101410006B017C01AC019B016091F5077091F607AF
:101420008091F7079091F8070E94712AC1E0882304
:1014300071F0A70196016091FD077091FE07809100
:10144000FF07909100080E94712A8111C0E08C2F43
:10145000CF91FF90EF90DF90CF9008950F931F935F
:101460008B019C010027112720783F77011511057A
:1014700020483F4749F4AB01BC016F77772781E0F3
:10148000452B462B472B09F480E01F910F910895BF
:10149000E5CF4F925F926F927F928F929F92AF9221
:1014A000BF92CF92DF92EF92FF920F931F93F89427
:1014B0004090190350901A0360901B0370901C0316
:1014C000C0900D03D0900E03E0900F03F090100336
:1014D000452B09F0A6C09B01AC012419350946092A
:1014E000570929013A010091150310911603209123
:1014F00017033091180348015901840C951CA61C50
:10150000B71C80169106A206B306A0F40091110341
:101510001091120320911303309114030F5F1F4F9A
:101520002F4F3F4F00931103109312032093130387
:10153000309314038092150390921603A092170320
:10154000B09218030091110310911203209113031C
:101550003091140380921D0390921E03A0921F03EA
:10156000B0922003009321031093220320932303BE
:10157000309324036093190370931A0380931B0321
:1015800090931C03A301920160EA76E881E090E069
:101590000E94ED336C0D7D1D8E1D9F1D60930D030C
:1015A00070930E0380930F03909310030091000239
:1015B0001091010220910202309103020F3F1F4F50
:1015C0002F4F3F4FF1F00091000210910102209146
:1015D0000202309103020E3F1F4F2F4F3F4F89F001
:1015E000C0900002D0900102E0900202F09003024D
:1015F00021E08C149D04AE04BF0408F420E0209385
:10160000290378941F910F91FF90EF90DF90CF9076
:10161000BF90AF909F908F907F906F905F904F9012
:1016200008954B015C0184189508A608B708A3012A
:101630009201261B370B480B590B6415750586055F
:101640009705E0F082169306A406B50640F420E064
:1016500030E0A90181149104A104B104A1F460EA6D
:1016600076E881E090E00E94ED33A7019601261B09
:10167000370B480B590BCA01B901C3CF8216930629
:10168000A406B50660F7A501940160EA76E881E05A
:1016900090E00E94ED336C0D7D1D8E1D9F1DB1CF1E
:1016A000F8CECF93DF9300D01F92CDB7DEB71C8268
:1016B0001B821A821982109225031092260310921F
:1016C000270310922803BE016F5F7F4FCE01039660
:1016D0000E94432869817A818B819C810E943321F9
:1016E000009761F4BE016F5F7F4FCE0103960E94A9
:1016F0004F2869817A818B819C812ED50F900F9024
:101700000F900F90DF91CF910895FF920F931F9349
:10171000CF93DF93082F60E070E0CB010E94CF2CC5
:10172000FF24F3940E941C20EC01892B89F010E027
:10173000CE3F8FEFD80769F0002361F160E070E0E1
:10174000CB010E94CF2C81E090E0892B59F322C07D
:1017500011E025D5EC01892B21F0CE3F8FEFD80782
:1017600059F711111EC011E0229609F410E00E94F1
:10177000CC1FEC01892B21F0CE3F8FEFD807E1F68B
:10178000111111C011E0CE3F8FEFD80709F410E01E
:1017900001110BC0CE01DF91CF911F910F91FF90EE
:1017A000089511E0E4CF11E0F3CF60E070E0CB01E9
:1017B0000E94CF2C1F25812F90E0C7CFCF93DF93BE
:1017C00080912903882321F060E070E0CB014CD6A2
:1017D00035D6D0E0C0E0892B71F06AE070E080E09F
:1017E00090E00E94CF2C81E090DF28D62196C03D6A
:1017F00027E0D20781F727D60E9487211092410364
:101800001092400310923A0310923B0310923C0353
:1018100010923D0310923603109237031092380352
:101820001092390310923203109233031092340352
:101830001092350310922E0310922F031092300352
:101840001092310310922A0310922B0310922C0352
:1018500010922D034EEF5FEF6FEF7FEF409300028A
:1018600050930102609302027093030210922903C5
:10187000EDE1F3E028E0DF011D922A95E9F71092EF
:10188000190310921A0310921B0310921C0310925A
:10189000150310921603109217031092180310925A
:1018A000110310921203109213031092140310925A
:1018B0000D0310920E0310920F0310921003DF918C
:1018C000CF91089510924D0310924E0310924F0342
:1018D0001092500310924C0380915503909156033F
:1018E00090934B0380934A0310924903109248034C
:1018F000109244031092450310924603109247033E
:10190000109252031092510390E080E00895CF921C
:10191000DF92EF92FF920F931F93CF938C01892B4D
:1019200009F055C0209155033091560380914A0328
:1019300090914B03409155035091560350934B03A4
:1019400040934A032817390781F0109249031092F7
:1019500048031092440310924503109246031092DC
:1019600047031092520310925103809155039091B6
:101970005603019761F58091510390915203892B91
:1019800021F480910402811112C080915103909141
:1019900052030197E1F48091440390914503A09193
:1019A0004603B09147030197A105B10581F4109258
:1019B000440310924503109246031092470310927D
:1019C000040282E090E0909352038093510380914F
:1019D000550390915603019709F01CC180916B0348
:1019E00090916C038017910709F014C180916703EF
:1019F00090916803A0916903B0916A03009709F47C
:101A000009C12091660321110DC0409167035091D7
:101A100068036091690370916A03452B462B472B3D
:101A200009F4F8C02091510330915203223031055E
:101A300009F0F0C0209148032111ECC0FC01C080E6
:101A4000D180E280F38080914C03882309F4D3C0D5
:101A50008091580390915903892B09F4FDC020917E
:101A600058033091590381E02230310509F080E0BC
:101A70002091580330915903C1E02130310549F0DC
:101A80002091580330915903C1E02230310509F00B
:101A9000C0E0882309F456C02091620330916303AB
:101AA0004091640350916503C701B6010E94F92B70
:101AB00087FD14C020916203309163034091640359
:101AC0005091650360914D0370914E0380914F03D7
:101AD000909150030E94712A87FD22C020916203D9
:101AE000309163034091640350916503C701B601CF
:101AF0000E94F92B181634F520916203309163038C
:101B0000409164035091650360914D0370914E03C1
:101B100080914F03909150030E94712A811112C04D
:101B200080915A0390915B03A0915C03B0915D0397
:101B3000892B8A2B8B2B19F481E08093490381E058
:101B400080934803CC2309F456C02091620330915E
:101B500063034091640350916503C701B6010E947D
:101B6000712A87FF14C02091620330916303409172
:101B700064035091650360914D0370914E03809111
:101B80004F03909150030E94F92B87FF22C02091B0
:101B90006203309163034091640350916503C70170
:101BA000B6010E94712A811126C0209162033091F2
:101BB0006303409164035091650360914D037091FC
:101BC0004E0380914F03909150030E94F92B1816F9
:101BD00094F480915A0390915B03A0915C03B091BF
:101BE0005D03892B8A2B8B2B19F481E080934903A9
:101BF00081E08093480381E090914803911180E057
:101C000080934C03C0924D03D0924E03E0924F0359
:101C1000F0925003012B09F067C18091510390911C
:101C20005203892BD9F410925703109248038091E4
:101C30000402882379F082E090E09093520380932D
:101C4000510310920402209155033091560381E014
:101C5000232BE9F080E01BC081E00ACF1092040240
:101C600080915703882349F0109249031092520340
:101C70001092510310925703EDCF8091550390912C
:101C80005603892BE1F0809148031092480320917C
:101C90005103309152032230310509F45EC088F4BB
:101CA0002115310509F448C02130310509F4F3C08C
:101CB00010924903109248031092570338C081E0F4
:101CC000E6CF2330310509F4B1C02430310581F766
:101CD000409144035091450360914603709147033E
:101CE000411551056105710561F0415051096109C6
:101CF00071094093440350934503609346037093E6
:101D0000470340914403509145036091460370910D
:101D10004703452B462B472BD9F420915303309191
:101D200054032130310509F046C010924903109246
:101D30005203109251030CC080910402882341F099
:101D400082E090E09093520380935103109204023A
:101D50001092420380914903CEC08823C9F3809139
:101D60005A0390915B03A0915C03B0915D03181638
:101D700019061A061B060CF07DC080915503909140
:101D80005603019709F076C080915A0390915B0346
:101D9000A0915C03B0915D0380934403909345034D
:101DA000A0934603B093470383E090E090935203DF
:101DB00080935103CDCF40915E0350915F036091BA
:101DC000600370916103452B462B472BA9F01092BD
:101DD000490380915E0390915F03A0916003B091ED
:101DE00061038093440390934503A0934603B0930B
:101DF000470381E090E0DACF882399F080910502D3
:101E000090910602A0910702B091080280934403CA
:101E100090934503A0934603B093470384E090E07A
:101E2000C5CF1092490382E090E0C0CF8091440377
:101E300090914503A0914603B09147030097A105F7
:101E4000B10559F00197A109B1098093440390931A
:101E50004503A0934603B0934703809144039091B8
:101E60004503A0914603B0914703892B8A2B8B2B06
:101E700009F06ECF8091050290910602A0910702B1
:101E8000B0910802892B8A2B8B2B09F44ECF81E06D
:101E900080934903B3CF409144035091450360912F
:101EA000460370914703411551056105710561F0C5
:101EB000415051096109710940934403509345030E
:101EC0006093460370934703409144035091450348
:101ED0006091460370914703452B462B472B09F031
:101EE00037CF8111C7CF9FCF80914203882309F458
:101EF00031CF80914303CF911F910F91FF90EF90CD
:101F0000DF90CF90089510924D0310924E031092DF
:101F10004F031092500310924C03109252031092F0
:101F2000510310924B0310924A0310926C031092CB
:101F30006B031092490310924803109244031092CD
:101F400045031092460310924703109243031092E8
:101F50004203109267031092680310926903109273
:101F60006A03109266031092620310926303109248
:101F700064031092650388EE93E0A0E0B0E08093E4
:101F8000050290930602A0930702B09308021092F4
:101F90005E0310925F03109260031092610310922F
:101FA0005A0310925B0310925C0310925D0310922F
:101FB00059031092580381E0809304021092570352
:101FC000109256031092550310925403109253032B
:101FD00090E080E008958091550390915603892BFD
:101FE00019F580910402882351F0809157038111E3
:101FF00006C081E0809343038093420308952091BB
:1020000057033091040281E090E0332311F090E017
:1020100080E030E082239323892B21F01092430348
:1020200081E0EACF10924203089582E090E0FA0145
:10203000918380838FEF9FEF0895CF93DF93EA0121
:10204000009711F00E94A7221982188290E080E088
:10205000DF91CF910895DB01009719F48FEF8C93F6
:1020600008952EEF2C93FC013F96EF30F10508F018
:1020700034C08827E15CFF4E8F4F0C941E346B10E8
:1020800069106710651063105F1061105D105B10C0
:102090005910561052104E1054106D1080E31196C6
:1020A0008C93089589E2FBCF82E2F9CF11961C92BE
:1020B000089583E2F4CF81E2F2CF81E1F0CF87E2AD
:1020C000EECF8AE2ECCF80E1EACF84E2E8CF88E28B
:1020D000E6CF86E2E4CF81E3E2CF80E2E0CF8091F9
:1020E000790390917A03089590937A03809379030A
:1020F000089580917803089590917803892B8093B7
:1021000078030895982F9095809178038923809380
:1021100078030895809177030895809175039091D5
:10212000760308956115710559F0FB0130E020E058
:1021300070E060E02417350719F06115710511F0A2
:10214000CB010895A081B181A817B90709F4BF0197
:102150002F5F3F4F3696EECF80917B0381111CC0DD
:1021600060D266D290936E0380936D030E94B31A7F
:102170000E94C51A90937203809371030E94341FCA
:102180000E943B1F9093700380936F0381E08093C4
:102190007B0390E080E0089584EF9FEF08958F9295
:1021A0009F92AF92BF92CF92DF92EF92FF920F93E6
:1021B0001F93CF93DF9300D000D000D01F92CDB7F4
:1021C000DEB71A86198618861F821E821D821C821F
:1021D0001B821A82198280917B0307EF1FEF8823ED
:1021E00009F49CC08E010D5F1F4F9E012B5F3F4F76
:1021F000AE01495F5F4FBE01675F7F4F90E080E0B7
:102200000E94B8208C01009721F00596029708F0F3
:10221000DBC029853A852115310509F402C1ED801D
:10222000FE804B815C81B701640F751F8F8198859B
:102230008617970708F4F5C0E20EF31ED7019C91AC
:10224000903C09F07FC04230510508F47BC01196E4
:102250008C914091790350917A03452B09F49CC0ED
:10226000913F08F071C02CE1290F2D3008F48BC08C
:102270002DE2290F203108F489C0903C21F48150CF
:10228000823008F483C088E3890F8B3008F481C062
:102290009BE2C92E90E1D92EE5E1F0E16D817E81CE
:1022A000AE014F5F5F4F89859A8519955C01C11416
:1022B000D104A1F189809A808114910479F18B81F4
:1022C0009C818815990508F487C010E000E04B81D7
:1022D0005C8170E060E0C7010E94BE340115110509
:1022E000E9F449815A8169857A858D819E81680FDB
:1022F000791FC501F6011995E980FA800D811E81CB
:102300002F81388549855A856FEF7FEF81E090E016
:102310000E9453208C01892B09F056C0C8012A96CF
:102320000FB6F894DEBF0FBECDBFDF91CF911F91E6
:102330000F91FF90EF90DF90CF90BF90AF909F9064
:102340008F90089580E085CF30E020E0220F331F8A
:10235000F901E359FC4F0190F081E02D309709F429
:1023600097CF892F90E01995009709F491CFDC0160
:102370001296ED91FC9113971496CD90DC903097C6
:1023800009F08CCF1FC021E030E0E0CF22E030E048
:10239000DDCF23E030E0DACFD12CC12CEDE1F0E14C
:1023A0009F3F09F07BCFE0916D03F0916E03309772
:1023B00021F4C90104EF1FEF0CC08FEF90E01995D5
:1023C0000097A9F604EF1FEF89859A85009709F415
:1023D000A5CF0E94A722A2CF0E9482218C018985CD
:1023E0009A850E94A72270E060E0C4010E941B2130
:1023F00098878F830E9450209E838D836F8178857C
:102400006115710559F0C8010E9433249A878987A4
:1024100006EF1FEF892B09F058CF59CF08EF1FEFB8
:1024200056CF08EF1FEFD0CF20917B03222319F066
:1024300020E00C94CA1A87EF9FEF089580917903EA
:1024400090917A0308950E94401F0E949A1EF5D031
:10245000EDE6F3E088E0DF011D928A95E9F710923E
:102460007B0390E080E008950C94F81C21E040E0AC
:1024700050E0BA010C94CA1A86E090E0FA01918308
:10248000808390E080E0089547E050E06CE272E0E5
:1024900049CEDF92EF92FF920F931F93CF93DF937A
:1024A0008A01EC01C60FD71FE0907F03F0908003F4
:1024B000D9800E946A21D816190678F082E090E04F
:1024C000F801918380838EEF9FEFDF91CF911F9171
:1024D0000F91FF90EF90DF900895EF2841F482E094
:1024E00090E0F8019183808384EF9FEFEECF8981A4
:1024F00080937E0390E00196F8019183808390E0C1
:1025000080E0E3CFCF93DF93EA010E94A91D8823E7
:1025100021F00E9477210E94AA1D82E090E0998319
:1025200088838BEF9FEFDF91CF910895CF93DF9357
:10253000EB0186E0FB0111928A95E9F78FEF888322
:10254000D8DD8983E7DD8A83E8DD9D838C83DF9195
:10255000CF910895CF93DF93EA010E94AC1D8111C2
:1025600009C082E090E09983888385EF9FEFDF9137
:10257000CF91089590E080E0B7DD81E090E099830D
:10258000888390E080E0F3CF0F931F93CF93DF9386
:10259000EA018C01060F171F0E94AC1D81110BC0B0
:1025A00082E090E09983888385EF9FEFDF91CF9160
:1025B0001F910F910895F8018181823038F082E0F7
:1025C00090E0998388838EEF9FEFF0CF81E090E0D9
:1025D0008BDD88E090E09983888390E080E0E6CF0F
:1025E000CF93DF930097D1F4EB01FB01329686E0A5
:1025F000DF011D928A95E9F78FEF888385E0898353
:102600001A820E946A218B830E9469219D838C8398
:1026100081E08E838F83DF91CF910895DF91CF91F9
:102620001ACD84E492E190937D0380937C03089516
:1026300080917C0390917D03089510927D03109208
:102640007C03089580917F03909180030895411148
:1026500005C0611571058105910561F060937F03E7
:10266000709380038093810390938203409383034C
:1026700081E0089580E00895FF920F931F93CF9318
:10268000DF938A01EC01C60FD71FF9800E946A21EF
:10269000F816190668F082E090E0F80191838083D3
:1026A0008EEF9FEFDF91CF911F910F91FF900895D3
:1026B0006C817D818E819F814B81C9DF811108C032
:1026C00082E090E0F8019183808384EF9FEFEACF6E
:1026D000898180937E0390E00196F8019183808345
:1026E00090E080E0DFCFCF93DF93EA01FC01E60FBB
:1026F000F71F64817581868197814381A8DF8111ED
:1027000009C082E090E09983888384EF9FEFDF9196
:10271000CF91089581E090E09983888390E080E0F4
:10272000F6CFEFE7F3E04081518162817381480F7A
:10273000511D611D711D4083518362837383089510
:10274000CF93C0917E034C2F50E060917F03709136
:10275000800301960E94B5348C2FE3DF10927E0334
:10276000CF910895009799F480917F039091800311
:102770002FEFFB012083892B59F020917E0330E05D
:102780002F5F3F4F2417350719F4CB01D9CF63CC06
:102790000895009799F480917F03909180032FEF23
:1027A000FB012083892B59F020917E0330E02F5FBD
:1027B0003F4F2417350719F4CB01C2CF4CCC0895F5
:1027C00023E1AC01249FC001259F900D1124E091CD
:1027D0008803F0918903E80FF91F23813481225087
:1027E000310981E02230310508F080E008950F932F
:1027F0001F93CF93DF9300918A0310918B03D0E056
:10280000C0E080E00C171D0749F491E0811190E0D1
:10281000892FDF91CF911F910F9108958111F5CFED
:10282000CE01CEDF2196EECFA0918803B09189032F
:10283000109729F120918A0330918B038217930717
:10284000F0F453E1589F9001599F300D1124A20FCD
:10285000B31FED91FC911197309789F012968C91EE
:10286000681768F48BE0689FE00DF11D11248081EA
:102870009181892B21F081E09281491708F080E055
:1028800008959C0143E1429FC001439F900D112494
:10289000E0918803F0918903E80FF91F8385823066
:1028A00091F481E090E06581768140910902509138
:1028B0000A026417750711F490E080E0892B19F083
:1028C00081E0232B09F080E00895EF92FF920F93AF
:1028D0001F93CF93DF93EA01FC01E60FF71F0281FC
:1028E0001381E480F5804F2D6E2DC8019DDF81118D
:1028F0000DC082E090E0998388838EEF9FEFDF9197
:10290000CF911F910F91FF90EF900895C80158DF6C
:10291000882339F082E090E09983888388EF9FEFE5
:10292000EECF1093100200930F02E0921102F0928A
:10293000120281E090E09983888390E080E0DFCF0D
:10294000CF92DF92EF92FF920F931F93CF93DF937B
:102950007A01EC01C60FD71FC0900F02D090100271
:102960000091110210911202412F602FC6015CDF0D
:10297000811110C082E090E0F701918380838AEF9B
:102980009FEFDF91CF911F910F91FF90EF90DF901C
:10299000CF900895C60114DF882341F082E090E0D3
:1029A000F7019183808388EF9FEFEBCF4C815D81AE
:1029B0006E817F819A8189818F3F41F082E090E032
:1029C000F701918380838EEF9FEFDBCFE3E1EC9DF6
:1029D0009001ED9D300D1124E0918803F091890361
:1029E000E20FF31F0190F081E02D2BE0029FE00D3C
:1029F000F11D11240190F081E02D27E0129FE00DE0
:102A0000F11D1124808391838B81828343835483BE
:102A1000658376831F5F1093120281E090E0F701D7
:102A20009183808390E080E0ACCFEF92FF920F9390
:102A30001F93CF93DF937A018C01060F171FC0916C
:102A40008803D0918903209781F021E030E0F801DC
:102A50008281938140918A0350918B03841795075B
:102A600010F030E020E0232B71F482E090E0F701D9
:102A7000918380838EEF9FEFDF91CF911F910F9114
:102A8000FF90EF90089543E1489F9001499F300DDA
:102A90001124C20FD31F94DE882341F082E090E01E
:102AA000F7019183808388EF9FEFE6CFF8012481BF
:102AB000358120383105C8F687818111D6CF418113
:102AC000842F90E08F7E009741F082E090E0F70144
:102AD0009183808386EF9FEFCFCF4F833E832D83FB
:102AE000268128871986223010F421E0288721E0EA
:102AF00030E0F70131832083BFCF88E090E0FA0116
:102B00009183808390E080E00895FB018FEF8083C4
:102B100081E181838FEF9FEF9383828380E890E050
:102B200095838483168217820895FB018FEF80833B
:102B300091E0918382839383848384E3858381E01E
:102B400090E0978386830895DF92EF92FF920F9330
:102B50001F93CF93DF93EA01FC01E60FF71F8181FA
:102B6000813071F082E090E0998388838FEF9FEF4E
:102B7000DF91CF911F910F91FF90EF90DF9008951B
:102B800082819381D4802581E680F780009188033B
:102B9000109189030115110539F482E090E09983C1
:102BA00088838CEF9FEFE4CF40918A0350918B0391
:102BB0008417950738F082E090E0998388838EEF40
:102BC0009FEFD6CF892B39F082E090E099838883FC
:102BD00086EF9FEFCDCF8D2D8D7FB1F72130A1F7FF
:102BE00081E0D11006C091E0E916F10431F080E0F7
:102BF00004C0E2E0EE16F104D0F3882329F390E05C
:102C000080E0DEDD882339F082E090E099838883DC
:102C100088EF9FEFADCFF801D38681E08487F686F9
:102C2000E586108A178681E090E09983888390E09A
:102C300080E09ECF4CE050E066E572E073CA8F9270
:102C40009F92BF92CF92DF92EF92FF920F931F93CA
:102C5000CF93DF93EA01FC01E60FF71F8281938196
:102C60000481B580E0918803F0918903309791F455
:102C700082E090E0998388838CEF9FEFDF91CF9182
:102C80001F910F91FF90EF90DF90CF90BF909F909A
:102C90008F90089520918A0330918B0382179307B8
:102CA00038F082E090E0998388838EEF9FEFE6CF43
:102CB00023E1289F6001299FD00C1124EC0DFD1DFC
:102CC000E080F180E114F10499F28281081748F75D
:102CD0008BE0089F80011124E00EF11EF701808136
:102CE0009181892B29F6BB20E1F2F7E0BF9E4001DC
:102CF0001124C4010E946E22F70191838083E09128
:102D00008803F0918903EC0DFD1D0190F081E02D09
:102D1000E00FF11F80819181009739F482E090E00B
:102D2000998388838DEF9FEFA9CFA40170E060E0C5
:102D30000E94BE348091880390918903C80ED91EE9
:102D4000F60180819181080F191FF801B28281E09C
:102D500090E09983888390E080E090CFAF92BF921B
:102D6000CF92DF92FF920F931F93CF93DF93EA01ED
:102D7000FC01E60FF71F82819381F48000918803A4
:102D8000109189030115110581F482E090E0998387
:102D900088838CEF9FEFDF91CF911F910F91FF9070
:102DA000DF90CF90BF90AF90089520918A0330912B
:102DB0008B038217930738F082E090E09983888331
:102DC0008EEF9FEFE8CF2FEF2F0D2C3FA8F723E1D9
:102DD000289F6001299FD00C11240C0D1D1DF801A6
:102DE00080819181892B89F6FBE0FF9E500111249F
:102DF000C5010E946E22F80191838083E0918803CF
:102E0000F0918903EC0DFD1D80819181009739F4CB
:102E100082E090E0998388838DEF9FEFBCCFA5017E
:102E200070E060E00E94BE34E0918803F091890375
:102E3000EC0DFD1DF28281E090E09983888390E0A3
:102E400080E0A9CFCF92DF92EF92FF920F931F9372
:102E5000CF93DF93860F971FFC010281138180912E
:102E6000880390918903892B81F082E090E0FA0138
:102E7000918380838CEF9FEFDF91CF911F910F9112
:102E8000FF90EF90DF90CF900895C801B0E0A0E0F0
:102E90000197A109B1098F3F9F4FA105B10540F0EE
:102EA00082E090E0FA01918380838EEF9FEFE4CF80
:102EB0007A0183E1809F6001819FD00C1124C601BB
:102EC0000E946E22EC01009741F482E090E0F7014D
:102ED000918380838DEF9FEFCFCFA60170E060E0FC
:102EE0000E94BE34D0938903C093880310938B0350
:102EF00000938A0390E080E02FEF3FEF41E061E034
:102F000070E08017910741F481E090E0F701918330
:102F1000808390E080E0B0CF3A8B298B1B864C8772
:102F20007E876D87188A1F8601966396EACFCF92B7
:102F3000DF92EF92FF920F931F93CF93DF93EC01F9
:102F4000D12CC12C10E000E0F12CE12C6A8160173B
:102F5000110609F0CCF483E0689FB0011124AE01A2
:102F60004F5E5F4FC7010E94D322009721F02FEFE1
:102F70003FEF3A8B298BDF91CF911F910F91FF90FB
:102F8000EF90DF90CF900895E881F981EC0DFD1D61
:102F9000438154818D859E85489F9001499F300DC6
:102FA000589F300D1124C90101960115110519F41E
:102FB0004F8144FD049661E070E00E941B21E816F9
:102FC000F90608F47C010F5F1F4F8BE0C80ED11C7F
:102FD000BDCFF894209186033091870381E02115BD
:102FE000310509F080E0232B09F0789408952F92A1
:102FF0003F924F925F926F927F928F929F92AF9289
:10300000BF92CF92DF92EF92FF920F931F93CF93D5
:10301000DF933C01660E771EF301828193814C01A0
:10302000B12CA12CC0918803D0918903209769F01D
:1030300021E030E060918A0370918B038617970737
:1030400010F030E020E0232BD1F482E090E0FA0190
:10305000918380838EEF9FEFDF91CF911F910F912E
:10306000FF90EF90DF90CF90BF90AF909F908F90A8
:103070007F906F905F904F903F902F900895809237
:10308000130290921402A0921502B092160263E10C
:10309000689F9001699F300D1124C20FD31FF30167
:1030A0008181833040F082E090E0FA019183808357
:1030B00086EF9FEFD1CF2A012B813C81232BF1F4A6
:1030C000288139819F8191FF2EC0232B09F46FC085
:1030D00020918D039A81422F490F5527551FBA0120
:1030E00041E050E06138710514F050E040E0452BBC
:1030F00009F45DC02A87920F90938D03815082302E
:1031000008F481C066DF882309F4D8C0F301818107
:10311000813009F48DC008F47BC0823009F4C6C048
:1031200090E080E0ADC0232B09F441C020918C03D6
:103130009A81E22FE90FFF27FF1F41E050E0ED3FAA
:10314000F10514F050E040E0452B89F12A87920FF9
:1031500090938C03D3CFA081B181A20FB31F11969E
:103160006C91060F111D0196295F3F4F841795073B
:1031700094F38D859E85089F1001099F300C189F40
:10318000300C1124C114D104D1F48F8184FF17C0F5
:103190000E946921F5E02F0E311C21E08215930574
:1031A00008F420E0A701455F5F4F21110EC082E0C7
:1031B00090E0F2019183808387EF9FEF4DCF0E94D3
:1031C00069212FEF221A320AE8CF88819981E80E0F
:1031D000F91EF70114830383FFEFCF1ADF0A7A0188
:1031E0008A818C151D0409F00CF48CCFE881F981DB
:1031F000EE0DFF1D428150E030E020E010E000E0E5
:1032000090E080E0B3CFF12CE12CD12CC12CE8CFA1
:1032100081E090E09C838B83EADA882309F480CFF5
:1032200081E090E00E94741080E40E94821078CFC8
:1032300089899A89019661F083E090E09C838B8371
:1032400082E090E00E94741080E40E947C1068CFBD
:103250008D819E812091090230910A028217930785
:10326000D1F460910D0270910E02AE014F5E5F4F7E
:1032700080910B0290910C020E94F2230097E1F2E0
:10328000789422E030E0F20131832083892B99F099
:103290008DEF9FEFE1CE89288A288B2869F6892B4C
:1032A00059F6CE0144DE188A1F86E8CF82E090E00E
:1032B0009C838B8335CF90E080E0CECE82E090E09F
:1032C000F2019183808385EF9FEFC6CE8F929F920C
:1032D000AF92BF92CF92DF92EF92FF920F931F9324
:1032E000CF93DF93EA018C01060F171FF80181814C
:1032F000833098F082E090E09983888386EF9FEF97
:10330000DF91CF911F910F91FF90EF90DF90CF90C1
:10331000BF90AF909F908F90089580918803909177
:103320008903892B61F081E090E020918A0330913C
:103330008B03232B11F490E080E0892B39F482E099
:1033400090E0998388838EEF9FEFDACF42DE882367
:1033500009F4DFC0F8018181813009F495C0E8F0FB
:10336000823099F420918A0330918B03E091880395
:10337000F091890390E080E041E050E028173907A0
:1033800009F0BDC034DA811117C0789481E090E073
:103390009983888390E080E0B3CF20918A033091B5
:1033A0008B03E0918803F091890390E080E041E095
:1033B00050E02817390741F481E090E00E94741032
:1033C00080E40E948210E1CF63817481672B11F049
:1033D0005483438301967396ECCFE0918803F09178
:1033E0008903E00FF11F2381348122303105D9F4A4
:1033F000218932892F3F3F4FB1F425813681409199
:10340000090250910A022417350761F5AF014F5E9A
:103410005F4F60910D0270910E0280910B029091AE
:103420000C020E94F223EFEFCE1ADE0AEE0AFE0A29
:103430000D5E1F4F40918A0350918B0370E060E056
:10344000C416D506E606F7063CF5009731F27894E7
:10345000892B09F49BCF82E090E0998388838DEFDC
:103460009FEF4ECFC114D104E104F104E1F6232B08
:10347000D1F6CF015CDDE0918803F0918903E00F84
:10348000F11F108A1786CFCF10E000E090E080E0B7
:10349000C12CD12C7601CECF0097C9F610E000E008
:1034A000812C912C540183E0E82EF12C1AC0E0917C
:1034B0008803F0918903E00FF11F838194810297C3
:1034C00049F4F482E38282E090E00E94741080E488
:1034D0000E947C10FFEF8F1A9F0AAF0ABF0A0D5E91
:1034E0001F4F80918A0390918B03B0E0A0E0881673
:1034F0009906AA06BB06DCF290E080E0A8CF6381C3
:1035000074816230710511F454834383019673967C
:1035100035CF82E090E09983888385EF9FEFF0CEEE
:103520000097B9F48FEFFB01808320911302309153
:10353000140243E1429FC001439F900D1124E0918A
:103540008803F0918903E80FF91F8285FB018183CD
:1035500008950C942B1088E090E0FA019183808309
:1035600090E080E008951092870310928603E8E8C7
:10357000F3E086E0DF011D928A95E9F78AE196E1A2
:1035800090938503809384030895809184039091A0
:10359000850308952F923F924F925F926F927F9290
:1035A0008F929F92AF92BF92CF92DF92EF92FF9253
:1035B0000F931F93CF93DF93CDB7DEB760970FB60E
:1035C000F894DEBF0FBECDBFF894E0918603F09172
:1035D00087033196F0938703E09386037894A09154
:1035E0008803B0918903BA83A983109709F4FAC1BB
:1035F000E0918A03F0918B03EF2B09F4F3C1288744
:103600004B875C876D877E879A878987B88BAF8762
:10361000312C212CF12C512C412C80918A0390913A
:103620008B032816390610F4FF2029F1F8948091B5
:103630008603909187030197909387038093860375
:103640007894C20160960FB6F894DEBF0FBECDBF6E
:10365000DF91CF911F910F91FF90EF90DF90CF906E
:10366000BF90AF909F908F907F906F905F904F90A2
:103670003F902F900895B10190E080E088D4682EAB
:10368000EF85F889878181FD3DC08381948103970F
:10369000C9F5258136813C832B8389859A85281736
:1036A000390781F5C101EDD8782E8823A9F1AF85BE
:1036B000B8891F968D919C915097019621E01D9697
:1036C0004D915C918417950709F020E02F83B12C70
:1036D000A12CEF85F88982818A151B0419F014F05A
:1036E000FF20E9F0F885FF2309F46CC1AF85B889A4
:1036F00050961C921E921F97662021F0B10190E017
:1037000080E047D4FFEF2F1A3F0A2F8538892D5EBE
:103710003F4F388B2F8781CFB1E0BF83D8CFC0D444
:103720009E838D83E885EE23E9F0772009F43CC180
:10373000AF85B8891F968D919C91892B79F0BBE05C
:10374000BA9DC001BB9D900D1124AF85B889ED9144
:10375000FC91E80FF91F85819681F9D6BFEFAB1A6E
:10376000BB0AB7CF81E0772039F0EF85F88927854C
:103770003089232B09F080E0F82EE12CA114B1044C
:1037800039F4AF85B8891796EC90E4FAEE24E0F8A6
:10379000BBE0BA9D6001BB9DD00C1124882309F4C5
:1037A00024C1AF85B889ED91FC911197EC0DFD1DF9
:1037B000438154811D962D913C91429FC001439FAE
:1037C000900D529F900D1124E1105DC001969087DD
:1037D000878361E070E0878190852DD5EF85F8893A
:1037E00021893289008111810C0D1D1D2F3F320767
:1037F00009F44BC0BC01C9010E943324D8011696BC
:103800009C938E931597AF85B889ED91FC91119794
:10381000EC0DFD1D058116810115110509F4CDC0C2
:10382000ED81FE810E0F1F1F1A968C918A0DD80113
:103830008C93E1102FC00F5F1F4FAF85B889ED91BA
:10384000FC91EC0DFD1D12870187AF85B889ED91C4
:10385000FC91EC0DFD1D85819681892B09F4A4C096
:103860008091090290910A022B813C812817390727
:1038700009F465C0772011F001851285912C812C07
:103880001A8219824AC00596A2CF28D6F8019683DB
:103890008583B9CF8B859C85AD85BE85F8018183F5
:1038A0009283A383B4830B5F1F4FC7CFE080F18067
:1038B000E80CF91CD70113966D917C9114978C91AB
:1038C0008F3F09F473C0E1E0F0E002C0EE0FFF1F8C
:1038D0008A95E2F7CF01092E000CAA0BBB0BFB0166
:1038E000408151816281738184239523A623B7236C
:1038F00021E0892B8A2B8B2B09F420E0D8012C9313
:10390000D70111968C91080F111DE981FA8131962A
:10391000FA83E983F7E08F0E911CAF85B889ED91AA
:10392000FC91EC0DFD1D828129813A8182171306DD
:1039300011F00CF0BBCF772011F0128701873F8187
:10394000332391F1AF85B889ED91FC91EC0DFD1D0C
:1039500061E070E0878190856ED4AF85B889ED9184
:10396000FC91EC0DFD1DE780F08445815681E1E07E
:10397000F0E0662011F0F0E0E0E00D811E819C0196
:10398000B101882799278E1B9F0B8DD32C01892B82
:1039900059F0EF85F88980819181C80ED91ED60132
:1039A00015968D919C91D3D5F12CD8CEF7014181FC
:1039B00050E0C8010E94B534A3CF86EF482E5524AD
:1039C0005A94CCCEEF85F889878590890196908BA3
:1039D0008787258536858217930709F08DCE108A53
:1039E00017868ACE512C412C21CE10E000E02DCF3D
:1039F0002F923F924F925F926F927F928F929F92FF
:103A0000AF92BF92CF92DF92EF92FF920F931F93EC
:103A1000CF93DF93809188039091890310E000E0B9
:103A2000892BA9F0D6DA0AEF1FEF882381F02090C6
:103A30008A0330908B03C0918803D0918903D12CE5
:103A4000C12C10E000E02C143D04A9F47894C801C6
:103A5000DF91CF911F910F91FF90EF90DF90CF906A
:103A6000BF90AF909F908F907F906F905F904F909E
:103A70003F902F900895C6010E944114882309F1B8
:103A80008B819C810397E9F48F859889892BC9F0F4
:103A9000B60190E080E07BD221E030E0882311F095
:103AA00030E020E044245524421A530AB12CA12CC2
:103AB000912C812C8A818815190409F038F4188A10
:103AC0001F864FEFC41AD40A6396BDCFE881F981EF
:103AD000EA0DFB1D85819681892BA1F161E070E0E3
:103AE00087819085A8D33C01DBD28C01E881F981E4
:103AF000EA0DFB1D8185928525813681200F311FBE
:103B0000AC01421B530B9A0147815085421B530B5A
:103B100070E060E00E94BE34E881F981EA0DFB1D8F
:103B2000E780F084458156819301B601C201BBD282
:103B30008C01892B39F0E881F981EA0DFB1D858123
:103B4000968105D55FEF851A950A8BE0A80EB11C0A
:103B5000B1CF3FCA789408952F923F924F925F92CF
:103B60006F927F929F92AF92BF92CF92DF92EF922D
:103B7000FF920F931F93CF93DF9300D000D0CDB768
:103B8000DEB700918803109189039924939401155D
:103B9000110509F43EC0A0908A03B0908B0319DA96
:103BA000982E8823B1F11092890310928803109205
:103BB0008B0310928A0310928C0310928D038FEF67
:103BC0009FEFDC018093130290931402A0931502DF
:103BD000B093160278947FD31E830D83C12CD12C11
:103BE0007601C501B0E0A0E089839A83AB83BC83F2
:103BF00022242A94322C89819A81AB81BC81C816F7
:103C0000D906EA06FB06F4F0C801A1D480E40E94BC
:103C10008210892D26960FB6F894DEBF0FBECDBF59
:103C2000DF91CF911F910F91FF90EF90DF90CF9098
:103C3000BF90AF909F907F906F905F904F903F901C
:103C40002F900895AD81BE8115968D919C91169708
:103C50002091090230910A0282179307D1F45196FC
:103C60008D919C91EED5ED81FE8180819181B12C69
:103C7000A12C412C512C3201892B89F5BFEFCB1A95
:103C8000DB0AEB0AFB0AED81FE817396FE83ED836E
:103C9000B2CFC114D104E104F10429F7892B19F73B
:103CA000ED81FE81818992898F3F980709F029D59E
:103CB000AD81BE8152963C922E925197D4CF8A0DFF
:103CC0009B1DDC018D919C91009709F040D4BFEFC2
:103CD0004B1A5B0A6B0A7B0AEBE0AE0EB11CAD819E
:103CE000BE818D919C91119712964C9150E070E09D
:103CF00060E044165506660677060CF328D4BECF5E
:103D0000CF93DF93EA0128DF811109C082E090E0C0
:103D10009983888385EF9FEFDF91CF91089581E0AC
:103D200090E00E94741081E090E09983888390E095
:103D300080E0F2CF11DF1092850310928403089582
:103D400042E050E06EE972E00C949210FF920F9303
:103D50001F93CF93DF938A01EC01C60FD71FF98021
:103D6000B9D20897F816190671F068F082E090E071
:103D7000F801918380838EEF9FEFDF91CF911F91A8
:103D80000F91FF9008956C817D818E819F814B8181
:103D90000E942713811108C082E090E0F80191830E
:103DA000808384EF9FEFE9CFF9800E9422134F2D8B
:103DB00050E0BE01685F7F4F0E94B53489810E9448
:103DC000911381E090E0F8019183808390E080E09E
:103DD000D4CFDF92EF92FF920F931F93CF93DF9395
:103DE0008A01EC01C60FD71F0E9422137C01D980E3
:103DF00071D2DD2059F0029721E030E0D816190683
:103E000019F010F030E020E0232B79F482E090E00C
:103E1000F801918380838EEF9FEFDF91CF911F9107
:103E20000F91FF90EF90DF900895EF2841F482E02A
:103E300090E0F8019183808384EF9FEFEECFF980CB
:103E40000E9422134F2D50E0BE016E5F7F4F0E94F3
:103E5000B53489810E94911381E090E0F80191834B
:103E6000808390E080E0D9CF80EA9EE190938F0339
:103E700080938E03089580918E0390918F0308950F
:103E80000895FC0111821082938382830895DB01DF
:103E90001D921C92DC011296ED91FC911397718397
:103EA000608313967C936E9312970895FC01808132
:103EB0009181DB018D939C93A081B181109741F09A
:103EC0008D919C9191838083892B11F4F383E283FC
:103ED0000895FC0180819181DB018D939C93892B56
:103EE00011F473836283718360830895FC011182EE
:103EF0001082938382830895CF93DF931F921F9242
:103F0000CDB7DEB71A821982F894BE016F5F7F4F7A
:103F100085E993E0CBDF89819A81009709F017D377
:103F200089819A81892B89F7BE016F5F7F4F89E96B
:103F300093E0BCDF89819A81009709F008D38981D9
:103F40009A81892B89F778940F900F90DF91CF9108
:103F50000895CF93DF931F921F92CDB7DEB71A82D9
:103F60001982F894BE016F5F7F4F81E993E09EDF75
:103F700089819A81009709F0EAD289819A81892BF7
:103F800089F778940F900F90DF91CF91089581E099
:103F9000089590E080E00895EF92FF920F931F93B1
:103FA000CF93DF931F921F92CDB7DEB71A8219828B
:103FB0008091900307EF1FEF8823A1F1F894BE01D1
:103FC0006F5F7F4F89E993E071DF789489819A81EF
:103FD000EE24E394F12C892B51F4F894BE016F5F29
:103FE0007F4F85E993E062DF7894F12CE12C8981A1
:103FF0009A810EEF1FEF0097A9F0FC0142815381D7
:1040000064E070E074D68C01892B61F0F8946981CA
:104010007A81C701880F991F880F991F8B569C4F73
:1040200058DF7894C8010F900F90DF91CF911F91C6
:104030000F91FF90EF9008950F931F93CF93DF930D
:1040400000D01F92CDB7DEB71C821B821A82198264
:104050008091900307EF1FEF8823C1F0AE014D5F01
:104060005F4F64E070E0CE010196B4D68C01892BDD
:1040700069F4E981FA818B819C8193838283F8942E
:1040800069817A8181E993E002DF7894C8010F9019
:104090000F900F900F90DF91CF911F910F91089586
:1040A000B9D7049608958F929F92AF92BF92CF9204
:1040B000DF92EF92FF920F931F93CF93DF931F92A4
:1040C0001F92CDB7DEB71A821982BC016F5F7F4F96
:1040D0006330710598F0AA24AA94BA2CC5010F90F8
:1040E0000F90DF91CF911F910F91FF90EF90DF9094
:1040F000CF90BF90AF909F908F900895411551053C
:1041000051F3480159018A016C01CADF88159905EC
:1041100011F7E114F104F9F28E0D9F1DA816B906EE
:10412000D0F2809190038823F1F0F894B5016450A7
:1041300071099701AE014F5F5F4FC8010496DFD64A
:104140005C01892B71F489819A81F80193838283C0
:10415000C601880F991F880F991FB8018B569C4F75
:1041600096DE7894BBCF87EFA82EBB24BA94B6CF47
:10417000AF92BF92CF92DF92EF92FF920F931F9375
:10418000CF93DF931F921F92CDB7DEB71A821982A9
:10419000892B09F047C06115710509F443C0411529
:1041A000510509F43FC02115310509F43BC0011543
:1041B0001105C1F1809190038823B9F179016A0159
:1041C0005B01F894BE016F5F7F4F81E993E06EDE83
:1041D000789489819A81009759F1DC0112966D914A
:1041E0007C91A8010496A4D68C01E981FA81D501BD
:1041F000ED93FC93828193810496F60191838083F1
:104200004FDFD7018D939C93C8010F900F90DF91E2
:10421000CF911F910F91FF90EF90DF90CF90BF90C3
:10422000AF9008950FEF1FEFEFCF07EF1FEFECCF29
:104230000EEF1FEFE9CFCF93DF93EC01672B71F403
:10424000F2D68C179D0760F0E5D62496C80FD91FCB
:10425000E4D68C0F9D1FDF91CF910895E1D6F1CF69
:1042600090E080E0F8CF0F931F93CF93DF932091DE
:10427000900321112BC08B01EC0185E993E001DE55
:1042800089E993E0FEDD81E993E0FBDD97D00097BB
:10429000C1F4C9D670E060E0CEDF47E152E062E0F1
:1042A00070E081D1009769F4809117029091180213
:1042B000CCD6B801CE0101D5009719F421E02093A6
:1042C0009003DF91CF911F910F91089584EF9FEF9D
:1042D000F8CFA6C6A8C6CF93DF93A8D6EC01892B4A
:1042E00011F40ADE36DECE01DF91CF910895CF932F
:1042F000DF939CD6EC01892B09F4FEDDCE01DF9122
:10430000CF91089580911702909118020895CF934C
:10431000DF9380919003D0E0C0E08823D1F09AD65B
:10432000EC01892BB1F4E8DD14DE80911702909145
:104330001802E7D1E8D2EC01892B59F485E993E022
:10434000D5DD89E993E0D2DD81E993E0CFDD1092FC
:104350009003CE01DF91CF910895EF92FF920F93DA
:104360001F93CF93DF93EC017A018B010F5F1F4FF7
:104370000E9DA0010F9D500D1E9D500D112470E04B
:1043800060E00E94BE3490E080E0F0E0E0E02FEFDB
:10439000E816F90639F4DF91CF911F910F91FF9044
:1043A000EF9008951A8219822883309711F0D283F2
:1043B000C1830196FE01C00FD11FEACFCF92DF92D9
:1043C000EF92FF920F931F93CF93DF9302EA14E0D3
:1043D0000C7F43E050E069E172E08FE192E01AD493
:1043E00089E1E82E82E0F82E9FE1C92E92E0D92ED5
:1043F000C1E0D5E0D7014D915D917D01F60161915C
:1044000071916F01198308835D834C835B834A83B9
:104410007F836E839B012F5F3F4F249FC001259FA9
:10442000900D349F900D11249987888701151105EF
:1044300011F0C80192DF88859985080F191F2A9607
:10444000FFE1EF16F2E0FF06A9F6EFE9F3E080E006
:1044500091E0DF019C011D9221503040E1F7109264
:104460009E0310929D031092200510921F0510923A
:104470002405109223051092220510922105109216
:1044800026051092250510922805109227051092F6
:104490002A051092290510922E0510922D051092D2
:1044A0002C0510922B051092300510922F051092BA
:1044B0003205109231051092FE041092FD04109204
:1044C00000051092FF0490E080E0DF91CF911F91F2
:1044D0000F91FF90EF90DF90CF9008950097F1F04B
:1044E000F894AFE1B2E0E1E0F5E030E020E04D919A
:1044F0005D9148175907A8F0428153814115510534
:1045000081F08AE0829FF001839FF00D1124EF5F1C
:10451000FA4F80819181009759F4789490E080E07F
:1045200008952F5F3F4F3A962330310501F7F5CFBD
:10453000DC0111966D917C9171836083415051092A
:1045400053834283FC012193CF017894089500970F
:1045500049F1DC018E91853041F4E091FF04F09146
:1045600000053097F9F0CD0119948530D8F4282F43
:1045700030E0F8948FEF8C938AE0829FF001839F64
:10458000F00D1124EF5FFA4F8081918112969C9378
:104590008E931197B183A083828193810196938337
:1045A000828378940895CF92DF92EF92FF920F93D7
:1045B0001F93CF93DF939C0182EA93E08C7F411598
:1045C000510509F49BC02115310509F497C0611507
:1045D000710509F493C07A01AB01B9016D5F7F4F9A
:1045E0006C7F9B012F5F3F4F249F8001259F100D03
:1045F000349F100D1124F89420911F05309120054F
:10460000232B59F4209127053091280521153105D8
:1046100069F12017310708F058C020912905309121
:104620002A05232B91F42091270530912805820F2C
:10463000931F20913105309132052115310509F480
:1046400041C02017310708F056C07894CFEFDFEF54
:1046500086EF9FEFF701D183C083DF91CF911F9148
:104660000F91FF90EF90DF90CF900895C3E0D0E0DE
:10467000C0909D03D0909E032DEF30E02C193D0992
:104680002017310710F32AE02C9FF0012D9FF00D29
:104690001124EF5FFA4F91838083558344835383C2
:1046A00042837783668311870087009709F055DE80
:1046B0000C0D1D1D10939E0300939D03789490E0B4
:1046C00080E0C8CFC4E0D0E0D3CFC3E0D0E02AE0A0
:1046D0002C9FF0012D9FF00D1124EF5FFA4F918375
:1046E0008083558344835383428377836683009713
:1046F00029F333DEE3CFC4E0D0E0E9CF8FEF9FEFC3
:10470000ACCF9C010397029708F069C0F89484E04D
:104710009AE0482F50E0241735070CF44DC091E083
:104720008AE0829FF001839FF00D1124EF5FFA4F22
:1047300011821082158214821382128217821682CD
:104740009923B1F180911F0590912005892BA9F43F
:1047500020912705309128052115310571F08091B0
:104760009D0390919E03821B930B90939E038093D5
:104770009D0310922805109227058091290590919C
:104780002A05892BA9F42091310530913205211594
:10479000310571F080919D0390919E03821B930BD4
:1047A00090939E0380939D031092320510923105E1
:1047B000789490E080E00895949FF001959FF00D2B
:1047C0001124EF5FFA4F40815181452B31F4408530
:1047D0005185452B11F481509CCF90E0A1CF8FEFF4
:1047E0009FEF08954115510549F1009739F1611581
:1047F000710521F1F8942091FD043091FE04232BE2
:10480000B9F42091FF0430910005232B89F4909393
:10481000FE048093FD04709300056093FF04789478
:1048200025E030E090E080E0FA01318320830895B4
:1048300078942FEF3FEF86EF9FEFF6CF8FEF9FEF4C
:104840000895059769F4F8941092FE041092FD04FF
:10485000109200051092FF04789490E080E0089593
:104860008FEF9FEF08956115710519F4F0E0E0E016
:1048700011C08530910581F4E091FD04F091FE04B2
:104880003097A1F3CB0101961995009779F3FC01BC
:1048900085E08193CF0108959C0123503109223096
:1048A000310520F72AE0289FD001299FB00D11245F
:1048B000AF5FBA4F2D913C911197232BB9F2169609
:1048C0002D913C9117972617370780F2F89412968E
:1048D0002D913C9113972115310529F0ED91FC9113
:1048E0001197309711F47894C1CF4181528111967C
:1048F0005C934E932150310913963C932E9312975B
:1049000081937894C7CFEFE9F4E08EE5DF011D9243
:104910008A95E9F7EFE9F3E080E091E0DF019C019F
:104920001D9221503040E1F710929E0310929D039A
:10493000E1E0F5E082E3DF011D928A95E9F7EDEF12
:10494000F4E084E0DF011D928A95E9F790E080E0D1
:104950000895CF93DF93C0912502D0912602CF3FD7
:10496000DC0759F41FD4909326028093250297FF09
:1049700009C0D0932602C093250284EF9FEFDF91F8
:10498000CF91089590E080E0FACF8230910528F42D
:104990008093330590E080E008958FEF9FEF0895B6
:1049A0004F925F926F927F92AF92BF92CF92DF92BF
:1049B000EF92FF920F931F93CF93DF931F921F925B
:1049C000CDB7DEB71A821982009709F478C0611555
:1049D000710509F474C0209125023091260207EF79
:1049E0001FEF2F3F3F4F09F444C06B015C01412C86
:1049F000512C3201F12CE12C10E000E09E012F5FE0
:104A00003F4FA6014E195F09B5016E0D7F1D8091C4
:104A100025029091260225D4892B09F04AC089816C
:104A20009A81009741F4E114F10429F420913305AF
:104A3000222309F441C0E80EF91EEC14FD04C8F469
:104A400080E8481684E858068EE16806710418F577
:104A500060E070E0CB01A3D72AE0420E511C611C3C
:104A6000711C0A3F4FEF140721F0043F8FEF180726
:104A7000A1F4C8010F900F90DF91CF911F910F917A
:104A8000FF90EF90DF90CF90BF90AF907F906F90AE
:104A90005F904F90089501EF1FEF81E090E0013F9C
:104AA0002FEF120711F090E080E0892B09F4A6CFD8
:104AB000E0CF04EF1FEFDDCF0AEF1FEFDACF0FEFEC
:104AC0001FEFD7CF4F925F926F927F92AF92BF92BC
:104AD000CF92DF92EF92FF920F931F93CF93DF93CA
:104AE0001F921F92CDB7DEB71A821982009709F480
:104AF00078C06115710509F474C0209125023091C8
:104B0000260207EF1FEF2F3F3F4F09F444C06B0110
:104B10005C01412C512C3201F12CE12C10E000E021
:104B20009E012F5F3F4FA6014E195F09B5016E0D23
:104B30007F1D809125029091260249D3892B09F08F
:104B40004AC089819A81009741F4E114F10429F463
:104B500020913305222309F441C0E80EF91EEC141C
:104B6000FD04C8F480E8481686E9580688E9680616
:104B7000710418F560E070E0CB0111D72AE0420E15
:104B8000511C611C711C0E3F4FEF140721F0043FB4
:104B90008FEF1807A1F4C8010F900F90DF91CF910C
:104BA0001F910F91FF90EF90DF90CF90BF90AF904B
:104BB0007F906F905F904F90089502EF1FEF81E01C
:104BC00090E0023F2FEF120711F090E080E0892B78
:104BD00009F4A6CFE0CF04EF1FEFDDCF0EEF1FEFFC
:104BE000DACF0FEF1FEFD7CF8091250290912602E9
:104BF0008F3F980749F0CED2892B49F48FEF9FEF72
:104C0000909326028093250290E080E0089584EF3F
:104C10009FEF0895CF92DF92EF92FF920F931F9331
:104C2000CF93DF9321E04115510509F020E0415079
:104C3000510921112CC0DC01FB01D12CC12C21E038
:104C400022C03FEFC31AD30A7D010D911D91E701E8
:104C5000EA80FB80E016F106A8F420813181E28031
:104C6000F380F182E08233832283ED90FC901197F0
:104C70009D0122503109E901F982E88211961C93C5
:104C80000E9320E03296C416D506D8F2D2CFDF912B
:104C9000CF911F910F91FF90EF90DF90CF900895EB
:104CA000FC01680F791F90E080E0E617F70709F430
:104CB00008952191820F911DF8CF20913405211183
:104CC00013C047DE009791F410923A05109239050F
:104CD000109238051092370510923605109235055E
:104CE00021E020933405089584EF9FEF0895AF925B
:104CF000BF92CF92DF92EF92FF920F931F93CF93C9
:104D0000DF93009709F460C04630510508F45CC099
:104D100020913405C7EFDFEF222309F449C08C014D
:104D2000060F171FF801C080D180C114D10409F407
:104D30004EC096012A5F3F4F4217530708F447C001
:104D40007C018091390590913A0593838283B60165
:104D50006C5F7F4F5801A60EB71EC801A1DFF50199
:104D60009183808364E070E0C8011ADEEC01892B36
:104D7000F9F481E090E009DEB601C801049610DE86
:104D8000EC01892B91F462E070E0C50109DEEC01D1
:104D9000892B59F4C701DBDB8091390590913A05E5
:104DA000019690933A058093390590E080E0EDDD1F
:104DB000CE01DF91CF911F910F91FF90EF90DF9087
:104DC000CF90BF90AF900895CFEFDFEFF1CFC9EF55
:104DD000DFEFEECF6F927F928F929F92AF92BF9252
:104DE000CF92DF92EF92FF920F931F93CF93DF93B7
:104DF00000D01F92CDB7DEB7009709F47AC04115F5
:104E0000510509F476C02091340507EF1FEF2223E6
:104E100009F44DC03A017B015C0164E070E0CE0111
:104E2000019650DE8C01892B09F041C009811A815D
:104E30000115110509F45AC0480186E0880E911C3D
:104E4000B701680D791D80912702909128020BDD32
:104E50006C01009709F450C0A70170E060E00E9467
:104E6000BE3489819A81AB81BC81EC0CFD1CF701B9
:104E700081939193A193B1937F0181E090E085DDCF
:104E8000B801C7011FDE892B31F562E070E0C70170
:104E9000800F911F17DE8C01892BE9F490E080E0F0
:104EA00074DDF501D182C082F30191828082C80154
:104EB0000F900F900F900F90DF91CF911F910F9156
:104EC000FF90EF90DF90CF90BF90AF909F908F902A
:104ED0007F906F90089590E080E057DDF50111829A
:104EE0001082F30111821082C60131DB09EF1FEF3E
:104EF000DECF0FEF1FEFDBCF06EF1FEFD8CF00970E
:104F0000A1F04115510589F02115310571F0F90124
:104F100036966E177F0748F0DC012D933C93DA013B
:104F2000ED93FC9390E080E008958FEF9FEF08955C
:104F3000AF92BF92CF92DF92EF92FF920F931F93A7
:104F4000CF93DF93009709F45FC04115510509F431
:104F50005BC06530710508F457C020913405C7EF78
:104F6000DFEF222391F1DC01CD90DC9011971296B6
:104F7000ED91FC9196012A5F3F4FC9EFDFEF2617B5
:104F8000370719F5C0913505D0913605209749F5B9
:104F900021E030E030933605209335057A018C010D
:104FA000F0933805E09337055601B4E0AB0EB11C21
:104FB000B50176DE0A0D1B1DF801208131818217B3
:104FC000930729F5D701CD92DC92CE01DF91CF91E5
:104FD0001F910F91FF90EF90DF90CF90BF90AF9017
:104FE000089520913705309138052F5F3F4FCCEF62
:104FF000DFEFE217F30790F2CBEFDFEF2E173F075B
:1050000068F2D0E0C0E0CACFCFEFDFEFDECFC3EF72
:10501000DFEFDBCF84E090E0089582E090E0089538
:105020008CEF9FEF089580E290E0089510923A058A
:1050300010923905109238051092370510923605F6
:105040001092350590E080E00895909328028093B7
:105050002702089580913405882391F0C5DD0097DB
:1050600089F410923A051092390510923805109281
:1050700037051092360510923505109234050895C3
:1050800090E080E00895009749F06115710531F0D6
:10509000FC0111821082FB01118210820895F3CF6E
:1050A00026E030E040E855E260E070E090E080E02B
:1050B00000C08130910569F01CF4892B39F0089506
:1050C0008230910549F0039751F0089580E595E00D
:1050D000BFC68DEE95E0FCCF8AE896E0F9CF87E277
:1050E00097E0F6CF089580E00895CF92DF92EF9297
:1050F000FF920F931F932ED460933B0570933C0552
:1051000080933D0590933E0500913F051091400529
:1051100020914105309142056B017C01C01AD10AF2
:10512000E20AF30A97018601003A16482140310548
:1051300008F160933F05709340058093410590937B
:105140004205A3D007D400913F051091400520915E
:10515000410530914205601B710B820B930B603A45
:1051600076488140910570F081E090E0909346058B
:105170008093450581E01F910F91FF90EF90DF90A4
:10518000CF9008951092460510924505F3CF1092E6
:105190004305089568EE73E080E090E000D490E06D
:1051A00080E0089526E030E040E050E16EE070E0FD
:1051B00090E080E07EDF80E595E080D5892B21F0CE
:1051C00080E595E095D5F7CF90E080E00895CF9207
:1051D000DF92EF92FF920F931F93CF93DF936B01B8
:1051E0007A01E9011982188280E595E067D5892B5B
:1051F00069F18601CC24C39482E0D82E80914305C6
:10520000811110C080E595E073D50297B9F7C0927F
:105210004305F801D1928F01888199810196998384
:105220008883ECCF888199818E159F0578F480E57D
:1052300095E05ED58F3F9807A9F3F80181938F0120
:1052400088819981019699838883ECCF90E080E0F2
:10525000DF91CF911F910F91FF90EF90DF90CF9052
:1052600008950F931F93CF93DF93EA01890180E59F
:1052700095E00E94B831F801D183C08390E080E0CE
:10528000DF91CF911F910F910895CF92DF92EF920E
:10529000FF928091440591E0980F909344058823F4
:1052A00069F021E030E03093460520934505809376
:1052B0004405FF90EF90DF90CF900895E0912A028F
:1052C000F0912B02C28CD38CE48CF58C0E94A60743
:1052D000B701A60190E080E00E94C90680914405D4
:1052E0008150E5CF0F931F93CF93DF931092060861
:1052F000109205088AD3D4DEC0912A02D0912B02E5
:10530000198218826FEF7FEFCB010E944C0770E08B
:1053100060E090E080E00E94CD05009709F039C080
:105320000E94A708F8947894BE016E5D7F4F8A8131
:105330009B810E94D005892B59F46FEF7FEFCB0141
:105340000E945F060E944607882311F081E08EA329
:10535000F894C8DE0E944907882311F080E008C055
:105360000E9446078111FACF81E09EA19111F6CFEC
:10537000809305080E946F108C0178948091050835
:1053800081110CC00E94A6090E942B07F89490E09E
:1053900080E0DF91CF911F910F9108950E9429071E
:1053A0000E9449078823D9F081E0809306089091F4
:1053B000060881E0911180E080930508809106083D
:1053C000811191DE0130110529F40E946F10892BA3
:1053D00009F4DDDE0E946F108C0187DECFCF0E94C2
:1053E00046078111E1CF81E09EA19111DECF80E0DF
:1053F000DCCF5058BB27AA270ED0AAC19BD130F0D2
:10540000A0D120F031F49F3F11F41EF490C10EF4AE
:10541000E095E7FB5DC1E92FACD180F3BA176207D5
:1054200073078407950718F071F49EF5DBC10EF43D
:10543000E0950B2EBA2FA02D0B01B90190010C01A4
:10544000CA01A0011124FF27591B99F0593F50F4BC
:10545000503E68F11A16F040A22F232F342F442714
:10546000585FF3CF469537952795A795F04053950C
:10547000C9F77EF41F16BA0B620B730B840BBAF0DC
:105480009150A1F0FF0FBB1F661F771F881FC2F747
:105490000EC0BA0F621F731F841F48F4879577955B
:1054A0006795B795F7959E3F08F0B3CF9395880F12
:1054B00008F09927EE0F9795879508957CD180F095
:1054C0009F3740F491110EF48EC160E070E080E8E7
:1054D0009FE3089526F01B16611D711D811DFEC0FE
:1054E00018C1D2D008F481E0089504D06894B111B5
:1054F0007AC1089546D188F09F5790F0B92F992727
:10550000B751A0F0D1F0660F771F881F991F1AF0CE
:10551000BA95C9F712C0B13081F064D1B1E00895F5
:1055200061C1672F782F8827B85F39F0B93FCCF376
:10553000869577956795B395D9F73EF490958095C4
:10554000709561957F4F8F4F9F4F0895E89409C0E4
:1055500097FB3EF490958095709561957F4F8F4FA6
:105560009F4F9923A9F0F92F96E9BB279395F695BC
:10557000879577956795B795F111F8CFFAF4BB0F3A
:1055800011F460FF1BC06F5F7F4F8F4F9F4F16C09E
:10559000882311F096E911C0772321F09EE8872F28
:1055A000762F05C0662371F096E8862F70E060E0E4
:1055B0002AF09A95660F771F881FDAF7880F96955D
:1055C000879597F90895F7D080F09F3740F49111AF
:1055D0000EF009C160E070E080E89FEB089526F4CA
:1055E0001B16611D711D811D79C093C0A3D018F0D9
:1055F00011F0A7D038F49BC0F6C0E92FBAD0B0F3B1
:105600005523C9F3E7FB6217730784079507A8F1D1
:1056100099F3E92FFF2788232AF03197660F771F28
:10562000881FDAF7952F5527442332F091505040C8
:10563000220F331F441FD2F7BB27E91BF50B621B58
:10564000730B840BB109C1F222F4620F731F841F24
:10565000B11D31972AF0660F771F881FBB1FEFCF50
:10566000915050405AF041F0882332F0660F771F76
:10567000881F91505040C1F793954BC08695779500
:1056800067959F5FD9F7F8CF990F0008550FAA0BC0
:10569000E0E8FEEF16161706E807F907C0F0121645
:1056A0001306E407F50798F0621B730B840B950B48
:1056B00039F40A2661F0232B242B252B21F408959D
:1056C0000A2609F4A140A6958FEF811D811D08953A
:1056D00097F99F6780E870E060E00895882371F48F
:1056E000772321F09850872B762F07C0662311F47B
:1056F00099270DC09051862B70E060E02AF09A95B2
:10570000660F771F881FDAF7880F9695879597F9A8
:1057100008959F3F31F0915020F4879577956795D4
:10572000B795880F911D9695879597F908959FEFE6
:1057300080EC089500240A94161617061806090628
:10574000089500240A9412161306140605060895F7
:10575000092E0394000C11F4882352F0BB0F40F47F
:10576000BF2B11F460FF04C06F5F7F4F8F4F9F4FBF
:10577000089557FD9058440F551F59F05F3F71F041
:105780004795880F97FB991F61F09F3F79F08795A8
:105790000895121613061406551FF2CF4695F1DF31
:1057A00008C0161617061806991FF1CF86957105C1
:1057B000610508940895E5DFA0F0BEE7B91788F405
:1057C000BB279F3860F41616B11D672F782F8827E6
:1057D000985FF7CF869577956795B11D9395963924
:1057E000C8F30895E894BB2766277727CB0197F97C
:1057F00008954ADF08F48FEF08950BD0A9CF9ADF00
:1058000028F09FDF18F0952309F062CF90CF112484
:10581000EACFAFDFA0F3959FD1F3950F50E0551F6E
:10582000629FF001729FBB27F00DB11D639FAA27F5
:10583000F00DB11DAA1F649F6627B00DA11D661F44
:10584000829F2227B00DA11D621F739FB00DA11D65
:10585000621F839FA00D611D221F749F3327A00D1F
:10586000611D231F849F600D211D822F762F6A2FBB
:1058700011249F5750408AF0E1F088234AF0EE0F40
:10588000FF1FBB1F661F771F881F91505040A9F74D
:105890009E3F510570F01CCFA6CF5F3FECF3983EC2
:1058A000DCF3869577956795B795F795E7959F5FB4
:1058B000C1F7FE2B880F911D9695879597F908954E
:1058C0001F920F920FB60F9211242F933F938F9335
:1058D0009F93AF93BF938091480590914905A09104
:1058E0004A05B0914B053091470523E0230F2D3732
:1058F00058F50196A11DB11D2093470580934805D9
:1059000090934905A0934A05B0934B0580914C05AF
:1059100090914D05A0914E05B0914F050196A11DA6
:10592000B11D80934C0590934D05A0934E05B09307
:105930004F05BF91AF919F918F913F912F910F9004
:105940000FBE0F901F90189526E8230F0296A11DF9
:10595000B11DD2CF3FB7F89480914C0590914D0581
:10596000A0914E05B0914F0526B5A89B05C02F3FCD
:1059700019F00196A11DB11D3FBFBA2FA92F982F75
:105980008827BC01CD01620F711D811D911D42E070
:10599000660F771F881F991F4A95D1F708958F9238
:1059A0009F92AF92BF92CF92DF92EF92FF926B01E4
:1059B0007C01D0DF4B015C01C114D104E104F1048E
:1059C000D9F00AD7C7DF681979098A099B09683EA7
:1059D00073408105910580F321E0C21AD108E108E6
:1059E000F10888EE880E83E0981EA11CB11CC1143A
:1059F000D104E104F10431F7FF90EF90DF90CF90F4
:105A0000BF90AF909F908F900895789484B58260F6
:105A100084BD84B5816084BD85B5826085BD85B552
:105A2000816085BDEEE6F0E0808181608083E1E801
:105A3000F0E0108280818260808380818160808339
:105A4000E0E8F0E0808181608083E1EBF0E080813C
:105A500084608083E0EBF0E0808181608083E1E915
:105A6000F0E0808182608083808181608083E0E9D2
:105A7000F0E0808181608083E1EAF0E080818260F3
:105A80008083808181608083E0EAF0E080818160B2
:105A90008083E1E2F1E080818260808380818160A7
:105AA0008083E0E2F1E0808181608083EAE7F0E0DA
:105AB0008081846080838081826080838081816036
:105AC00080838081806880831092C1000895815016
:105AD000823108F059C0E82FF0E08827EE58F24DE7
