:10000000F9C0000028C1000026C1000024C1000082
:1000100022C1000020C100001EC100001CC1000060
:100020001AC1000018C1000016C1000014C1000070
:1000300012C1000010C100000EC100000CC1000080
:100040000AC100000C948D2406C1000004C1000008
:1000500002C1000000C10000FEC000000C949A26FE
:10006000FAC000000C94BD290C94F329F4C00000E0
:10007000F2C00000F0C00000EEC00000ECC00000C4
:100080000C94BA24E8C00000E6C00000E4C0000000
:100090000C94492A0C947F2ADEC00000DCC00000CA
:1000A000DAC00000D8C000000C94E724D4C00000DF
:1000B000D2C00000D0C00000CEC000000C941425B7
:1000C000CAC00000C8C00000C6C000000C94D52AF9
:1000D0000C940B2BC0C000000C94612B0C94972B3C
:1000E000BAC0000000000A0B02090C0D0E0807033D
:1000F00004010000000000000000000000000000FB
:1001000000000000000000000000000000000000EF
:1001100012111000000000000000000000000000AC
:100120000000000000000000000001021020200874
:100130000810204010204080020102010804020142
:1001400001020408102040808040201008040201B1
:10015000800402018040201008040201080402010A
:100160000102040810204080010204081020408091
:1001700005050505070508080808020202020A0A23
:100180000808040404040101010101010101030341
:10019000030303030303040707070C0C0C0C0C0CEC
:1001A0000C0C0202020206060606060606060B0BE9
:1001B0000B0B0B0B0B0B00002200250028002B0063
:1001C0002E003100340002010000050108010B017E
:1001D00000002100240027002A002D0030003300F9
:1001E00001010000040107010A01C1011C2AA82A1B
:1001F000342BC02B11241FBECFEFD1E2DEBFCDBF09
:1002000000E00CBF12E0A0E0B2E0ECECF9E500E0A9
:100210000BBF02C007900D92A83BB107D9F727E0AA
:10022000A8EBB2E001C01D92AD35B207E1F710E0D6
:10023000CAEFD0E000E006C021970109802FFE013F
:100240000E94B32CC53FD10780E00807A9F70E94A0
:1002500031220C94E42CD4CECF93DF93882349F041
:10026000EB0181500E94A12799838883DF91CF9170
:100270000895FB0111821082F9CF0F931F938B0118
:100280009C0183E036952795179507958A95D1F7B8
:1002900008541D4F462F477021E030E0F90102C09D
:1002A000EE0FFF1F4A95E2F7AF01F80120812423EA
:1002B000CB010196211102C090E080E01F910F91C7
:1002C00008950F931F938B019C0183E0369527952A
:1002D000179507958A95D1F7677081E090E001C086
:1002E000880F6A95EAF7F801E854FD4F2081452B05
:1002F00031F48095822380831F910F910895822B82
:10030000FACFCF92DF92EF92FF92CF93DF936B0100
:100310007C0160E086E3C816D104E104F10490F4A6
:1003200086E38C0D0E942A28E6012196AE01C701C2
:10033000B601C7DFCE01DF91CF91FF90EF90DF9044
:10034000CF9008958C2DEECF882341F08150682FF7
:1003500070E090E080E050E040E0B3CF089570E0BE
:1003600023E0829FC00111248F539D4F0C940526DA
:1003700070E023E0829FC00111248F539D4F0C94A5
:10038000412681EC92E00C94412590E080E00895B4
:100390000F931F93009709F487C06115710509F445
:1003A00083C000910602109107022091080230914B
:1003B00009020E3F1F4F2F4F3F4F09F066C04FEF0E
:1003C0005FEFBA0140930602509307026093080260
:1003D0007093090240910602509107026091080251
:1003E00070910902DC011296ED91FC91808191815E
:1003F000A281B38180932E0390932F03A0933003A7
:10040000B093310384819581A681B78180932A03BB
:1004100090932B03A0932C03B0932D03808591859B
:10042000A285B3858093260390932703A093280386
:10043000B093290384859585A685B785809322038B
:1004400090932303A0932403B093250310921E03DB
:1004500010921F03109220031092210353D487EAB5
:1004600096E09093C5028093C4029093C702809354
:10047000C60237D3009731F421E030E030933303E4
:10048000209332031F910F9108950091060210915D
:1004900007022091080230910902DB010D931D93A0
:1004A0002D933C93139796CF8FEF9FEFEBCF8F92C7
:1004B0009F92AF92BF92CF92DF92EF92FF921F93E3
:1004C000CF93DF934B015C011091350382E090E004
:1004D000909333038093320381149104A104B104F7
:1004E00041F480913503811104C080913403C1E04F
:1004F0008111C0E0C12CD12C76018091350381118E
:1005000006C080913403811102C0CC23D1F083E076
:1005100090E09093330380933203CC2371F1CCE9C4
:10052000DFEF111101C077D7CE01DF91CF911F917D
:10053000FF90EF90DF90CF90BF90AF909F908F9003
:1005400008956AE070E080E090E00E94092780E171
:10055000C80E87E2D81EE11CF11C8FEF88169806A2
:10056000A806B80631F0C1E08C149D04AE04BF04A7
:1005700008F0C0E080E0E9D2C0CFD0E0C0E0D1CF49
:10058000CF92DF92EF92FF920F931F93CF93DF935F
:100590008F3F910511F008F050C020913203309147
:1005A00033032330310539F0209132033091330386
:1005B0002130310531F424E030E0309333032093CF
:1005C00032036A017B01EC0182309105A0F011E059
:1005D000AE01C701B60184D2AB01BC01CE0111232B
:1005E000F9F0DF91CF911F910F91FF90EF90DF9085
:1005F000CF900C94340C8C01000F111F0C531D4F25
:10060000D8018D919C91892B11F30E943E0C029789
:10061000F1F6D801ED91FC91CE011995182FD8CFA4
:100620000E94560C90E080E0DF91CF911F910F91D6
:10063000FF90EF90DF90CF9008958FEF9FEFF4CF72
:1006400080E083C2CF93DF9386E090E09093330302
:1006500080933203D3D2EC01E4ECF2E084E0DF01DA
:100660001D928A95E9F76FD61092330310923203E8
:10067000CE01DF91CF910895809134030895809148
:100680001D03089560930602709307028093080289
:100690009093090290E080E00895CF92DF92EF926C
:1006A000FF92CF93DF931F921F92CDB7DEB7C0901A
:1006B0000002D0900102E0900202F0900302A70134
:1006C0009601609157077091580780915907909152
:1006D0005A070E94B822882341F0C0925707D0924F
:1006E0005807E0925907F0925A0766E370E080E0FD
:1006F00090E0C3DD909356078093550743E050E0A8
:10070000BE016F5F7F4FA8DD20910402309105028A
:10071000A981BA810E94BB2C22E196958795779595
:1007200067952A95D1F7653B08F064EB80E020DE01
:100730006091F4027091F5028091F6029091F702B7
:100740006F5F7F4F8F4F9F4F6093F4027093F5025E
:100750008093F6029093F7020E94BC229B01AC01A9
:100760006091F8027091F9028091FA029091FB0277
:100770000E9421236093F0027093F1028093F202B1
:100780009093F3020F900F90DF91CF91FF90EF9035
:10079000DF90CF900895CF93DF93EAEDF2E080E011
:1007A00090E0A0E8BFEB82A393A3A4A3B5A38DEC34
:1007B0009CECACE4BEE3868F978FA0A3B1A389E73E
:1007C00097ECA6EFBEEA84839583A683B78383EC78
:1007D00091E1AEE1B7EB80879187A287B38786ED81
:1007E00099EFA6EBBCE784879587A687B78785E353
:1007F00095E3ACEDB1E6808B918BA28BB38BAEEC25
:10080000B2E0B383A283E8ECF2E01196FC93EE939E
:1008100084E292E0918380839383828395838483AF
:100820008EEE92E015969C938E9314978EED92E047
:1008300013969C938E93129780EF92E017969C9359
:100840008E931697CFE4D7E01882809100029091A2
:100850000102A0910202B091030288879987AA87BA
:10086000BB8781E090E0A0E0B0E089839A83AB830E
:10087000BC8366E370E080E090E043DD9F838E837D
:1008800081E08D8369E080E0DF91CF9168CD809138
:100890004F0781111DC081E080934F078091500761
:1008A00090915107A0915207B09153070197A1056C
:1008B000B10571F480915407882351F066E370E02C
:1008C00080E090E0DADC90935607809355073CCDAA
:1008D00008954F925F926F927F928F929F92AF9204
:1008E000BF92CF92DF92EF92FF920F931F93F894F3
:1008F00040900D0350900E0360900F037090100312
:10090000C0900103D0900203E0900303F090040331
:10091000452B09F0A6C09B01AC01241935094609F5
:10092000570929013A010091090310910A03209106
:100930000B0330910C0348015901840C951CA61C33
:10094000B71C80169106A206B306A0F40091050319
:100950001091060320910703309108030F5F1F4F8A
:100960002F4F3F4F00930503109306032093070377
:10097000309308038092090390920A03A0920B031C
:10098000B0920C0300910503109106032091070318
:10099000309108038092110390921203A0921303E6
:1009A000B0921403009315031093160320931703BA
:1009B0003093180360930D0370930E0380930F031D
:1009C00090931003A301920160E47DE083E090E046
:1009D0000E945A2C6C0D7D1D8E1D9F1D609301037E
:1009E0007093020380930303909304030091060223
:1009F0001091070220910802309109020F3F1F4F0A
:100A00002F4F3F4FF1F00091060210910702209105
:100A10000802309109020E3F1F4F2F4F3F4F89F0C0
:100A2000C0900602D0900702E0900802F090090200
:100A300021E08C149D04AE04BF0408F420E0209350
:100A40001D0378941F910F91FF90EF90DF90CF904E
:100A5000BF90AF909F908F907F906F905F904F90DE
:100A600008954B015C0184189508A608B708A301F6
:100A70009201261B370B480B590B6415750586052B
:100A80009705E0F082169306A406B50640F420E030
:100A900030E0A90181149104A104B104A1F460E43F
:100AA0007DE083E090E00E945A2CA7019601261B6E
:100AB000370B480B590BCA01B901C3CF82169306F5
:100AC000A406B50660F7A501940160E47DE083E02B
:100AD00090E00E945A2C6C0D7D1D8E1D9F1DB1CF84
:100AE000F8CECF93DF9300D01F92CDB7DEB71C8234
:100AF0001B821A8219821092190310921A03109203
:100B00001B0310921C03BE016F5F7F4FCE01039643
:100B10000E94012169817A818B819C810E94521BF4
:100B2000009761F4BE016F5F7F4FCE0103960E9474
:100B30000D2169817A818B819C812ED50F900F9038
:100B40000F900F90DF91CF910895FF920F931F9315
:100B5000CF93DF93082F60E070E0CB010E9409275C
:100B6000FF24F3940E943B1AEC01892B89F010E0DA
:100B7000CE3F8FEFD80769F0002361F160E070E0AD
:100B8000CB010E94092781E090E0892B59F322C014
:100B900011E025D5EC01892B21F0CE3F8FEFD8074E
:100BA00059F711111EC011E0229609F410E00E94BD
:100BB000EB19EC01892B21F0CE3F8FEFD807E1F63E
:100BC000111111C011E0CE3F8FEFD80709F410E0EA
:100BD00001110BC0CE01DF91CF911F910F91FF90BA
:100BE000089511E0E4CF11E0F3CF60E070E0CB01B5
:100BF0000E9409271F25812F90E0C7CFCF93DF9355
:100C000080911D03882321F060E070E0CB014CD679
:100C100035D6D0E0C0E0892B71F06AE070E080E06A
:100C200090E00E94092781E090DF28D62196C03D00
:100C300027E0D20781F727D60E94A61B1092350322
:100C40001092340310922E0310922F03109230034F
:100C50001092310310922A0310922B0310922C034E
:100C600010922D031092260310922703109228034E
:100C7000109229031092220310922303109224034E
:100C80001092250310921E0310921F03109220034E
:100C9000109221034EEF5FEF6FEF7FEF409306025C
:100CA00050930702609308027093090210921D038B
:100CB000E1E1F3E028E0DF011D922A95E9F71092C7
:100CC0000D0310920E0310920F0310921003109256
:100CD000090310920A0310920B0310920C03109256
:100CE0000503109206031092070310920803109256
:100CF0000103109202031092030310920403DF9188
:100D0000CF91089510924103109242031092430331
:100D100010924403109240038091490390914A033A
:100D200090933F0380933E0310923D0310923C0347
:100D3000109238031092390310923A0310923B0339
:100D4000109246031092450390E080E00895CF9200
:100D5000DF92EF92FF920F931F93CF938C01892B19
:100D600009F055C02091490330914A0380913E0318
:100D700090913F034091490350914A0350933F03A0
:100D800040933E032817390781F010923D031092DB
:100D90003C03109238031092390310923A031092D8
:100DA0003B031092460310924503809149039091B2
:100DB0004A03019761F58091450390914603892B81
:100DC00021F480910A02811112C080914503909113
:100DD00046030197E1F48091380390913903A09183
:100DE0003A03B0913B030197A105B10581F410923C
:100DF00038031092390310923A0310923B03109279
:100E00000A0282E090E0909346038093450380912C
:100E1000490390914A03019709F01CC180915F0337
:100E2000909160038017910709F014C180915B03D2
:100E300090915C03A0915D03B0915E03009709F46B
:100E400009C120915A0321110DC040915B035091BB
:100E50005C0360915D0370915E03452B462B472B2D
:100E600009F4F8C020914503309146032230310542
:100E700009F0F0C020913C032111ECC0FC01C080BE
:100E8000D180E280F38080914003882309F4D3C0AD
:100E900080914C0390914D03892B09F4FDC0209162
:100EA0004C0330914D0381E02230310509F080E0A0
:100EB00020914C0330914D03C1E02130310549F0C0
:100EC00020914C0330914D03C1E02230310509F0EF
:100ED000C0E0882309F456C020915603309157038F
:100EE0004091580350915903C701B6010E941D2338
:100EF00087FD14C020915603309157034091580349
:100F000050915903609141037091420380914303D2
:100F1000909144030E94B82287FD22C0209156037D
:100F2000309157034091580350915903C701B601BE
:100F30000E941D23181634F5209156033091570353
:100F400040915803509159036091410370914203BD
:100F500080914303909144030E94B822811112C0F2
:100F600080914E0390914F03A0915003B091510393
:100F7000892B8A2B8B2B19F481E080933D0381E030
:100F800080933C03CC2309F456C020915603309142
:100F900057034091580350915903C701B6010E946D
:100FA000B82287FF14C02091560330915703409117
:100FB000580350915903609141037091420380910D
:100FC0004303909144030E941D2387FF22C0209178
:100FD0005603309157034091580350915903C7016C
:100FE000B6010E94B822811126C02091560330918B
:100FF00057034091580350915903609141037091F8
:10100000420380914303909144030E941D231816CC
:1010100094F480914E0390914F03A0915003B091AE
:101020005103892B8A2B8B2B19F481E080933D038C
:1010300081E080933C0381E090913C03911180E03A
:1010400080934003C0924103D0924203E092430355
:10105000F0924403012B09F067C180914503909100
:101060004603892BD9F410924B0310923C038091D4
:101070000A02882379F082E090E0909346038093FF
:10108000450310920A022091490330914A0381E0FE
:10109000232BE9F080E01BC081E00ACF10920A0206
:1010A00080914B03882349F010923D031092460330
:1010B0001092450310924B03EDCF8091490390911C
:1010C0004A03892BE1F080913C0310923C0320916C
:1010D0004503309146032230310509F45EC088F49F
:1010E0002115310509F448C02130310509F4F3C058
:1010F00010923D0310923C0310924B0338C081E0E4
:10110000E6CF2330310509F4B1C02430310581F731
:10111000409138035091390360913A0370913B0339
:10112000411551056105710561F041505109610991
:101130007109409338035093390360933A037093D5
:101140003B03409138035091390360913A03709109
:101150003B03452B462B472BD9F420914703309175
:1011600048032130310509F046C010923D0310922A
:101170004603109245030CC080910A02882341F077
:1011800082E090E0909346038093450310920A0218
:101190001092360380913D03CEC08823C9F380911D
:1011A0004E0390914F03A0915003B0915103181634
:1011B00019061A061B060CF07DC080914903909118
:1011C0004A03019709F076C080914E0390914F0336
:1011D000A0915003B0915103809338039093390349
:1011E000A0933A03B0933B0383E090E090934603CF
:1011F00080934503CDCF40915203509153036091AA
:10120000540370915503452B462B472BA9F01092A0
:101210003D038091520390915303A0915403B091E8
:1012200055038093380390933903A0933A03B09306
:101230003B0381E090E0DACF882399F080910B02A4
:1012400090910C02A0910D02B0910E028093380390
:1012500090933903A0933A03B0933B0384E090E06A
:10126000C5CF10923D0382E090E0C0CF809138035B
:1012700090913903A0913A03B0913B030097A105E7
:10128000B10559F00197A109B109809338039093F2
:101290003903A0933A03B0933B03809138039091B4
:1012A0003903A0913A03B0913B03892B8A2B8B2BF6
:1012B00009F06ECF80910B0290910C02A0910D026B
:1012C000B0910E02892B8A2B8B2B09F44ECF81E033
:1012D00080933D03B3CF409138035091390360911F
:1012E0003A0370913B03411551056105710561F0A9
:1012F00041505109610971094093380350933903F2
:1013000060933A0370933B03409138035091390343
:1013100060913A0370913B03452B462B472B09F014
:1013200037CF8111C7CF9FCF80913603882309F42F
:1013300031CF80913703CF911F910F91FF90EF90A4
:10134000DF90CF90089510924103109242031092C3
:1013500043031092440310924003109246031092EC
:10136000450310923F0310923E03109260031092C7
:101370005F0310923D0310923C03109238031092C9
:10138000390310923A0310923B03109237031092E4
:10139000360310925B0310925C0310925D0310926F
:1013A0005E0310925A031092560310925703109244
:1013B00058031092590388EE93E0A0E0B0E08093C8
:1013C0000B0290930C02A0930D02B0930E021092A8
:1013D000520310925303109254031092550310922B
:1013E0004E0310924F03109250031092510310922B
:1013F0004D0310924C0381E080930A0210924B033C
:1014000010924A0310924903109248031092470326
:1014100090E080E008958091490390914A03892BE0
:1014200019F580910A02882351F080914B038111B4
:1014300006C081E08093370380933603089520919E
:101440004B0330910A0281E090E0332311F090E0E9
:1014500080E030E082239323892B21F01092370320
:1014600081E0EACF10923603089582E090E0FA011D
:10147000918380838FEF9FEF0895CF93DF93EA01ED
:10148000009711F00E94201C1982188290E080E0E1
:10149000DF91CF910895DB01009719F48FEF8C93C2
:1014A00008952EEF2C93FC013F96EF30F10508F0E4
:1014B00034C08827E15AF54F8F4F0C94B32C8B0A18
:1014C000890A870A850A830A7F0A810A7D0A7B0ABC
:1014D000790A760A720A6E0A740A8D0A80E31196F6
:1014E0008C93089589E2FBCF82E2F9CF11961C928A
:1014F000089583E2F4CF81E2F2CF81E1F0CF87E279
:10150000EECF8AE2ECCF80E1EACF84E2E8CF88E256
:10151000E6CF86E2E4CF81E3E2CF80E2E0CF8091C4
:101520006D0390916E03089590936E0380936D0305
:10153000089580916C03089590916C03892B80939A
:101540006C030895982F909580916C038923809364
:101550006C03089580916B030895809169039091C5
:101560006A0308956115710559F0FB0130E020E030
:1015700070E060E02417350719F06115710511F06E
:10158000CB010895A081B181A817B90709F4BF0163
:101590002F5F3F4F3696EECF80916F0381111CC0B5
:1015A00060D266D290936203809361030E94D31449
:1015B0000E94E51490936603809365030E9453197B
:1015C0000E945A19909364038093630381E080938F
:1015D0006F0390E080E0089584EF9FEF08958F926D
:1015E0009F92AF92BF92CF92DF92EF92FF920F93B2
:1015F0001F93CF93DF9300D000D000D01F92CDB7C0
:10160000DEB71A86198618861F821E821D821C82EA
:101610001B821A82198280916F0307EF1FEF8823C4
:1016200009F49CC08E010D5F1F4F9E012B5F3F4F41
:10163000AE01495F5F4FBE01675F7F4F90E080E082
:101640000E94D71A8C01009721F00596029708F0A6
:10165000DBC029853A852115310509F402C1ED80E9
:10166000FE804B815C81B701640F751F8F81988567
:101670008617970708F4F5C0E20EF31ED7019C9178
:10168000903C09F07FC04230510508F47BC01196B0
:101690008C9140916D0350916E03452B09F49CC0D1
:1016A000913F08F071C02CE1290F2D3008F48BC058
:1016B0002DE2290F203108F489C0903C21F481509B
:1016C000823008F483C088E3890F8B3008F481C02E
:1016D0009BE4C92E9AE0D92EE5E3FAE06D817E8184
:1016E000AE014F5F5F4F89859A8519955C01C114E2
:1016F000D104A1F189809A808114910479F18B81C0
:101700009C818815990508F487C010E000E04B81A2
:101710005C8170E060E0C7010E94DD2C01151105BD
:10172000E9F449815A8169857A858D819E81680FA6
:10173000791FC501F6011995E980FA800D811E8196
:101740002F81388549855A856FEF7FEF81E090E0E2
:101750000E94721A8C01892B09F056C0C8012A9682
:101760000FB6F894DEBF0FBECDBFDF91CF911F91B2
:101770000F91FF90EF90DF90CF90BF90AF909F9030
:101780008F90089580E085CF30E020E0220F331F56
:10179000F901EF59FC4F0190F081E02D309709F4E9
:1017A00097CF892F90E01995009709F491CFDC012C
:1017B0001296ED91FC9113971496CD90DC90309792
:1017C00009F08CCF1FC021E030E0E0CF22E030E014
:1017D000DDCF23E030E0DACFD12CC12CEDE3FAE00D
:1017E0009F3F09F07BCFE0916103F0916203309756
:1017F00021F4C90104EF1FEF0CC08FEF90E01995A1
:101800000097A9F604EF1FEF89859A85009709F4E0
:10181000A5CF0E94201CA2CF0E94A11B8C0189850C
:101820009A850E94201C70E060E0C4010E943A1B6F
:1018300098878F830E946F1A9E838D836F8178852E
:101840006115710559F0C8010E94431D9A87898767
:1018500006EF1FEF892B09F058CF59CF08EF1FEF84
:1018600056CF08EF1FEFD0CF20916F03222319F03E
:1018700020E00C94EA1487EF9FEF089580916D03A8
:1018800090916E0308950E945F190E94B918F5D0D7
:10189000E1E6F3E088E0DF011D928A95E9F7109216
:1018A0006F0390E080E008950C94171721E040E06A
:1018B00050E0BA010C94EA1486E090E0FA019183BA
:1018C000808390E080E0089547E050E067E272E0B6
:1018D00049CEDF92EF92FF920F931F93CF93DF9346
:1018E0008A01EC01C60FD71FE0907303F0907403D8
:1018F000D9800E94891BD816190678F082E090E002
:10190000F801918380838EEF9FEFDF91CF911F913C
:101910000F91FF90EF90DF900895EF2841F482E05F
:1019200090E0F8019183808384EF9FEFEECF89816F
:101930008093720390E00196F8019183808390E098
:1019400080E0E3CFCF93DF93EA010E94C81788239A
:1019500021F00E94961B0E94C91782E090E09983B3
:1019600088838BEF9FEFDF91CF910895CF93DF9323
:10197000EB0186E0FB0111928A95E9F78FEF8883EE
:10198000D8DD8983E7DD8A83E8DD9D838C83DF9161
:10199000CF910895CF93DF93EA010E94CB17811175
:1019A00009C082E090E09983888385EF9FEFDF9103
:1019B000CF91089590E080E0B7DD81E090E09983D9
:1019C000888390E080E0F3CF0F931F93CF93DF9352
:1019D000EA018C01060F171F0E94CB1781110BC063
:1019E00082E090E09983888385EF9FEFDF91CF912C
:1019F0001F910F910895F8018181823038F082E0C3
:101A000090E0998388838EEF9FEFF0CF81E090E0A4
:101A10008BDD88E090E09983888390E080E0E6CFDA
:101A2000CF93DF930097D1F4EB01FB01329686E070
:101A3000DF011D928A95E9F78FEF888385E089831E
:101A40001A820E94891B8B830E94881B9D838C8332
:101A500081E08E838F83DF91CF910895DF91CF91C5
:101A60001ACD84E69CE090937103809370030895EF
:101A700080917003909171030895109271031092F8
:101A80007003089580917303909174030895411138
:101A900005C0611571058105910561F060937303BF
:101AA0007093740380937503909376034093770348
:101AB00081E0089580E00895FF920F931F93CF93E4
:101AC000DF938A01EC01C60FD71FF9800E94891BA2
:101AD000F816190668F082E090E0F801918380839F
:101AE0008EEF9FEFDF91CF911F910F91FF9008959F
:101AF0006C817D818E819F814B81C9DF811108C0FE
:101B000082E090E0F8019183808384EF9FEFEACF39
:101B100089818093720390E00196F801918380831C
:101B200090E080E0DFCFCF93DF93EA01FC01E60F86
:101B3000F71F64817581868197814381A8DF8111B8
:101B400009C082E090E09983888384EF9FEFDF9162
:101B5000CF91089581E090E09983888390E080E0C0
:101B6000F6CFE3E7F3E04081518162817381480F52
:101B7000511D611D711D40835183628373830895DC
:101B8000CF93C09172034C2F50E06091730370911A
:101B9000740301960E94D42C8C2FE3DF1092720301
:101BA000CF910895009799F48091730390917403F5
:101BB0002FEFFB012083892B59F02091720330E035
:101BC0002F5F3F4F2417350719F4CB01D9CF63CCD2
:101BD0000895009799F480917303909174032FEF07
:101BE000FB012083892B59F02091720330E02F5F95
:101BF0003F4F2417350719F4CB01C2CF4CCC0895C1
:101C000023E1AC01249FC001259F900D1124E09198
:101C10007C03F0917D03E80FF91F2381348122506A
:101C2000310981E02230310508F080E008950F93FA
:101C30001F93CF93DF9300917E0310917F03D0E039
:101C4000C0E080E00C171D0749F491E0811190E09D
:101C5000892FDF91CF911F910F9108958111F5CFB9
:101C6000CE01CEDF2196EECFA0917C03B0917D0313
:101C7000109729F120917E0330917F0382179307FB
:101C8000F0F453E1589F9001599F300D1124A20F99
:101C9000B31FED91FC911197309789F012968C91BA
:101CA000681768F48BE0689FE00DF11D11248081B6
:101CB0009181892B21F081E09281491708F080E021
:101CC00008959C0143E1429FC001439F900D112460
:101CD000E0917C03F0917D03E80FF91F838582304A
:101CE00091F481E090E06581768140910F025091FE
:101CF00010026417750711F490E080E0892B19F049
:101D000081E0232B09F080E00895EF92FF920F937A
:101D10001F93CF93DF93EA01FC01E60FF71F0281C7
:101D20001381E480F5804F2D6E2DC8019DDF811158
:101D30000DC082E090E0998388838EEF9FEFDF9162
:101D4000CF911F910F91FF90EF900895C80158DF38
:101D5000882339F082E090E09983888388EF9FEFB1
:101D6000EECF1093160200931502E0921702F09244
:101D7000180281E090E09983888390E080E0DFCFD3
:101D8000CF92DF92EF92FF920F931F93CF93DF9347
:101D90007A01EC01C60FD71FC0901502D090160231
:101DA0000091170210911802412F602FC6015CDFCD
:101DB000811110C082E090E0F701918380838AEF67
:101DC0009FEFDF91CF911F910F91FF90EF90DF90E8
:101DD000CF900895C60114DF882341F082E090E09F
:101DE000F7019183808388EF9FEFEBCF4C815D817A
:101DF0006E817F819A8189818F3F41F082E090E0FE
:101E0000F701918380838EEF9FEFDBCFE3E1EC9DC1
:101E10009001ED9D300D1124E0917C03F0917D0344
:101E2000E20FF31F0190F081E02D2BE0029FE00D07
:101E3000F11D11240190F081E02D27E0129FE00DAB
:101E4000F11D1124808391838B818283438354838A
:101E5000658376831F5F1093180281E090E0F7019D
:101E60009183808390E080E0ACCFEF92FF920F935C
:101E70001F93CF93DF937A018C01060F171FC09138
:101E80007C03D0917D03209781F021E030E0F801C0
:101E90008281938140917E0350917F03841795073F
:101EA00010F030E020E0232B71F482E090E0F701A5
:101EB000918380838EEF9FEFDF91CF911F910F91E0
:101EC000FF90EF90089543E1489F9001499F300DA6
:101ED0001124C20FD31F94DE882341F082E090E0EA
:101EE000F7019183808388EF9FEFE6CFF80124818B
:101EF000358120383105C8F687818111D6CF4181DF
:101F0000842F90E08F7E009741F082E090E0F7010F
:101F10009183808386EF9FEFCFCF4F833E832D83C6
:101F2000268128871986223010F421E0288721E0B5
:101F300030E0F70131832083BFCF88E090E0FA01E1
:101F40009183808390E080E00895FB018FEF808390
:101F500081E181838FEF9FEF9383828380E890E01C
:101F600095838483168217820895FB018FEF808307
:101F700091E0918382839383848384E3858381E0EA
:101F800090E0978386830895DF92EF92FF920F93FC
:101F90001F93CF93DF93EA01FC01E60FF71F8181C6
:101FA000813071F082E090E0998388838FEF9FEF1A
:101FB000DF91CF911F910F91FF90EF90DF900895E7
:101FC00082819381D4802581E680F78000917C0313
:101FD00010917D030115110539F482E090E0998399
:101FE00088838CEF9FEFE4CF40917E0350917F0375
:101FF0008417950738F082E090E0998388838EEF0C
:102000009FEFD6CF892B39F082E090E099838883C7
:1020100086EF9FEFCDCF8D2D8D7FB1F72130A1F7CA
:1020200081E0D11006C091E0E916F10431F080E0C2
:1020300004C0E2E0EE16F104D0F3882329F390E027
:1020400080E0DEDD882339F082E090E099838883A8
:1020500088EF9FEFADCFF801D38681E08487F686C5
:10206000E586108A178681E090E09983888390E066
:1020700080E09ECF4CE050E061E572E073CA8F9241
:102080009F92BF92CF92DF92EF92FF920F931F9396
:10209000CF93DF93EA01FC01E60FF71F8281938162
:1020A0000481B580E0917C03F0917D03309791F439
:1020B00082E090E0998388838CEF9FEFDF91CF914E
:1020C0001F910F91FF90EF90DF90CF90BF909F9066
:1020D0008F90089520917E0330917F03821793079C
:1020E00038F082E090E0998388838EEF9FEFE6CF0F
:1020F00023E1289F6001299FD00C1124EC0DFD1DC8
:10210000E080F180E114F10499F28281081748F728
:102110008BE0089F80011124E00EF11EF701808101
:102120009181892B29F6BB20E1F2F7E0BF9E4001A7
:102130001124C4010E941D1CF70191838083E0914A
:102140007C03F0917D03EC0DFD1D0190F081E02DED
:10215000E00FF11F80819181009739F482E090E0D7
:10216000998388838DEF9FEFA9CFA40170E060E091
:102170000E94DD2C80917C0390917D03C80ED91EB6
:10218000F60180819181080F191FF801B28281E068
:1021900090E09983888390E080E090CFAF92BF92E7
:1021A000CF92DF92FF920F931F93CF93DF93EA01B9
:1021B000FC01E60FF71F82819381F48000917C037C
:1021C00010917D030115110581F482E090E099835F
:1021D00088838CEF9FEFDF91CF911F910F91FF903C
:1021E000DF90CF90BF90AF90089520917E03309103
:1021F0007F038217930738F082E090E09983888309
:102200008EEF9FEFE8CF2FEF2F0D2C3FA8F723E1A4
:10221000289F6001299FD00C11240C0D1D1DF80171
:1022200080819181892B89F6FBE0FF9E500111246A
:10223000C5010E941D1CF80191838083E0917C03FD
:10224000F0917D03EC0DFD1D80819181009739F4A3
:1022500082E090E0998388838DEF9FEFBCCFA5014A
:1022600070E060E00E94DD2CE0917C03F0917D0342
:10227000EC0DFD1DF28281E090E09983888390E06F
:1022800080E0A9CFCF92DF92EF92FF920F931F933E
:10229000CF93DF93860F971FFC01028113818091FA
:1022A0007C0390917D03892B81F082E090E0FA011C
:1022B000918380838CEF9FEFDF91CF911F910F91DE
:1022C000FF90EF90DF90CF900895C801B0E0A0E0BC
:1022D0000197A109B1098F3F9F4FA105B10540F0BA
:1022E00082E090E0FA01918380838EEF9FEFE4CF4C
:1022F0007A0183E1809F6001819FD00C1124C60187
:102300000E941D1CEC01009741F482E090E0F7016F
:10231000918380838DEF9FEFCFCFA60170E060E0C7
:102320000E94DD2CD0937D03C0937C0310937F0328
:1023300000937E0390E080E02FEF3FEF41E061E00B
:1023400070E08017910741F481E090E0F7019183FC
:10235000808390E080E0B0CF3A8B298B1B864C873E
:102360007E876D87188A1F8601966396EACFCF9283
:10237000DF92EF92FF920F931F93CF93DF93EC01C5
:10238000D12CC12C10E000E0F12CE12C6A81601707
:10239000110609F0CCF483E0689FB0011124AE016E
:1023A0004F5E5F4FC7010E944A1C009721F02FEF3C
:1023B0003FEF3A8B298BDF91CF911F910F91FF90C7
:1023C000EF90DF90CF900895E881F981EC0DFD1D2D
:1023D000438154818D859E85489F9001499F300D92
:1023E000589F300D1124C90101960115110519F4EA
:1023F0004F8144FD049661E070E00E943A1BE816AC
:10240000F90608F47C010F5F1F4F8BE0C80ED11C4A
:10241000BDCFF89420917A0330917B0381E02115A0
:10242000310509F080E0232B09F0789408952F926C
:102430003F924F925F926F927F928F929F92AF9254
:10244000BF92CF92DF92EF92FF920F931F93CF93A1
:10245000DF933C01660E771EF301828193814C016C
:10246000B12CA12CC0917C03D0917D03209769F001
:1024700021E030E060917E0370917F03861797071B
:1024800010F030E020E0232BD1F482E090E0FA015C
:10249000918380838EEF9FEFDF91CF911F910F91FA
:1024A000FF90EF90DF90CF90BF90AF909F908F9074
:1024B0007F906F905F904F903F902F900895809203
:1024C000190290921A02A0921B02B0921C0263E1C0
:1024D000689F9001699F300D1124C20FD31FF30133
:1024E0008181833040F082E090E0FA019183808323
:1024F00086EF9FEFD1CF2A012B813C81232BF1F472
:10250000288139819F8191FF2EC0232B09F46FC050
:10251000209181039A81422F490F5527551FBA01F7
:1025200041E050E06138710514F050E040E0452B87
:1025300009F45DC02A87920F909381038150823005
:1025400008F481C066DF882309F4D8C0F3018181D3
:10255000813009F48DC008F47BC0823009F4C6C014
:1025600090E080E0ADC0232B09F441C020918003AE
:102570009A81E22FE90FFF27FF1F41E050E0ED3F76
:10258000F10514F050E040E0452B89F12A87920FC5
:1025900090938003D3CFA081B181A20FB31F119676
:1025A0006C91060F111D0196295F3F4F8417950707
:1025B00094F38D859E85089F1001099F300C189F0C
:1025C000300C1124C114D104D1F48F8184FF17C0C1
:1025D0000E94881BF5E02F0E311C21E08215930527
:1025E00008F420E0A701455F5F4F21110EC082E093
:1025F00090E0F2019183808387EF9FEF4DCF0E949F
:10260000881B2FEF221A320AE8CF88819981E80EC1
:10261000F91EF70114830383FFEFCF1ADF0A7A0153
:102620008A818C151D0409F00CF48CCFE881F981A6
:10263000EE0DFF1D428150E030E020E010E000E0B0
:1026400090E080E0B3CFF12CE12CD12CC12CE8CF6D
:1026500081E090E09C838B83EADA882309F480CFC1
:1026600081E090E00E94940A80E40E94A20A78CF60
:1026700089899A89019661F083E090E09C838B833D
:1026800082E090E00E94940A80E40E949C0A68CF55
:102690008D819E8120910F02309110028217930745
:1026A000D1F46091130270911402AE014F5E5F4F3E
:1026B00080911102909112020E94021D0097E1F296
:1026C000789422E030E0F20131832083892B99F065
:1026D0008DEF9FEFE1CE89288A288B2869F6892B18
:1026E00059F6CE0144DE188A1F86E8CF82E090E0DA
:1026F0009C838B8335CF90E080E0CECE82E090E06B
:10270000F2019183808385EF9FEFC6CE8F929F92D7
:10271000AF92BF92CF92DF92EF92FF920F931F93EF
:10272000CF93DF93EA018C01060F171FF801818117
:10273000833098F082E090E09983888386EF9FEF62
:10274000DF91CF911F910F91FF90EF90DF90CF908D
:10275000BF90AF909F908F90089580917C0390914F
:102760007D03892B61F081E090E020917E03309120
:102770007F03232B11F490E080E0892B39F482E071
:1027800090E0998388838EEF9FEFDACF42DE882333
:1027900009F4DFC0F8018181813009F495C0E8F0C7
:1027A000823099F420917E0330917F03E0917C0385
:1027B000F0917D0390E080E041E050E02817390778
:1027C00009F0BDC034DA811117C0789481E090E03F
:1027D0009983888390E080E0B3CF20917E0330918D
:1027E0007F03E0917C03F0917D0390E080E041E085
:1027F00050E02817390741F481E090E00E94940AE4
:1028000080E40E94A20AE1CF63817481672B11F0FA
:102810005483438301967396ECCFE0917C03F0914F
:102820007D03E00FF11F2381348122303105D9F47B
:10283000218932892F3F3F4FB1F425813681409164
:102840000F02509110022417350761F5AF014F5E5A
:102850005F4F609113027091140280911102909168
:1028600012020E94021DEFEFCE1ADE0AEE0AFE0AE5
:102870000D5E1F4F40917E0350917F0370E060E03A
:10288000C416D506E606F7063CF5009731F27894B3
:10289000892B09F49BCF82E090E0998388838DEFA8
:1028A0009FEF4ECFC114D104E104F104E1F6232BD4
:1028B000D1F6CF015CDDE0917C03F0917D03E00F68
:1028C000F11F108A1786CFCF10E000E090E080E083
:1028D000C12CD12C7601CECF0097C9F610E000E0D4
:1028E000812C912C540183E0E82EF12C1AC0E09148
:1028F0007C03F0917D03E00FF11F838194810297A7
:1029000049F4F482E38282E090E00E94940A80E439
:102910000E949C0AFFEF8F1A9F0AAF0ABF0A0D5E42
:102920001F4F80917E0390917F03B0E0A0E0881656
:102930009906AA06BB06DCF290E080E0A8CF63818E
:1029400074816230710511F4548343830196739648
:1029500035CF82E090E09983888385EF9FEFF0CEBA
:102960000097B9F48FEFFB01808320911902309119
:102970001A0243E1429FC001439F900D1124E09150
:102980007C03F0917D03E80FF91F8285FB018183B1
:1029900008950C944B0A88E090E0FA0191838083BB
:1029A00090E080E0089510927B0310927A03ECE7A8
:1029B000F3E086E0DF011D928A95E9F78AE390E172
:1029C0009093790380937803089580917803909190
:1029D000790308952F923F924F925F926F927F9268
:1029E0008F929F92AF92BF92CF92DF92EF92FF921F
:1029F0000F931F93CF93DF93CDB7DEB760970FB6DA
:102A0000F894DEBF0FBECDBFF894E0917A03F09149
:102A10007B033196F0937B03E0937A037894A09143
:102A20007C03B0917D03BA83A983109709F4F9C19F
:102A3000E0917E03F0917F03EF2B09F4F2C1288728
:102A40004B875C876D877E879A878987B88BAF872E
:102A5000312C212CF12C512C412C80917E03909112
:102A60007F032816390610F4FF2029F1F89480918D
:102A70007A0390917B03019790937B0380937A0371
:102A80007894C20160960FB6F894DEBF0FBECDBF3A
:102A9000DF91CF911F910F91FF90EF90DF90CF903A
:102AA000BF90AF909F908F907F906F905F904F906E
:102AB0003F902F900895B10190E080E087D4682E78
:102AC000EF85F889878181FD3DC0838194810397DB
:102AD000C9F5258136813C832B8389859A85281702
:102AE000390781F5C101EDD8782E8823A9F1AF858A
:102AF000B8891F968D919C915097019621E01D9663
:102B00004D915C918417950709F020E02F83B12C3B
:102B1000A12CEF85F88982818A151B0419F014F025
:102B2000FF20E9F0F885FF2309F46BC1AF85B88970
:102B300050961C921E921F97662021F0B10190E0E2
:102B400080E046D4FFEF2F1A3F0A2F8538892D5E8B
:102B50003F4F388B2F8781CFB1E0BF83D8CFBFD411
:102B60009E838D83E885EE23E9F0772009F43BC14D
:102B7000AF85B8891F968D919C91892B79F0BBE028
:102B8000BA9DC001BB9D900D1124AF85B889ED9110
:102B9000FC91E80FF91F8581968152D6BFEFAB1AE1
:102BA000BB0AB7CF81E0772039F0EF85F889278518
:102BB0003089232B09F080E0F82EE12CA114B10418
:102BC00039F4AF85B8891796EC90E4FAEE24E0F872
:102BD000BBE0BA9D6001BB9DD00C1124882309F491
:102BE00023C1AF85B889ED91FC911197EC0DFD1DC6
:102BF000438154811D962D913C91429FC001439F7A
:102C0000900D529F900D1124E1105CC001969087A9
:102C1000878361E070E0878190852CD5EF85F88906
:102C200021893289008111810C0D1D1D2F3F320732
:102C300009F44AC0BC01C90126D7D80116969C9355
:102C40008E931597AF85B889ED91FC911197EC0D96
:102C5000FD1D058116810115110509F4CDC0ED8119
:102C6000FE810E0F1F1F1A968C918A0DD8018C932E
:102C7000E1102FC00F5F1F4FAF85B889ED91FC9118
:102C8000EC0DFD1D12870187AF85B889ED91FC9190
:102C9000EC0DFD1D85819681892B09F4A4C08091DE
:102CA0000F02909110022B813C812817390709F4FB
:102CB00065C0772011F001851285912C812C1A8234
:102CC00019824AC00596A3CFB8D5F80196838583AB
:102CD000B9CF8B859C85AD85BE85F80181839283B4
:102CE000A383B4830B5F1F4FC7CFE080F180E80C54
:102CF000F91CD70113966D917C9114978C918F3F9D
:102D000009F473C0E1E0F0E002C0EE0FFF1F8A9506
:102D1000E2F7CF01092E000CAA0BBB0BFB0140818F
:102D200051816281738184239523A623B72321E0F7
:102D3000892B8A2B8B2B09F420E0D8012C93D70107
:102D400011968C91080F111DE981FA813196FA8351
:102D5000E983F7E08F0E911CAF85B889ED91FC9166
:102D6000EC0DFD1D828129813A818217130611F035
:102D70000CF0BBCF772011F0128701873F813323FE
:102D800091F1AF85B889ED91FC91EC0DFD1D61E0ED
:102D900070E0878190856ED4AF85B889ED91FC9104
:102DA000EC0DFD1DE780F08445815681E1E0F0E007
:102DB000662011F0F0E0E0E00D811E819C01B10180
:102DC000882799278E1B9F0B8DD32C01892B59F0B7
:102DD000EF85F88980819181C80ED91ED60115969C
:102DE0008D919C912DD5F12CD9CEF701418150E0E8
:102DF000C8010E94D42CA3CF86EF482E55245A94A4
:102E0000CDCEEF85F889878590890196908B87874D
:102E1000258536858217930709F08ECE108A17868E
:102E20008BCE512C412C22CE10E000E02DCF2F92E2
:102E30003F924F925F926F927F928F929F92AF924A
:102E4000BF92CF92DF92EF92FF920F931F93CF9397
:102E5000DF9380917C0390917D0310E000E0892B4B
:102E6000A9F0D7DA0AEF1FEF882381F020907E03C4
:102E700030907F03C0917C03D0917D03D12CC12C75
:102E800010E000E02C143D04A9F47894C801DF910F
:102E9000CF911F910F91FF90EF90DF90CF90BF9057
:102EA000AF909F908F907F906F905F904F903F90EA
:102EB0002F900895C6010E94610E882309F18B812D
:102EC0009C810397E9F48F859889892BC9F0B60115
:102ED00090E080E07BD221E030E0882311F030E008
:102EE00020E044245524421A530AB12CA12C912CE1
:102EF000812C8A818815190409F038F4188A1F86F4
:102F00004FEFC41AD40A6396BDCFE881F981EA0D68
:102F1000FB1D85819681892BA1F161E070E087819D
:102F20009085A8D33C01DBD28C01E881F981EA0DC0
:102F3000FB1D8185928525813681200F311FAC01D3
:102F4000421B530B9A0147815085421B530B70E083
:102F500060E00E94DD2CE881F981EA0DFB1DE7802D
:102F6000F084458156819301B601C201BBD28C0128
:102F7000892B39F0E881F981EA0DFB1D8581968165
:102F80005FD45FEF851A950A8BE0A80EB11CB1CF14
:102F900040CA789408952F923F924F925F926F9219
:102FA0007F929F92AF92BF92CF92DF92EF92FF9269
:102FB0000F931F93CF93DF9300D000D0CDB7DEB730
:102FC00000917C0310917D039924939401151105C0
:102FD00009F43EC0A0907E03B0907F031ADA982EC9
:102FE0008823B1F110927D0310927C0310927F032D
:102FF00010927E0310928003109281038FEF9FEF57
:10300000DC018093190290931A02A0931B02B093E3
:103010001C0278947FD31E830D83C12CD12C7601A2
:10302000C501B0E0A0E089839A83AB83BC832224EE
:103030002A94322C89819A81AB81BC81C816D90629
:10304000EA06FB06F4F0C801FBD380E40E94A20A62
:10305000892D26960FB6F894DEBF0FBECDBFDF9147
:10306000CF911F910F91FF90EF90DF90CF90BF9085
:10307000AF909F907F906F905F904F903F902F9078
:103080000895AD81BE8115968D919C9116972091E2
:103090000F023091100282179307D1F451968D914F
:1030A0009C91DFD4ED81FE8180819181B12CA12C96
:1030B000412C512C3201892B89F5BFEFCB1ADB0A49
:1030C000EB0AFB0AED81FE817396FE83ED83B2CF9E
:1030D000C114D104E104F10429F7892B19F7ED811A
:1030E000FE81818992898F3F980709F05CD4AD8178
:1030F000BE8152963C922E925197D4CF8A0D9B1D41
:10310000DC018D919C91009709F09AD3BFEF4B1A87
:103110005B0A6B0A7B0AEBE0AE0EB11CAD81BE818F
:103120008D919C91119712964C9150E070E060E067
:1031300044165506660677060CF382D3BECFCF93AE
:10314000DF93EA0128DF811109C082E090E09983D2
:10315000888385EF9FEFDF91CF91089581E090E024
:103160000E94940A81E090E09983888390E080E057
:10317000F2CF11DF1092790310927803089542E0A4
:1031800050E069E972E00C94B20AFF920F931F932A
:10319000CF93DF938A01EC01C60FD71FF980B9D214
:1031A0000897F816190671F068F082E090E0F801CF
:1031B000918380838EEF9FEFDF91CF911F910F91CD
:1031C000FF9008956C817D818E819F814B810E944B
:1031D000470D811108C082E090E0F801918380835F
:1031E00084EF9FEFE9CFF9800E94420D4F2D50E010
:1031F000BE01685F7F4F0E94D42C89810E94B10D6F
:1032000081E090E0F8019183808390E080E0D4CF6A
:10321000DF92EF92FF920F931F93CF93DF938A0178
:10322000EC01C60FD71F0E94420D7C01D98071D2DC
:10323000DD2059F0029721E030E0D816190619F088
:1032400010F030E020E0232B79F482E090E0F801E8
:10325000918380838EEF9FEFDF91CF911F910F912C
:10326000FF90EF90DF900895EF2841F482E090E026
:10327000F8019183808384EF9FEFEECFF9800E9465
:10328000420D4F2D50E0BE016E5F7F4F0E94D42C47
:1032900089810E94B10D81E090E0F80191838083E3
:1032A00090E080E0D9CF8FEB98E1909383038093F7
:1032B0008203089580918203909183030895089575
:1032C000FC0111821082938382830895DB011D9299
:1032D0001C92DC011296ED91FC911397718360832F
:1032E00013967C936E9312970895FC0180819181CF
:1032F000DB018D939C93A081B181109741F08D915A
:103300009C9191838083892B11F4F383E283089548
:10331000FC0180819181DB018D939C93892B11F4B9
:1033200073836283718360830895FC01118210822C
:10333000938382830895CF93DF931F921F92CDB71B
:10334000DEB71A821982F894BE016F5F7F4F89E859
:1033500093E0CBDF89819A81009709F071D289814E
:103360009A81892B89F7BE016F5F7F4F8DE893E0CB
:10337000BCDF89819A81009709F062D289819A81A4
:10338000892B89F778940F900F90DF91CF91089552
:10339000CF93DF931F921F92CDB7DEB71A821982A7
:1033A000F894BE016F5F7F4F85E893E09EDF8981CF
:1033B0009A81009709F044D289819A81892B89F7F3
:1033C00078940F900F90DF91CF91089581E0089548
:1033D00090E080E00895EF92FF920F931F93CF93B8
:1033E000DF931F921F92CDB7DEB71A8219828091A8
:1033F000840307EF1FEF8823A1F1F894BE016F5FEC
:103400007F4F8DE893E071DF789489819A81EE2473
:10341000E394F12C892B51F4F894BE016F5F7F4F38
:1034200089E893E062DF7894F12CE12C89819A811C
:103430000EEF1FEF0097A9F0FC014281538164E079
:1034400070E013D58C01892B61F0F89469817A8141
:10345000C701880F991F880F991F87579C4F58DF06
:103460007894C8010F900F90DF91CF911F910F9129
:10347000FF90EF9008950F931F93CF93DF9300D0A9
:103480001F92CDB7DEB71C821B821A8219828091EF
:10349000840307EF1FEF8823C1F0AE014D5F5F4F3C
:1034A00064E070E0CE01019653D58C01892B69F45C
:1034B000E981FA818B819C8193838283F89469816D
:1034C0007A8185E893E002DF7894C8010F900F902D
:1034D0000F900F90DF91CF911F910F91089558D6C3
:1034E000049608958F929F92AF92BF92CF92DF92EF
:1034F000EF92FF920F931F93CF93DF931F921F9230
:10350000CDB7DEB71A821982BC016F5F7F4F63307F
:10351000710598F0AA24AA94BA2CC5010F900F90B7
:10352000DF91CF911F910F91FF90EF90DF90CF909F
:10353000BF90AF909F908F9008954115510551F322
:10354000480159018A016C01CADF8815990511F7F4
:10355000E114F104F9F28E0D9F1DA816B906D0F200
:10356000809184038823F1F0F894B50164507109C7
:103570009701AE014F5F5F4FC80104967ED55C0195
:10358000892B71F489819A81F80193838283C60122
:10359000880F991F880F991FB80187579C4F96DE97
:1035A0007894BBCF87EFA82EBB24BA94B6CFAF9246
:1035B000BF92CF92DF92EF92FF920F931F93CF9320
:1035C000DF931F921F92CDB7DEB71A821982892B23
:1035D00009F047C06115710509F443C04115510553
:1035E00009F43FC02115310509F43BC0011511054F
:1035F000C1F1809184038823B9F179016A015B01EB
:10360000F894BE016F5F7F4F85E893E06EDE78949B
:1036100089819A81009759F1DC0112966D917C9114
:10362000A801049643D58C01E981FA81D501ED9377
:10363000FC93828193810496F601918380834FDF0E
:10364000D7018D939C93C8010F900F90DF91CF917C
:103650001F910F91FF90EF90DF90CF90BF90AF90B0
:1036600008950FEF1FEFEFCF07EF1FEFECCF0EEF37
:103670001FEFE9CFCF93DF93EC01672B71F491D566
:103680008C179D0760F084D52496C80FD91F83D569
:103690008C0F9D1FDF91CF91089580D5F1CF90E0E1
:1036A00080E0F8CF0F931F93CF93DF932091840393
:1036B00021112BC08B01EC0189E893E001DE8DE83C
:1036C00093E0FEDD85E893E0FBDD97D00097C1F441
:1036D00068D570E060E0CEDF4DE152E062E070E07E
:1036E000D9D0009769F480911D0290911E026BD58C
:1036F000B801CE01A0D3009719F421E020938403F0
:10370000DF91CF911F910F91089584EF9FEFF8CF34
:1037100045C547C5CF93DF9347D5EC01892B11F4FD
:103720000ADE36DECE01DF91CF910895CF93DF938D
:103730003BD5EC01892B09F4FEDDCE01DF91CF9161
:10374000089580911D0290911E020895CF93DF93FA
:1037500080918403D0E0C0E08823D1F039D5EC011A
:10376000892BB1F4E8DD14DE80911D0290911E02D8
:103770001AD1CED1EC01892B59F489E893E0D5DD3B
:103780008DE893E0D2DD85E893E0CFDD10928403ED
:10379000CE01DF91CF910895EF92FF920F931F9387
:1037A000CF93DF93EC017A018B010F5F1F4F0E9DCA
:1037B000A0010F9D500D1E9D500D112470E060E082
:1037C0000E94DD2C90E080E0F0E0E0E02FEFE816D2
:1037D000F90639F4DF91CF911F910F91FF90EF908F
:1037E00008951A8219822883309711F0D283C183F9
:1037F0000196FE01C00FD11FEACFE3E9F3E085E8AF
:10380000DF011D928A95E9F71092920310929103BD
:10381000EFE1F4E011821082158214821382128289
:103820001782168211861086EBE1F4E01182108275
:103830001382128290E080E0089590E080E0089585
:10384000009739F1DC018E91813041F4E0911D0443
:10385000F0911E043097E9F0CD011994811119C03F
:10386000F8948FEF8C9380911F049091200412960E
:103870009C938E931197B0932004A0931F04809182
:1038800021049091220401969093220480932104B4
:1038900078940895EF92FF920F931F93CF93DF9345
:1038A0004115510509F47CC0009709F479C06115F0
:1038B000710509F475C0EA01AB01BC01F89480916F
:1038C0001F0490912004892B19F586E993E08C7FE1
:1038D0006D5F7F4F6C7F9B012F5F3F4F249F800167
:1038E000259F100D349F100D112420912704309135
:1038F00028042115310509F03CC0E0909103F090B7
:10390000920322E830E02E193F092017310730F4E6
:1039100078942FEF3FEF86EF9FEF22C09093200423
:1039200080931F0450932404409323045093220453
:103930004093210470932604609325041093280477
:1039400000932704009709F027DF0E0D1F1D109329
:10395000920300939103789430E020E090E080E0BF
:1039600039832883DF91CF911F910F91FF90EF90C2
:1039700008952017310760F29093200480931F046C
:103980005093240440932304509322044093210431
:1039900070932604609325040097E9F2FDDEDBCFE7
:1039A0008FEF9FEFDFCF892B51F5F8941092200411
:1039B00010921F04109224041092230410922204E7
:1039C00010922104109226041092250420912704BD
:1039D000309128042115310571F080919103909167
:1039E0009203821B930B9093920380939103109206
:1039F000280410922704789490E080E008958FEFD7
:103A00009FEF08954115510549F1009739F161156E
:103A1000710521F1F89420911B0430911C04232B93
:103A2000B9F420911D0430911E04232B89F4909346
:103A30001C0480931B0470931E0460931D047894EF
:103A400021E030E090E080E0FA01318320830895A6
:103A500078942FEF3FEF86EF9FEFF6CF8FEF9FEF3A
:103A60000895019769F4F89410921C0410921B04B5
:103A700010921E0410921D04789490E080E0089546
:103A80008FEF9FEF08956115710519F4F0E0E0E004
:103A900011C08130910581F4E0911B04F0911C0468
:103AA0003097A1F3CB0101961995009779F3FC01AA
:103AB00081E08193CF010895892B41F780911F0404
:103AC00090912004892B11F3809125049091260474
:103AD00086179707D8F2F8948091210490912204D8
:103AE000009731F0E0911F04F0912004309711F419
:103AF0007894CCCF218132813093200420931F040D
:103B00000197909322048093210411927894D2CF4C
:103B1000E8E1F4E083E0DF011D928A95E9F7E3E94B
:103B2000F3E085E8DF011D928A95E9F71092920390
:103B300010929103EFE1F4E08AE0DF011D928A9593
:103B4000E9F7EBE1F4E084E0DF011D928A95E9F703
:103B500090E080E00895CF93DF93C0911F02D09151
:103B60002002CF3FDC0759F4DCD3909320028093EE
:103B70001F0297FF09C0D0932002C0931F0284EF59
:103B80009FEFDF91CF91089590E080E0FACF8230EF
:103B9000910528F48093290490E080E008958FEF48
:103BA0009FEF08954F925F926F927F92AF92BF9274
:103BB000CF92DF92EF92FF920F931F93CF93DF93F9
:103BC0001F921F92CDB7DEB71A821982009709F4AF
:103BD00079C06115710509F475C020911F023091FB
:103BE000200207EF1FEF2F3F3F4F09F445C06B0145
:103BF0005C01412C512C3201F12CE12C10E000E051
:103C00009E012F5F3F4FA6014E195F09B5016E0D52
:103C10007F1D80911F0290912002E2D3892B09F031
:103C20004BC089819A81009741F4E114F10429F491
:103C300020912904222309F442C0E80EF91EEC1455
:103C4000FD04D0F480E8481684E858068EE1680642
:103C5000710420F560E070E0CB010E9409272AE0A2
:103C6000420E511C611C711C0A3F4FEF140721F0DA
:103C7000043F8FEF1807A1F4C8010F900F90DF9158
:103C8000CF911F910F91FF90EF90DF90CF90BF9059
:103C9000AF907F906F905F904F90089501EF1FEF6E
:103CA00081E090E0013F2FEF120711F090E080E0FB
:103CB000892B09F4A5CFE0CF04EF1FEFDDCF0AEF8A
:103CC0001FEFDACF0FEF1FEFD7CF4F925F926F92B8
:103CD0007F92AF92BF92CF92DF92EF92FF920F93BB
:103CE0001F93CF93DF931F921F92CDB7DEB71A8237
:103CF0001982009709F479C06115710509F475C03E
:103D000020911F023091200207EF1FEF2F3F3F4FFE
:103D100009F445C06B015C01412C512C3201F12C9E
:103D2000E12C10E000E09E012F5F3F4FA6014E19ED
:103D30005F09B5016E0D7F1D80911F0290912002D9
:103D400005D3892B09F04BC089819A81009741F4F2
:103D5000E114F10429F420912904222309F442C03A
:103D6000E80EF91EEC14FD04D0F480E8481686E94C
:103D7000580688E96806710420F560E070E0CB0120
:103D80000E9409272AE0420E511C611C711C0E3F43
:103D90004FEF140721F0043F8FEF1807A1F4C8017B
:103DA0000F900F90DF91CF911F910F91FF90EF90A7
:103DB000DF90CF90BF90AF907F906F905F904F90CB
:103DC000089502EF1FEF81E090E0023F2FEF12070E
:103DD00011F090E080E0892B09F4A5CFE0CF04EF4B
:103DE0001FEFDDCF0EEF1FEFDACF0FEF1FEFD7CFB3
:103DF00080911F02909120028F3F980749F089D24D
:103E0000892B49F48FEF9FEF9093200280931F023C
:103E100090E080E0089584EF9FEF0895FC01680F23
:103E2000791F90E080E0E617F70709F408952191E3
:103E3000820F911DF8CF20912A04211113C08BDE2F
:103E4000009791F41092300410922F0410922E04D7
:103E500010922D0410922C0410922B0421E0209338
:103E60002A04089584EF9FEF0895AF92BF92CF92F6
:103E7000DF92EF92FF920F931F93CF93DF93009700
:103E800009F460C04630510508F45CC020912A0452
:103E9000C7EFDFEF222309F449C08C01060F171F7B
:103EA000F801C080D180C114D10409F44EC096013C
:103EB0002A5F3F4F4217530708F447C07C018091A7
:103EC0002F049091300493838283B6016C5F7F4FFF
:103ED0005801A60EB71EC801A1DFF50191838083AA
:103EE00064E070E0C8015EDEEC01892BF9F481E04A
:103EF00090E04DDEB601C801049654DEEC01892B3A
:103F000091F462E070E0C5014DDEEC01892B59F4BB
:103F1000C70196DC80912F04909130040196909314
:103F2000300480932F0490E080E031DECE01DF91F9
:103F3000CF911F910F91FF90EF90DF90CF90BF90A6
:103F4000AF900895CFEFDFEFF1CFC9EFDFEFEECF06
:103F50006F927F928F929F92AF92BF92CF92DF9299
:103F6000EF92FF920F931F93CF93DF9300D01F9296
:103F7000CDB7DEB7009709F47AC04115510509F4B1
:103F800076C020912A0407EF1FEF222309F44DC0C9
:103F90003A017B015C0164E070E0CE01019695DEA0
:103FA0008C01892B09F041C009811A810115110585
:103FB00009F45AC0480186E0880E911CB701680DCB
:103FC000791D80912102909122025DDD6C010097A4
:103FD00009F450C0A70170E060E00E94DD2C8981E7
:103FE0009A81AB81BC81EC0CFD1CF701819391930C
:103FF000A193B1937F0181E090E0C9DDB801C701D1
:1040000064DE892B31F562E070E0C701800F911FFB
:104010005CDE8C01892BE9F490E080E0B8DDF501ED
:10402000D182C082F30191828082C8010F900F90EB
:104030000F900F90DF91CF911F910F91FF90EF9014
:10404000DF90CF90BF90AF909F908F907F906F90B8
:10405000089590E080E09BDDF50111821082F3016C
:1040600011821082C601ECDB09EF1FEFDECF0FEFEC
:104070001FEFDBCF06EF1FEFD8CF0097A1F0411560
:10408000510589F02115310571F0F90136966E1749
:104090007F0748F0DC012D933C93DA01ED93FC930C
:1040A00090E080E008958FEF9FEF0895AF92BF9268
:1040B000CF92DF92EF92FF920F931F93CF93DF93F4
:1040C000009709F45FC04115510509F45BC06530E4
:1040D000710508F457C020912A04C7EFDFEF2223AF
:1040E00091F1DC01CD90DC9011971296ED91FC914D
:1040F00096012A5F3F4FC9EFDFEF2617370719F503
:10410000C0912B04D0912C04209749F521E030E098
:1041100030932C0420932B047A018C01F0932E040D
:10412000E0932D045601B4E0AB0EB11CB50176DE70
:104130000A0D1B1DF801208131818217930729F593
:10414000D701CD92DC92CE01DF91CF911F910F91DB
:10415000FF90EF90DF90CF90BF90AF9008952091A7
:104160002D0430912E042F5F3F4FCCEFDFEFE2178D
:10417000F30790F2CBEFDFEF2E173F0768F2D0E0A6
:10418000C0E0CACFCFEFDFEFDECFC3EFDFEFDBCF93
:1041900084E090E0089582E090E008958CEF9FEF36
:1041A000089580E290E008951092300410922F0458
:1041B00010922E0410922D0410922C0410922B04B5
:1041C00090E080E008959093220280932102089568
:1041D00080912A04882391F00BDE009789F41092D5
:1041E000300410922F0410922E0410922D0410927D
:1041F0002C0410922B0410922A04089590E080E081
:104200000895009749F06115710531F0FC011182A4
:104210001082FB01118210820895F3CF26E030E076
:1042200040E855E260E070E090E080E000C081305E
:10423000910571F01CF4892B39F0089582309105B5
:1042400051F0039759F008958BED94E00C945D299B
:1042500088E795E0FBCF85E196E0F8CF82EB96E02A
:10426000F5CF089580E00895CF92DF92EF92FF920C
:104270000F931F93A9D560933104709332048093F8
:104280003304909334040091350410913604209146
:104290003704309138046B017C01C01AD10AE20A5C
:1042A000F30A9701860100341D402340310508F1CF
:1042B00060933504709336048093370490933804E8
:1042C000A3D082D500913504109136042091370493
:1042D00030913804601B710B820B930B60347D406E
:1042E0008340910570F081E090E090933C048093CE
:1042F0003B0481E01F910F91FF90EF90DF90CF90F2
:10430000089510923C0410923B04F3CF10923904AC
:10431000089568EE73E080E090E07BD590E080E067
:10432000089526E030E040E050E16EE070E090E07B
:1043300080E07DDF8BED94E0F6D6892B21F08BEDCC
:1043400094E00BD7F7CF90E080E00895CF92DF9212
:10435000EF92FF920F931F93CF93DF936B017A013C
:10436000E901198218828BED94E0DDD6892B69F181
:104370008601CC24C39482E0D82E80913904811127
:1043800010C08BED94E0E9D60297B9F7C0923904DA
:10439000F801D1928F018881998101969983888350
:1043A000ECCF888199818E159F0578F48BED94E090
:1043B000D4D68F3F9807A9F3F80181938F018881A4
:1043C0009981019699838883ECCF90E080E0DF911A
:1043D000CF911F910F91FF90EF90DF90CF900895B4
:1043E0000F931F93CF93DF93EA0189018BED94E044
:1043F0000E94ED2BF801D183C08390E080E0DF9133
:10440000CF911F910F910895CF92DF92EF92FF927B
:1044100080913A0491E0980F90933A04882369F0D0
:1044200021E030E030933C0420933B0480933A0435
:10443000FF90EF90DF90CF900895E0912502F091EA
:104440002602C28CD38CE48CF58C0E944D03B701FC
:10445000A60190E080E00E94C00280913A04815061
:10446000E5CF0F931F93CF93DF9310925C071092C9
:104470005B0705D5D3DEC0912502D09126021982B3
:1044800018826FEF7FEFCB010E94420370E060E083
:1044900090E080E00E94C501009709F039C00E94B9
:1044A000CB03F8947894BE016E5D7F4F8A819B8127
:1044B0000E94C801892B59F46FEF7FEFCB010E9456
:1044C00057020E943C03882311F081E08EA3F894E8
:1044D000C8DE0E943F03882311F080E008C00E94DC
:1044E0003C038111FACF81E09EA19111F6CF809318
:1044F0005B070E948F0A8C01789480915B07811181
:104500000CC00E9447040E942203F89490E080E0CF
:10451000DF91CF911F910F9108950E9420030E9477
:104520003F038823D9F081E080935C0790915C077A
:1045300081E0911180E080935B0780915C0781119D
:1045400091DE0130110529F40E948F0A892B09F4AC
:10455000DDDE0E948F0A8C0187DECFCF0E943C03F4
:104560008111E1CF81E09EA19111DECF80E0DCCF0F
:1045700040D008F481E00895E89409C097FB3EF428
:1045800090958095709561957F4F8F4F9F4F9923A0
:10459000A9F0F92F96E9BB279395F695879577951E
:1045A0006795B795F111F8CFFAF4BB0F11F460FFDE
:1045B0001BC06F5F7F4F8F4F9F4F16C0882311F036
:1045C00096E911C0772321F09EE8872F762F05C04A
:1045D000662371F096E8862F70E060E02AF09A95E5
:1045E000660F771F881FDAF7880F9695879597F9DA
:1045F0000895990F0008550FAA0BE0E8FEEF161674
:104600001706E807F907C0F012161306E407F507C6
:1046100098F0621B730B840B950B39F40A2661F03A
:10462000232B242B252B21F408950A2609F4A140DD
:10463000A6958FEF811D811D0895DBDF08F48FEFB4
:1046400008950BD078C069D028F06ED018F095236B
:1046500009F05AC05FC01124A2C07ED0A0F3959F7C
:10466000D1F3950F50E0551F629FF001729FBB2759
:10467000F00DB11D639FAA27F00DB11DAA1F649F05
:104680006627B00DA11D661F829F2227B00DA11DB8
:10469000621F739FB00DA11D621F839FA00D611D3E
:1046A000221F749F3327A00D611D231F849F600D5F
:1046B000211D822F762F6A2F11249F5750408AF098
:1046C000E1F088234AF0EE0FFF1FBB1F661F771F24
:1046D000881F91505040A9F79E3F510570F014C0BB
:1046E0005EC05F3FECF3983EDCF386957795679567
:1046F000B795F795E7959F5FC1F7FE2B880F911D42
:104700009695879597F9089597F99F6780E870E0E7
:1047100060E008959FEF80EC089500240A94161637
:10472000170618060906089500240A94121613069F
:10473000140605060895092E0394000C11F488232D
:1047400052F0BB0F40F4BF2B11F460FF04C06F5F49
:104750007F4F8F4F9F4F089557FD9058440F551F1F
:1047600059F05F3F71F04795880F97FB991F61F0F3
:104770009F3F79F087950895121613061406551F6A
:10478000F2CF4695F1DF08C0161617061806991FD6
:10479000F1CF86957105610508940895E894BB27CB
:1047A00066277727CB0197F90895CF92DF92EF9292
:1047B000FF920F931F93CF93DF936B017A01EC016C
:1047C000C25CDB4F28813CE0389F8001399F100D8F
:1047D000112427FF24C0FB011182108288818F5F82
:1047E000888388819801280F311D87FD3A95C9017A
:1047F00020913D04F6012817190629F024F088813C
:104800008C300CF43BC080819181049680349C49AB
:1048100008F473C0F60180819181049670C088818C
:104820009801280F311D87FD3A95C90120913D045B
:104830002817190699F294F28881A801480F511D92
:1048400087FD5A95FA01EE0FFF1FE40FF51FEE5B8F
:10485000FB4F808186FFC2CF8881F801E80FF11DF0
:1048600087FDFA95CF01EE0FFF1FE80FF91FEE5BF2
:10487000FB4F808160E08F7329D4B0CF808191811C
:104880002881A801420F511D27FD5A959A01FA016E
:10489000EE0FFF1FE20FF31FEE5BFB4F2181328112
:1048A000820F931FF7019183808388819801280FDD
:1048B000311D87FD3A95F901EE0FFF1FE20FF31F3F
:1048C000EE5BFB4F808186FF1FC08881080F111DA2
:1048D00087FD1A95F801EE0FFF1FE00FF11FEE5B49
:1048E000FB4F808161E08F73DF91CF911F910F911A
:1048F000FF90EF90DF90CF90E9C380E49CE9F7014F
:10490000918380838FEF8883DF91CF911F910F91E7
:10491000FF90EF90DF90CF9008951F920F920FB607
:104920000F9211240BB60F922F933F934F935F93E7
:104930006F937F938F939F93AF93BF93EF93FF9367
:1049400048E850E064E870E081E090E02EDFFF91FD
:10495000EF91BF91AF919F918F917F916F915F91F7
:104960004F913F912F910F900BBE0F900FBE0F9064
:104970001F9018951F920F920FB60F9211240BB62D
:104980000F922F933F934F935F936F937F938F93E8
:104990009F93AF93BF93EF93FF9348E950E064E98F
:1049A00070E082E090E001DFFF91EF91BF91AF9165
:1049B0009F918F917F916F915F914F913F912F9137
:1049C0000F900BBE0F900FBE0F901F9018951F9267
:1049D0000F920FB60F9211240BB60F922F933F93A5
:1049E0004F935F936F937F938F939F93AF93BF93F7
:1049F000EF93FF9348EA50E064EA70E083E090E0D0
:104A0000D4DEFF91EF91BF91AF919F918F917F91F4
:104A10006F915F914F913F912F910F900BBE0F902F
:104A20000FBE0F901F9018951F920F920FB60F9206
:104A300011240BB60F922F933F934F935F936F9375
:104A40007F938F939F93AF93BF93EF93FF9348E22E
:104A500051E064E271E090E080E0A7DEFF91EF9129
:104A6000BF91AF919F918F917F916F915F914F9186
:104A70003F912F910F900BBE0F900FBE0F901F9084
:104A80001895FC0190913D04903398F481E0890FD2
:104A900080933D049083892F90E0FC01EE0FFF1F6F
:104AA000E80FF91FEE5BFB4F88EB9BE0928381835D
:104AB00008958FEF80830895DF92EF92FF920F9316
:104AC0001F93CF93DF93EC01D62E7A018901888161
:104AD000803308F065C061E08D2DBCD28881282F1D
:104AE00030E0F901EE0FFF1FE20FF31FEE5BFB4F0B
:104AF0009D2D9F736081607C692B608320E232E092
:104B00002E193F0937FF02C02D5F3F4F359527957E
:104B100035952795298320E639E0201B310B37FF97
:104B200002C02D5F3F4F35952795359527952A83F0
:104B30002CE0622FCED6829FB001112430E020E01D
:104B4000AB01420F531FFA01EE0FFF1FE40FF51FD9
:104B5000EE5BFB4F908196FD16C02F5F3F4F2C30D0
:104B6000310571F7813029F51092800082E0809341
:104B700081001092850010928400B19A80916F009C
:104B8000826080936F00E8818E2F90E0FC01EE0F31
:104B9000FF1FE80FF91FEE5BFB4F8081806480836D
:104BA0008881DF91CF911F910F91FF90EF90DF905F
:104BB0000895823061F410929000809391001092D9
:104BC00095001092940088BB80937100DCCF8330F5
:104BD00069F41092A00082E08093A1001092A500D9
:104BE0001092A40089BB80937200CDCF8111CBCFEE
:104BF0001092200182E080932101109225011092F1
:104C000024018ABB80937300BECF20E639E040E2E6
:104C100052E052CFDC01EC91E03390F511968C918B
:104C2000119728E830E0281B310987FD3395220FC2
:104C3000331F220F331F6217730784F012968C9173
:104C400028E532E0281B310987FD3395220F331FF9
:104C5000220F331F621773070CF49B012250310996
:104C6000220F331F4FB7F8948E2F90E0FC01EE0F08
:104C7000FF1FE80FF91FEE5BFB4F328321834FBF0D
:104C80000895AF92BF92CF92DF92EF92FF920F936F
:104C90001F93CF93DF93EC01603282E078070CF032
:104CA0003DC0653B710514F064EB70E0898148E814
:104CB000A42EB12CA81AB10887FDB394AA0CBB1C72
:104CC000AA0CBB1C0B2C000CCC08DD0877FF02C023
:104CD00070E060E0072E000C880B990B2A8108E534
:104CE00012E0021B110927FD1395000F111F000F81
:104CF000111F012E000C220B330B3F932F931F9398
:104D00000F9314EBE12EF12C00E010E020E030E0F6
:104D1000A90190D50F900F900F900F90CE01DF91C9
:104D2000CF911F910F91FF90EF90DF90CF90BF90A8
:104D3000AF9070CF1F920F920FB60F9211242F9346
:104D40003F938F939F93AF93BF938091D3049091A0
:104D5000D404A091D504B091D6043091D20423E0BC
:104D6000230F2D3758F50196A11DB11D2093D204B4
:104D70008093D3049093D404A093D504B093D60425
:104D80008091D7049091D804A091D904B091DA040D
:104D90000196A11DB11D8093D7049093D804A093D0
:104DA000D904B093DA04BF91AF919F918F913F9155
:104DB0002F910F900FBE0F901F90189526E8230F8C
:104DC0000296A11DB11DD2CF3FB7F8948091D704B0
:104DD0009091D804A091D904B091DA0426B5A89B8B
:104DE00005C02F3F19F00196A11DB11D3FBFBA2F7D
:104DF000A92F982F8827BC01CD01620F711D811D3D
:104E0000911D42E0660F771F881F991F4A95D1F7C1
:104E100008958F929F92AF92BF92CF92DF92EF92BE
:104E2000FF926B017C01D0DF4B015C01C114D10406
:104E3000E104F104D9F03DD5C7DF681979098A0981
:104E40009B09683E73408105910580F321E0C21AF9
:104E5000D108E108F10888EE880E83E0981EA11CB5
:104E6000B11CC114D104E104F10431F7FF90EF90BB
:104E7000DF90CF90BF90AF909F908F9008957894DF
:104E800084B5826084BD84B5816084BD85B582604F
:104E900085BD85B5816085BDEEE6F0E080818160ED
:104EA0008083E1E8F0E010828081826080838081ED
:104EB00081608083E0E8F0E0808181608083E1EBC5
:104EC000F0E0808184608083E0EBF0E080818160AD
:104ED0008083E1E9F0E0808182608083808181606D
:104EE0008083E0E9F0E0808181608083E1EAF0E0A6
:104EF000808182608083808181608083E0EAF0E04D
:104F0000808181608083E1E2F1E080818260808342
:104F1000808181608083E0E2F1E080818160808334
:104F2000EAE7F0E080818460808380818260808312
:104F30008081816080838081806880831092C1003D
:104F40000895863308F0865320917B00982F98703F
:104F5000277F922B90937B002091230290E4299F3E
:104F6000900111248770822B80937C0080917A00BD
:104F7000806480937A0080917A0086FDFCCF8091D6
:104F800078009091790008958150823108F059C0DD
:104F9000E82FF0E08827E153F84D8F4FE4C4EF2766
:104FA000F327E127E727EB272128F627FC2700280E
:104FB00006280A280E281428182821281C28222808
:104FC0002628809180008F778093800008958091BB
:104FD00080008F7DF9CF80918000877FF5CF84B5E9
:104FE0008F7784BD089584B58F7DFBCF8091B0000D
:104FF0008F778093B00008958091B0008F7DF9CFB6
:10500000809190008F778093900008958091900018
:105010008F7DF9CF80919000877FF5CF8091A000A0
:105020008F778093A00008958091A0008F7DF9CFA5
:105030008091A000877FF5CF809120018F778093AA
:1050400020010895809120018F7DF9CF809120016A
:10505000877FF5CFCF93DF9390E0FC01E65DFE4FB5
:10506000249180599E4FFC0184918823C9F090E0DF
:10507000880F991FFC01E053FE4FA591B491FC01EC
:10508000EA54FE4FC591D49161110DC09FB7F894B9
:105090008C91209582238C938881282328839FBF1D
:1050A000DF91CF910895623051F49FB7F8943C910D
:1050B000822F809583238C93E8812E2BEFCF8FB79F
:1050C000F894EC912E2B2C938FBFEACF1F93CF93A4
:1050D000DF93282F30E0F901EC51FF4F8491F90163
:1050E000E65DFE4FD491F901E059FE4FC491CC2307
:1050F000A1F0162F811148DFEC2FF0E0EE0FFF1F1B
:10510000EA54FE4FA591B4918FB7F894EC91111128
:1051100008C0D095DE23DC938FBFDF91CF911F9124
:105120000895DE2BF8CFFC01918D228D892F90E020
:10513000805C9F4F821B91098F7399270895FC0112
:10514000918D828D981731F0828DE80FF11D858D3C
:1051500090E008958FEF9FEF0895FC01918D828D6F
:10516000981761F0A28DAE0FBF2FB11D5D968C9187
:10517000928D9F5F9F73928F90E008958FEF9FEFC6
:105180000895FC01538D448D252F30E0842F90E04D
:10519000821B930B541710F0CF9608950197089532
:1051A000FC01A48DA80FB92FB11DA35ABF4F2C919C
:1051B000848D90E001968F739927848FA689B78993
:1051C0002C93A089B1898C91837080648C93938D8A
:1051D000848D981306C00288F389E02D80818F7D2D
:1051E00080830895CF93DF93EC01888D8823B1F0FD
:1051F000AA89BB89E889F9898C9185FD03C08081E2
:1052000086FD0CC00FB607FCF7CF8C9185FFF2CF5F
:10521000808185FFEDCFCE01C3DFEACFDF91CF9153
:105220000895EF92FF920F931F93CF93DF93EC01BA
:1052300081E0888F9B8D8C8D98131AC0E889F9893D
:10524000808185FF15C09FB7F894EE89FF89608340
:10525000E889F98980818370806480839FBF81E0C1
:1052600090E0DF91CF911F910F91FF90EF90089503
:10527000F62E0B8D10E00F5F1F4F0F731127E02EDE
:105280008C8D8E110BC00FB607FCFACFE889F98917
:10529000808185FFF5CFCE0183DFF2CFEB8DEC0F60
:1052A000FD2FF11DE35AFF4FF0829FB7F8940B8F4B
:1052B000EA89FB8980818062D0CFCF92DF92EF9222
:1052C000FF921F93CF93DF93EC016A017B01122FB2
:1052D000E889F98982E08083C11481EED806E1046F
:1052E000F10499F060E079E08DE390E0A701960188
:1052F000FCD22150310941095109569547953795FE
:105300002795211580E1380790F0E889F989108206
:1053100060E874E88EE190E0A7019601E6D22150A2
:105320003109410951095695479537952795EC85DF
:10533000FD853083EE85FF852083188EEC89FD89FD
:105340001083EA89FB89808180618083EA89FB89F7
:10535000808188608083EA89FB898081806880837E
:10536000EA89FB8980818F7D8083DF91CF911F91B6
:10537000FF90EF90DF90CF9008951F920F920FB69D
:105380000F9211240BB60F922F938F939F93EF934D
:10539000FF93E091EB04F091EC048081E091F10443
:1053A000F091F20482FD1DC090818091F4048F5F22
:1053B0008F732091F504821741F0E091F404F0E03E
:1053C000E552FB4F958F8093F404FF91EF919F91ED
:1053D0008F912F910F900BBE0F900FBE0F901F90CB
:1053E00018958081F2CF1F920F920FB60F92112461
:1053F0000BB60F922F933F934F935F936F937F93CF
:105400008F939F93AF93BF93EF93FF938BED94E0B4
:10541000C7DEFF91EF91BF91AF919F918F917F91E7
:105420006F915F914F913F912F910F900BBE0F9015
:105430000FBE0F901F901895EBEDF4E013821282CF
:1054400088EE93E0A0E0B0E084839583A683B783E1
:1054500089EA92E09183808385EC90E09587848748
:1054600084EC90E09787868780EC90E0918B808B2E
:1054700081EC90E0938B828B82EC90E0958B848B17
:1054800086EC90E0978B868B118E128E138E148E85
:1054900008951F920F920FB60F9211240BB60F9220
:1054A0002F938F939F93EF93FF93E0918805F09153
:1054B00089058081E0918E05F0918F0582FD1DC0E8
:1054C0009081809191058F5F8F7320919205821753
:1054D00041F0E0919105F0E0E858FA4F958F809304
:1054E0009105FF91EF919F918F912F910F900BBE9E
:1054F0000F900FBE0F901F9018958081F2CF1F92D2
:105500000F920FB60F9211240BB60F922F933F9369
:105510004F935F936F937F938F939F93AF93BF93BB
:10552000EF93FF9388E795E03BDEFF91EF91BF910A
:10553000AF919F918F917F916F915F914F913F912B
:105540002F910F900BBE0F900FBE0F901F901895CC
:10555000E8E7F5E01382128288EE93E0A0E0B0E085
:1055600084839583A683B78389EA92E091838083BD
:105570008DEC90E0958784878CEC90E09787868708
:1055800088EC90E0918B808B89EC90E0938B828B00
:105590008AEC90E0958B848B8EEC90E0978B868BD9
:1055A000118E128E138E148E08951F920F920FB6C5
:1055B0000F9211240BB60F922F938F939F93EF931B
:1055C000FF93E0912506F09126068081E0912B065D
:1055D000F0912C0682FD1DC0908180912E068F5F78
:1055E0008F7320912F06821741F0E0912E06F0E094
:1055F000EB5EF94F958F80932E06FF91EF919F916F
:105600008F912F910F900BBE0F900FBE0F901F9098
:1056100018958081F2CF1F920F920FB60F9211242E
:105620000BB60F922F933F934F935F936F937F939C
:105630008F939F93AF93BF93EF93FF9385E196E092
:10564000AFDDFF91EF91BF91AF919F918F917F91CE
:105650006F915F914F913F912F910F900BBE0F90E3
:105660000FBE0F901F901895E5E1F6E013821282AD
:1056700088EE93E0A0E0B0E084839583A683B783AF
:1056800089EA92E09183808385ED90E09587848715
:1056900084ED90E09787868780ED90E0918B808BFA
:1056A00081ED90E0938B828B82ED90E0958B848BE3
:1056B00086ED90E0978B868B118E128E138E148E52
:1056C00008951F920F920FB60F9211240BB60F92EE
:1056D0002F938F939F93EF93FF93E091C206F091E6
:1056E000C3068081E091C806F091C90682FD1DC005
:1056F00090818091CB068F5F8F732091CC068217AB
:1057000041F0E091CB06F0E0EE54F94F958F809395
:10571000CB06FF91EF919F918F912F910F900BBE30
:105720000F900FBE0F901F9018958081F2CF1F929F
:105730000F920FB60F9211240BB60F922F933F9337
:105740004F935F936F937F938F939F93AF93BF9389
:10575000EF93FF9382EB96E023DDFF91EF91BF91F2
:10576000AF919F918F917F916F915F914F913F91F9
:105770002F910F900BBE0F900FBE0F901F9018959A
:10578000E2EBF6E01382128288EE93E0A0E0B0E054
:1057900084839583A683B78389EA92E0918380838B
:1057A00085E391E09587848784E391E097878687F6
:1057B00080E391E0918B808B81E391E0938B828BEE
:1057C00082E391E0958B848B86E391E0978B868BC7
:1057D000118E128E138E148E0895AF92BF92CF92B7
:1057E000DF92EF92FF920F931F93CF93DF936C01A1
:1057F0007B018B01040F151FEB015E01AE18BF0882
:10580000C017D10759F06991D601ED91FC91019033
:10581000F081E02DC6011995892B79F7C501DF913B
:10582000CF911F910F91FF90EF90DF90CF90BF909D
:10583000AF9008954F925F926F927F92AF92BF9216
:10584000CF92DF92EF92FF920F931F93CF93DF934C
:10585000CDB7DEB729013A019B01AC012419350906
:10586000460957098A899B89AC89BD89BC01CD014C
:105870006A197B098C099D091DD0A801970124197B
:1058800035094609570953D0CA01B9016A0D7B1D74
:105890008C1D9D1DDF91CF911F910F91FF90EF9077
:1058A000DF90CF90BF90AF907F906F905F904F90C0
:1058B00008950895DB018F939F936CD0BF91AF91B2
:1058C000A29F800D911DA39F900DB29F900D11245A
:1058D0000895991B79E004C0991F961708F0961B4C
:1058E000881F7A95C9F780950895A1E21A2EAA1B00
:1058F000BB1BFD010DC0AA1FBB1FEE1FFF1FA21780
:10590000B307E407F50720F0A21BB30BE40BF50B7C
:10591000661F771F881F991F1A9469F76095709505
:10592000809590959B01AC01BD01CF010895052E96
:1059300097FB16F400940FD057FD05D0D6DF07FC77
:1059400002D046F408C050954095309521953F4FC0
:105950004F4F5F4F089590958095709561957F4F5B
:105960008F4F9F4F0895EE0FFF1F881F8BBF07902B
:10597000F691E02D1994A29FB001B39FC001A39F9F
:10598000700D811D1124911DB29F700D811D112478
:10599000911D0895F0DFA59F900DB49F900DA49FD9
:1059A000800D911D11240895FB01DC0102C00190BE
:1059B0000D9241505040D8F70895DC0101C06D931D
:0C59C00041505040E0F70895F894FFCFEC
:1059CC00000080BF2DB4FEFFFFFF01E8030000FFC5
:1059DC00FF00000000FFFFFFFFFFFFFFFFFFFFFFC7
:1059EC00FFFFFF0101DA02FF00E40C100DFE00CAFC
:1059FC000C4B0AFD005C0CB60CFC00A20C4B0AF61E
:105A0C0000930D4B0AF500690CD20DF4005C0DE906
:105A1C000DDE001712B014DD0086134B0ADA009D60
:105A2C000FA50FD900CB14B50FE200850E4B0AE180
:105A3C0000C00E4B0AE000350F4B0AD6009F184BE6
:105A4C000AD50042114B0AD400CE104B0AD3003FAA
:105A5C00104B0AC000C40F4B0AF00008194B0AED9A
:105A6C0000C5184B0A000000001129ED2BC128F2CB
:085A7C00289328AD289F2800A3
:00000001FF
