:1000000005C1000034C1000032C1000030C1000051
:100010002EC100002CC100002AC1000028C1000030
:1000200026C1000024C1000022C1000020C1000040
:100030001EC100001CC100001AC1000018C1000050
:1000400016C1000014C1000012C1000010C1000060
:100050000EC100000CC100000AC100000C9465290B
:1000600006C100000C948D2C0C94C32C00C1000020
:10007000FEC00000FCC00000FAC00000F8C0000094
:10008000F6C00000F4C00000F2C00000F0C00000A4
:100090000C94192D0C944F2DEAC00000E8C000000C
:1000A000E6C00000E4C00000E2C00000E0C00000C4
:1000B000DEC00000DCC00000DAC00000D8C00000D4
:1000C000D6C00000D4C00000D2C000000C94A52D02
:1000D0000C94DB2DCCC000000C94312E0C94672EB8
:1000E000C6C0000000000A0B02090C0D0E08070331
:1000F00004010000000000000000000000000000FB
:1001000000000000000000000000000000000000EF
:1001100012111000000000000000000000000000AC
:100120000000000000000000000001021020200874
:100130000810204010204080020102010804020142
:1001400001020408102040808040201008040201B1
:10015000800402018040201008040201080402010A
:100160000102040810204080010204081020408091
:1001700005050505070508080808020202020A0A23
:100180000808040404040101010101010101030341
:10019000030303030303040707070C0C0C0C0C0CEC
:1001A0000C0C0202020206060606060606060B0BE9
:1001B0000B0B0B0B0B0B000020002300260029006B
:1001C0002C002F003200000100000301060109018C
:1001D00000002200250028002B002E0031003400F2
:1001E00002010000050108010B01000021002400AC
:1001F00027002A002D003000330001010000040117
:1002000007010A01EC2C782D042E902E11241FBE1C
:10021000CFEFD1E2DEBFCDBF00E00CBF13E0A0E026
:10022000B2E0E0E8FEE500E00BBF02C007900D92EF
:10023000A430B107D9F729E0A4E0B3E001C01D92D2
:10024000A034B207E1F711E0C6E0D1E000E006C05B
:1002500021970109802FFE010E940D2FC230D10786
:1002600080E00807A9F70E9453260C943E2FC8CEC1
:10027000611102C00C94D22A6130E1F362E0FACF3E
:10028000662319F061E00C940E2B60E0FCCF0E9415
:100290003B2B21E0019709F020E0822F089590E0A8
:1002A00080E008950F931F93009709F48BC06115A8
:1002B000710509F487C00091340210913502209134
:1002C0003602309137020E3F1F4F2F4F3F4F09F03C
:1002D0006AC04FEF5FEFBA0140933402509335028A
:1002E0006093360270933702409134025091350288
:1002F0006091360270913702DC011296ED91FC910B
:1003000080819181A281B38180937E0390937F034A
:10031000A0938003B093810384819581A681B781E6
:1003200080937A0390937B03A0937C03B0937D0327
:1003300080859185A285B38580937603909377031A
:10034000A0937803B093790384859585A685B785B6
:100350008093720390937303A0937403B093750317
:1003600010926E0310926F0310927003109271033B
:10037000C1D78FE999E0909305038093040390938C
:100380000703809306039093090380930803A1D683
:10039000009731F421E030E030938303209382030F
:1003A0001F910F9108950091340210913502209110
:1003B000360230913702DB010D931D932D933C9350
:1003C000139792CF8FEF9FEFEBCF8F929F92AF92C9
:1003D000BF92CF92DF92EF92FF921F93CF93DF9362
:1003E0004B015C011091850382E090E090938303C0
:1003F0008093820381149104A104B10441F480919B
:100400008503811104C080918403C1E08111C0E0A3
:10041000C12CD12C760180918503811106C0809179
:100420008403811102C0CC23D9F083E090E0909343
:10043000830380938203CC2379F1CCE9DFEF1111A0
:1004400002C00E94030DCE01DF91CF911F91FF905A
:10045000EF90DF90CF90BF90AF909F908F900895D6
:100460006AE070E080E090E00E94D42980E1C80E4C
:1004700087E2D81EE11CF11C8FEF88169806A806AB
:10048000B80631F0C1E08C149D04AE04BF0408F03E
:10049000C0E080E052D6BFCFD0E0C0E0D0CFCF9256
:1004A000DF92EF92FF920F931F93CF93DF938F3FD3
:1004B000910511F008F050C0209182033091830320
:1004C0002330310539F020918203309183032130AC
:1004D000310531F424E030E030938303209382032C
:1004E0006A017B01EC0183309105A0F011E0AE01BF
:1004F000C701B601EDD5AB01BC01CE011123F9F066
:10050000DF91CF911F910F91FF90EF90DF90CF90EF
:100510000C942C0F8C01000F111F0C5F1C4FD80185
:100520008D919C91892B11F30E94360F0297F1F661
:10053000D801ED91FC91CE011995182FD8CF0E94CA
:100540004E0F90E080E0DF91CF911F910F91FF90CF
:10055000EF90DF90CF9008958FEF9FEFF4CF80E082
:10056000ECC5CF93DF9386E090E090938303809374
:1005700082033CD6EC01E4E0F3E086E0DF011D926B
:100580008A95E9F70E949B0C1092830310928203D4
:10059000CE01DF91CF9108958091840308958091D9
:1005A0006D03089560933402709335028093360290
:1005B0009093370290E080E008952F923F926F92DF
:1005C0007F928F929F92AF92BF92CF92DF92EF92E3
:1005D000FF920F931F93CF93DF9300D000D0CDB73E
:1005E000DEB71B013C0189014E835D8320E030E0D2
:1005F000A901B8018E819D810E943F27811125C0EC
:1006000020E030E0A901B101C3010E943F27882307
:1006100009F467C061017301B601C70126960FB6E0
:10062000F894DEBF0FBECDBFDF91CF911F910F9128
:10063000FF90EF90DF90CF90BF90AF909F908F9002
:100640007F906F903F902F900895B101C301D9D34F
:10065000882349F0C0903209D0903309E0903409E2
:10066000F0903509D9CFB8018E819D81CAD381110F
:10067000F1CFB101C30180D38111ECCF20E030E094
:10068000A901B101C3010E943F2781110BC098014C
:100690004E815D8160E070E0CB010E9443276B01D9
:1006A0007C01BACFB8018E819D8166D38823E9F0A1
:1006B00020E030E0A901B8018E819D810E943F2792
:1006C000F82EFF1CFF24FF1C20E030E0A901B1013F
:1006D000C3010E943F27881F8827881FF81609F446
:1006E00099CF6801EE80FD8097CF98014E815D81A2
:1006F000B101C3010E9402286B017C01BB24B394A9
:1007000020E030E0A9010E943F278111B12C20E0B8
:1007100030E0A901B601C7010E943F27882309F4F0
:1007200047C0B8018E819D810E94E8279B01AC01E2
:10073000B8018E819D810E94FE281816CCF5980183
:100740004E815D81B101C3010E9443274B015C01D1
:10075000E894B7F820E030E040E05FE3C501B40181
:100760000E94DB260E94E8279B01AC01C501B40171
:100770000E94DA269B01AC015F7729833A834B8381
:100780005C8320E030E040E054E3C501B4010E9406
:1007900002299B01AC01BB24B39469817A818B81CE
:1007A0009C810E94FE2818160CF0B12C81E0B8261E
:1007B00020E030E0A901BB2031F0B8018E819D819D
:1007C0000E9402296CCFB101C3010E943F27B82EBD
:1007D000BB1CBB24BB1C20E030E0A901B8018E810A
:1007E0009D810E943F27881F8827881FB81609F41B
:1007F00013CF98014E815D81B601C7010E94DB26AF
:100800004ECF4F925F926F927F928F929F92AF9254
:10081000BF92CF92DF92EF92FF92CF938091240903
:100820008150823008F06EC183E08093240980916A
:100830004B03811122C0C0900C02D0900D02E090B9
:100840000E02F0900F02A70196016091F8087091D6
:10085000F9088091FA089091FB080E943F278823AD
:1008600041F0C092F808D092F908E092FA08F092AC
:10087000FB0886E00CDD8093EF08C0902009D09043
:100880002109E0902209F0902309C701B6010E94D6
:10089000AD272B013C0120912C0230912D0240917B
:1008A0002E0250912F020E943F2787FF2DC1F7FC97
:1008B0002BC18090240290902502A0902602B09037
:1008C000270220E030E040E85FE360912802709169
:1008D000290280912A0290912B020E94DA269B0124
:1008E000AC01C301B2010E94FE2887FD11C1109224
:1008F0002009109221091092220910922309A501C2
:10090000940165E279E08FEF9FEF7CD2892BE1F1D2
:100910008091EF08882381F080911C0290911D0244
:10092000A0911E02B0911F028093140990931509A3
:10093000A0931609B0931709C0901802D09019021D
:10094000E0901A02F0901B022091140930911509D1
:100950004091160950911709609114027091150287
:1009600080911602909117020E94DB26A701960142
:1009700024DE6093140970931509809316099093EF
:10098000170984E080932409C1E02091000230918E
:10099000010240910202509103026091140970918A
:1009A000150980911609909117090E943F2781111E
:1009B000C0E0C093EC086C2F82E062DCC0901409A8
:1009C000D0901509E0901609F0901709C1E0A70131
:1009D0009601609104027091050280910602909147
:1009E00007020E943F278111C0E0C093ED08C1E0DB
:1009F000A7019601609108027091090280910A0294
:100A000090910B020E943F278111C0E0C093EE0835
:100A10006C2F84E035DC6091ED0883E031DC40919F
:100A20003E0350913F03609140037091410390E079
:100A300080E035DD80914B0381110FC0409146036A
:100A4000509147036091480370914903440F551F2B
:100A5000661F771F81E090E022DD60913E03709178
:100A60003F0380914003909141036F5F7F4F8F4F11
:100A70009F4F60933E0370933F0380934003909396
:100A800041030E94AB279B01AC016091420370912E
:100A9000430380914403909145030E94022960938F
:100AA0003A0370933B0380933C0390933D03809102
:100AB0004B03811114C0409146035091470360914C
:100AC0004803709149034F5F5F4F6F4F7F4F4093D3
:100AD00046035093470360934803709349038F5F25
:100AE000823020F580934B03CF91FF90EF90DF9001
:100AF000CF90BF90AF909F908F907F906F905F90BE
:100B00004F90089580E091CE812C912C5401D9CE44
:100B10008FEFC81AD80AE80AF80AC0922009D092C2
:100B20002109E0922209F0922309E9CE10924B03A9
:100B3000DBCFCF92DF92EF92FF921F93CF93DF93A1
:100B400084E090E0E2D0E4E2F3E080E090E0A0E82E
:100B5000BFEB80A791A7A2A7B3A78DEC9CECACE458
:100B6000BDE3868F978FA0A3B1A382E995EEAFE78F
:100B7000B6E584839583A683B78386E490E5A0E0F9
:100B8000BFE780879187A287B38780E099E9A1E7D3
:100B9000BCE484879587A687B7878CE696E7A5EBA4
:100BA000BCE9808B918BA28BB38BA8E1B3E0B383BC
:100BB000A283EAE0F3E01196FC93EE938DE592E0D8
:100BC00091838083938382839583848397838683B1
:100BD0009187808724E239E033872287958784874D
:100BE00088E393E015969C938E93149788E293E0A4
:100BF00013969C938E9312978AE393E017969C9397
:100C00008E93169783E080932509C0EFD8E0E0E04B
:100C1000F2E080899189A289B3898CA39DA3AEA3B8
:100C2000BFA3188284859585A685B785888799870F
:100C3000AA87BB87C12CD12C7601C394C982DA82E2
:100C4000EB82FC8260E086E013DB11E01D831C8EEA
:100C5000CD8EDE8EEF8EF8A261E082E009DB19A373
:100C60001C86CD86DE86EF86F88A61E084E000DBB4
:100C7000198B1C8ACD8ADE8AEF8AF88E61E083E0C8
:100C8000F7DA198FDF91CF911F91FF90EF90DF90EE
:100C9000CF9008958091F008811103C081E0809386
:100CA000F00880910C09811103C081E080930C0948
:100CB0008091FC08811103C081E08093FC08809141
:100CC0000409811103C081E080930409089560E064
:100CD00070E080E89FE7089560E070E080E89FE7BB
:100CE000089560E070E080E89FEF089560E070E0B4
:100CF00080E89FEF089560E070E080EC9FEF08953A
:100D000060E070E080EC9FEF0895F5DF60933209BA
:100D1000709333098093340990933509F1DF609320
:100D20002609709327098093280990932909CFDF1A
:100D300060932E0970932F098093300990933109A5
:100D4000CBDF60932A0970932B0980932C09909331
:100D50002D09C7DF609336097093370980933809EE
:100D600090933909C3DF60933A0970933B098093EC
:100D70003C0990933D090895CF92DF92EF92FF9244
:100D8000CF936B017C01AC019B0160912E097091A6
:100D90002F0980913009909131090E943F27C1E0CD
:100DA000882371F0A7019601609136097091370987
:100DB00080913809909139090E943F278111C0E044
:100DC0008C2FCF91FF90EF90DF90CF9008950F93ED
:100DD0001F938B019C010027112720783F77011575
:100DE000110520483F4749F4AB01BC016F777727D5
:100DF00081E0452B462B472B09F480E01F910F9192
:100E00000895E5CF8F929F92AF92BF92EF92FF929B
:100E10000F931F93CF93DF93EC018B0149015A018C
:100E2000FB01E080FE2DF370FF2E20E030E0A901F1
:100E3000C501B4010E94FE2818160CF441C020E040
:100E400030E0A901C501B4010E943F2787FD3AC0E7
:100E500080E094E0F99EF0011124ED59FD4FE80F78
:100E6000F11D9081219620E0C330D10518F4C05ABD
:100E7000DD4F2881292349F0E694E694E1FE02C083
:100E800092FD03C0E4FE02C095FD90E0292F220FE1
:100E9000220F822BF8018083892F8873A9F4977021
:100EA00081E020E009F480E0922FDF91CF911F9143
:100EB0000F91FF90EF90BF90AF909F908F9008950B
:100EC00081E0C7CF82E0C5CF8FEF9FEFEECF4F928B
:100ED0005F926F927F928F929F92AF92BF92CF92CA
:100EE000DF92EF92FF920F931F93F89440905D036F
:100EF00050905E0360905F0370906003C090510358
:100F0000D0905203E0905303F0905403452B09F026
:100F1000A4C09B01AC0124193509460957092901D0
:100F20003A010091590310915A0320915B033091CB
:100F30005C0348015901840C951CA61CB71C801643
:100F40009106A206B306A0F4009155031091560332
:100F500020915703309158030F5F1F4F2F4F3F4F82
:100F6000009355031093560320935703309358036F
:100F70008092590390925A03A0925B03B0925C0353
:100F80000091550310915603209157033091580357
:100F90008092610390926203A0926303B092640313
:100FA00000936503109366032093670330936803EF
:100FB00060935D0370935E0380935F03909360037F
:100FC000A0E5B3ECA30192010E94152F6C0D7D1DCD
:100FD0008E1D9F1D609351037093520380935303A2
:100FE00090935403009134021091350220913602FF
:100FF000309137020F3F1F4F2F4F3F4FF1F00091BD
:1010000034021091350220913602309137020E3FA2
:101010001F4F2F4F3F4F89F0C0903402D0903502C0
:10102000E0903602F090370221E08C149D04AE046B
:10103000BF0408F420E020936D0378941F910F9172
:10104000FF90EF90DF90CF90BF90AF909F908F90E8
:101050007F906F905F904F9008954B015C018418D2
:101060009508A608B708A3019201261B370B480B69
:10107000590B6415750586059705D0F08216930601
:10108000A406B50640F420E030E0A90181149104E3
:10109000A104B10491F4A0E5B3EC0E94152FA701BF
:1010A0009601261B370B480B590BCA01B901C5CF56
:1010B00082169306A406B50670F7A0E5B3ECA50169
:1010C00094010E94152F6C0D7D1D8E1D9F1DB5CFA7
:1010D000FECECF93DF9300D01F92CDB7DEB71C8238
:1010E0001B821A8219821092690310926A0310926D
:1010F0006B0310926C03BE016F5F7F4FCE010396AE
:101100000E943A2569817A818B819C810E945D1EB3
:10111000009761F4BE016F5F7F4FCE0103960E947E
:10112000462569817A818B819C812ED50F900F9005
:101130000F900F90DF91CF910895FF920F931F931F
:10114000CF93DF93082F60E070E0CB010E94D42999
:10115000FF24F3940E94461DEC01892B89F010E0D6
:10116000CE3F8FEFD80769F0002361F160E070E0B7
:10117000CB010E94D42981E090E0892B59F322C051
:1011800011E025D5EC01892B21F0CE3F8FEFD80758
:1011900059F711111EC011E0229609F410E00E94C7
:1011A000F61CEC01892B21F0CE3F8FEFD807E1F63A
:1011B000111111C011E0CE3F8FEFD80709F410E0F4
:1011C00001110BC0CE01DF91CF911F910F91FF90C4
:1011D000089511E0E4CF11E0F3CF60E070E0CB01BF
:1011E0000E94D4291F25812F90E0C7CFCF93DF9392
:1011F00080916D03882321F060E070E0CB014CD634
:1012000035D6D0E0C0E0892B71F06AE070E080E074
:1012100090E00E94D42981E090DF28D62196C03D3D
:1012200027E0D20781F727D60E94B11E10928503CE
:101230001092840310927E0310927F031092800319
:101240001092810310927A0310927B0310927C0318
:1012500010927D0310927603109277031092780318
:101260001092790310927203109273031092740318
:101270001092750310926E0310926F031092700318
:10128000109271034EEF5FEF6FEF7FEF40933402E8
:1012900050933502609336027093370210926D03BB
:1012A000E1E6F3E028E0DF011D922A95E9F71092CC
:1012B0005D0310925E0310925F0310926003109220
:1012C000590310925A0310925B0310925C03109220
:1012D0005503109256031092570310925803109220
:1012E0005103109252031092530310925403DF9152
:1012F000CF9108951092910310929203109293034C
:1013000010929403109290038091990390919A0304
:1013100090938F0380938E0310928D0310928C0311
:10132000109288031092890310928A0310928B0303
:10133000109296031092950390E080E00895CF926A
:10134000DF92EF92FF920F931F93CF938C01892B23
:1013500009F055C02091990330919A0380918E0332
:1013600090918F034091990350919A0350938F036A
:1013700040938E032817390781F010928D03109245
:101380008C03109288031092890310928A031092A2
:101390008B0310929603109295038091990390917C
:1013A0009A03019761F58091950390919603892B9B
:1013B00021F480913802811112C08091950390919F
:1013C00096030197E1F48091880390918903A0919D
:1013D0008A03B0918B030197A105B10581F41092A6
:1013E00088031092890310928A0310928B03109243
:1013F000380282E090E09093960380939503809169
:10140000990390919A03019709F01CC18091AF0351
:101410009091B0038017910709F014C18091AB033C
:101420009091AC03A091AD03B091AE03009709F485
:1014300009C12091AA0321110DC04091AB03509125
:10144000AC036091AD037091AE03452B462B472B47
:1014500009F4F8C0209195033091960322303105AC
:1014600009F0F0C020918C032111ECC0FC01C08078
:10147000D180E280F38080919003882309F4D3C067
:1014800080919C0390919D03892B09F4FDC02091CC
:101490009C0330919D0381E02230310509F080E00A
:1014A00020919C0330919D03C1E02130310549F02A
:1014B00020919C0330919D03C1E02230310509F059
:1014C000C0E0882309F456C02091A6033091A703F9
:1014D0004091A8035091A903C701B6010E94FE28BC
:1014E00087FD14C02091A6033091A7034091A80363
:1014F0005091A9036091910370919203809193039D
:10150000909194030E943F2787FD22C02091A6035B
:101510003091A7034091A8035091A903C701B601D8
:101520000E94FE28181634F52091A6033091A703D7
:101530004091A8035091A903609191037091920387
:1015400080919303909194030E943F27811112C0D0
:1015500080919E0390919F03A091A003B091A1035D
:10156000892B8A2B8B2B19F481E080938D0381E0EA
:1015700080938C03CC2309F456C02091A6033091AC
:10158000A7034091A8035091A903C701B6010E9487
:101590003F2787FF14C02091A6033091A7034091F5
:1015A000A8035091A90360919103709192038091D7
:1015B0009303909194030E94FE2887FF22C02091FC
:1015C000A6033091A7034091A8035091A903C70136
:1015D000B6010E943F27811126C02091A6033091B9
:1015E000A7034091A8035091A903609191037091C2
:1015F000920380919303909194030E94FE28181601
:1016000094F480919E0390919F03A091A003B091C8
:10161000A103892B8A2B8B2B19F481E080938D03F6
:1016200081E080938C0381E090918C03911180E0A4
:1016300080939003C0929103D0929203E09293031F
:10164000F0929403012B09F067C18091950390916A
:101650009603892BD9F410929B0310928C038091EE
:101660003802882379F082E090E09093960380938B
:101670009503109238022091990330919A0381E0EA
:10168000232BE9F080E01BC081E00ACF10923802E2
:1016900080919B03882349F010928D03109296034A
:1016A0001092950310929B03EDCF80919903909136
:1016B0009A03892BE1F080918C0310928C03209186
:1016C0009503309196032230310509F45EC088F409
:1016D0002115310509F448C02130310509F4F3C062
:1016E00010928D0310928C0310929B0338C081E0FE
:1016F000E6CF2330310509F4B1C02430310581F73C
:10170000409188035091890360918A0370918B0303
:10171000411551056105710561F04150510961099B
:101720007109409388035093890360938A037093EF
:101730008B03409188035091890360918A037091D3
:101740008B03452B462B472BD9F4209197033091DF
:1017500098032130310509F046C010928D03109294
:101760009603109295030CC080913802882341F0B3
:1017700082E090E090939603809395031092380254
:101780001092860380918D03CEC08823C9F3809187
:101790009E0390919F03A091A003B091A1031816FE
:1017A00019061A061B060CF07DC0809199039091D2
:1017B0009A03019709F076C080919E0390919F0350
:1017C000A091A003B091A103809388039093890313
:1017D000A0938A03B0938B0383E090E090939603E9
:1017E00080939503CDCF4091A2035091A3036091C4
:1017F000A4037091A503452B462B472BA9F010920B
:101800008D038091A2039091A303A091A403B091B2
:10181000A5038093880390938903A0938A03B093D0
:101820008B0381E090E0DACF882399F08091390230
:1018300090913A02A0913B02B0913C0280938803C0
:1018400090938903A0938A03B0938B0384E090E084
:10185000C5CF10928D0382E090E0C0CF80918803C5
:1018600090918903A0918A03B0918B030097A10501
:10187000B10559F00197A109B109809388039093AC
:101880008903A0938A03B0938B038091880390917E
:101890008903A0918A03B0918B03892B8A2B8B2B10
:1018A00009F06ECF8091390290913A02A0913B02EB
:1018B000B0913C02892B8A2B8B2B09F44ECF81E00F
:1018C00080938D03B3CF4091880350918903609139
:1018D0008A0370918B03411551056105710561F013
:1018E000415051096109710940938803509389035C
:1018F00060938A0370938B0340918803509189030E
:1019000060918A0370918B03452B462B472B09F07E
:1019100037CF8111C7CF9FCF80918603882309F4E9
:1019200031CF80918703CF911F910F91FF90EF905E
:10193000DF90CF900895109291031092920310922D
:1019400093031092940310929003109296031092B6
:10195000950310928F0310928E031092B003109291
:10196000AF0310928D0310928C0310928803109293
:10197000890310928A0310928B03109287031092AE
:1019800086031092AB031092AC031092AD03109239
:10199000AE031092AA031092A6031092A70310920E
:1019A000A8031092A90388EE93E0A0E0B0E0809332
:1019B000390290933A02A0933B02B0933C021092FA
:1019C000A2031092A3031092A4031092A5031092F5
:1019D0009E0310929F031092A0031092A1031092F5
:1019E0009D0310929C0381E08093380210929B0328
:1019F00010929A03109299031092980310929703F1
:101A000090E080E008958091990390919A03892B4A
:101A100019F580913802882351F080919B03811140
:101A200006C081E080938703809386030895209108
:101A30009B033091380281E090E0332311F090E075
:101A400080E030E082239323892B21F010928703DA
:101A500081E0EACF10928603089582E090E0FA01D7
:101A6000918380838FEF9FEF0895CF93DF93EA01F7
:101A7000009711F00E94CB1F1982188290E080E03D
:101A8000DF91CF910895DB01009719F48FEF8C93CC
:101A900008952EEF2C93FC013F96EF30F10508F0EE
:101AA00034C08827E95AF24F8F4F0C940D2F830DC5
:101AB000810D7F0D7D0D7B0D770D790D750D730DEE
:101AC000710D6E0D6A0D660D6C0D850D80E311961E
:101AD0008C93089589E2FBCF82E2F9CF11961C9294
:101AE000089583E2F4CF81E2F2CF81E1F0CF87E283
:101AF000EECF8AE2ECCF80E1EACF84E2E8CF88E261
:101B0000E6CF86E2E4CF81E3E2CF80E2E0CF8091CE
:101B1000BD039091BE0308959093BE038093BD03CF
:101B200008958091BC0308959091BC03892B809304
:101B3000BC030895982F90958091BC0389238093CE
:101B4000BC0308958091BB0308958091B9039091DF
:101B5000BA0308956115710559F0FB0130E020E0EA
:101B600070E060E02417350719F06115710511F078
:101B7000CB010895A081B181A817B90709F4BF016D
:101B80002F5F3F4F3696EECF8091BF0381111CC06F
:101B900060D266D29093B2038093B1030E94DC17A7
:101BA0000E94EE179093B6038093B5030E945E1CCB
:101BB0000E94651C9093B4038093B30381E08093EB
:101BC000BF0390E080E0089584EF9FEF08958F9227
:101BD0009F92AF92BF92CF92DF92EF92FF920F93BC
:101BE0001F93CF93DF9300D000D000D01F92CDB7CA
:101BF000DEB71A86198618861F821E821D821C82F5
:101C00001B821A8219828091BF0307EF1FEF88237E
:101C100009F49CC08E010D5F1F4F9E012B5F3F4F4B
:101C2000AE01495F5F4FBE01675F7F4F90E080E08C
:101C30000E94E21D8C01009721F00596029708F0A2
:101C4000DBC029853A852115310509F402C1ED80F3
:101C5000FE804B815C81B701640F751F8F81988571
:101C60008617970708F4F5C0E20EF31ED7019C9182
:101C7000903C09F07FC04230510508F47BC01196BA
:101C80008C914091BD035091BE03452B09F49CC03B
:101C9000913F08F071C02CE1290F2D3008F48BC062
:101CA0002DE2290F203108F489C0903C21F48150A5
:101CB000823008F483C088E3890F8B3008F481C038
:101CC00093E4C92E9DE0D92EEDE2FDE06D817E8189
:101CD000AE014F5F5F4F89859A8519955C01C114EC
:101CE000D104A1F189809A808114910479F18B81CA
:101CF0009C818815990508F487C010E000E04B81AD
:101D00005C8170E060E0C7010E94372F011511056A
:101D1000E9F449815A8169857A858D819E81680FB0
:101D2000791FC501F6011995E980FA800D811E81A0
:101D30002F81388549855A856FEF7FEF81E090E0EC
:101D40000E947D1D8C01892B09F056C0C8012A967E
:101D50000FB6F894DEBF0FBECDBFDF91CF911F91BC
:101D60000F91FF90EF90DF90CF90BF90AF909F903A
:101D70008F90089580E085CF30E020E0220F331F60
:101D8000F901EF54FC4F0190F081E02D309709F4F8
:101D900097CF892F90E01995009709F491CFDC0136
:101DA0001296ED91FC9113971496CD90DC9030979C
:101DB00009F08CCF1FC021E030E0E0CF22E030E01E
:101DC000DDCF23E030E0DACFD12CC12CE5E3FDE01C
:101DD0009F3F09F07BCFE091B103F091B2033097C0
:101DE00021F4C90104EF1FEF0CC08FEF90E01995AB
:101DF0000097A9F604EF1FEF89859A85009709F4EB
:101E0000A5CF0E94CB1FA2CF0E94AC1E8C0189855A
:101E10009A850E94CB1F70E060E0C4010E94451EBD
:101E200098878F830E947A1D9E838D836F8178852A
:101E30006115710559F0C8010E942A219A87898786
:101E400006EF1FEF892B09F058CF59CF08EF1FEF8E
:101E500056CF08EF1FEFD0CF2091BF03222319F0F8
:101E600020E00C94F31787EF9FEF08958091BD0356
:101E70009091BE0308950E946A1C0E94C41BF5D075
:101E8000E1EBF3E088E0DF011D928A95E9F710921B
:101E9000BF0390E080E008950C94211A21E040E017
:101EA00050E0BA010C94F31786E090E0FA019183B8
:101EB000808390E080E0089547E050E063E772E0BF
:101EC00049CEDF92EF92FF920F931F93CF93DF9350
:101ED0008A01EC01C60FD71FE090C303F090C40342
:101EE000D9800E94941ED816190678F082E090E0FE
:101EF000F801918380838EEF9FEFDF91CF911F9147
:101F00000F91FF90EF90DF900895EF2841F482E069
:101F100090E0F8019183808384EF9FEFEECF898179
:101F20008093C20390E00196F8019183808390E052
:101F300080E0E3CFCF93DF93EA010E94D21A882397
:101F400021F00E94A11E0E94D31A82E090E09983A2
:101F500088838BEF9FEFDF91CF910895CF93DF932D
:101F6000EB0186E0FB0111928A95E9F78FEF8883F8
:101F7000D8DD8983E7DD8A83E8DD9D838C83DF916B
:101F8000CF910895CF93DF93EA010E94D51A811172
:101F900009C082E090E09983888385EF9FEFDF910D
:101FA000CF91089590E080E0B7DD81E090E09983E3
:101FB000888390E080E0F3CF0F931F93CF93DF935C
:101FC000EA018C01060F171F0E94D51A81110BC060
:101FD00082E090E09983888385EF9FEFDF91CF9136
:101FE0001F910F910895F8018181823038F082E0CD
:101FF00090E0998388838EEF9FEFF0CF81E090E0AF
:102000008BDD88E090E09983888390E080E0E6CFE4
:10201000CF93DF930097D1F4EB01FB01329686E07A
:10202000DF011D928A95E9F78FEF888385E0898328
:102030001A820E94941E8B830E94931E9D838C8320
:1020400081E08E838F83DF91CF910895DF91CF91CF
:102050001ACD8CE59FE09093C1038093C00308954F
:102060008091C0039091C10308951092C103109212
:10207000C00308958091C3039091C4030895411152
:1020800005C0611571058105910561F06093C30379
:102090007093C4038093C5039093C6034093C70312
:1020A00081E0089580E00895FF920F931F93CF93EE
:1020B000DF938A01EC01C60FD71FF9800E94941E9E
:1020C000F816190668F082E090E0F80191838083A9
:1020D0008EEF9FEFDF91CF911F910F91FF900895A9
:1020E0006C817D818E819F814B81C9DF811108C008
:1020F00082E090E0F8019183808384EF9FEFEACF44
:1021000089818093C20390E00196F80191838083D6
:1021100090E080E0DFCFCF93DF93EA01FC01E60F90
:10212000F71F64817581868197814381A8DF8111C2
:1021300009C082E090E09983888384EF9FEFDF916C
:10214000CF91089581E090E09983888390E080E0CA
:10215000F6CFE3ECF3E04081518162817381480F57
:10216000511D611D711D40835183628373830895E6
:10217000CF93C091C2034C2F50E06091C303709184
:10218000C40301960E942E2F8C2FE3DF1092C2030E
:10219000CF910895009799F48091C3039091C4035F
:1021A0002FEFFB012083892B59F02091C20330E0EF
:1021B0002F5F3F4F2417350719F4CB01D9CF63CCDC
:1021C0000895009799F48091C3039091C4032FEF71
:1021D000FB012083892B59F02091C20330E02F5F4F
:1021E0003F4F2417350719F4CB01C2CF4CCC0895CB
:1021F00023E1AC01249FC001259F900D1124E091A3
:10220000CC03F091CD03E80FF91F238134812250D4
:10221000310981E02230310508F080E008950F9304
:102220001F93CF93DF930091CE031091CF03D0E0A3
:10223000C0E080E00C171D0749F491E0811190E0A7
:10224000892FDF91CF911F910F9108958111F5CFC3
:10225000CE01CEDF2196EECFA091CC03B091CD037D
:10226000109729F12091CE033091CF038217930765
:10227000F0F453E1589F9001599F300D1124A20FA3
:10228000B31FED91FC911197309789F012968C91C4
:10229000681768F48BE0689FE00DF11D11248081C0
:1022A0009181892B21F081E09281491708F080E02B
:1022B00008959C0143E1429FC001439F900D11246A
:1022C000E091CC03F091CD03E80FF91F83858230B4
:1022D00099F481E090E06581768140913D025091D2
:1022E0003E026417750711F490E080E0892B21F01D
:1022F00081E02230310508F080E00895EF92FF92EE
:102300000F931F93CF93DF93EA01FC01E60FF71FB2
:1023100002811381E480F5804F2D6E2DC8019CDF72
:1023200081110DC082E090E0998388838EEF9FEF4A
:10233000DF91CF911F910F91FF90EF900895C80109
:1023400057DF882339F082E090E09983888388EF13
:102350009FEFEECF1093440200934302E0924502B8
:10236000F092460281E090E09983888390E080E0DB
:10237000DFCFCF92DF92EF92FF920F931F93CF9315
:10238000DF937A01EC01C60FD71FC0904302D090B3
:1023900044020091450210914602412F602FC60170
:1023A0005BDF811110C082E090E0F70191838083B0
:1023B0008AEF9FEFDF91CF911F910F91FF90EF90E8
:1023C000DF90CF900895C60113DF882341F082E0AB
:1023D00090E0F7019183808388EF9FEFEBCF4C81F2
:1023E0005D816E817F819A8189818F3F41F082E09A
:1023F00090E0F701918380838EEF9FEFDBCFE3E1E5
:10240000EC9D9001ED9D300D1124E091CC03F091F5
:10241000CD03E20FF31F0190F081E02D2BE0029F2E
:10242000E00DF11D11240190F081E02D27E0129FB5
:10243000E00DF11D1124808391838B81828343837E
:102440005483658376831F5F1093460281E090E09A
:10245000F7019183808390E080E0ACCFEF92FF9210
:102460000F931F93CF93DF937A018C01060F171FF1
:10247000C091CC03D091CD03209781F021E030E0D2
:10248000F801828193814091CE035091CF0384174C
:10249000950710F030E020E0232B71F482E090E00B
:1024A000F701918380838EEF9FEFDF91CF911F9192
:1024B0000F91FF90EF90089543E1489F9001499F4D
:1024C000300D1124C20FD31F93DE882341F082E028
:1024D00090E0F7019183808388EF9FEFE6CFF801CA
:1024E0002481358120383105C8F687818111D6CF06
:1024F0004181842F90E08F7E009741F082E090E050
:10250000F7019183808386EF9FEFCFCF4F833E8388
:102510002D83268128871986223010F421E0288710
:1025200021E030E0F70131832083BFCF88E090E0E5
:10253000FA019183808390E080E00895FB018FEFA2
:10254000808381E181838FEF9FEF9383828380E893
:1025500090E095838483168217820895FB018FEFA4
:10256000808391E0918382839383848384E3858352
:1025700081E090E0978386830895BF92CF92DF92A7
:10258000EF92FF920F931F93CF93DF93DA01FC0139
:10259000E60FF71F8181813081F082E090E08D931A
:1025A0009C938FEF9FEFDF91CF911F910F91FF9041
:1025B000EF90DF90CF90BF900895C281D381B48017
:1025C000858106811781E090CC03F090CD03E11462
:1025D000F10439F482E090E08D939C938CEF9FEFAF
:1025E000E2CF2091CE033091CF03C217D30738F04A
:1025F00082E090E08D939C938EEF9FEFD4CFC2301A
:10260000D10538F082E090E08D939C9386EF9FEFA8
:10261000CACF9B2D9D7FB1F78130A1F7B11005C0C6
:102620000130110531F080E004C081E00230110575
:10263000D0F3882339F36D01CE01DADD882341F030
:1026400082E090E0F6019183808388EF9FEFABCF2B
:1026500083E18C9FF0018D9FF00D1124EE0DFF1D85
:10266000B38681E0848716870587108A178681E004
:1026700090E0F6019183808390E080E094CF4CE07D
:1026800050E06DE972E066CA8F929F92BF92CF923E
:10269000DF92EF92FF920F931F93CF93DF93EA01A4
:1026A000FC01E60FF71F828193810481B580E091E0
:1026B000CC03F091CD03309791F482E090E09983C0
:1026C00088838CEF9FEFDF91CF911F910F91FF9047
:1026D000EF90DF90CF90BF909F908F9008952091C2
:1026E000CE033091CF038217930738F082E090E059
:1026F000998388838EEF9FEFE6CF23E1289F6001C7
:10270000299FD00C1124EC0DFD1DE080F180E11417
:10271000F10499F28281081748F78BE0089F800145
:102720001124E00EF11EF70180819181892B29F699
:10273000BB20E1F2F7E0BF9E40011124C4010E94DA
:10274000921FF70191838083E091CC03F091CD0338
:10275000EC0DFD1D0190F081E02DE00FF11F808157
:102760009181009739F482E090E0998388838DEF1E
:102770009FEFA9CFA40170E060E00E94372F809105
:10278000CC039091CD03C80ED91EF60180819181B2
:10279000080F191FF801B28281E090E099838883C5
:1027A00090E080E090CFAF92BF92CF92DF92FF9205
:1027B0000F931F93CF93DF93EA01FC01E60FF71FFE
:1027C00082819381F4800091CC031091CD03011597
:1027D000110581F482E090E0998388838CEF9FEF6C
:1027E000DF91CF911F910F91FF90DF90CF90BF901D
:1027F000AF9008952091CE033091CF0382179307B5
:1028000038F082E090E0998388838EEF9FEFE8CFE5
:102810002FEF2F0D2C3FA8F723E1289F6001299F60
:10282000D00C11240C0D1D1DF80180819181892B84
:1028300089F6FBE0FF9E50011124C5010E94921F02
:10284000F80191838083E091CC03F091CD03EC0DEE
:10285000FD1D80819181009739F482E090E0998399
:1028600088838DEF9FEFBCCFA50170E060E00E94F0
:10287000372FE091CC03F091CD03EC0DFD1DF282DA
:1028800081E090E09983888390E080E0A9CFCF92A7
:10289000DF92EF92FF920F931F93CF93DF93860FF8
:1028A000971FFC01028113818091CC039091CD038D
:1028B000892B81F082E090E0FA01918380838CEF94
:1028C0009FEFDF91CF911F910F91FF90EF90DF90DD
:1028D000CF900895C801B0E0A0E00197A109B10927
:1028E0008F3F9F4FA105B10540F082E090E0FA01D3
:1028F000918380838EEF9FEFE4CF7A0183E1809F05
:102900006001819FD00C1124C6010E94921FEC012E
:10291000009741F482E090E0F701918380838DEF8E
:102920009FEFCFCFA60170E060E00E94372FD093D9
:10293000CD03C093CC031093CF030093CE0390E05C
:1029400080E02FEF3FEF41E061E070E080179107FA
:1029500041F481E090E0F7019183808390E080E092
:10296000B0CF3A8B298B1B864C877E876D87188A60
:102970001F8601966396EACFCF92DF92EF92FF9285
:102980000F931F93CF93DF93EC01D12CC12C10E058
:1029900000E0F12CE12C6A816017110609F0CCF4FB
:1029A00083E0689FB0011124AE014F5E5F4FC70105
:1029B0000E94F71F009721F02FEF3FEF3A8B298BF2
:1029C000DF91CF911F910F91FF90EF90DF90CF900B
:1029D0000895E881F981EC0DFD1D438154818D85B9
:1029E0009E85489F9001499F300D589F300D1124BE
:1029F000C90101960115110519F44F8144FD049692
:102A000061E070E00E94451EE816F90608F47C01BA
:102A10000F5F1F4F8BE0C80ED11CBDCFF8942091E3
:102A2000CA033091CB0381E02115310509F080E024
:102A3000232B09F0789408952F923F924F925F9242
:102A40006F927F928F929F92AF92BF92CF92DF92BE
:102A5000EF92FF920F931F93CF93DF933C01660E8B
:102A6000771EF301828193814C01B12CA12CC0917E
:102A7000CC03D091CD03209769F021E030E0609144
:102A8000CE037091CF038617970710F030E020E057
:102A9000232BD1F482E090E0FA01918380838EEFC2
:102AA0009FEFDF91CF911F910F91FF90EF90DF90FB
:102AB000CF90BF90AF909F908F907F906F905F90DE
:102AC0004F903F902F900895809247029092480235
:102AD000A0924902B0924A0263E1689F9001699F07
:102AE000300D1124C20FD31FF3018181833040F0D8
:102AF00082E090E0FA019183808386EF9FEFD1CF4F
:102B00002A012B813C81232BF1F4288139819F817B
:102B100091FF2EC0232B09F46FC02091D1039A811D
:102B2000422F490F5527551FBA0141E050E0613847
:102B3000710514F050E040E0452B09F45DC02A8790
:102B4000920F9093D1038150823008F481C066DFE8
:102B5000882309F4DAC0F3018181813009F48DC042
:102B600008F47BC0823009F4C8C090E080E0ADC0BA
:102B7000232B09F441C02091D0039A81E22FE90F61
:102B8000FF27FF1F41E050E0ED3FF10514F050E05A
:102B900040E0452B89F12A87920F9093D003D3CF41
:102BA000A081B181A20FB31F11966C91060F111D68
:102BB0000196295F3F4F8417950794F38D859E8575
:102BC000089F1001099F300C189F300C1124C1146C
:102BD000D104D1F48F8184FF17C00E94931EF5E0C9
:102BE0002F0E311C21E08215930508F420E0A70187
:102BF000455F5F4F21110EC082E090E0F2019183AA
:102C0000808387EF9FEF4DCF0E94931E2FEF221AF4
:102C1000320AE8CF88819981E80EF91EF701148302
:102C20000383FFEFCF1ADF0A7A018A818C151D0416
:102C300009F00CF48CCFE881F981EE0DFF1D428183
:102C400050E030E020E010E000E090E080E0B3CF22
:102C5000F12CE12CD12CC12CE8CF81E090E09C83B9
:102C60008B83DDDA882309F480CF81E090E00E9435
:102C70008C0D80E40E949A0D78CF89899A890196FB
:102C800061F083E090E09C838B8382E090E00E947F
:102C90008C0D80E40E94940D68CF8D819E812091DF
:102CA0003D0230913E0282179307D1F460914102B8
:102CB00070914202AE014F5E5F4F80913F02909152
:102CC00040020E94E9200097E1F2789422E030E08F
:102CD000F20131832083892BA9F08DEF9FEFE1CEA4
:102CE00022E082169104A104B1045CF6029748F632
:102CF000CE0142DE188A1F86E6CF82E090E09C83F8
:102D00008B8333CF90E080E0CCCE82E090E0F20184
:102D10009183808385EF9FEFC4CE8F929F92AF9275
:102D2000BF92CF92DF92EF92FF920F931F93CF93B8
:102D3000DF93EA018C01060F171FF80181818330B0
:102D400098F082E090E09983888386EF9FEFDF918F
:102D5000CF911F910F91FF90EF90DF90CF90BF9098
:102D6000AF909F908F9008958091CC039091CD0368
:102D7000892B61F081E090E02091CE033091CF0368
:102D8000232B11F490E080E0892B39F482E090E06D
:102D9000998388838EEF9FEFDACF40DE882309F492
:102DA000E1C0F8018181813009F497C0E8F08230F8
:102DB00099F42091CE033091CF03E091CC03F091B0
:102DC000CD0390E080E041E050E02817390709F09A
:102DD000BFC025DA811117C0789481E090E0998313
:102DE000888390E080E0B3CF2091CE033091CF0371
:102DF000E091CC03F091CD0390E080E041E050E021
:102E00002817390741F481E090E00E948C0D80E49E
:102E10000E949A0DE1CF63817481672B11F0548376
:102E2000438301967396ECCFE091CC03F091CD03F0
:102E3000E00FF11F2381348122303105D9F421893B
:102E400032892F3F3F4FB1F42581368140913D02B9
:102E500050913E022417350761F5AF014F5E5F4F79
:102E6000609141027091420280913F029091400234
:102E70000E94E920EFEFCE1ADE0AEE0AFE0A0D5E8E
:102E80001F4F4091CE035091CF0370E060E0C41615
:102E9000D506E606F7064CF5009731F27894892BB3
:102EA00009F49BCF82E090E0998388838DEF9FEFB8
:102EB0004ECF42E0C416D104E104F104DCF6223026
:102EC0003105C0F6CF0158DDE091CC03F091CD0380
:102ED000E00FF11F108A1786CDCF10E000E090E0E0
:102EE00080E0C12CD12C7601CCCF0097B9F610E050
:102EF00000E0812C912C540183E0E82EF12C1AC0C3
:102F0000E091CC03F091CD03E00FF11F8381948118
:102F1000029749F4F482E38282E090E00E948C0DF3
:102F200080E40E94940DFFEF8F1A9F0AAF0ABF0A38
:102F30000D5E1F4F8091CE039091CF03B0E0A0E0D3
:102F400088169906AA06BB06DCF290E080E0A6CFC0
:102F5000638174816230710511F454834383019657
:102F6000739633CF82E090E09983888385EF9FEF5B
:102F7000EECE0097B9F48FEFFB01808320914702DA
:102F80003091480243E1429FC001439F900D1124BC
:102F9000E091CC03F091CD03E80FF91F8285FB018E
:102FA000818308950C94430D88E090E0FA019183A9
:102FB000808390E080E008951092CB031092CA03C2
:102FC000ECECF3E086E0DF011D928A95E9F78FE3F0
:102FD00093E19093C9038093C80308958091C80337
:102FE0009091C90308952F923F924F925F926F92F2
:102FF0007F928F929F92AF92BF92CF92DF92EF9289
:10300000FF920F931F93CF93DF93CDB7DEB76097F7
:103010000FB6F894DEBF0FBECDBFF894E091CA039F
:10302000F091CB033196F093CB03E093CA037894ED
:10303000A091CC03B091CD03BA83A983109709F472
:10304000FAC1E091CE03F091CF03EF2B09F4F3C165
:1030500028874B875C876D877E879A878987B88B9F
:10306000AF87312C212CF12C512C412C8091CE0397
:103070009091CF032816390610F4FF2029F1F89417
:103080008091CA039091CB0301979093CB038093D7
:10309000CA037894C20160960FB6F894DEBF0FBEE3
:1030A000CDBFDF91CF911F910F91FF90EF90DF90F7
:1030B000CF90BF90AF909F908F907F906F905F90D8
:1030C0004F903F902F900895B10190E080E089D417
:1030D000682EEF85F889878181FD3DC083819481C9
:1030E0000397C9F5258136813C832B8389859A8591
:1030F0002817390781F5C101DCD8782E8823A9F17A
:10310000AF85B8891F968D919C915097019621E0CB
:103110001D964D915C918417950709F020E02F834F
:10312000B12CA12CEF85F88982818A151B0419F036
:1031300014F0FF20E9F0F885FF2309F46CC1AF8596
:10314000B88950961C921E921F97662021F0B101FB
:1031500090E080E048D4FFEF2F1A3F0A2F8538898E
:103160002D5E3F4F388B2F8781CFB1E0BF83D8CF03
:10317000C1D49E838D83E885EE23E9F0772009F49E
:103180003CC1AF85B8891F968D919C91892B79F0B0
:10319000BBE0BA9DC001BB9D900D1124AF85B889DD
:1031A000ED91FC91E80FF91F85819681F4D6BFEF70
:1031B000AB1ABB0AB7CF81E0772039F0EF85F889E9
:1031C00027853089232B09F080E0F82EE12CA1140B
:1031D000B10439F4AF85B8891796EC90E4FAEE247F
:1031E000E0F8BBE0BA9D6001BB9DD00C11248823A0
:1031F00009F424C1AF85B889ED91FC911197EC0DCC
:10320000FD1D438154811D962D913C91429FC0012B
:10321000439F900D529F900D1124E1105DC00196C7
:103220009087878361E070E0878190852ED5EF8558
:10323000F88921893289008111810C0D1D1D2F3FD4
:10324000320709F44BC0BC01C9010E942A21D801F0
:1032500016969C938E931597AF85B889ED91FC9146
:103260001197EC0DFD1D058116810115110509F45D
:10327000CDC0ED81FE810E0F1F1F1A968C918A0D15
:10328000D8018C93E1102FC00F5F1F4FAF85B88915
:10329000ED91FC91EC0DFD1D12870187AF85B8897A
:1032A000ED91FC91EC0DFD1D85819681892B09F432
:1032B000A4C080913D0290913E022B813C81281751
:1032C000390709F465C0772011F001851285912C2A
:1032D000812C1A8219824AC00596A2CF23D6F80102
:1032E00096838583B9CF8B859C85AD85BE85F80196
:1032F00081839283A383B4830B5F1F4FC7CFE0808A
:10330000F180E80CF91CD70113966D917C9114970C
:103310008C918F3F09F473C0E1E0F0E002C0EE0F42
:10332000FF1F8A95E2F7CF01092E000CAA0BBB0BF9
:10333000FB01408151816281738184239523A623FF
:10334000B72321E0892B8A2B8B2B09F420E0D801AD
:103350002C93D70111968C91080F111DE981FA81E8
:103360003196FA83E983F7E08F0E911CAF85B88917
:10337000ED91FC91EC0DFD1D828129813A8182172E
:10338000130611F00CF0BBCF772011F012870187E4
:103390003F81332391F1AF85B889ED91FC91EC0D1C
:1033A000FD1D61E070E0878190856FD4AF85B8899D
:1033B000ED91FC91EC0DFD1DE780F0844581568177
:1033C000E1E0F0E0662011F0F0E0E0E00D811E8128
:1033D0009C01B101882799278E1B9F0B8ED32C014E
:1033E000892B59F0EF85F88980819181C80ED91E0B
:1033F000D60115968D919C91CED5F12CD8CEF701A2
:10340000418150E0C8010E942E2FA3CF86EF482EA5
:1034100055245A94CCCEEF85F889878590890196FA
:10342000908B8787258536858217930709F08DCE87
:10343000108A17868ACE512C412C21CE10E000E054
:103440002DCF2F923F924F925F926F927F928F92E9
:103450009F92AF92BF92CF92DF92EF92FF920F9323
:103460001F93CF93DF938091CC039091CD0310E015
:1034700000E0892BA9F0D2DA0AEF1FEF882381F050
:103480002090CE033090CF03C091CC03D091CD03D8
:10349000D12CC12C10E000E02C143D04A9F4789448
:1034A000C801DF91CF911F910F91FF90EF90DF90B6
:1034B000CF90BF90AF909F908F907F906F905F90D4
:1034C0004F903F902F900895C6010E945911882374
:1034D00009F18B819C810397E9F48F859889892B69
:1034E000C9F0B60190E080E07CD221E030E0882392
:1034F00011F030E020E044245524421A530AB12C44
:10350000A12C912C812C8A818815190409F038F49A
:10351000188A1F864FEFC41AD40A6396BDCFE8817C
:10352000F981EA0DFB1D85819681892BA1F161E06E
:1035300070E087819085A9D33C01DCD28C01E881C1
:10354000F981EA0DFB1D8185928525813681200F49
:10355000311FAC01421B530B9A0147815085421B1E
:10356000530B70E060E00E94372FE881F981EA0D8B
:10357000FB1DE780F084458156819301B601C201AD
:10358000BCD28C01892B39F0E881F981EA0DFB1D51
:103590008581968100D55FEF851A950A8BE0A80E8C
:1035A000B11CB1CF3BCA789408952F923F924F92AD
:1035B0005F926F927F929F92AF92BF92CF92DF9273
:1035C000EF92FF920F931F93CF93DF9300D000D021
:1035D000CDB7DEB70091CC031091CD03992493941D
:1035E0000115110509F43EC0A090CE03B090CF03A1
:1035F00015DA982E8823B1F11092CD031092CC03E6
:103600001092CF031092CE031092D0031092D103E8
:103610008FEF9FEFDC018093470290934802A093C5
:103620004902B0934A02789480D31E830D83C12C43
:10363000D12C7601C501B0E0A0E089839A83AB83E9
:10364000BC8322242A94322C89819A81AB81BC814B
:10365000C816D906EA06FB06F4F0C8019CD480E43B
:103660000E949A0D892D26960FB6F894DEBF0FBEE4
:10367000CDBFDF91CF911F910F91FF90EF90DF9021
:10368000CF90BF90AF909F907F906F905F904F9042
:103690003F902F900895AD81BE8115968D919C919C
:1036A000169720913D0230913E0282179307D1F484
:1036B00051968D919C91BCD5ED81FE818081918147
:1036C000B12CA12C412C512C3201892B91F5BFEF4B
:1036D000CB1ADB0AEB0AFB0AED81FE817396FE83AF
:1036E000ED83B2CFB2E0CB16D104E104F10424F7AC
:1036F000029710F7ED81FE81818992898F3F9807AB
:1037000009F011D5AD81BE8152963C922E9251970F
:10371000D3CF8A0D9B1DDC018D919C91009709F000
:103720003AD4BFEF4B1A5B0A6B0A7B0AEBE0AE0E92
:10373000B11CAD81BE818D919C91119712964C91D7
:1037400050E070E060E044165506660677060CF31C
:1037500022D4BDCFCF93DF93EA0127DF811109C0C7
:1037600082E090E09983888385EF9FEFDF91CF918E
:10377000089581E090E00E948C0D81E090E09983B3
:10378000888390E080E0F2CF10DF1092C90310929E
:10379000C803089542E050E065EE72E00C94AA0D73
:1037A000FF920F931F93CF93DF938A01EC01C60F13
:1037B000D71FF980B9D20897F816190671F068F08A
:1037C00082E090E0F801918380838EEF9FEFDF919C
:1037D000CF911F910F91FF9008956C817D818E8113
:1037E0009F814B810E943F10811108C082E090E0D0
:1037F000F8019183808384EF9FEFE9CFF9800E94E5
:103800003A104F2D50E0BE01685F7F4F0E942E2F6F
:1038100089810E94A91081E090E0F8019183808362
:1038200090E080E0D4CFDF92EF92FF920F931F934E
:10383000CF93DF938A01EC01C60FD71F0E943A1085
:103840007C01D98071D2DD2059F0029721E030E06F
:10385000D816190619F010F030E020E0232B79F487
:1038600082E090E0F801918380838EEF9FEFDF91FB
:10387000CF911F910F91FF90EF90DF900895EF2867
:1038800041F482E090E0F8019183808384EF9FEF20
:10389000EECFF9800E943A104F2D50E0BE016E5FCE
:1038A0007F4F0E942E2F89810E94A91081E090E015
:1038B000F8019183808390E080E0D9CF8AEC9BE18E
:1038C0009093D3038093D20308958091D203909173
:1038D000D30308950895FC0111821082938382839B
:1038E0000895DB011D921C92DC011296ED91FC9172
:1038F00013977183608313967C936E931297089548
:10390000FC0180819181DB018D939C93A081B18129
:10391000109741F08D919C9191838083892B11F4B4
:10392000F383E2830895FC0180819181DB018D9313
:103930009C93892B11F47383628371836083089550
:10394000FC0111821082938382830895CF93DF93C9
:103950001F921F92CDB7DEB71A821982F894BE016A
:103960006F5F7F4F89ED93E0CBDF89819A8100976C
:1039700009F011D389819A81892B89F7BE016F5F84
:103980007F4F8DED93E0BCDF89819A81009709F02C
:1039900002D389819A81892B89F778940F900F90AF
:1039A000DF91CF910895CF93DF931F921F92CDB7F0
:1039B000DEB71A821982F894BE016F5F7F4F85EDE2
:1039C00093E09EDF89819A81009709F0E4D2898192
:1039D0009A81892B89F778940F900F90DF91CF917E
:1039E000089581E0089590E080E00895EF92FF92BD
:1039F0000F931F93CF93DF931F921F92CDB7DEB724
:103A00001A8219828091D40307EF1FEF8823A1F156
:103A1000F894BE016F5F7F4F8DED93E071DF789476
:103A200089819A81EE24E394F12C892B51F4F89446
:103A3000BE016F5F7F4F89ED93E062DF7894F12CD8
:103A4000E12C89819A810EEF1FEF0097A9F0FC010C
:103A50004281538164E070E041D68C01892B61F092
:103A6000F89469817A81C701880F991F880F991F7F
:103A700087529C4F58DF7894C8010F900F90DF91C8
:103A8000CF911F910F91FF90EF9008950F931F9387
:103A9000CF93DF9300D01F92CDB7DEB71C821B827D
:103AA0001A8219828091D40307EF1FEF8823C1F097
:103AB000AE014D5F5F4F64E070E0CE01019681D6AC
:103AC0008C01892B69F4E981FA818B819C81938334
:103AD0008283F89469817A8185ED93E002DF78949E
:103AE000C8010F900F900F900F90DF91CF911F9111
:103AF0000F91089586D7049608958F929F92AF9262
:103B0000BF92CF92DF92EF92FF920F931F93CF93CA
:103B1000DF931F921F92CDB7DEB71A821982BC01C4
:103B20006F5F7F4F6330710598F0AA24AA94BA2C76
:103B3000C5010F900F90DF91CF911F910F91FF90D2
:103B4000EF90DF90CF90BF90AF909F908F900895AF
:103B50004115510551F3480159018A016C01CADF31
:103B60008815990511F7E114F104F9F28E0D9F1DE6
:103B7000A816B906D0F28091D4038823F1F0F89406
:103B8000B501645071099701AE014F5F5F4FC801E5
:103B90000496ACD65C01892B71F489819A81F80175
:103BA00093838283C601880F991F880F991FB801DC
:103BB00087529C4F96DE7894BBCF87EFA82EBB240C
:103BC000BA94B6CFAF92BF92CF92DF92EF92FF92AC
:103BD0000F931F93CF93DF931F921F92CDB7DEB742
:103BE0001A821982892B09F047C06115710509F401
:103BF00043C04115510509F43FC02115310509F4B1
:103C00003BC001151105C1F18091D4038823B9F19E
:103C100079016A015B01F894BE016F5F7F4F85ED0A
:103C200093E06EDE789489819A81009759F1DC01E6
:103C300012966D917C91A801049671D68C01E98150
:103C4000FA81D501ED93FC93828193810496F6016C
:103C5000918380834FDFD7018D939C93C8010F9090
:103C60000F90DF91CF911F910F91FF90EF90DF9018
:103C7000CF90BF90AF9008950FEF1FEFEFCF07EFFA
:103C80001FEFECCF0EEF1FEFE9CFCF93DF93EC01E7
:103C9000672B71F4BFD68C179D0760F0B2D62496BF
:103CA000C80FD91FB1D68C0F9D1FDF91CF910895FA
:103CB000AED6F1CF90E080E0F8CF0F931F93CF9373
:103CC000DF932091D40321112BC08B01EC0189EDEE
:103CD00093E001DE8DED93E0FEDD85ED93E0FBDD0D
:103CE00097D00097C1F496D670E060E0CEDF4BE449
:103CF00052E062E070E07BD1009769F480914B0262
:103D000090914C0299D6B801CE01CED4009719F407
:103D100021E02093D403DF91CF911F910F9108955B
:103D200084EF9FEFF8CF73C675C6CF93DF9375D638
:103D3000EC01892B11F40ADE36DECE01DF91CF9142
:103D40000895CF93DF9369D6EC01892B09F4FEDD4A
:103D5000CE01DF91CF91089580914B0290914C025A
:103D60000895CF93DF938091D403D0E0C0E08823FF
:103D7000D1F067D6EC01892BB1F4E8DD14DE809137
:103D80004B0290914C02CFD1B5D2EC01892B59F462
:103D900089ED93E0D5DD8DED93E0D2DD85ED93E007
:103DA000CFDD1092D403CE01DF91CF910895EF9231
:103DB000FF920F931F93CF93DF93EC017A018B0156
:103DC0000F5F1F4F0E9DA0010F9D500D1E9D500DAA
:103DD000112470E060E00E94372F90E080E0F0E076
:103DE000E0E02FEFE816F90639F4DF91CF911F914B
:103DF0000F91FF90EF9008951A82198228833097CF
:103E000011F0D283C1830196FE01C00FD11FEACF0A
:103E1000AF92BF92CF92DF92EF92FF920F931F93D8
:103E2000CF93DF9386E495E07C012CEFE22243E020
:103E300050E06DE472E083E592E0E3D38DE4C82EB8
:103E400082E0D82E93E5A92E92E0B92ECFE1D6E0FC
:103E50008E01D6014D915D916D01F50161917191D8
:103E60005F01D8011196FC92EE9215965C934E93E9
:103E7000149713965C934E93129717967C936E93B8
:103E800016979B012F5F3F4F249FC001259F900DE8
:103E9000349F900D112419969C938E931897E114DA
:103EA000F10411F0C70183DFF80180859185E80EE8
:103EB000F91E065F1F4FF3E5CF16F2E0DF0649F665
:103EC000E3EEF3E080E691E0DF019C011D922150DA
:103ED0003040E1F71092E2031092E1031F8E1E8E34
:103EE0001BA21AA219A218A21DA21CA21FA21EA2E6
:103EF0002A9636E0CD33D30789F710921C0610922C
:103F00001B0610921E0610921D0690E080E0DF91C5
:103F1000CF911F910F91FF90EF90DF90CF90BF90C6
:103F2000AF9008950097F1F0F894A3E5B2E0EFE1C7
:103F3000F6E030E020E04D915D9148175907A8F078
:103F4000428153814115510581F08AE0829FF00141
:103F5000839FF00D1124E15EF94F808191810097DC
:103F600059F4789490E080E008952F5F3F4F3A969F
:103F70002330310501F7F5CFDC0111966D917C916D
:103F8000718360834150510953834283FC01219323
:103F9000CF0178940895009749F1DC018E91863025
:103FA00041F4E0911D06F0911E063097F9F0CD0125
:103FB00019948630D8F4282F30E0F8948FEF8C9342
:103FC0008AE0829FF001839FF00D1124E15EF94F9A
:103FD0008081918112969C938E931197B183A083D7
:103FE0008281938101969383828378940895CF92FE
:103FF000DF92EF92FF920F931F93CF93DF939C0179
:1040000086EE93E08C7F4115510509F489C0211596
:10401000310509F485C06115710509F481C08A0173
:10402000AB01B9016D5F7F4F6C7F9B012F5F3F4FED
:10403000249F7001259FF00C349FF00C1124F894FC
:10404000EFE1F6E023E030E0E901A6A1B7A1C68CDC
:10405000D78CCD2809F058C0109709F03EC0C09009
:10406000E103D090E2032DE531E02C193D092E1536
:104070003F0530F47894CFEFDFEF86EF9FEF21C05C
:104080002AE02C9FF0012D9FF00D1124E15EF94FE5
:1040900091838083558344835383428377836683EC
:1040A000F186E086009709F082DEEC0CFD1CF092B0
:1040B000E203E092E1037894CF3FDC07F1F290E075
:1040C00080E0F801D183C083DF91CF911F910F91E0
:1040D000FF90EF90DF90CF900895AE15BF05A0F050
:1040E0002AE02C9FF0012D9FF00D1124E15EF94F85
:1040F000918380835583448353834283778366838C
:104100000097C9F254DED7CF8A0F9B1F2F5F3F4F16
:104110003A962630310509F097CFCFEFDFEFCBCFBE
:104120008FEF9FEFD1CF9C010397039708F04EC00C
:10413000F89485E09AE0482F50E0241735079CF169
:1041400091E08AE0829FF001839FF00D1124E15EEF
:10415000F94F118210821582148213821282178203
:1041600016829923E1F08091E1039091E203EFE15F
:10417000F6E0268D378D232B49F426A137A1211592
:10418000310521F0821B930B17A216A23A9626E066
:10419000ED33F20771F79093E2038093E103789493
:1041A00090E080E00895949FF001959FF00D112418
:1041B000E15EF94F40815181452B31F440855185B5
:1041C000452B11F48150B7CF90E0BBCF8FEF9FEF1D
:1041D00008954115510549F1009739F161157105AF
:1041E00021F1F89420911B0630911C06232BB9F481
:1041F00020911D0630911E06232B89F490931C06F6
:1042000080931B0670931E0660931D06789426E02B
:1042100030E090E080E0FA013183208308957894C3
:104220002FEF3FEF86EF9FEFF6CF8FEF9FEF0895D1
:10423000069769F4F89410921C0610921B061092CF
:104240001E0610921D06789490E080E008958FEF8E
:104250009FEF08956115710519F4F0E0E0E011C0D9
:104260008630910581F4E0911B06F0911C06309791
:10427000A1F3CB0101961995009779F3FC0186E033
:104280008193CF0108959C012350310923303105DA
:1042900020F72AE0289FD001299FB00D1124A15EAC
:1042A000B94F2D913C911197232BB9F216962D9170
:1042B0003C9117972617370780F2F89412962D91A4
:1042C0003C9113972115310529F0ED91FC9111973F
:1042D000309711F47894C1CF4181528111965C934B
:1042E0004E932150310913963C932E93129781934C
:1042F0007894C7CFE3E4F5E088EDDF011D928A955D
:10430000E9F7E3EEF3E080E691E0DF019C011D9226
:1043100021503040E1F71092E2031092E103EFE107
:10432000F6E08CE3DF011D928A95E9F7EBE1F6E018
:1043300084E0DF011D928A95E9F790E080E008951E
:10434000CF93DF93C0915902D0915A02CF3FDC073F
:1043500059F41FD490935A028093590297FF09C0D1
:10436000D0935A02C093590284EF9FEFDF91CF910F
:10437000089590E080E0FACF8230910528F4809390
:104380005B0690E080E008958FEF9FEF08954F92D5
:104390005F926F927F92AF92BF92CF92DF92EF9235
:1043A000FF920F931F93CF93DF931F921F92CDB76E
:1043B000DEB71A821982009709F478C06115710579
:1043C00009F474C02091590230915A0207EF1FEF8F
:1043D0002F3F3F4F09F444C06B015C01412C512C2D
:1043E0003201F12CE12C10E000E09E012F5F3F4FE5
:1043F000A6014E195F09B5016E0D7F1D809159020E
:1044000090915A0225D4892B09F04AC089819A815A
:10441000009741F4E114F10429F420915B06222372
:1044200009F441C0E80EF91EEC14FD04C8F480E85C
:10443000481684E858068EE16806710418F560E0B5
:1044400070E0CB01B1D72AE0420E511C611C711CF7
:104450000A3F4FEF140721F0043F8FEF1807A1F434
:10446000C8010F900F90DF91CF911F910F91FF9096
:10447000EF90DF90CF90BF90AF907F906F905F9064
:104480004F90089501EF1FEF81E090E0013F2FEF83
:10449000120711F090E080E0892B09F4A6CFE0CF5D
:1044A00004EF1FEFDDCF0AEF1FEFDACF0FEF1FEFA3
:1044B000D7CF4F925F926F927F92AF92BF92CF927F
:1044C000DF92EF92FF920F931F93CF93DF931F9290
:1044D0001F92CDB7DEB71A821982009709F478C00F
:1044E0006115710509F474C02091590230915A0286
:1044F00007EF1FEF2F3F3F4F09F444C06B015C01F2
:10450000412C512C3201F12CE12C10E000E09E01F5
:104510002F5F3F4FA6014E195F09B5016E0D7F1D3C
:104520008091590290915A0249D3892B09F04AC0CF
:1045300089819A81009741F4E114F10429F42091D2
:104540005B06222309F441C0E80EF91EEC14FD04B9
:10455000C8F480E8481686E9580688E968067104B8
:1045600018F560E070E0CB011FD72AE0420E511C25
:10457000611C711C0E3F4FEF140721F0043F8FEFB9
:104580001807A1F4C8010F900F90DF91CF911F91F0
:104590000F91FF90EF90DF90CF90BF90AF907F9002
:1045A0006F905F904F90089502EF1FEF81E090E0D1
:1045B000023F2FEF120711F090E080E0892B09F401
:1045C000A6CFE0CF04EF1FEFDDCF0EEF1FEFDACF66
:1045D0000FEF1FEFD7CF8091590290915A028F3F72
:1045E000980749F0CED2892B49F48FEF9FEF909333
:1045F0005A028093590290E080E0089584EF9FEF83
:104600000895CF92DF92EF92FF920F931F93CF9373
:10461000DF9321E04115510509F020E04150510997
:1046200021112CC0DC01FB01D12CC12C21E022C0C6
:104630003FEFC31AD30A7D010D911D91E701EA8076
:10464000FB80E016F106A8F420813181E280F3803E
:10465000F182E08233832283ED90FC9011979D01DB
:1046600022503109E901F982E88211961C930E93D8
:1046700020E03296C416D506D8F2D2CFDF91CF9182
:104680001F910F91FF90EF90DF90CF900895FC0164
:10469000680F791F90E080E0E617F70709F40895A6
:1046A0002191820F911DF8CF20915C06211113C03A
:1046B00047DE009791F41092620610926106109204
:1046C000600610925F0610925E0610925D0621E071
:1046D00020935C06089584EF9FEF0895AF92BF92F8
:1046E000CF92DF92EF92FF920F931F93CF93DF93BE
:1046F000009709F460C04630510508F45CC0209171
:104700005C06C7EFDFEF222309F449C08C01060FD6
:10471000171FF801C080D180C114D10409F44EC024
:1047200096012A5F3F4F4217530708F447C07C01A8
:10473000809161069091620693838283B6016C5FDB
:104740007F4F5801A60EB71EC801A1DFF501918366
:10475000808364E070E0C8011ADEEC01892BF9F473
:1047600081E090E009DEB601C801049610DEEC019C
:10477000892B91F462E070E0C50109DEEC01892B20
:1047800059F4C70108DC8091610690916206019698
:10479000909362068093610690E080E0EDDDCE01AB
:1047A000DF91CF911F910F91FF90EF90DF90CF900D
:1047B000BF90AF900895CFEFDFEFF1CFC9EFDFEFFC
:1047C000EECF6F927F928F929F92AF92BF92CF92D5
:1047D000DF92EF92FF920F931F93CF93DF9300D05E
:1047E0001F92CDB7DEB7009709F47AC04115510585
:1047F00009F476C020915C0607EF1FEF222309F42D
:104800004DC03A017B015C0164E070E0CE0101968D
:1048100050DE8C01892B09F041C009811A810115F4
:10482000110509F45AC0480186E0880E911CB701B1
:10483000680D791D80915B0290915C020BDD6C012B
:10484000009709F450C0A70170E060E00E94372F84
:1048500089819A81AB81BC81EC0CFD1CF7018193AD
:104860009193A193B1937F0181E090E085DDB80140
:10487000C7011FDE892B31F562E070E0C701800FB0
:10488000911F17DE8C01892BE9F490E080E074DD44
:10489000F501D182C082F30191828082C8010F901C
:1048A0000F900F900F90DF91CF911F910F91FF907C
:1048B000EF90DF90CF90BF90AF909F908F907F90C0
:1048C0006F90089590E080E057DDF501118210822D
:1048D000F30111821082C6015EDB09EF1FEFDECF0C
:1048E0000FEF1FEFDBCF06EF1FEFD8CF0097A1F040
:1048F0004115510589F02115310571F0F901369600
:104900006E177F0748F0DC012D933C93DA01ED939D
:10491000FC9390E080E008958FEF9FEF0895AF92B1
:10492000BF92CF92DF92EF92FF920F931F93CF939C
:10493000DF93009709F45FC04115510509F45BC08E
:104940006530710508F457C020915C06C7EFDFEFB2
:10495000222391F1DC01CD90DC9011971296ED911C
:10496000FC9196012A5F3F4FC9EFDFEF261737070B
:1049700019F5C0915D06D0915E06209749F521E0BA
:1049800030E030935E0620935D067A018C01F0934F
:104990006006E0935F065601B4E0AB0EB11CB501B2
:1049A00076DE0A0D1B1DF8012081318182179307E5
:1049B00029F5D701CD92DC92CE01DF91CF911F91E5
:1049C0000F91FF90EF90DF90CF90BF90AF90089540
:1049D00020915F06309160062F5F3F4FCCEFDFEFF5
:1049E000E217F30790F2CBEFDFEF2E173F0768F2E5
:1049F000D0E0C0E0CACFCFEFDFEFDECFC3EFDFEF15
:104A0000DBCF84E090E0089582E090E008958CEFA1
:104A10009FEF089580E290E0089510926206109250
:104A200061061092600610925F0610925E06109268
:104A30005D0690E080E0089590935C0280935B02B5
:104A4000089580915C06882391F0C5DD009789F474
:104A500010926206109261061092600610925F0634
:104A600010925E0610925D0610925C06089590E02A
:104A700080E00895009749F06115710531F0FC015F
:104A800011821082FB01118210820895F3CF26E07B
:104A900030E040E855E260E070E090E080E000C087
:104AA0008130910569F01CF4892B39F0089582302A
:104AB000910549F0039751F0089588E796E0CDC637
:104AC00085E197E0FCCF82EB97E0F9CF8FE498E0A7
:104AD000F6CF089580E00895CF92DF92EF92FF9293
:104AE0000F931F933CD46093630670936406809386
:104AF00065069093660600916706109168062091FE
:104B0000690630916A066B017C01C01AD10AE20A7B
:104B1000F30A970186010035134C2105310508F190
:104B200060936706709368068093690690936A069F
:104B3000A3D015D4009167061091680620916906EC
:104B400030916A06601B710B820B930B6035734CBE
:104B50008105910570F081E090E090936E0680935E
:104B60006D0681E01F910F91FF90EF90DF90CF9045
:104B7000089510926E0610926D06F3CF10926B0698
:104B8000089568EE73E080E090E00ED490E080E05D
:104B9000089526E030E040E050E16EE070E090E003
:104BA00080E07EDF88E796E08ED5892B21F088E7CC
:104BB00096E0A3D5F7CF90E080E00895CF92DF9202
:104BC000EF92FF920F931F93CF93DF936B017A01C4
:104BD000E9011982188288E796E075D5892B69F179
:104BE0008601CC24C39482E0D82E80916B0681117B
:104BF00010C088E796E081D50297B9F7C0926B069E
:104C0000F801D1928F0188819981019699838883D7
:104C1000ECCF888199818E159F0578F488E796E01E
:104C20006CD58F3F9807A9F3F80181938F01888194
:104C30009981019699838883ECCF90E080E0DF91A1
:104C4000CF911F910F91FF90EF90DF90CF9008953B
:104C50000F931F93CF93DF93EA01890188E796E0D2
:104C60000E94BD2EF801D183C08390E080E0DF91E7
:104C7000CF911F910F91089580916C0691E0980F4C
:104C800090936C06882349F021E030E030936E0663
:104C900020936D0680936C0608950E940104809114
:104CA0006C068150F7CF0F931F93CF93DF93109231
:104CB0003F0910923E09AED3EADEC0915E02D09168
:104CC0005F02198218826FEF7FEFCB010E94D20240
:104CD00070E060E090E080E00E944F01009709F0F2
:104CE00039C00E949905F8947894BE01685D7F4FA1
:104CF0008A819B810E945201892B59F46FEF7FEFCB
:104D0000CB010E94E5010E94CC02882311F081E0D2
:104D10008CA7F894DEDE0E94CF02882311F080E099
:104D200008C00E94CC028111FACF81E09CA59111AC
:104D3000F6CF80933E090E94870D8C017894809174
:104D40003E0981110CC00E944A060E94B102F894EB
:104D500090E080E0DF91CF911F910F9108950E9424
:104D6000AF020E94CF028823D9F081E080933F09EF
:104D700090913F0981E0911180E080933E098091FC
:104D80003F098111A7DE0130110529F40E94870D2A
:104D9000892B09F4F3DE0E94870D8C019DDECFCFB5
:104DA0000E94CC028111E1CF81E09CA59111DECF60
:104DB00080E0DCCF5058BB27AA270ED0CEC1BFD190
:104DC00030F0C4D120F031F49F3F11F41EF4B4C18F
:104DD0000EF4E095E7FB81C1E92FD0D180F3BA173B
:104DE000620773078407950718F071F49EF5FFC1F9
:104DF0000EF4E0950B2EBA2FA02D0B01B9019001F6
:104E00000C01CA01A0011124FF27591B99F0593F39
:104E100050F4503E68F11A16F040A22F232F342F81
:104E20004427585FF3CF469537952795A795F040CF
:104E30005395C9F77EF41F16BA0B620B730B840BE4
:104E4000BAF09150A1F0FF0FBB1F661F771F881F9C
:104E5000C2F70EC0BA0F621F731F841F48F48795F4
:104E600077956795B795F7959E3F08F0B3CF9395E3
:104E7000880F08F09927EE0F97958795089509D127
:104E800008F481E008950CD068C160D140F057D19A
:104E900030F021F45F3F19F020C15111A9C14CC17C
:104EA0006DD198F39923C9F35523B1F3951B550B95
:104EB000BB27AA2762177307840738F09F5F5F4FED
:104EC000220F331F441FAA1FA9F333D00E2E3AF02E
:104ED000E0E830D091505040E695001CCAF729D048
:104EE000FE2F27D0660F771F881FBB1F2617370797
:104EF0004807AB07B0E809F0BB0B802DBF01FF27C7
:104F000093585F4F2AF09E3F510568F0E6C070C18C
:104F10005F3FECF3983EDCF3869577956795B79500
:104F2000F7959F5FC9F7880F911D9695879597F91B
:104F30000895E1E0660F771F881FBB1F6217730794
:104F40008407BA0720F0621B730B840BBA0BEE1FA9
:104F500088F7E0950895E89409C097FB3EF4909592
:104F60008095709561957F4F8F4F9F4F9923A9F042
:104F7000F92F96E9BB279395F695879577956795D1
:104F8000B795F111F8CFFAF4BB0F11F460FF1BC015
:104F90006F5F7F4F8F4F9F4F16C0882311F096E9A8
:104FA00011C0772321F09EE8872F762F05C0662356
:104FB00071F096E8862F70E060E02AF09A95660F0F
:104FC000771F881FDAF7880F9695879597F90895C8
:104FD000F7D080F09F3740F491110EF009C160E0E6
:104FE00070E080E89FEB089526F41B16611D711D8B
:104FF000811D79C093C0A3D018F011F0A7D038F468
:105000009BC0F6C0E92FBAD0B0F35523C9F3E7FB34
:105010006217730784079507A8F199F3E92FFF2713
:1050200088232AF03197660F771F881FDAF7952FAC
:105030005527442332F091505040220F331F441F14
:10504000D2F7BB27E91BF50B621B730B840BB1096D
:10505000C1F222F4620F731F841FB11D31972AF031
:10506000660F771F881FBB1FEFCF915050405AF03B
:1050700041F0882332F0660F771F881F915050400F
:10508000C1F793954BC08695779567959F5FD9F744
:10509000F8CF990F0008550FAA0BE0E8FEEF16169F
:1050A0001706E807F907C0F012161306E407F5071C
:1050B00098F0621B730B840B950B39F40A2661F090
:1050C000232B242B252B21F408950A2609F4A14033
:1050D000A6958FEF811D811D089597F99F6780E840
:1050E00070E060E00895882371F4772321F09850F0
:1050F000872B762F07C0662311F499270DC0905196
:10510000862B70E060E02AF09A95660F771F881F63
:10511000DAF7880F9695879597F908959F3F31F0B4
:10512000915020F4879577956795B795880F911DD5
:105130009695879597F908959FEF80EC0895002440
:105140000A941616170618060906089500240A94EC
:1051500012161306140605060895092E0394000C72
:1051600011F4882352F0BB0F40F4BF2B11F460FF01
:1051700004C06F5F7F4F8F4F9F4F089557FD90582A
:10518000440F551F59F05F3F71F04795880F97FB0B
:10519000991F61F09F3F79F08795089512161306C5
:1051A0001406551FF2CF4695F1DF08C016161706F4
:1051B0001806991FF1CF8695710561050894089529
:1051C000E5DFA0F0BEE7B91788F4BB279F3860F48D
:1051D0001616B11D672F782F8827985FF7CF869511
:1051E00077956795B11D93959639C8F30895E8941E
:1051F000BB2766277727CB0197F908954ADF08F484
:105200008FEF08950BD0A9CF9ADF28F09FDF18F019
:10521000952309F062CF90CF1124EACFAFDFA0F33E
:10522000959FD1F3950F50E0551F629FF001729F3B
:10523000BB27F00DB11D639FAA27F00DB11DAA1F5A
:10524000649F6627B00DA11D661F829F2227B00DA7
:10525000A11D621F739FB00DA11D621F839FA00D32
:10526000611D221F749F3327A00D611D231F849F82
:10527000600D211D822F762F6A2F11249F575040D9
:105280008AF0E1F088234AF0EE0FFF1FBB1F661F74
:10529000771F881F91505040A9F79E3F510570F02D
:1052A0001CCFA6CF5F3FECF3983EDCF38695779555
:1052B0006795B795F795E7959F5FC1F7FE2B880F28
:1052C000911D9695879597F908951F920F920FB6A5
:1052D0000F9211242F933F938F939F93AF93BF937C
:1052E0008091700690917106A0917206B09173063C
:1052F00030916F0623E0230F2D3758F50196A11D3D
:10530000B11D20936F068093700690937106A09351
:105310007206B09373068091740690917506A09101
:105320007606B09177060196A11DB11D8093740693
:1053300090937506A0937606B0937706BF91AF91D0
:105340009F918F913F912F910F900FBE0F901F90C3
:10535000189526E8230F0296A11DB11DD2CF3FB7A5
:10536000F8948091740690917506A0917606B0919C
:10537000770626B5A89B05C02F3F19F00196A11D01
:10538000B11D3FBFBA2FA92F982F8827BC01CD018F
:10539000620F711D811D911D42E0660F771F881FEE
:1053A000991F4A95D1F708958F929F92AF92BF921D
:1053B000CF92DF92EF92FF926B017C01D0DF4B0125
:1053C0005C01C114D104E104F104D9F003D5C7DFB5
:1053D000681979098A099B09683E7340810591051E
:1053E00080F321E0C21AD108E108F10888EE880EA6
:1053F00083E0981EA11CB11CC114D104E104F10486
:1054000031F7FF90EF90DF90CF90BF90AF909F90DB
:105410008F900895789484B5826084BD84B581604E
:1054200084BD85B5826085BD85B5816085BDEEE6AC
:10543000F0E0808181608083E1E8F0E0108280818B
:1054400082608083808181608083E0E8F0E08081F9
:1054500081608083E1EBF0E0808184608083E0EB19
:10546000F0E0808181608083E1E9F0E0808182600A
:105470008083808181608083E0E9F0E080818160C9
:105480008083E1EAF0E080818260808380818160B6
:105490008083E0EAF0E0808181608083E1E2F1E0F6
:1054A000808182608083808181608083E0E2F1E09E
:1054B000808181608083EAE7F0E08081846080837E
:1054C0008081826080838081816080838081806828
:1054D00080831092C10008958150823108F059C034
:1054E000E82FF0E08827E958F54D8F4F96C4972AAA
:1054F0009B2A892A8F2A932AC92A9E2AA42AA82A63
:10550000AE2AB22AB62ABC2AC02AC92AC42ACA2A62
:10551000CE2A809180008F778093800008958091BB
:1055200080008F7DF9CF80918000877FF5CF84B593
:105530008F7784BD089584B58F7DFBCF8091B000B7
:105540008F778093B00008958091B0008F7DF9CF60
:10555000809190008F7780939000089580919000C3
:105560008F7DF9CF80919000877FF5CF8091A0004B
:105570008F778093A00008958091A0008F7DF9CF50
:105580008091A000877FF5CF809120018F77809355
:1055900020010895809120018F7DF9CF8091200115
:1055A000877FF5CFCF93DF9390E0FC01E65DFE4F60
:1055B000249180599E4FFC0184918823C9F090E08A
:1055C000880F991FFC01E651FE4FA591B491FC0193
:1055D000E053FE4FC591D49161110DC09FB7F8946F
:1055E0008C91209582238C938881282328839FBFC8
:1055F000DF91CF910895623051F49FB7F8943C91B8
:10560000822F809583238C93E8812E2BEFCF8FB749
:10561000F894EC912E2B2C938FBFEACF1F93CF934E
:10562000DF93282F30E0F901EC51FF4F8491F9010D
:10563000E65DFE4FD491F901E059FE4FC491CC23B1
:10564000A1F0162F811148DFEC2FF0E0EE0FFF1FC5
:10565000E053FE4FA591B4918FB7F894EC911111DE
:1056600008C0D095DE23DC938FBFDF91CF911F91CF
:105670000895DE2BF8CFCF93DF93282F30E0F90188
:10568000EC51FF4F8491F901E65DFE4FD491F90191
:10569000E059FE4FC491CC2399F081111DDFEC2F0E
:1056A000F0E0EE0FFF1FEA54FE4FA591B491EC918C
:1056B000ED2381E090E009F480E0DF91CF9108953F
:1056C00080E090E0FACFFC01918D228D892F90E04F
:1056D000805C9F4F821B91098F7399270895FC016D
:1056E000918D828D981731F0828DE80FF11D858D97
:1056F00090E008958FEF9FEF0895FC01918D828DCA
:10570000981761F0A28DAE0FBF2FB11D5D968C91E1
:10571000928D9F5F9F73928F90E008958FEF9FEF20
:105720000895FC01538D448D252F30E0842F90E0A7
:10573000821B930B541710F0CF960895019708958C
:10574000FC01A48DA80FB92FB11DA35ABF4F2C91F6
:10575000848D90E001968F739927848FA689B789ED
:105760002C93A089B1898C91837080648C93938DE4
:10577000848D981306C00288F389E02D80818F7D87
:1057800080830895CF93DF93EC01888D8823B1F057
:10579000AA89BB89E889F9898C9185FD03C080813C
:1057A00086FD0CC00FB607FCF7CF8C9185FFF2CFBA
:1057B000808185FFEDCFCE01C3DFEACFDF91CF91AE
:1057C0000895EF92FF920F931F93CF93DF93EC0115
:1057D00081E0888F9B8D8C8D98131AC0E889F98998
:1057E000808185FF15C09FB7F894EE89FF8960839B
:1057F000E889F98980818370806480839FBF81E01C
:1058000090E0DF91CF911F910F91FF90EF9008955D
:10581000F62E0B8D10E00F5F1F4F0F731127E02E38
:105820008C8D8E110BC00FB607FCFACFE889F98971
:10583000808185FFF5CFCE0183DFF2CFEB8DEC0FBA
:10584000FD2FF11DE35AFF4FF0829FB7F8940B8FA5
:10585000EA89FB8980818062D0CFCF92DF92EF927C
:10586000FF921F93CF93DF93EC016A017B01122F0C
:10587000E889F98982E08083C11481EED806E104C9
:10588000F10499F060E079E08DE390E0A7019601E2
:10589000A2D22150310941095109569547953795B2
:1058A0002795211580E1380790F0E889F989108261
:1058B00060E874E88EE190E0A70196018CD2215057
:1058C0003109410951095695479537952795EC853A
:1058D000FD853083EE85FF852083188EEC89FD8958
:1058E0001083EA89FB89808180618083EA89FB8952
:1058F000808188608083EA89FB89808180688083D9
:10590000EA89FB8980818F7D8083DF91CF911F9110
:10591000FF90EF90DF90CF9008951F920F920FB6F7
:105920000F9211240BB60F922F938F939F93EF93A7
:10593000FF93E0918806F09189068081E0918E06C0
:10594000F0918F0682FD1DC09081809191068F5F3E
:105950008F7320919206821741F0E0919106F0E05A
:10596000E858F94F958F80939106FF91EF919F91A1
:105970008F912F910F900BBE0F900FBE0F901F9025
:1059800018958081F2CF1F920F920FB60F921124BB
:105990000BB60F922F933F934F935F936F937F9329
:1059A0008F939F93AF93BF93EF93FF9388E796E016
:1059B000C7DEFF91EF91BF91AF919F918F917F9142
:1059C0006F915F914F913F912F910F900BBE0F9070
:1059D0000FBE0F901F901895E8E7F6E01382128231
:1059E00088EE93E0A0E0B0E084839583A683B7833C
:1059F00085EF92E09183808385EC90E095878487A2
:105A000084EC90E09787868780EC90E0918B808B88
:105A100081EC90E0938B828B82EC90E0958B848B71
:105A200086EC90E0978B868B118E128E138E148EDF
:105A300008951F920F920FB60F9211240BB60F927A
:105A40002F938F939F93EF93FF93E0912507F0910E
:105A500026078081E0912B07F0912C0782FD1DC065
:105A6000908180912E078F5F8F7320912F0782176F
:105A700041F0E0912E07F0E0EB5EF84F958F8093B8
:105A80002E07FF91EF919F918F912F910F900BBE59
:105A90000F900FBE0F901F9018958081F2CF1F922C
:105AA0000F920FB60F9211240BB60F922F933F93C4
:105AB0004F935F936F937F938F939F93AF93BF9316
:105AC000EF93FF9385E197E03BDEFF91EF91BF916C
:105AD000AF919F918F917F916F915F914F913F9186
