:1000000005C1000034C1000032C1000030C1000051
:100010002EC100002CC100002AC1000028C1000030
:1000200026C1000024C1000022C1000020C1000040
:100030001EC100001CC100001AC1000018C1000050
:1000400016C1000014C1000012C1000010C1000060
:100050000EC100000CC100000AC100000C943F2832
:1000600006C100000C94672B0C949D2B00C100006E
:10007000FEC00000FCC00000FAC00000F8C0000094
:10008000F6C00000F4C00000F2C00000F0C00000A4
:100090000C94F32B0C94292CEAC00000E8C000005B
:1000A000E6C00000E4C00000E2C00000E0C00000C4
:1000B000DEC00000DCC00000DAC00000D8C00000D4
:1000C000D6C00000D4C00000D2C000000C947F2C29
:1000D0000C94B52CCCC000000C940B2D0C94412D2D
:1000E000C6C0000000000A0B02090C0D0E08070331
:1000F00004010000000000000000000000000000FB
:1001000000000000000000000000000000000000EF
:1001100012111000000000000000000000000000AC
:100120000000000000000000000001021020200874
:100130000810204010204080020102010804020142
:1001400001020408102040808040201008040201B1
:10015000800402018040201008040201080402010A
:100160000102040810204080010204081020408091
:1001700005050505070508080808020202020A0A23
:100180000808040404040101010101010101030341
:10019000030303030303040707070C0C0C0C0C0CEC
:1001A0000C0C0202020206060606060606060B0BE9
:1001B0000B0B0B0B0B0B000020002300260029006B
:1001C0002C002F003200000100000301060109018C
:1001D00000002200250028002B002E0031003400F2
:1001E00002010000050108010B01000021002400AC
:1001F00027002A002D003000330001010000040117
:1002000007010A01C62B522CDE2C6A2D11241FBEB9
:10021000CFEFD1E2DEBFCDBF00E00CBF13E0A0E026
:10022000B2E0E2E5FCE500E00BBF02C007900D92F2
:10023000A231B107D9F729E0A2E1B3E001C01D92D4
:10024000A333B207E1F711E0C6E0D1E000E006C059
:1002500021970109802FFE010E94F62DC230D1079F
:1002600080E00807A9F70E9436260C94272EC8CEF6
:10027000611102C00C94AC296130E1F362E0FACF65
:10028000662319F061E00C94E82960E0FCCF0E943D
:10029000152A21E0019709F020E0822F089590E0CF
:1002A00080E008950F931F93009709F487C06115AC
:1002B000710509F483C000915602109157022091F4
:1002C0005802309159020E3F1F4F2F4F3F4F09F0F8
:1002D00066C04FEF5FEFBA0140935602509357024A
:1002E0006093580270935902409156025091570200
:1002F0006091580270915902DC011296ED91FC91C7
:1003000080819181A281B38180939603909397031A
:10031000A0939803B093990384819581A681B781B6
:100320008093920390939303A0939403B0939503C7
:1003300080859185A285B38580938E0390938F03EA
:10034000A0939003B093910384859585A685B78586
:1003500080938A0390938B03A0938C03B0938D03B7
:1003600010928603109287031092880310928903DB
:100370006ED78CE499E090931303809312039093CB
:1003800015038093140352D6009731F421E030E036
:1003900030939B0320939A031F910F91089500912E
:1003A0005602109157022091580230915902DB01F8
:1003B0000D931D932D933C93139796CF8FEF9FEF43
:1003C000EBCF8F929F92AF92BF92CF92DF92EF923C
:1003D000FF921F93CF93DF934B015C0110919D031C
:1003E00082E090E090939B0380939A0381149104A0
:1003F000A104B10441F480919D03811104C0809156
:100400009C03C1E08111C0E0C12CD12C7601809108
:100410009D03811106C080919C03811102C0CC23F1
:10042000D9F083E090E090939B0380939A03CC23D0
:1004300079F1CCE9DFEF111102C00E94B00CCE01BE
:10044000DF91CF911F91FF90EF90DF90CF90BF9001
:10045000AF909F908F9008956AE070E080E090E008
:100460000E94AE2880E1C80E87E2D81EE11CF11C74
:100470008FEF88169806A806B80631F0C1E08C14F4
:100480009D04AE04BF0408F0C0E080E003D6BFCFF7
:10049000D0E0C0E0D0CFCF92DF92EF92FF920F93E7
:1004A0001F93CF93DF938F3F910511F008F050C059
:1004B00020919A0330919B032330310539F020912C
:1004C0009A0330919B032130310531F424E030E070
:1004D00030939B0320939A036A017B01EC018230E5
:1004E0009105A0F011E0AE01C701B6019ED5AB01A8
:1004F000BC01CE011123F9F0DF91CF911F910F9133
:10050000FF90EF90DF90CF900C94D90E8C01000FEC
:10051000111F0E5E1C4FD8018D919C91892B11F3F8
:100520000E94E30E0297F1F6D801ED91FC91CE0105
:100530001995182FD8CF0E94FB0E90E080E0DF9134
:10054000CF911F910F91FF90EF90DF90CF90089582
:100550008FEF9FEFF4CF80E09DC5CF93DF9386E0D0
:1005600090E090939B0380939A03EDD5EC01E2E138
:10057000F3E084E0DF011D928A95E9F70E94480CC0
:1005800010929B0310929A03CE01DF91CF910895B0
:1005900080919C030895809185030895609356028D
:1005A00070935702809358029093590290E080E034
:1005B0000895DF92EF92FF920F931F93CF93DF93F3
:1005C000EA019D81882309F442C091110BC0F90111
:1005D00080859185A285B38588839983AA83BB830F
:1005E00081E08D8389017B01F90124813581468178
:1005F0005781688179818A819B810E94BE266883A8
:1006000079838A839B83DD24D394F801208131810F
:10061000428153810E94D82787FDD12CF701D082D7
:100620008C81882389F0833059F481E090E08C83B9
:10063000DF91CF911F910F91FF90EF90DF90089580
:10064000082E000C990BF3CF82E090E0F0CF9923B5
:1006500079F31D82EDCF4F925F926F927F928F92CE
:100660009F92AF92BF92CF92DF92EF92FF920F9341
:100670001F93CF93DF9380912F098150823008F030
:100680006EC183E080932F09C0900102D0900202D6
:10069000E0900302F0900402A70196016091D30854
:1006A0007091D4088091D5089091D6080E94222795
:1006B000882341F0C092D308D092D408E092D508A4
:1006C000F092D60887E0E3DDC82F29E432E04BE260
:1006D00059E06AE978E06DDFCC2309F442C191E08A
:1006E00080E020919A08211101C090E0C92FD82FF5
:1006F0008C2EC0900502D0900602E0900702F09088
:100700000802A70196016091C7087091C8088091FE
:10071000C9089091CA080E942227882341F0C092FC
:10072000C708D092C808E092C908F092CA0888E0C9
:10073000AEDD182F2CE332E045E259E069E978E0BC
:1007400038DFB12CA12C112349F091E080E02091F9
:100750009908211101C090E0A92EB82E9A2CC090C2
:100760000902D0900A02E0900B02F0900C02A7015F
:1007700096016091BB087091BC088091BD08909172
:10078000BE080E942227882341F0C092BB08D09265
:10079000BC08E092BD08F092BE0889E078DD182F11
:1007A0002FE232E04FE159E068E978E002DFD12C36
:1007B000C12C112349F091E080E02091980821118B
:1007C00001C090E0C92ED82E0C2D40900D02509003
:1007D0000E0260900F0270901002A30192016091CE
:1007E000AF087091B0088091B1089091B2080E9452
:1007F0002227882341F04092AF085092B0086092BF
:10080000B1087092B2088AE042DD182F22E232E08D
:1008100049E159E067E978E0CCDEF12CE12C1123C5
:1008200049F091E080E020919708211101C090E00B
:10083000E92EF82E1E2D4090110250901202609069
:10084000130270901402A30192016091A3087091A9
:10085000A4088091A5089091A6080E9422278823C9
:1008600041F04092A3085092A4086092A5087092AB
:10087000A6088BE00CDD782E25E132E043E159E05B
:1008800066E978E096DE90E080E0772049F031E09C
:1008900020E080919608811101C030E0832F922FD3
:1008A000482F882039F0911005C0011103C021E0C4
:1008B0002827111120E020938C08811007C099206F
:1008C00029F0011103C021E02427111120E0209319
:1008D0008D0821E02925811020E0222329F0002322
:1008E00019F061E06427111160E060938E08222303
:1008F000D9F121E02027222321F061E064271111A2
:1009000001C060E060938F08222311F0282F11119D
:1009100020E020939008CA0DDB1DCC0DDD1DCE0D0F
:10092000DF1DC80FD91FE0900002F12C61E02111FA
:1009300006C0EC16FD0614F461E0411160E060931E
:10094000910886E09DDC80918C0881110FC0EC1627
:10095000FD061CF481E0882051F080E008C080E0B2
:1009600091CED0E0C0E0C4CE20E0C5CF81E080933E
:10097000920880918D08811108C0EC16FD061CF4C8
:1009800081E0992019F080E001C081E08093930814
:1009900080918E08811108C0EC16FD061CF481E0E0
:1009A000002319F080E001C081E0809394088091D9
:1009B0008F0861E0811106C0EC16FD0614F461E0B9
:1009C000111160E06093950885E05ADC609194080D
:1009D00084E056DC6091930883E052DC60919208D9
:1009E00082E04EDC60915C0370915D0380915E0358
:1009F00090915F036F5F7F4F8F4F9F4F60935C03BA
:100A000070935D0380935E0390935F030E9426279B
:100A10009B01AC016091600370916103809162035E
:100A2000909163030E94DC276093580370935903ED
:100A300080935A0390935B03DF91CF911F910F91A5
:100A4000FF90EF90DF90CF90BF90AF909F908F90EE
:100A50007F906F905F904F9008958F929F92AF928A
:100A6000BF92FF920F931F93CF93DF93E2E4F3E0E3
:100A700080E090E0A0E8BFEB82A393A3A4A3B5A37A
:100A80008DEC9CECACECBDE3868F978FA0A3B1A35B
:100A900080E995E7A8EABDE984839583A683B783B7
:100AA00083E092ECACE1B2E580879187A287B387BF
:100AB0008DE59DE8ADEAB3EB84879587A687B78778
:100AC00085E69BE7AEEEB5EF808B918BA28BB38B67
:100AD000A6E3B3E0B383A283E6E1F3E01196FC93CF
:100AE000EE938FE792E09183808393838283958353
:100AF000848397838683918780879387828795876E
:100B0000848797878687918B808B938B828B958B3D
:100B1000848B8FE299E0978B868B89E299E0918FA5
:100B2000808F83E299E0938F828F8DE199E0958F9A
:100B3000848F87E199E0978F868F86E593E01596FD
:100B40009C938E93149786E493E013969C938E93D4
:100B5000129788E593E017969C938E931697CBE9AE
:100B6000D8E000E012E08091510290915202A091F1
:100B70005302B091540280932B0990932C09A093B7
:100B80002D09B0932E09ECE8F8E080915502868794
:100B90008091440290914502A0914602B091470293
:100BA0008093250990932609A0932709B0932809DB
:100BB000809148028587D801D7964D915D916D91BE
:100BC0007C91DA9740931F09509320096093210983
:100BD00070932209DB968C91DB9784879A964D91CE
:100BE0005D916D917C919D974093190950931A09DD
:100BF00060931B0970931C099E968C919E97838726
:100C00005D964D915D916D917C9190974093130904
:100C100050931409609315097093160991968C915D
:100C20009197828718AA11968D919D910D90BC91F4
:100C3000A02D88AF99AFAAAFBBAF812C912C5401E6
:100C4000839489AA9AAAABAABCAA60E087E010DBC9
:100C5000FF24F394FDAA1CA2F80185819681A78147
:100C6000B0858CA79DA7AEA7BFA78DA29EA2AFA25D
:100C7000B8A660E088E0FCDAF9A6188EF801818554
:100C80009285A385B48588A399A3AAA3BBA3898EC3
:100C90009A8EAB8EBC8E60E089E0EADAFD8E1C860F
:100CA000F80185859685A785B0898C8B9D8BAE8B49
:100CB000BF8B8D869E86AF86B88A60E08AE0D8DAE0
:100CC000F98A1882F80181899289A389B489888771
:100CD0009987AA87BB8789829A82AB82BC8260E0AF
:100CE0008BE0C6DAFD821CAE8092D8089092D908BB
:100CF000A092DA08B092DB0861E086E0B9DAF092FF
:100D0000DC081092DF088092E0089092E108A0923F
:100D1000E208B092E30861E085E0AADAF092E40824
:100D20001092E7088092E8089092E908A092EA08F9
:100D3000B092EB0861E084E09BDAF092EC0810924C
:100D4000EF088092F0089092F108A092F208B09219
:100D5000F30861E083E08CDAF092F4081092F7086F
:100D60008092F8089092F908A092FA08B092FB08D5
:100D700061E082E07DDAF092FC08DF91CF911F9173
:100D80000F91FF90BF90AF909F908F9008958091AA
:100D9000CB08811103C081E08093CB088091BF080C
:100DA000811103C081E08093BF088091B308811155
:100DB00003C081E08093B3088091A708811103C02C
:100DC00081E08093A70880919B08811103C081E096
:100DD00080939B088091D708811103C081E08093A4
:100DE000D7088091DF08811103C081E08093DF087C
:100DF0008091E708811103C081E08093E70880912A
:100E0000EF08811103C081E08093EF088091F7081B
:100E1000811103C081E08093F70808954F925F929B
:100E20006F927F928F929F92AF92BF92CF92DF92FA
:100E3000EF92FF920F931F93F89440907503509098
:100E400076036090770370907803C0906903D09028
:100E50006A03E0906B03F0906C03452B09F0A6C089
:100E60009B01AC01241935094609570929013A01AA
:100E700000917103109172032091730330917403F8
:100E800048015901840C951CA61CB71C80169106BC
:100E9000A206B306A0F400916D0310916E03209199
:100EA0006F03309170030F5F1F4F2F4F3F4F009321
:100EB0006D0310936E0320936F0330937003809241
:100EC000710390927203A0927303B0927403009125
:100ED0006D0310916E0320916F0330917003809227
:100EE000790390927A03A0927B03B0927C030093E3
:100EF0007D0310937E0320937F03309380036093E0
:100F00007503709376038093770390937803A3011E
:100F1000920160EA76E881E090E00E94C52D6C0DB8
:100F20007D1D8E1D9F1D6093690370936A038093DE
:100F30006B0390936C03009156021091570220911D
:100F40005802309159020F3F1F4F2F4F3F4FF1F082
:100F50000091560210915702209158023091590287
:100F60000E3F1F4F2F4F3F4F89F0C0905602D09039
:100F70005702E0905802F090590221E08C149D0431
:100F8000AE04BF0408F420E02093850378941F91F9
:100F90000F91FF90EF90DF90CF90BF90AF909F9018
:100FA0008F907F906F905F904F9008954B015C0100
:100FB00084189508A608B708A3019201261B370BD1
:100FC000480B590B6415750586059705E0F08216E8
:100FD0009306A406B50640F420E030E0A901811490
:100FE0009104A104B104A1F460EA76E881E090E004
:100FF0000E94C52DA7019601261B370B480B590BE4
:10100000CA01B901C3CF82169306A406B50660F7DC
:10101000A501940160EA76E881E090E00E94C52D88
:101020006C0D7D1D8E1D9F1DB1CFF8CECF93DF932C
:1010300000D01F92CDB7DEB71C821B821A821982A4
:101040001092810310928203109283031092840302
:10105000BE016F5F7F4FCE0103960E940825698114
:101060007A818B819C810E94F81D009761F4BE01FA
:101070006F5F7F4FCE0103960E94142569817A81AC
:101080008B819C812ED50F900F900F900F90DF9148
:10109000CF910895FF920F931F93CF93DF93082F63
:1010A00060E070E0CB010E94AE28FF24F3940E9420
:1010B000E11CEC01892B89F010E0CE3F8FEFD807BF
:1010C00069F0002361F160E070E0CB010E94AE287E
:1010D00081E090E0892B59F322C011E025D5EC0185
:1010E000892B21F0CE3F8FEFD80759F711111EC081
:1010F00011E0229609F410E00E94911CEC01892B6A
:1011000021F0CE3F8FEFD807E1F6111111C011E0A9
:10111000CE3F8FEFD80709F410E001110BC0CE01CC
:10112000DF91CF911F910F91FF90089511E0E4CFCF
:1011300011E0F3CF60E070E0CB010E94AE281F25E4
:10114000812F90E0C7CFCF93DF93809185038823D1
:1011500021F060E070E0CB014CD635D6D0E0C0E0A5
:10116000892B71F06AE070E080E090E00E94AE2888
:1011700081E090DF28D62196C03D27E0D20781F795
:1011800027D60E944C1E10929D0310929C03109231
:10119000960310929703109298031092990310925D
:1011A000920310929303109294031092950310925D
:1011B0008E0310928F03109290031092910310925D
:1011C0008A0310928B0310928C0310928D0310925D
:1011D00086031092870310928803109289034EEFC2
:1011E0005FEF6FEF7FEF409356025093570260938B
:1011F00058027093590210928503E9E7F3E028E062
:10120000DF011D922A95E9F710927503109276037B
:101210001092770310927803109271031092720368
:10122000109273031092740310926D0310926E0368
:1012300010926F03109270031092690310926A0368
:1012400010926B0310926C03DF91CF91089510926E
:10125000A9031092AA031092AB031092AC03109250
:10126000A8038091B1039091B2039093A703809358
:10127000A6031092A5031092A4031092A00310924B
:10128000A1031092A2031092A3031092AE03109236
:10129000AD0390E080E00895CF92DF92EF92FF924D
:1012A0000F931F93CF938C01892B09F055C0209188
:1012B000B1033091B2038091A6039091A7034091AE
:1012C000B1035091B2035093A7034093A60328178C
:1012D000390781F01092A5031092A4031092A00385
:1012E0001092A1031092A2031092A3031092AE03D6
:1012F0001092AD038091B1039091B203019761F513
:101300008091AD039091AE03892B21F480915A0214
:10131000811112C08091AD039091AE030197E1F469
:101320008091A0039091A103A091A203B091A30387
:101330000197A105B10581F41092A0031092A103B9
:101340001092A2031092A30310925A0282E090E03E
:101350009093AE038093AD038091B1039091B2035B
:10136000019709F01CC18091C7039091C8038017B1
:10137000910709F014C18091C3039091C403A09117
:10138000C503B091C603009709F409C12091C203B7
:1013900021110DC04091C3035091C4036091C50356
:1013A0007091C603452B462B472B09F4F8C02091BA
:1013B000AD033091AE032230310509F0F0C0209129
:1013C000A4032111ECC0FC01C080D180E280F38035
:1013D0008091A803882309F4D3C08091B40390912D
:1013E000B503892B09F4FDC02091B4033091B503F6
:1013F00081E02230310509F080E02091B403309182
:10140000B503C1E02130310549F02091B40330919A
:10141000B503C1E02230310509F0C0E0882309F4AA
:1014200056C02091BE033091BF034091C00350913C
:10143000C103C701B6010E94D82787FD14C02091BF
:10144000BE033091BF034091C0035091C10360912E
:10145000A9037091AA038091AB039091AC030E9401
:10146000222787FD22C02091BE033091BF03409107
:10147000C0035091C103C701B6010E94D8271816B6
:1014800034F52091BE033091BF034091C0035091C9
:10149000C1036091A9037091AA038091AB0390915D
:1014A000AC030E942227811112C08091B603909153
:1014B000B703A091B803B091B903892B8A2B8B2B6A
:1014C00019F481E08093A50381E08093A403CC23E9
:1014D00009F456C02091BE033091BF034091C00370
:1014E0005091C103C701B6010E94222787FF14C093
:1014F0002091BE033091BF034091C0035091C103BE
:101500006091A9037091AA038091AB039091AC0301
:101510000E94D82787FF22C02091BE033091BF03CD
:101520004091C0035091C103C701B6010E94222718
:10153000811126C02091BE033091BF034091C003AA
:101540005091C1036091A9037091AA038091AB03EC
:101550009091AC030E94D827181694F48091B6039A
:101560009091B703A091B803B091B903892B8A2B4E
:101570008B2B19F481E08093A50381E08093A40371
:1015800081E09091A403911180E08093A803C09220
:10159000A903D092AA03E092AB03F092AC03012B13
:1015A00009F067C18091AD039091AE03892BD9F406
:1015B0001092B3031092A40380915A02882379F009
:1015C00082E090E09093AE038093AD0310925A02B4
:1015D0002091B1033091B20381E0232BE9F080E048
:1015E0001BC081E00ACF10925A028091B303882376
:1015F00049F01092A5031092AE031092AD03109221
:10160000B303EDCF8091B1039091B203892BE1F048
:101610008091A4031092A4032091AD033091AE03F6
:101620002230310509F45EC088F42115310509F432
:1016300048C02130310509F4F3C01092A50310927F
:10164000A4031092B30338C081E0E6CF2330310504
:1016500009F4B1C02430310581F74091A0035091C5
:10166000A1036091A2037091A30341155105610587
:10167000710561F041505109610971094093A0035E
:101680005093A1036093A2037093A3034091A0031E
:101690005091A1036091A2037091A303452B462BA7
:1016A000472BD9F42091AF033091B003213031059D
:1016B00009F046C01092A5031092AE031092AD033C
:1016C0000CC080915A02882341F082E090E0909310
:1016D000AE038093AD0310925A0210929E03809144
:1016E000A503CEC08823C9F38091B6039091B703B8
:1016F000A091B803B091B903181619061A061B0673
:101700000CF07DC08091B1039091B203019709F074
:1017100076C08091B6039091B703A091B803B091C1
:10172000B9038093A0039093A103A093A203B09365
:10173000A30383E090E09093AE038093AD03CDCFFD
:101740004091BA035091BB036091BC037091BD03FB
:10175000452B462B472BA9F01092A5038091BA0385
:101760009091BB03A091BC03B091BD038093A003F3
:101770009093A103A093A203B093A30381E090E010
:10178000DACF882399F080915B0290915C02A0915E
:101790005D02B0915E028093A0039093A103A09399
:1017A000A203B093A30384E090E0C5CF1092A503F9
:1017B00082E090E0C0CF8091A0039091A103A0911E
:1017C000A203B091A3030097A105B10559F00197B9
:1017D000A109B1098093A0039093A103A093A20350
:1017E000B093A3038091A0039091A103A091A203C1
:1017F000B091A303892B8A2B8B2B09F06ECF80919C
:101800005B0290915C02A0915D02B0915E02892B17
:101810008A2B8B2B09F44ECF81E08093A503B3CFA5
:101820004091A0035091A1036091A2037091A30382
:10183000411551056105710561F04150510961097A
:1018400071094093A0035093A1036093A203709386
:10185000A3034091A0035091A1036091A203709152
:10186000A303452B462B472B09F037CF8111C7CF58
:101870009FCF80919E03882309F431CF80919F03ED
:10188000CF911F910F91FF90EF90DF90CF9008952F
:101890001092A9031092AA031092AB031092AC030A
:1018A0001092A8031092AE031092AD031092A703FA
:1018B0001092A6031092C8031092C7031092A503BA
:1018C0001092A4031092A0031092A1031092A203FD
:1018D0001092A30310929F0310929E031092C303D1
:1018E0001092C4031092C5031092C6031092C20353
:1018F0001092BE031092BF031092C0031092C10356
:1019000088EE93E0A0E0B0E080935B0290935C02ED
:10191000A0935D02B0935E021092BA031092BB03D3
:101920001092BC031092BD031092B6031092B7033D
:101930001092B8031092B9031092B5031092B40339
:1019400081E080935A021092B3031092B203109276
:10195000B1031092B0031092AF0390E080E00895BD
:101960008091B1039091B203892B19F580915A02AD
:10197000882351F08091B303811106C081E08093E8
:101980009F0380939E0308952091B30330915A02E0
:1019900081E090E0332311F090E080E030E082239A
:1019A0009323892B21F010929F0381E0EACF1092BC
:1019B0009E03089582E090E0FA01918380838FEF87
:1019C0009FEF0895CF93DF93EA01009711F00E94F3
:1019D0006C1F1982188290E080E0DF91CF9108950A
:1019E000DB01009719F48FEF8C9308952EEF2C9361
:1019F000FC013F96EF30F10508F034C08827EC5F1A
:101A0000F24F8F4F0C94F62D300D2E0D2C0D2A0D0C
:101A1000280D240D260D220D200D1E0D1B0D170D5A
:101A2000130D190D320D80E311968C93089589E200
:101A3000FBCF82E2F9CF11961C92089583E2F4CF96
:101A400081E2F2CF81E1F0CF87E2EECF8AE2ECCF04
:101A500080E1EACF84E2E8CF88E2E6CF86E2E4CF15
:101A600081E3E2CF80E2E0CF8091D5039091D6036D
:101A700008959093D6038093D50308958091D4035D
:101A800008959091D403892B8093D4030895982FBF
:101A900090958091D40389238093D40308958091F5
:101AA000D30308958091D1039091D20308956115D5
:101AB000710559F0FB0130E020E070E060E0241790
:101AC000350719F06115710511F0CB010895A0815A
:101AD000B181A817B90709F4BF012F5F3F4F3696B0
:101AE000EECF8091D70381111CC060D266D2909353
:101AF000CA038093C9030E9478170E948A179093A3
:101B0000CE038093CD030E94F91B0E94001C90938A
:101B1000CC038093CB0381E08093D70390E080E0F7
:101B2000089584EF9FEF08958F929F92AF92BF9296
:101B3000CF92DF92EF92FF920F931F93CF93DF9399
:101B400000D000D000D01F92CDB7DEB71A8619861C
:101B500018861F821E821D821C821B821A82198295
:101B60008091D70307EF1FEF882309F49CC08E01F3
:101B70000D5F1F4F9E012B5F3F4FAE01495F5F4FCF
:101B8000BE01675F7F4F90E080E00E947D1D8C0169
:101B9000009721F00596029708F0DBC029853A8569
:101BA0002115310509F402C1ED80FE804B815C8175
:101BB000B701640F751F8F8198858617970708F402
:101BC000F5C0E20EF31ED7019C91903C09F07FC056
:101BD0004230510508F47BC011968C914091D50399
:101BE0005091D603452B09F49CC0913F08F071C079
:101BF0002CE1290F2D3008F48BC02DE2290F203164
:101C000008F489C0903C21F48150823008F483C0EC
:101C100088E3890F8B3008F481C090EFC92E9CE0D7
:101C2000D92EEAEDFCE06D817E81AE014F5F5F4F02
:101C300089859A8519955C01C114D104A1F1898027
:101C40009A808114910479F18B819C818815990582
:101C500008F487C010E000E04B815C8170E060E038
:101C6000C7010E94202E01151105E9F449815A810E
:101C700069857A858D819E81680F791FC501F6017E
:101C80001995E980FA800D811E812F81388549855B
:101C90005A856FEF7FEF81E090E00E94181D8C0164
:101CA000892B09F056C0C8012A960FB6F894DEBFFA
:101CB0000FBECDBFDF91CF911F910F91FF90EF909D
:101CC000DF90CF90BF90AF909F908F90089580E06D
:101CD00085CF30E020E0220F331FF901E753FC4F9E
:101CE0000190F081E02D309709F497CF892F90E093
:101CF0001995009709F491CFDC011296ED91FC91B2
:101D000013971496CD90DC90309709F08CCF1FC0BC
:101D100021E030E0E0CF22E030E0DDCF23E030E032
:101D2000DACFD12CC12CE2EEFCE09F3F09F07BCF53
:101D3000E091C903F091CA03309721F4C90104EF7F
:101D40001FEF0CC08FEF90E019950097A9F604EFF4
:101D50001FEF89859A85009709F4A5CF0E946C1F13
:101D6000A2CF0E94471E8C0189859A850E946C1F14
:101D700070E060E0C4010E94E01D98878F830E949C
:101D8000151D9E838D836F8178856115710559F0CE
:101D9000C8010E94F8209A87898706EF1FEF892BD8
:101DA00009F058CF59CF08EF1FEF56CF08EF1FEFBC
:101DB000D0CF2091D703222319F020E00C948F1765
:101DC00087EF9FEF08958091D5039091D6030895F2
:101DD0000E94051C0E945F1BF5D0E9ECF3E088E04F
:101DE000DF011D928A95E9F71092D70390E080E019
:101DF00008950C94BD1921E040E050E0BA010C9424
:101E00008F1786E090E0FA019183808390E080E074
:101E1000089547E050E062E872E049CEDF92EF9229
:101E2000FF920F931F93CF93DF938A01EC01C60FAC
:101E3000D71FE090DB03F090DC03D9800E942F1EB7
:101E4000D816190678F082E090E0F801918380833B
:101E50008EEF9FEFDF91CF911F910F91FF90EF9049
:101E6000DF900895EF2841F482E090E0F80191833B
:101E7000808384EF9FEFEECF89818093DA0390E037
:101E80000196F8019183808390E080E0E3CFCF93C7
:101E9000DF93EA010E946E1A882321F00E943C1E03
:101EA0000E946F1A82E090E0998388838BEF9FEF06
:101EB000DF91CF910895CF93DF93EB0186E0FB0193
:101EC00011928A95E9F78FEF8883D8DD8983E7DD62
:101ED0008A83E8DD9D838C83DF91CF910895CF9332
:101EE000DF93EA010E94711A811109C082E090E03B
:101EF0009983888385EF9FEFDF91CF91089590E0DC
:101F000080E0B7DD81E090E09983888390E080E015
:101F1000F3CF0F931F93CF93DF93EA018C01060F4A
:101F2000171F0E94711A81110BC082E090E0998303
:101F3000888385EF9FEFDF91CF911F910F910895D7
:101F4000F8018181823038F082E090E099838883C3
:101F50008EEF9FEFF0CF81E090E08BDD88E090E0A6
:101F60009983888390E080E0E6CFCF93DF9300975A
:101F7000D1F4EB01FB01329686E0DF011D928A95D8
:101F8000E9F78FEF888385E089831A820E942F1EEC
:101F90008B830E942E1E9D838C8381E08E838F8392
:101FA000DF91CF910895DF91CF911ACD89E09FE025
:101FB0009093D9038093D80308958091D80390918A
:101FC000D90308951092D9031092D80308958091EF
:101FD000DB039091DC030895411105C06115710583
:101FE0008105910561F06093DB037093DC038093BE
:101FF000DD039093DE034093DF0381E0089580E0EA
:102000000895FF920F931F93CF93DF938A01EC0102
:10201000C60FD71FF9800E942F1EF816190668F008
:1020200082E090E0F801918380838EEF9FEFDF9153
:10203000CF911F910F91FF9008956C817D818E81CA
:102040009F814B81C9DF811108C082E090E0F801D7
:102050009183808384EF9FEFEACF89818093DA03B5
:1020600090E00196F8019183808390E080E0DFCFDB
:10207000CF93DF93EA01FC01E60FF71F64817581BE
:10208000868197814381A8DF811109C082E090E0B9
:102090009983888384EF9FEFDF91CF91089581E04A
:1020A00090E09983888390E080E0F6CFEBEDF3E059
:1020B0004081518162817381480F511D611D711DE5
:1020C00040835183628373830895CF93C091DA0371
:1020D0004C2F50E06091DB037091DC0301960E946D
:1020E000172E8C2FE3DF1092DA03CF91089500971B
:1020F00099F48091DB039091DC032FEFFB012083A7
:10210000892B59F02091DA0330E02F5F3F4F2417DD
:10211000350719F4CB01D9CF63CC0895009799F412
:102120008091DB039091DC032FEFFB012083892B4F
:1021300059F02091DA0330E02F5F3F4F2417350725
:1021400019F4CB01C2CF4CCC089523E1AC01249FFC
:10215000C001259F900D1124E091E403F091E50367
:10216000E80FF91F238134812250310981E02230A8
:10217000310508F080E008950F931F93CF93DF930C
:102180000091E6031091E703D0E0C0E080E00C1777
:102190001D0749F491E0811190E0892FDF91CF91E3
:1021A0001F910F9108958111F5CFCE01CEDF2196B9
:1021B000EECFA091E403B091E503109729F12091AF
:1021C000E6033091E70382179307F0F453E1589F39
:1021D0009001599F300D1124A20FB31FED91FC9176
:1021E0001197309789F012968C91681768F48BE0FC
:1021F000689FE00DF11D112480819181892B21F0D0
:1022000081E09281491708F080E008959C0143E144
:10221000429FC001439F900D1124E091E403F0918F
:10222000E503E80FF91F8385823091F481E090E0A7
:102230006581768140915F02509160026417750755
:1022400011F490E080E0892B19F081E0232B09F054
:1022500080E00895EF92FF920F931F93CF93DF9347
:10226000EA01FC01E60FF71F02811381E480F5808B
:102270004F2D6E2DC8019DDF81110DC082E090E0D1
:10228000998388838EEF9FEFDF91CF911F910F91FC
:10229000FF90EF900895C80158DF882339F082E05D
:1022A00090E09983888388EF9FEFEECF10936602CA
:1022B00000936502E0926702F092680281E090E08C
:1022C0009983888390E080E0DFCFCF92DF92EF9216
:1022D000FF920F931F93CF93DF937A01EC01C60F08
:1022E000D71FC0906502D0906602009167021091DE
:1022F0006802412F602FC6015CDF811110C082E0AF
:1023000090E0F701918380838AEF9FEFDF91CF9177
:102310001F910F91FF90EF90DF90CF900895C6012D
:1023200014DF882341F082E090E0F70191838083FD
:1023300088EF9FEFEBCF4C815D816E817F819A8129
:1023400089818F3F41F082E090E0F70191838083A3
:102350008EEF9FEFDBCFE3E1EC9D9001ED9D300D23
:102360001124E091E403F091E503E20FF31F0190E3
:10237000F081E02D2BE0029FE00DF11D1124019072
:10238000F081E02D27E0129FE00DF11D11248083E4
:1023900091838B81828343835483658376831F5F1C
:1023A0001093680281E090E0F7019183808390E0D0
:1023B00080E0ACCFEF92FF920F931F93CF93DF9308
:1023C0007A018C01060F171FC091E403D091E50339
:1023D000209781F021E030E0F801828193814091E3
:1023E000E6035091E7038417950710F030E020E0F2
:1023F000232B71F482E090E0F701918380838EEFCC
:102400009FEFDF91CF911F910F91FF90EF90089573
:1024100043E1489F9001499F300D1124C20FD31F03
:1024200094DE882341F082E090E0F701918380837D
:1024300088EF9FEFE6CFF801248135812038310500
:10244000C8F687818111D6CF4181842F90E08F7E9D
:10245000009741F082E090E0F7019183808386EF5E
:102460009FEFCFCF4F833E832D8326812887198608
:10247000223010F421E0288721E030E0F701318399
:102480002083BFCF88E090E0FA019183808390E0C1
:1024900080E00895FB018FEF808381E181838FEFDE
:1024A0009FEF9383828380E890E0958384831682F4
:1024B00017820895FB018FEF808391E091838283DF
:1024C0009383848384E3858381E090E0978386838C
:1024D0000895DF92EF92FF920F931F93CF93DF93B4
:1024E000EA01FC01E60FF71F8181813071F082E083
:1024F00090E0998388838FEF9FEFDF91CF911F91B9
:102500000F91FF90EF90DF90089582819381D480A6
:102510002581E680F7800091E4031091E503011521
:10252000110539F482E090E0998388838CEF9FEF66
:10253000E4CF4091E6035091E7038417950738F004
:1025400082E090E0998388838EEF9FEFD6CF892B2E
:1025500039F082E090E09983888386EF9FEFCDCFBA
:102560008D2D8D7FB1F72130A1F781E0D11006C00C
:1025700091E0E916F10431F080E004C0E2E0EE16EB
:10258000F104D0F3882329F390E080E0DEDD882396
:1025900039F082E090E09983888388EF9FEFADCF98
:1025A000F801D38681E08487F686E586108A17864F
:1025B00081E090E09983888390E080E09ECF4CE0BA
:1025C00050E06CEA72E073CA8F929F92BF92CF92F2
:1025D000DF92EF92FF920F931F93CF93DF93EA0165
:1025E000FC01E60FF71F828193810481B580E091A1
:1025F000E403F091E503309791F482E090E0998351
:1026000088838CEF9FEFDF91CF911F910F91FF9007
:10261000EF90DF90CF90BF909F908F900895209182
:10262000E6033091E7038217930738F082E090E0E9
:10263000998388838EEF9FEFE6CF23E1289F600187
:10264000299FD00C1124EC0DFD1DE080F180E114D8
:10265000F10499F28281081748F78BE0089F800106
:102660001124E00EF11EF70180819181892B29F65A
:10267000BB20E1F2F7E0BF9E40011124C4010E949B
:10268000331FF70191838083E091E403F091E50328
:10269000EC0DFD1D0190F081E02DE00FF11F808118
:1026A0009181009739F482E090E0998388838DEFDF
:1026B0009FEFA9CFA40170E060E00E94202E8091DE
:1026C000E4039091E503C80ED91EF6018081918143
:1026D000080F191FF801B28281E090E09983888386
:1026E00090E080E090CFAF92BF92CF92DF92FF92C6
:1026F0000F931F93CF93DF93EA01FC01E60FF71FBF
:1027000082819381F4800091E4031091E503011527
:10271000110581F482E090E0998388838CEF9FEF2C
:10272000DF91CF911F910F91FF90DF90CF90BF90DD
:10273000AF9008952091E6033091E7038217930745
:1027400038F082E090E0998388838EEF9FEFE8CFA6
:102750002FEF2F0D2C3FA8F723E1289F6001299F21
:10276000D00C11240C0D1D1DF80180819181892B45
:1027700089F6FBE0FF9E50011124C5010E94331F22
:10278000F80191838083E091E403F091E503EC0D7F
:10279000FD1D80819181009739F482E090E099835A
:1027A00088838DEF9FEFBCCFA50170E060E00E94B1
:1027B000202EE091E403F091E503EC0DFD1DF28283
:1027C00081E090E09983888390E080E0A9CFCF9268
:1027D000DF92EF92FF920F931F93CF93DF93860FB9
:1027E000971FFC01028113818091E4039091E5031E
:1027F000892B81F082E090E0FA01918380838CEF55
:102800009FEFDF91CF911F910F91FF90EF90DF909D
:10281000CF900895C801B0E0A0E00197A109B109E7
:102820008F3F9F4FA105B10540F082E090E0FA0193
:10283000918380838EEF9FEFE4CF7A0183E1809FC5
:102840006001819FD00C1124C6010E94331FEC014E
:10285000009741F482E090E0F701918380838DEF4F
:102860009FEFCFCFA60170E060E00E94202ED093B2
:10287000E503C093E4031093E7030093E60390E0BD
:1028800080E02FEF3FEF41E061E070E080179107BB
:1028900041F481E090E0F7019183808390E080E053
:1028A000B0CF3A8B298B1B864C877E876D87188A21
:1028B0001F8601966396EACFCF92DF92EF92FF9246
:1028C0000F931F93CF93DF93EC01D12CC12C10E019
:1028D00000E0F12CE12C6A816017110609F0CCF4BC
:1028E00083E0689FB0011124AE014F5E5F4FC701C6
:1028F0000E94981F009721F02FEF3FEF3A8B298B12
:10290000DF91CF911F910F91FF90EF90DF90CF90CB
:102910000895E881F981EC0DFD1D438154818D8579
:102920009E85489F9001499F300D589F300D11247E
:10293000C90101960115110519F44F8144FD049652
:1029400061E070E00E94E01DE816F90608F47C01E1
:102950000F5F1F4F8BE0C80ED11CBDCFF8942091A4
:10296000E2033091E30381E02115310509F080E0B5
:10297000232B09F0789408952F923F924F925F9203
:102980006F927F928F929F92AF92BF92CF92DF927F
:10299000EF92FF920F931F93CF93DF933C01660E4C
:1029A000771EF301828193814C01B12CA12CC0913F
:1029B000E403D091E503209769F021E030E06091D5
:1029C000E6037091E7038617970710F030E020E0E8
:1029D000232BD1F482E090E0FA01918380838EEF83
:1029E0009FEFDF91CF911F910F91FF90EF90DF90BC
:1029F000CF90BF90AF909F908F907F906F905F909F
:102A00004F903F902F9008958092690290926A02B1
:102A1000A0926B02B0926C0263E1689F9001699F83
:102A2000300D1124C20FD31FF3018181833040F098
:102A300082E090E0FA019183808386EF9FEFD1CF0F
:102A40002A012B813C81232BF1F4288139819F813C
:102A500091FF2EC0232B09F46FC02091E9039A81C6
:102A6000422F490F5527551FBA0141E050E0613808
:102A7000710514F050E040E0452B09F45DC02A8751
:102A8000920F9093E9038150823008F481C066DF91
:102A9000882309F4D8C0F3018181813009F48DC005
:102AA00008F47BC0823009F4C6C090E080E0ADC07D
:102AB000232B09F441C02091E8039A81E22FE90F0A
:102AC000FF27FF1F41E050E0ED3FF10514F050E01B
:102AD00040E0452B89F12A87920F9093E803D3CFEA
:102AE000A081B181A20FB31F11966C91060F111D29
:102AF0000196295F3F4F8417950794F38D859E8536
:102B0000089F1001099F300C189F300C1124C1142C
:102B1000D104D1F48F8184FF17C00E942E1EF5E0EE
:102B20002F0E311C21E08215930508F420E0A70147
:102B3000455F5F4F21110EC082E090E0F20191836A
:102B4000808387EF9FEF4DCF0E942E1E2FEF221A1A
:102B5000320AE8CF88819981E80EF91EF7011483C3
:102B60000383FFEFCF1ADF0A7A018A818C151D04D7
:102B700009F00CF48CCFE881F981EE0DFF1D428144
:102B800050E030E020E010E000E090E080E0B3CFE3
:102B9000F12CE12CD12CC12CE8CF81E090E09C837A
:102BA0008B83EADA882309F480CF81E090E00E94E9
:102BB000390D80E40E94470D78CF89899A89019662
:102BC00061F083E090E09C838B8382E090E00E9440
:102BD000390D80E40E94410D68CF8D819E81209146
:102BE0005F023091600282179307D1F46091630213
:102BF00070916402AE014F5E5F4F809161029091CF
:102C000062020E94B7200097E1F2789422E030E05F
:102C1000F20131832083892B99F08DEF9FEFE1CE74
:102C200089288A288B2869F6892B59F6CE0144DE3B
:102C3000188A1F86E8CF82E090E09C838B8335CF93
:102C400090E080E0CECE82E090E0F201918380833C
:102C500085EF9FEFC6CE8F929F92AF92BF92CF9299
:102C6000DF92EF92FF920F931F93CF93DF93EA01CE
:102C70008C01060F171FF8018181833098F082E0E4
:102C800090E09983888386EF9FEFDF91CF911F912A
:102C90000F91FF90EF90DF90CF90BF90AF909F90FB
:102CA0008F9008958091E4039091E503892B61F062
:102CB00081E090E02091E6033091E703232B11F4AB
:102CC00090E080E0892B39F482E090E0998388835A
:102CD0008EEF9FEFDACF42DE882309F4DFC0F801E0
:102CE0008181813009F495C0E8F0823099F4209117
:102CF000E6033091E703E091E403F091E50390E00F
:102D000080E041E050E02817390709F0BDC034DA0F
:102D1000811117C0789481E090E09983888390E0D6
:102D200080E0B3CF2091E6033091E703E091E40324
:102D3000F091E50390E080E041E050E0281739078A
:102D400041F481E090E00E94390D80E40E94470D3B
:102D5000E1CF63817481672B11F054834383019623
:102D60007396ECCFE091E403F091E503E00FF11FDF
:102D70002381348122303105D9F4218932892F3FD2
:102D80003F4FB1F42581368140915F02509160023E
:102D90002417350761F5AF014F5E5F4F6091630205
:102DA0007091640280916102909162020E94B7204A
:102DB000EFEFCE1ADE0AEE0AFE0A0D5E1F4F4091BB
:102DC000E6035091E70370E060E0C416D506E6061E
:102DD000F7063CF5009731F27894892B09F49BCFE4
:102DE00082E090E0998388838DEF9FEF4ECFC114EE
:102DF000D104E104F104E1F6232BD1F6CF015CDD2F
:102E0000E091E403F091E503E00FF11F108A1786CB
:102E1000CFCF10E000E090E080E0C12CD12C760113
:102E2000CECF0097C9F610E000E0812C912C540120
:102E300083E0E82EF12C1AC0E091E403F091E50361
:102E4000E00FF11F83819481029749F4F482E382B9
:102E500082E090E00E94390D80E40E94410DFFEF76
:102E60008F1A9F0AAF0ABF0A0D5E1F4F8091E603BB
:102E70009091E703B0E0A0E088169906AA06BB0689
:102E8000DCF290E080E0A8CF63817481623071054C
:102E900011F4548343830196739635CF82E090E01A
:102EA0009983888385EF9FEFF0CE0097B9F48FEF79
:102EB000FB0180832091690230916A0243E1429FC5
:102EC000C001439F900D1124E091E403F091E503CC
:102ED000E80FF91F8285FB01818308950C94F00CA3
:102EE00088E090E0FA019183808390E080E008958B
:102EF0001092E3031092E203E4EEF3E086E0DF01D8
:102F00001D928A95E9F78FED92E19093E10380930A
:102F1000E00308958091E0039091E10308952F92DA
:102F20003F924F925F926F927F928F929F92AF9259
:102F3000BF92CF92DF92EF92FF920F931F93CF93A6
:102F4000DF93CDB7DEB760970FB6F894DEBF0FBE44
:102F5000CDBFF894E091E203F091E3033196F09352
:102F6000E303E093E2037894A091E403B091E503D6
:102F7000BA83A983109709F4FAC1E091E603F091AE
:102F8000E703EF2B09F4F3C128874B875C876D8734
:102F90007E879A878987B88BAF87312C212CF12CBB
:102FA000512C412C8091E6039091E70328163906B5
:102FB00010F4FF2029F1F8948091E2039091E3034B
:102FC00001979093E3038093E2037894C2016096A3
:102FD0000FB6F894DEBF0FBECDBFDF91CF911F912A
:102FE0000F91FF90EF90DF90CF90BF90AF909F90A8
:102FF0008F907F906F905F904F903F902F900895AB
:10300000B10190E080E088D4682EEF85F88987814F
:1030100081FD3DC0838194810397C9F52581368167
:103020003C832B8389859A852817390781F5C1014F
:10303000EDD8782E8823A9F1AF85B8891F968D9198
:103040009C915097019621E01D964D915C918417BB
:10305000950709F020E02F83B12CA12CEF85F8898A
:1030600082818A151B0419F014F0FF20E9F0F8851D
:10307000FF2309F46CC1AF85B88950961C921E924B
:103080001F97662021F0B10190E080E047D4FFEF68
:103090002F1A3F0A2F8538892D5E3F4F388B2F8797
:1030A00081CFB1E0BF83D8CFC0D49E838D83E88524
:1030B000EE23E9F0772009F43CC1AF85B8891F966B
:1030C0008D919C91892B79F0BBE0BA9DC001BB9D8D
:1030D000900D1124AF85B889ED91FC91E80FF91F8F
:1030E00085819681F9D6BFEFAB1ABB0AB7CF81E0D5
:1030F000772039F0EF85F88927853089232B09F06F
:1031000080E0F82EE12CA114B10439F4AF85B88920
:103110001796EC90E4FAEE24E0F8BBE0BA9D60016B
:10312000BB9DD00C1124882309F424C1AF85B88934
:10313000ED91FC911197EC0DFD1D438154811D967D
:103140002D913C91429FC001439F900D529F900D45
:103150001124E1105DC001969087878361E070E0E3
:10316000878190852DD5EF85F88921893289008165
:1031700011810C0D1D1D2F3F320709F44BC0BC01FE
:10318000C9010E94F820D80116969C938E9315973A
:10319000AF85B889ED91FC911197EC0DFD1D05816E
:1031A00016810115110509F4CDC0ED81FE810E0FC8
:1031B0001F1F1A968C918A0DD8018C93E1102FC095
:1031C0000F5F1F4FAF85B889ED91FC91EC0DFD1D90
:1031D00012870187AF85B889ED91FC91EC0DFD1D3B
:1031E00085819681892B09F4A4C080915F0290911A
:1031F00060022B813C812817390709F465C07720CC
:1032000011F001851285912C812C1A8219824AC0F5
:103210000596A2CF28D6F80196838583B9CF8B85F2
:103220009C85AD85BE85F80181839283A383B48399
:103230000B5F1F4FC7CFE080F180E80CF91CD7016E
:1032400013966D917C9114978C918F3F09F473C004
:10325000E1E0F0E002C0EE0FFF1F8A95E2F7CF0138
:10326000092E000CAA0BBB0BFB014081518162812E
:10327000738184239523A623B72321E0892B8A2BEE
:103280008B2B09F420E0D8012C93D70111968C9157
:10329000080F111DE981FA813196FA83E983F7E07D
:1032A0008F0E911CAF85B889ED91FC91EC0DFD1D41
:1032B000828129813A818217130611F00CF0BBCF6D
:1032C000772011F0128701873F81332391F1AF8579
:1032D000B889ED91FC91EC0DFD1D61E070E08781F6
:1032E00090856ED4AF85B889ED91FC91EC0DFD1DF4
:1032F000E780F08445815681E1E0F0E0662011F03E
:10330000F0E0E0E00D811E819C01B1018827992742
:103310008E1B9F0B8DD32C01892B59F0EF85F889DB
:1033200080819181C80ED91ED60115968D919C91F0
:10333000D3D5F12CD8CEF701418150E0C8010E94CD
:10334000172EA3CF86EF482E55245A94CCCEEF8566
:10335000F889878590890196908B878725853685A2
:103360008217930709F08DCE108A17868ACE512CCA
:10337000412C21CE10E000E02DCF2F923F924F92B2
:103380005F926F927F928F929F92AF92BF92CF92F5
:10339000DF92EF92FF920F931F93CF93DF93809171
:1033A000E4039091E50310E000E0892BA9F0D6DA60
:1033B0000AEF1FEF882381F02090E6033090E703A7
:1033C000C091E403D091E503D12CC12C10E000E0C2
:1033D0002C143D04A9F47894C801DF91CF911F917A
:1033E0000F91FF90EF90DF90CF90BF90AF909F90A4
:1033F0008F907F906F905F904F903F902F900895A7
:10340000C6010E940611882309F18B819C810397D4
:10341000E9F48F859889892BC9F0B60190E080E0A6
:103420007BD221E030E0882311F030E020E044241A
:103430005524421A530AB12CA12C912C812C8A813B
:103440008815190409F038F4188A1F864FEFC41A3A
:10345000D40A6396BDCFE881F981EA0DFB1D858111
:103460009681892BA1F161E070E087819085A8D3D6
:103470003C01DBD28C01E881F981EA0DFB1D8185DD
:10348000928525813681200F311FAC01421B530BE1
:103490009A0147815085421B530B70E060E00E9407
:1034A000202EE881F981EA0DFB1DE780F08445813B
:1034B00056819301B601C201BBD28C01892B39F030
:1034C000E881F981EA0DFB1D8581968105D55FEFC5
:1034D000851A950A8BE0A80EB11CB1CF3FCA78942B
:1034E00008952F923F924F925F926F927F929F9298
:1034F000AF92BF92CF92DF92EF92FF920F931F9302
:10350000CF93DF9300D000D0CDB7DEB70091E403B6
:103510001091E503992493940115110509F43EC017
:10352000A090E603B090E70319DA982E8823B1F152
:103530001092E5031092E4031092E7031092E60361
:103540001092E8031092E9038FEF9FEFDC01809364
:10355000690290936A02A0936B02B0936C02789414
:103560007FD31E830D83C12CD12C7601C501B0E021
:10357000A0E089839A83AB83BC8322242A94322CD3
:1035800089819A81AB81BC81C816D906EA06FB06FF
:10359000F4F0C801A1D480E40E94470D892D26963D
:1035A0000FB6F894DEBF0FBECDBFDF91CF911F9154
:1035B0000F91FF90EF90DF90CF90BF90AF909F90D2
:1035C0007F906F905F904F903F902F900895AD81C6
:1035D000BE8115968D919C91169720915F02309136
:1035E000600282179307D1F451968D919C91EED58C
:1035F000ED81FE8180819181B12CA12C412C512C37
:103600003201892B89F5BFEFCB1ADB0AEB0AFB0AE3
:10361000ED81FE817396FE83ED83B2CFC114D10498
:10362000E104F10429F7892B19F7ED81FE818189E5
:1036300092898F3F980709F029D5AD81BE815296B6
:103640003C922E925197D4CF8A0D9B1DDC018D9117
:103650009C91009709F040D4BFEF4B1A5B0A6B0AAC
:103660007B0AEBE0AE0EB11CAD81BE818D919C91C9
:10367000119712964C9150E070E060E044165506A8
:10368000660677060CF328D4BECFCF93DF93EA010A
:1036900028DF811109C082E090E09983888385EF5B
:1036A0009FEFDF91CF91089581E090E00E94390D66
:1036B00081E090E09983888390E080E0F2CF11DF91
:1036C0001092E1031092E003089542E050E064EFAD
:1036D00072E00C94570DFF920F931F93CF93DF93DB
:1036E0008A01EC01C60FD71FF980B9D20897F816E6
:1036F000190671F068F082E090E0F8019183808310
:103700008EEF9FEFDF91CF911F910F91FF90089562
:103710006C817D818E819F814B810E94EC0F811194
:1037200008C082E090E0F8019183808384EF9FEFEE
:10373000E9CFF9800E94E70F4F2D50E0BE01685F8E
:103740007F4F0E94172E89810E94561081E090E0E1
:10375000F8019183808390E080E0D4CFDF92EF92F4
:10376000FF920F931F93CF93DF938A01EC01C60F53
:10377000D71F0E94E70F7C01D98071D2DD2059F05C
:10378000029721E030E0D816190619F010F030E069
:1037900020E0232B79F482E090E0F801918380838C
:1037A0008EEF9FEFDF91CF911F910F91FF90EF90E0
:1037B000DF900895EF2841F482E090E0F8019183D2
:1037C000808384EF9FEFEECFF9800E94E70F4F2DAB
:1037D00050E0BE016E5F7F4F0E94172E89810E94CC
:1037E000561081E090E0F8019183808390E080E0C2
:1037F000D9CF85E69BE19093EB038093EA0308958C
:103800008091EA039091EB0308950895FC011182E1
:103810001082938382830895DB011D921C92DC0148
:103820001296ED91FC9113977183608313967C93AC
:103830006E9312970895FC0180819181DB018D9335
:103840009C93A081B181109741F08D919C919183BF
:103850008083892B11F4F383E2830895FC01808136
:103860009181DB018D939C93892B11F47383628387
:10387000718360830895FC01118210829383828397
:103880000895CF93DF931F921F92CDB7DEB71A82B0
:103890001982F894BE016F5F7F4F81EF93E0CBDF19
:1038A00089819A81009709F017D389819A81892BA0
:1038B00089F7BE016F5F7F4F85EF93E0BCDF8981A1
:1038C0009A81009709F008D389819A81892B89F719
:1038D00078940F900F90DF91CF910895CF93DF935D
:1038E0001F921F92CDB7DEB71A821982F894BE01DB
:1038F0006F5F7F4F8DEE93E09EDF89819A81009705
:1039000009F0EAD289819A81892B89F778940F90FE
:103910000F90DF91CF91089581E0089590E080E0CD
:103920000895EF92FF920F931F93CF93DF931F920F
:103930001F92CDB7DEB71A8219828091EC0307EF90
:103940001FEF8823A1F1F894BE016F5F7F4F85EFD1
:1039500093E071DF789489819A81EE24E394F12CCD
:10396000892B51F4F894BE016F5F7F4F81EF93E094
:1039700062DF7894F12CE12C89819A810EEF1FEFA0
:103980000097A9F0FC014281538164E070E074D695
:103990008C01892B61F0F89469817A81C701880FC5
:1039A000991F880F991F8F509C4F58DF7894C8013A
:1039B0000F900F90DF91CF911F910F91FF90EF909B
:1039C00008950F931F93CF93DF9300D01F92CDB72D
:1039D000DEB71C821B821A8219828091EC0307EFEA
:1039E0001FEF8823C1F0AE014D5F5F4F64E070E0D0
:1039F000CE010196B4D68C01892B69F4E981FA8154
:103A00008B819C8193838283F89469817A818DEE86
:103A100093E002DF7894C8010F900F900F900F9001
:103A2000DF91CF911F910F910895B9D70496089512
:103A30008F929F92AF92BF92CF92DF92EF92FF92BE
:103A40000F931F93CF93DF931F921F92CDB7DEB7D3
:103A50001A821982BC016F5F7F4F6330710598F045
:103A6000AA24AA94BA2CC5010F900F90DF91CF9190
:103A70001F910F91FF90EF90DF90CF90BF90AF908C
:103A80009F908F9008954115510551F348015901B8
:103A90008A016C01CADF8815990511F7E114F10458
:103AA000F9F28E0D9F1DA816B906D0F28091EC0395
:103AB0008823F1F0F894B501645071099701AE01C3
:103AC0004F5F5F4FC8010496DFD65C01892B71F40C
:103AD00089819A81F80193838283C601880F991F97
:103AE000880F991FB8018F509C4F96DE7894BBCFFA
:103AF00087EFA82EBB24BA94B6CFAF92BF92CF92D5
:103B0000DF92EF92FF920F931F93CF93DF931F9259
:103B10001F92CDB7DEB71A821982892B09F047C0F0
:103B20006115710509F443C04115510509F43FC001
:103B30002115310509F43BC001151105C1F1809132
:103B4000EC038823B9F179016A015B01F894BE01A5
:103B50006F5F7F4F8DEE93E06EDE789489819A815E
:103B6000009759F1DC0112966D917C91A8010496A1
:103B7000A4D68C01E981FA81D501ED93FC93828171
:103B800093810496F601918380834FDFD7018D9353
:103B90009C93C8010F900F90DF91CF911F910F91CF
:103BA000FF90EF90DF90CF90BF90AF9008950FEF10
:103BB0001FEFEFCF07EF1FEFECCF0EEF1FEFE9CFB7
:103BC000CF93DF93EC01672B71F4F2D68C179D072E
:103BD00060F0E5D62496C80FD91FE4D68C0F9D1F40
:103BE000DF91CF910895E1D6F1CF90E080E0F8CF5A
:103BF0000F931F93CF93DF932091EC0321112BC0E0
:103C00008B01EC0181EF93E001DE85EF93E0FEDDB7
:103C10008DEE93E0FBDD97D00097C1F4C9D670E03C
:103C200060E0CEDF4DE652E062E070E081D10097C7
:103C300069F480916D0290916E02CCD6B801CE01EC
:103C400001D5009719F421E02093EC03DF91CF9187
:103C50001F910F91089584EF9FEFF8CFA6C6A8C6D5
:103C6000CF93DF93A8D6EC01892B11F40ADE36DE60
:103C7000CE01DF91CF910895CF93DF939CD6EC01D5
:103C8000892B09F4FEDDCE01DF91CF91089580915B
:103C90006D0290916E020895CF93DF938091EC03B3
:103CA000D0E0C0E08823D1F09AD6EC01892BB1F4A2
:103CB000E8DD14DE80916D0290916E02E7D1E8D2CA
:103CC000EC01892B59F481EF93E0D5DD85EF93E08A
:103CD000D2DD8DEE93E0CFDD1092EC03CE01DF91CB
:103CE000CF910895EF92FF920F931F93CF93DF939D
:103CF000EC017A018B010F5F1F4F0E9DA0010F9DFC
:103D0000500D1E9D500D112470E060E00E94202E89
:103D100090E080E0F0E0E0E02FEFE816F90639F4FB
:103D2000DF91CF911F910F91FF90EF9008951A822C
:103D300019822883309711F0D283C1830196FE0146
:103D4000C00FD11FEACFCF92DF92EF92FF920F9375
:103D50001F93CF93DF9302E215E00C7F43E050E026
:103D60006FE672E085E792E01AD48FE6E82E82E0F3
:103D7000F82E95E7C92E92E0D92EC9ECD5E0D701EF
:103D80004D915D917D01F601619171916F011983F2
:103D900008835D834C835B834A837F836E839B01AF
:103DA0002F5F3F4F249FC001259F900D349F900DA2
:103DB0001124998788870115110511F0C80192DF38
:103DC00088859985080F191F2A96F5E7EF16F2E006
:103DD000FF06A9F6EBEFF3E084E291E0DF019C013E
:103DE0001D9221503040E1F71092FA031092F9032E
:103DF0001092E8051092E7051092EC051092EB0581
:103E00001092EA051092E9051092EE051092ED0568
:103E10001092F0051092EF051092F2051092F10544
:103E20001092F6051092F5051092F4051092F30524
:103E30001092F8051092F7051092FA051092F90504
:103E40001092C6051092C5051092C8051092C705BC
:103E500090E080E0DF91CF911F910F91FF90EF9064
:103E6000DF90CF9008950097F1F0F894A5E7B2E0C5
:103E7000E9ECF5E030E020E04D915D9148175907FD
:103E8000A8F0428153814115510581F08AE0829F5B
:103E9000F001839FF00D1124E753FA4F8081918147
:103EA000009759F4789490E080E008952F5F3F4F99
:103EB0003A962330310501F7F5CFDC0111966D916B
:103EC0007C91718360834150510953834283FC018B
:103ED0002193CF0178940895009749F1DC018E91E8
:103EE000853041F4E091C705F091C8053097F9F0AD
:103EF000CD0119948530D8F4282F30E0F8948FEF55
:103F00008C938AE0829FF001839FF00D1124E75388
:103F1000FA4F8081918112969C938E931197B18371
:103F2000A0838281938101969383828378940895FC
:103F3000CF92DF92EF92FF920F931F93CF93DF9375
:103F40009C018EEF93E08C7F4115510509F49BC0D5
:103F50002115310509F497C06115710509F493C065
:103F60007A01AB01B9016D5F7F4F6C7F9B012F5FC1
:103F70003F4F249F8001259F100D349F100D112469
:103F8000F8942091E7053091E805232B59F420910E
:103F9000EF053091F0052115310569F12017310742
:103FA00008F058C02091F1053091F205232B91F4CF
:103FB0002091EF053091F005820F931F2091F905B4
:103FC0003091FA052115310509F441C02017310758
:103FD00008F056C07894CFEFDFEF86EF9FEFF70140
:103FE000D183C083DF91CF911F910F91FF90EF900C
:103FF000DF90CF900895C3E0D0E0C090F903D09057
:10400000FA0321E231E02C193D092017310710F3A2
:104010002AE02C9FF0012D9FF00D1124E753FA4F59
:10402000918380835583448353834283778366835C
:1040300011870087009709F055DE0C0D1D1D1093A8
:10404000FA030093F903789490E080E0C8CFC4E0CD
:10405000D0E0D3CFC3E0D0E02AE02C9FF0012D9F29
:10406000F00D1124E753FA4F9183808355834483E5
:104070005383428377836683009729F333DEE3CF4C
:10408000C4E0D0E0E9CF8FEF9FEFACCF9C01039766
:10409000029708F069C0F89484E09AE0482F50E055
:1040A000241735070CF44DC091E08AE0829FF0019F
:1040B000839FF00D1124E753FA4F1182108215826D
:1040C000148213821282178216829923B1F1809191
:1040D000E7059091E805892BA9F42091EF0530912F
:1040E000F0052115310571F08091F9039091FA03E3
:1040F000821B930B9093FA038093F9031092F005BF
:104100001092EF058091F1059091F205892BA9F4A9
:104110002091F9053091FA052115310571F0809152
:10412000F9039091FA03821B930B9093FA03809307
:10413000F9031092FA051092F905789490E080E066
:104140000895949FF001959FF00D1124E753FA4FC5
:1041500040815181452B31F440855185452B11F427
:1041600081509CCF90E0A1CF8FEF9FEF0895411534
:10417000510549F1009739F16115710521F1F89464
:104180002091C5053091C605232BB9F42091C705B0
:104190003091C805232B89F49093C6058093C505FB
:1041A0007093C8056093C705789425E030E090E0EF
:1041B00080E0FA0131832083089578942FEF3FEF58
:1041C00086EF9FEFF6CF8FEF9FEF0895059769F485
:1041D000F8941092C6051092C5051092C805109269
:1041E000C705789490E080E008958FEF9FEF0895E1
:1041F0006115710519F4F0E0E0E011C0853091051A
:1042000081F4E091C505F091C6053097A1F3CB018B
:1042100001961995009779F3FC0185E08193CF0110
:1042200008959C01235031092230310520F72AE0FE
:10423000289FD001299FB00D1124A753BA4F2D916B
:104240003C911197232BB9F216962D913C9117971B
:104250002617370780F2F89412962D913C91139708
:104260002115310529F0ED91FC911197309711F44A
:104270007894C1CF4181528111965C934E93215025
:10428000310913963C932E93129781937894C7CF5C
:10429000EFE1F5E086EADF011D928A95E9F7EBEFA1
:1042A000F3E084E291E0DF019C011D922150304057
:1042B000E1F71092FA031092F903E9ECF5E082E3DA
:1042C000DF011D928A95E9F7E5ECF5E084E0DF0176
:1042D0001D928A95E9F790E080E00895CF93DF93EF
:1042E000C0917B02D0917C02CF3FDC0759F41FD4F0
:1042F00090937C0280937B0297FF09C0D0937C024D
:10430000C0937B0284EF9FEFDF91CF91089590E0FF
:1043100080E0FACF8230910528F48093FB0590E08D
:1043200080E008958FEF9FEF08954F925F926F9214
:104330007F92AF92BF92CF92DF92EF92FF920F9354
:104340001F93CF93DF931F921F92CDB7DEB71A82D0
:104350001982009709F478C06115710509F474C0D9
:1043600020917B0230917C0207EF1FEF2F3F3F4FE0
:1043700009F444C06B015C01412C512C3201F12C39
:10438000E12C10E000E09E012F5F3F4FA6014E1987
:104390005F09B5016E0D7F1D80917B0290917C02BB
:1043A00025D4892B09F04AC089819A81009741F46C
:1043B000E114F10429F42091FB05222309F441C002
:1043C000E80EF91EEC14FD04C8F480E8481684E8F1
:1043D00058068EE16806710418F560E070E0CB01C4
:1043E000BDD62AE0420E511C611C711C0A3F4FEFE2
:1043F000140721F0043F8FEF1807A1F4C8010F90B4
:104400000F90DF91CF911F910F91FF90EF90DF9070
:10441000CF90BF90AF907F906F905F904F90089536
:1044200001EF1FEF81E090E0013F2FEF120711F045
:1044300090E080E0892B09F4A6CFE0CF04EF1FEFD6
:10444000DDCF0AEF1FEFDACF0FEF1FEFD7CF4F927D
:104450005F926F927F92AF92BF92CF92DF92EF9274
:10446000FF920F931F93CF93DF931F921F92CDB7AD
:10447000DEB71A821982009709F478C061157105B8
:1044800009F474C020917B0230917C0207EF1FEF8A
:104490002F3F3F4F09F444C06B015C01412C512C6C
:1044A0003201F12CE12C10E000E09E012F5F3F4F24
:1044B000A6014E195F09B5016E0D7F1D80917B022B
:1044C00090917C0249D3892B09F04AC089819A8155
:1044D000009741F4E114F10429F42091FB05222313
:1044E00009F441C0E80EF91EEC14FD04C8F480E89C
:1044F000481686E9580688E96806710418F560E0F0
:1045000070E0CB012BD62AE0420E511C611C711CBD
:104510000E3F4FEF140721F0043F8FEF1807A1F46F
:10452000C8010F900F90DF91CF911F910F91FF90D5
:10453000EF90DF90CF90BF90AF907F906F905F90A3
:104540004F90089502EF1FEF81E090E0023F2FEFC0
:10455000120711F090E080E0892B09F4A6CFE0CF9C
:1045600004EF1FEFDDCF0EEF1FEFDACF0FEF1FEFDE
:10457000D7CF80917B0290917C028F3F980749F0C2
:10458000CED2892B49F48FEF9FEF90937C028093DA
:104590007B0290E080E0089584EF9FEF0895CF9232
:1045A000DF92EF92FF920F931F93CF93DF9321E05F
:1045B0004115510509F020E04150510921112CC04D
:1045C000DC01FB01D12CC12C21E022C03FEFC31A3A
:1045D000D30A7D010D911D91E701EA80FB80E01671
:1045E000F106A8F420813181E280F380F182E0823B
:1045F00033832283ED90FC9011979D012250310965
:10460000E901F982E88211961C930E9320E032961C
:10461000C416D506D8F2D2CFDF91CF911F910F915A
:10462000FF90EF90DF90CF900895FC01680F791F05
:1046300090E080E0E617F70709F408952191820FD2
:10464000911DF8CF2091FC05211113C047DE009782
:1046500091F4109202061092010610920006109238
:10466000FF051092FE051092FD0521E02093FC0548
:10467000089584EF9FEF0895AF92BF92CF92DF929B
:10468000EF92FF920F931F93CF93DF93009709F45C
:1046900060C04630510508F45CC02091FC05C7EFAE
:1046A000DFEF222309F449C08C01060F171FF80120
:1046B000C080D180C114D10409F44EC096012A5F94
:1046C0003F4F4217530708F447C07C018091010611
:1046D0009091020693838283B6016C5F7F4F5801ED
:1046E000A60EB71EC801A1DFF5019183808364E0A7
:1046F00070E0C8011ADEEC01892BF9F481E090E04A
:1047000009DEB601C801049610DEEC01892B91F494
:1047100062E070E0C50109DEEC01892B59F4C701A4
:10472000DBDB8091010690910206019690930206D0
:104730008093010690E080E0EDDDCE01DF91CF9126
:104740001F910F91FF90EF90DF90CF90BF90AF90AF
:104750000895CFEFDFEFF1CFC9EFDFEFEECF6F922C
:104760007F928F929F92AF92BF92CF92DF92EF9201
:10477000FF920F931F93CF93DF9300D01F92CDB77B
:10478000DEB7009709F47AC04115510509F476C0E7
:104790002091FC0507EF1FEF222309F44DC03A01D9
:1047A0007B015C0164E070E0CE01019650DE8C017B
:1047B000892B09F041C009811A810115110509F4FD
:1047C0005AC0480186E0880E911CB701680D791D1A
:1047D00080917D0290917E020BDD6C01009709F4BF
:1047E00050C0A70170E060E00E94202E89819A816C
:1047F000AB81BC81EC0CFD1CF70181939193A193DB
:10480000B1937F0181E090E085DDB801C7011FDE33
:10481000892B31F562E070E0C701800F911F17DE30
:104820008C01892BE9F490E080E074DDF501D18200
:10483000C082F30191828082C8010F900F900F9087
:104840000F90DF91CF911F910F91FF90EF90DF902C
:10485000CF90BF90AF909F908F907F906F90089572
:1048600090E080E057DDF50111821082F3011182A2
:104870001082C60131DB09EF1FEFDECF0FEF1FEF14
:10488000DBCF06EF1FEFD8CF0097A1F04115510500
:1048900089F02115310571F0F90136966E177F0701
:1048A00048F0DC012D933C93DA01ED93FC9390E00A
:1048B00080E008958FEF9FEF0895AF92BF92CF925F
:1048C000DF92EF92FF920F931F93CF93DF930097A6
:1048D00009F45FC04115510509F45BC065307105ED
:1048E00008F457C02091FC05C7EFDFEF222391F1B8
:1048F000DC01CD90DC9011971296ED91FC91960120
:104900002A5F3F4FC9EFDFEF2617370719F5C09130
:10491000FD05D091FE05209749F521E030E0309368
:10492000FE052093FD057A018C01F0930006E093CB
:10493000FF055601B4E0AB0EB11CB50176DE0A0DE1
:104940001B1DF801208131818217930729F5D701BA
:10495000CD92DC92CE01DF91CF911F910F91FF900C
:10496000EF90DF90CF90BF90AF9008952091FF051A
:10497000309100062F5F3F4FCCEFDFEFE217F307D8
:1049800090F2CBEFDFEF2E173F0768F2D0E0C0E0E8
:10499000CACFCFEFDFEFDECFC3EFDFEFDBCF84E0B7
:1049A00090E0089582E090E008958CEF9FEF0895E5
:1049B00080E290E008951092020610920106109293
:1049C00000061092FF051092FE051092FD0590E082
:1049D00080E0089590937E0280937D0208958091F7
:1049E000FC05882391F0C5DD009789F4109202063A
:1049F00010920106109200061092FF051092FE051B
:104A00001092FD051092FC05089590E080E0089555
:104A1000009749F06115710531F0FC011182108297
:104A2000FB01118210820895F3CF26E030E040E8C8
:104A300055E260E070E090E080E000C081309105D8
:104A400069F01CF4892B39F008958230910549F002
:104A5000039751F0089588E196E0D9C585EB96E07B
:104A6000FCCF82E597E0F9CF8FEE97E0F6CF08957F
:104A700080E00895CF92DF92EF92FF920F931F9301
:104A800048D36093030670930406809305069093C1
:104A9000060600910706109108062091090630913C
:104AA0000A066B017C01C01AD10AE20AF30A9701D7
:104AB0008601003A16482140310508F16093070647
:104AC000709308068093090690930A06A2D021D31A
:104AD00000910706109108062091090630910A06F8
:104AE000601B710B820B930B603A764881409105F5
:104AF00070F081E090E090930E0680930D0681E0C7
:104B00001F910F91FF90EF90DF90CF90089510923A
:104B10000E0610920D06F3CF10920B06089568EE64
:104B200073E080E090E01AD390E080E0089526E002
:104B300030E040E050E16EE070E090E080E07EDF49
:104B400088E196E09AD4892B21F088E196E0AFD4F1
:104B5000F7CF90E080E00895CF92DF92EF92FF923E
:104B60000F931F93CF93DF936B017A01E9011982B1
:104B7000188288E196E081D4892B69F18601CC24E2
:104B8000C39482E0D82E80910B06811110C088E179
:104B900096E08DD40297B9F7C0920B06F801D19236
:104BA0008F0188819981019699838883ECCF8881D0
:104BB00099818E159F0578F488E196E078D48F3F2F
:104BC0009807A9F3F80181938F0188819981019653
:104BD00099838883ECCF90E080E0DF91CF911F91A3
:104BE0000F91FF90EF90DF90CF9008950F931F9358
:104BF000CF93DF93EA01890188E196E098D7F80125
:104C0000D183C08390E080E0DF91CF911F910F911D
:104C10000895CF92DF92EF92FF9280910C0691E07F
:104C2000980F90930C06882369F021E030E03093D0
:104C30000E0620930D0680930C06FF90EF90DF90F8
:104C4000CF900895E0918002F0918102C28CD38CC4
:104C5000E48CF58C0E942B03B701A60190E080E064
:104C60000E944B0280910C068150E5CF0F931F9359
:104C7000CF93DF931092320910923109A5D2D5DE7D
:104C8000C0918002D0918102198218826FEF7FEF6C
:104C9000CB010E94CE0270E060E090E080E00E94D4
:104CA0004F01009709F039C00E942D05F8947894BF
:104CB000BE016E5D7F4F8A819B810E945201892BCC
:104CC00059F46FEF7FEFCB010E94E1010E94C8020F
:104CD000882311F081E08EA3F894C9DE0E94CB02F4
:104CE000882311F080E008C00E94C8028111FACF29
:104CF00081E09EA19111F6CF809331090E94340D7D
:104D00008C0178948091310981110CC00E94C706F2
:104D10000E94AD02F89490E080E0DF91CF911F9166
:104D20000F9108950E94AB020E94CB028823D9F014
:104D300081E0809332099091320981E0911180E005
:104D40008093310980913209811192DE0130110581
:104D500029F40E94340D892B09F4DEDE0E94340D03
:104D60008C0188DECFCF0E94C8028111E1CF81E0A3
:104D70009EA19111DECF80E0DCCF5058BB27AA273F
:104D80000ED0DCC0CDD030F0D2D020F031F49F3F37
:104D900011F41EF4C2C00EF4E095E7FBB8C0E92F91
:104DA000DED080F3BA17620773078407950718F0FF
:104DB00071F49EF5F6C00EF4E0950B2EBA2FA02DDF
:104DC0000B01B90190010C01CA01A0011124FF27B8
:104DD000591B99F0593F50F4503E68F11A16F040B3
:104DE000A22F232F342F4427585FF3CF46953795B2
:104DF0002795A795F0405395C9F77EF41F16BA0B77
:104E0000620B730B840BBAF09150A1F0FF0FBB1F24
:104E1000661F771F881FC2F70EC0BA0F621F731F6D
:104E2000841F48F4879577956795B795F7959E3FCA
:104E300008F0B3CF9395880F08F09927EE0F979558
:104E40008795089540D008F481E00895E89409C05A
:104E500097FB3EF490958095709561957F4F8F4FAD
:104E60009F4F9923A9F0F92F96E9BB279395F695C3
:104E7000879577956795B795F111F8CFFAF4BB0F41
:104E800011F460FF1BC06F5F7F4F8F4F9F4F16C0A5
:104E9000882311F096E911C0772321F09EE8872F2F
:104EA000762F05C0662371F096E8862F70E060E0EB
:104EB0002AF09A95660F771F881FDAF7880F969564
:104EC000879597F90895990F0008550FAA0BE0E808
:104ED000FEEF16161706E807F907C0F012161306BC
:104EE000E407F50798F0621B730B840B950B39F4FC
:104EF0000A2661F0232B242B252B21F408950A2662
:104F000009F4A140A6958FEF811D811D089597F9A1
:104F10009F6780E870E060E008959FEF80EC08955F
:104F200000240A9416161706180609060895002488
:104F30000A9412161306140605060895092E039402
:104F4000000C11F4882352F0BB0F40F4BF2B11F476
:104F500060FF04C06F5F7F4F8F4F9F4F089557FDD5
:104F60009058440F551F59F05F3F71F04795880FD7
:104F700097FB991F61F09F3F79F08795089512166E
:104F800013061406551FF2CF4695F1DF08C016161A
:104F900017061806991FF1CF8695710561050894CB
:104FA0000895E894BB2766277727CB0197F90895E2
:104FB0008ADF08F48FEF08950BD0C0CFB1DF28F05F
:104FC000B6DF18F0952309F0A2CFA7CF1124EACFBE
:104FD000C6DFA0F3959FD1F3950F50E0551F629F58
:104FE000F001729FBB27F00DB11D639FAA27F00D42
:104FF000B11DAA1F649F6627B00DA11D661F829F69
:105000002227B00DA11D621F739FB00DA11D621F4D
:10501000839FA00D611D221F749F3327A00D611D6A
:10502000231F849F600D211D822F762F6A2F11244C
:105030009F5750408AF0E1F088234AF0EE0FFF1F9F
:10504000BB1F661F771F881F91505040A9F79E3FD6
:10505000510570F05CCFA6CF5F3FECF3983EDCF3D8
:10506000869577956795B795F795E7959F5FC1F713
:10507000FE2B880F911D9695879597F908951F929D
:105080000F920FB60F9211242F933F938F939F93FC
:10509000AF93BF938091100690911106A0911206D4
:1050A000B091130630910F0623E0230F2D3758F5EA
:1050B0000196A11DB11D20930F06809310069093B9
:1050C0001106A0931206B0931306809114069091D6
:1050D0001506A0911606B09117060196A11DB11DE7
:1050E0008093140690931506A0931606B0931706A6
:1050F000BF91AF919F918F913F912F910F900FBED4
:105100000F901F90189526E8230F0296A11DB11D40
:10511000D2CF3FB7F8948091140690911506A091D4
:105120001606B091170626B5A89B05C02F3F19F0AB
:105130000196A11DB11D3FBFBA2FA92F982F882717
:10514000BC01CD01620F711D811D911D42E0660FF2
:10515000771F881F991F4A95D1F708958F929F92C4
:10516000AF92BF92CF92DF92EF92FF926B017C01E0
:10517000D0DF4B015C01C114D104E104F104D9F08A
:1051800003D5C7DF681979098A099B09683E73400E
:105190008105910580F321E0C21AD108E108F108E8
:1051A00088EE880E83E0981EA11CB11CC114D104A6
:1051B000E104F10431F7FF90EF90DF90CF90BF90C2
:1051C000AF909F908F900895789484B5826084BD4D
:1051D00084B5816084BD85B5826085BD85B58160FB
:1051E00085BDEEE6F0E0808181608083E1E8F0E05B
:1051F0001082808182608083808181608083E0E88A
:10520000F0E0808181608083E1EBF0E08081846068
:105210008083E0EBF0E0808181608083E1E9F0E071
:10522000808182608083808181608083E0E9F0E01A
:10523000808181608083E1EAF0E080818260808308
:10524000808181608083E0EAF0E0808181608083FA
:10525000E1E2F1E0808182608083808181608083EF
:10526000E0E2F1E0808181608083EAE7F0E0808124
:10527000846080838081826080838081816080837C
:105280008081806880831092C100089581508231AE
:1052900008F059C0E82FF0E08827EF5AF64D8F4FFD
:1052A000A5C471297529632969296D29A32978293C
:1052B0007E29822988298C29902996299A29A3292F
:1052C0009E29A429A829809180008F77809380004F
:1052D0000895809180008F7DF9CF80918000877F35
:1052E000F5CF84B58F7784BD089584B58F7DFBCFCE
:1052F0008091B0008F778093B00008958091B000C6
:105300008F7DF9CF809190008F77809390000895E2
:10531000809190008F7DF9CF80919000877FF5CFAD
:105320008091A0008F778093A00008958091A000C5
:105330008F7DF9CF8091A000877FF5CF80912001EC
:105340008F77809320010895809120018F7DF9CF80
:1053500080912001877FF5CFCF93DF9390E0FC0110
:10536000E65DFE4F249180599E4FFC018491882375
:10537000C9F090E0880F991FFC01E651FE4FA591FE
:10538000B491FC01E053FE4FC591D49161110DC061
:105390009FB7F8948C91209582238C938881282341
:1053A00028839FBFDF91CF910895623051F49FB75A
:1053B000F8943C91822F809583238C93E8812E2B47
:1053C000EFCF8FB7F894EC912E2B2C938FBFEACFB1
:1053D0001F93CF93DF93282F30E0F901EC51FF4F5B
:1053E0008491F901E65DFE4FD491F901E059FE4F39
:1053F000C491CC23A1F0162F811148DFEC2FF0E0EF
:10540000EE0FFF1FE053FE4FA591B4918FB7F894B4
:10541000EC91111108C0D095DE23DC938FBFDF9192
:10542000CF911F910895DE2BF8CFCF93DF93282FD4
:1054300030E0F901EC51FF4F8491F901E65DFE4F38
:10544000D491F901E059FE4FC491CC2399F0811118
:105450001DDFEC2FF0E0EE0FFF1FEA54FE4FA59189
:10546000B491EC91ED2381E090E009F480E0DF91CC
:10547000CF91089580E090E0FACFFC01918D228DCC
:10548000892F90E0805C9F4F821B91098F73992731
:105490000895FC01918D828D981731F0828DE80F6F
:1054A000F11D858D90E008958FEF9FEF0895FC0129
:1054B000918D828D981761F0A28DAE0FBF2FB11D17
:1054C0005D968C91928D9F5F9F73928F90E008956F
:1054D0008FEF9FEF0895FC01538D448D252F30E011
:1054E000842F90E0821B930B541710F0CF960895F1
:1054F00001970895FC01A48DA80FB92FB11DA35ADF
:10550000BF4F2C91848D90E001968F739927848FE3
:10551000A689B7892C93A089B1898C918370806406
:105520008C93938D848D981306C00288F389E02DA7
:1055300080818F7D80830895CF93DF93EC01888DE8
:105540008823B1F0AA89BB89E889F9898C9185FD06
:1055500003C0808186FD0CC00FB607FCF7CF8C918D
:1055600085FFF2CF808185FFEDCFCE01C3DFEACF8B
:10557000DF91CF910895EF92FF920F931F93CF93F6
:10558000DF93EC0181E0888F9B8D8C8D98131AC07E
:10559000E889F989808185FF15C09FB7F894EE8965
:1055A000FF896083E889F9898081837080648083C2
:1055B0009FBF81E090E0DF91CF911F910F91FF900D
:1055C000EF900895F62E0B8D10E00F5F1F4F0F73B5
:1055D0001127E02E8C8D8E110BC00FB607FCFACF71
:1055E000E889F989808185FFF5CFCE0183DFF2CF8D
:1055F000EB8DEC0FFD2FF11DE35AFF4FF0829FB7AB
:10560000F8940B8FEA89FB8980818062D0CFCF929A
:10561000DF92EF92FF921F93CF93DF93EC016A0129
:105620007B01122FE889F98982E08083C11481EE21
:10563000D806E104F10499F060E079E08DE390E0B0
:10564000A7019601B1D2215031094109510956955E
:10565000479537952795211580E1380790F0E8891F
:10566000F989108260E874E88EE190E0A701960164
:105670009BD22150310941095109569547953795DB
:105680002795EC85FD853083EE85FF852083188E78
:10569000EC89FD891083EA89FB89808180618083A0
:1056A000EA89FB89808188608083EA89FB8980811F
:1056B00080688083EA89FB8980818F7D8083DF9188
:1056C000CF911F91FF90EF90DF90CF9008951F92A0
:1056D0000F920FB60F9211240BB60F922F938F9348
:1056E0009F93EF93FF93E0912806F0912906808124
:1056F000E0912E06F0912F0682FD1DC090818091D1
:1057000031068F5F8F7320913206821741F0E0914E
:105710003106F0E0E85EF94F958F80933106FF91F6
:10572000EF919F918F912F910F900BBE0F900FBE15
:105730000F901F9018958081F2CF1F920F920FB695
:105740000F9211240BB60F922F933F934F935F93B9
:105750006F937F938F939F93AF93BF93EF93FF9339
:1057600088E196E0C7DEFF91EF91BF91AF919F91E5
:105770008F917F916F915F914F913F912F910F90FA
:105780000BBE0F900FBE0F901F901895E8E1F6E04A
:105790001382128288EE93E0A0E0B0E084839583C8
:1057A000A683B78384E093E09183808385EC90E0C7
:1057B0009587848784EC90E09787868780EC90E0DB
:1057C000918B808B81EC90E0938B828B82EC90E0CC
:1057D000958B848B86EC90E0978B868B118E128E46
:1057E000138E148E08951F920F920FB60F921124EC
:1057F0000BB60F922F938F939F93EF93FF93E091AC
:10580000C506F091C6068081E091CB06F091CC06EA
:1058100082FD1DC090818091CE068F5F8F73209195
:10582000CF06821741F0E091CE06F0E0EB54F94F3D
:10583000958F8093CE06FF91EF919F918F912F913D
:105840000F900BBE0F900FBE0F901F901895808188
:10585000F2CF1F920F920FB60F9211240BB60F9238
:105860002F933F934F935F936F937F938F939F9368
:10587000AF93BF93EF93FF9385EB96E03BDEFF91F1
:10588000EF91BF91AF919F918F917F916F915F91B8
:105890004F913F912F910F900BBE0F900FBE0F9025
:1058A0001F901895E5EBF6E01382128288EE93E0E4
:1058B000A0E0B0E084839583A683B78384E093E07F
:1058C000918380838DEC90E0958784878CEC90E0C9
:1058D0009787868788EC90E0918B808B89EC90E0AD
:1058E000938B828B8AEC90E0958B848B8EEC90E08E
:1058F000978B868B118E128E138E148E08951F92A5
:105900000F920FB60F9211240BB60F922F938F9315
:105910009F93EF93FF93E0916207F091630780817B
:10592000E0916807F091690782FD1DC09081809128
:105930006B078F5F8F7320916C07821741F0E091A6
:105940006B07F0E0EE5AF84F958F80936B07FF914D
:10595000EF919F918F912F910F900BBE0F900FBEE3
:105960000F901F9018958081F2CF1F920F920FB663
:105970000F9211240BB60F922F933F934F935F9387
:105980006F937F938F939F93AF93BF93EF93FF9307
:1059900082E597E0AFDDFF91EF91BF91AF919F91CD
:1059A0008F917F916F915F914F913F912F910F90C8
:1059B0000BBE0F900FBE0F901F901895E2E5F7E019
:1059C0001382128288EE93E0A0E0B0E08483958396
:1059D000A683B78384E093E09183808385ED90E094
:1059E0009587848784ED90E09787868780ED90E0A7
:1059F000918B808B81ED90E0938B828B82ED90E098
:105A0000958B848B86ED90E0978B868B118E128E12
:105A1000138E148E08951F920F920FB60F921124B9
:105A20000BB60F922F938F939F93EF93FF93E09179
:105A3000FF07F09100088081E0910508F0910608C9
:105A400082FD1DC09081809108088F5F8F73209127
:105A50000908821741F0E0910808F0E0E151F84FA1
:105A6000958F80930808FF91EF919F918F912F91CF
:105A70000F900BBE0F900FBE0F901F901895808156
:105A8000F2CF1F920F920FB60F9211240BB60F9206
:105A90002F933F934F935F936F937F938F939F9336
:105AA000AF93BF93EF93FF938FEE97E023DDFF91CA
:105AB000EF91BF91AF919F918F917F916F915F9186
:105AC0004F913F912F910F900BBE0F900FBE0F90F3
:105AD0001F901895EFEEF7E01382128288EE93E0A4
